:0A007F007A007B007542FF740F55F4
:0700890049FC24FC50012298
:0C009000E547C423541FFD7E008D828EC6
:0E009C0083C002C003C00412103675822F12FA
:0C00AA00147A74075547FD7E008D828E8D
:0B00B6008312103675822F12147AADF1
:0C00C100487E008D828E831210367582FE
:0E00CD003D12147AD004D003D002BC011A7484
:0C00DB003F554BFD7E008D828E83C004DB
:0C00E700121036D004743F554BFDFA7B1C
:0100F300000C
:0C00F400BC0213AD4C7E008D828E83C0D8
:0A01000004121036D004AA4C7B0054
:0A010A00BC0329AC4C8C057C00AE50
:0C0114004D7F00EE2CF582EF3DF58312CC
:090120001036AC4C8C057C00AEDD
:0C0129004D7F00EE2CFCEF3DFD8C028DA4
:0101350003C6
:0E01360075820DC002C00312147A75820A127F
:09014400147AAC478C057C00AE76
:0C014D00487F00EE2CFCEF3DFD8C828D05
:0901590083120162158115812257
:0A016200C008858108C082C083E553
:0C016C00812406F5817C00A808080886A4
:0901780005E50824FCF8088606E0
:0E018100C006EC75F004A4FAABF08A82741A82
:0C018F002BF583E493FFA3E493FEA80883
:0E019B0008E6B5070908E6B506047401800100
:0101A900E471
:0E01AA00D006701FC0068A82741A2BF583E4FB
:0E01B80093FFA3E493FEE4BFFF04BEFF010427
:0701C600D006700302026283
:0C01CD00C208C006EC23235403FF741A80
:0C01D9002FFF743F5C25E025E0FBA80828
:0C01E500080808EB04F6E5082404F8EC18
:0C01F10075F004A4F608A6F08F04E508E1
:0901FD002406F874022BF6D0066A
:0A020600200857C00675E400E50863
:0E0210002404F88682741A0826F583E493FE0F
:0C021E00A3E493FAE4BEFF04BAFF01045D
:0C022A00D00660148FE78BE6A808088659
:0C023600E58FE7A80808080886E68DE5BB
:0A0242008CE7E5082406F886E6E5DF
:0C024C000824FCF886E58EE575E468E502
:08025800E420E0AAD20880A610
:020260007CFA26
:040262000CBCFA00D6
:050266005003020181BC
:06026B00850881D0082285
:0A027100C008858108AA82AB8375DE
:09027B0044BC901DFCE493FC8CD2
:0802840045901DFDE493FC8C84
:06028C00468B048C478A3A
:0A02920048A80818181874E026F5B3
:05029C0049754A00D085
:0202A100082231
:0A02A300C0088581080581AA82D2F7
:0A02AD00087B007C007D00A8080813
:0202B7007600CF
:0C02B900EA2422F88607BF3D030203463A
:0902C500C3EA9540400302034620
:0502CE00BF2F02801C9F
:0502D300BF2E028017A0
:0902D800200806ED75F00AA4FDF2
:0B02E100EA2422F8E624D0FF2DFDC225
:0302EC0008805334
:0A02EF00A8080806D2088D077E005B
:0C02F900EF2BFBEE3CFCEA2422F886060A
:0C030500BE2F1EA80808B60112ECC403AD
:0E03110054F8CBC403CB6BCB54F8CB6BFC8001
:01031F0020BD
:060320008B047B00801A33
:0C032600A80808B60110ECC454F0CBC4C9
:0A033200CB6BCB54F0CB6BFC8004C6
:04033C008B047B00B3
:020340007D003E
:040342000A0202B9F0
:0D0346007A00ED2BFBEA3CFC8B828C83855A
:050353000881D0082222
:040358007AFF7B00AD
:0A035C00C3EB9540500EEB2422F88D
:070366008604BC3D028B027E
:03036D000B80EC16
:030370008A82225C
:080373007584007585007A0015
:0E037B0075E400EA23235403FB741A2BF5E704
:0E038900743F5AFB25E025E0F5E675E5FF75AB
:0E039700E5FF75E5FF75E5FF75E4680ABAFA43
:0103A5000057
:0303A60040D3221F
:0C03A900AA827B007C007D007E007F00AB
:0E03B500C3EF9A501174CD2BFB741C3CFCE47A
:0803C3003DFDE43EFE0F80EA5F
:0E03CB00ECA2E7CB33CB33CB5401FCED2D4C31
:0E03D900FCEEA2E7CD33CD33CD54018CD28B98
:0503E700D375D1612275
:0403EC0075D1602245
:0C03F000C2AAC2AB90017C1205DEC2085C
:0203FC00C2003D
:0C03FE00308FFD900168C0211205DED098
:07040A0021A29492097A057A
:09041100A29482099209DAF8A212
:08041A0009E433FA300902D2B3
:0104220008D1
:020423007B025A
:05042500BB0002803362
:0C042A00308FFD90015EC002C003C021B5
:0C0436001205DED021D003D002A2949267
:03044200097C052D
:09044500A29482099209DCF8304E
:05044E000903EB2AFA8E
:05045300300902B208AF
:05045800EB2BFB80C846
:0B045D00308FFDC28EA29492097B0537
:09046800A29482099209DBF8A2BA
:0504710009200801B3A1
:040476005002D2005E
:03047A008A822251
:0C047D00C021C0E0C0F0C082C083C002FB
:0E048900C003C004C005C006C007C000C0010B
:0E049700C0D075D000C28EC2AAC2AB1203F054
:0E04A500AA829000C8C0021205A99005461256
:0804B30005DED002300023E554
:0C04BB005B700974F05AFBBBC0028007A4
:0704C700E55B2444F8A602E6
:0604CE00E55B7002F55C25
:0904D400EA625C055BD2AB800C0E
:0A04DD00755B00C2ABC28EC28F75C2
:0204E7005C00B7
:0C04E900C28BD2AAD201D0D0D001D0002A
:0E04F500D007D006D005D004D003D002D083AB
:09050300D082D0F0D0E0D021320A
:09050C00AA82D208C209D296901D
:0A051500005FC002C0211205A9D04A
:07051F0021D002C2967B000F
:03052600BB08000F
:0C052900505C9000D7C002C003C021123B
:0C05350005DED021D003D0028BF005F0D1
:03054100EA80024B
:02054400C313DF
:0C054600D5F0FB5401FCBC0104C20A808B
:0105520002A6
:02055300D20ACA
:0C055500308FFDA20A9296900064C00254
:08056100C003C0211205DED029
:0905690021D003D002200A0BB2DC
:03057200087C05FD
:05057500209402D209F0
:02057A00DCF9AA
:03057C002009084B
:08057F00308FFDC2960B809F36
:0905870020091A9000D4C02112D1
:0505900005A9D021A225
:0905950008929690005FC021124B
:06059E0005A9D021C29660
:0505A400C28EA2092235
:0E05A900AA82AB83C28E74FFC39AFA74FF9BC2
:0905B700FB8B8D8A8BC28FD28E62
:0605C000308FFDC28E2207
:0E05C600AA82AB83C28C74FFC39AFA74FF9BA7
:0A05D400FB8B8C8A8AC28DD28C2228
:0E05DE00AA82AB83C28E74FFC39AFA74FF9B8D
:0A05EC00FB8B8D8A8BC28FD28E220A
:0E05F60075950075911675924DC29675891116
:0E060400758F00C28CC28E75D20E75D3A07594
:0C061200D161C20175A80075E800C2AB00
:0E061E00C2A8D2AAD2AF75B80C75B70C75F889
:07062C000075F700D28A22DD
:0400000002002332A5
:01000B0032C2
:0300130002047D67
:03001B0002148349
:03007C0002001E61
:05001E0012063380FE14
:0A063300C008E581F508240FF581E9
:07063D001205F61215FF1271
:0A0644000373D286D2877541FF755B
:06064E004200754300901C
:0E0654001DFEE493FA740193FB8A828B8312DD
:060662000FDC754000C230
:08066800089016B575F080C082
:0506700021121163D00E
:0C06750021901DFEE493FA740193FBBA7F
:070681006005BB000280349C
:0E068800901DFEE493FA740193FBBAC005BB0B
:0406960000028022BC
:0E069A00901DFEE493FA740193FBBA8005BB39
:0406A80001028010BB
:0E06AC00901DFEE493FA740193FBBA401ABB52
:0206BA00021725
:0E06BC00901DFEE493FA740193FB8A828B83F7
:0606CA00C021121036D021
:0306D00021800D79
:0906D3009016D875F080C02112C8
:0406DC001163D021B5
:0906E0009016DD75F080C02112B6
:0406E9001163D021A8
:0A06ED00D54118E5427004D2878061
:0106F70004FE
:0406F8001542C2875E
:0806FC00E5437004D28680047E
:040704001543C28651
:0C070800309859AA99754340BA08028045
:010714000FD5
:05071500BA0A02802673
:0A071A00BA0D0FD2087543FF801CD2
:08072400E54060181540801447
:08072C00E5402422F8A60205B5
:0807340040E54024E15003758B
:02073C00401E5D
:02073E00C208EF
:0E074000C298901DFBE493FB601A8A82C002EF
:06074E00C02112147AD054
:0A07540021D002BA0D0A75820AC016
:05075E002112147AD005
:010763002174
:0A0764003008867466B52202800397
:03076E00020FBEB9
:070771007462B5230280034E
:03077800020FBEAF
:07077B007473B52402800332
:03078200020E0460
:070785007430B5250280036A
:03078C000208253B
:07078F007431B5260280035E
:0307960002082531
:0A079900E5402420F88602BA3D0274
:0207A3008003D1
:0307A50002082522
:0A07A800E540142422F88602BA305E
:0307B20002800BB7
:0A07B500E540142422F88602BA3150
:0107BF0065D4
:0C07C0007582061202A3AA82AB83A8086F
:0C07CC000808A60208A6037401C0E0A8FB
:0C07D8000808088682088683120271154A
:0A07E40081E540142422F88604BCCD
:0807EE0031067C017D0080044E
:0407F6007C007D0006
:0C07FA008C0674802EF54BC2AAC004C00F
:0D0806000512153FD2AA9016E775F080127A
:0C0813001163A80808088682088683127A
:06081F0001621581158144
:070825007430B525028003C9
:03082C00020B5963
:07082F007435B526028003B9
:03083600020B5959
:0D083900120358E58204FA758206C002120F
:0C08460002A3AF82AE83A8080808A60732
:0C08520008A6067403C0E0A80808088689
:0C085E00820886831202711581D0027599
:0A086A004B80EA2422F88606BE3017
:010874000083
:070875004005EE24C6500D02
:0D087C008A067F0074012EFBE43FFC80041F
:040889008A037C0062
:0C088D00E5082404F8E4F608F608F60874
:0B089900F6E508240AF8A60308A604F0
:0A08A400AE407F00E508240AF8C307
:0E08AE00E69E08E664808FF063F08095F040CF
:0408BC000302094AE0
:0A08C000E508240AF9E72422F8866F
:0608CA0003BB2E02807A40
:0508D000BB2C02807545
:0C08D500C002C003E5082404F8E6C0E0FF
:0D08E10008E6C0E008E6C0E008E6C0E090D0
:0E08EE00000AE4F5F0121641AC82AD83AEF0C4
:0C08FC00FFE58124FCF581D003D002E56B
:0C090800082404F8A60408A60508A606AA
:0E09140008A6078B067F00EE24D0FEEF34FF0E
:0C092200FF3395E0FBFCE5082404F8EE30
:0E092E0026F6EF0836F6EB0836F6EC0836F63D
:0B093C00E508240AF806B600020806D1
:030947000208A4FF
:0C094A00E508240AF8740126FBE40836D6
:0C095600FCC002C003C004E5082404F843
:0E096200E6C0E008E6C0E008E6C0E008E6C037
:0D097000E090000AE4F5F0121641C0E0E549
:0C097D0008240CF8D0E0A68208A683082D
:0E098900A6F008F6E58124FCF581D004D00329
:0A099700D002E508240CF8E508245E
:0E09A10004F9E6F70809E6F70809E6F7080981
:0C09AF00E6F7AE407F00C3EB9EEC6480D6
:0C09BB008FF063F08095F0503EEB24229A
:0E09C700F886067F00EE24D0FEEF34FFFFE539
:0C09D50008240CF8A60608A607EF3395CE
:0B09E100E008F608F6E5082404F8E53D
:0C09EC0008240CF9E726F609E70836F6A7
:0A09F80009E70836F609E70836F6AD
:050A02000BBB00010C1C
:0C0A0700C002C003C004E5082404F8E6A7
:0E0A1300C0E008E6C0E008E6C0E008E6C0E08B
:0C0A210090000AE4F5F0121641C0E0E578
:0C0A2D0008240CF8D0E0A68208A683087C
:0E0A3900A6F008F6E58124FCF581D004D00378
:0A0A4700D002E508240CF8E50824AD
:0E0A510004F9E6F70809E6F70809E6F70809D0
:0C0A5F00E6F7AE407F00C3EB9EEC648025
:0C0A6B008FF063F08095F05029EB2422FE
:0E0A7700F886067F00EE24D0FEEF34FFFF333A
:0C0A850095E0FBFCE5082404F8EE26F6E2
:0C0A9100EF0836F6EB0836F6EC0836F6F7
:040A9D007B007C005E
:0C0AA100E5082404F8C374FF96740708ED
:0C0AAD0096E40896E40896501EE5082424
:0E0AB90004F8080808E6C313F618E613F6184A
:0D0AC700E613F618E613F674082CFC80CD3B
:0C0AD400C003C004EA2422F88606E4BE39
:030AE0002D0104E1
:0C0AE300D004D003603AE5082404F8E4D5
:0E0AEF00C396F674080896F6E40896F6E40836
:0C0AFD0096F68B02ECFD3395E0FEFFE561
:0C0B0900082404F8EA26FAED0836FDEE98
:0E0B15000836FCEF08368D0374802BFB801E23
:0C0B2300EC3395E0FAFDE5082404F8EB43
:0E0B2F0026FFEC0836FCEA0836FEED0836FD1F
:040B3D008F028C0394
:0A0B41008B068E4C8A068E4DC2AA68
:0C0B4B0012153FD2AA9016E775F0801238
:020B5700116328
:070B59007430B52502800392
:030B6000020C077D
:070B63007436B52602800381
:030B6A00020C0773
:0C0B6D007582061202A3AE82AF83A808B6
:0E0B79000808A60608A607120358E58204FA2B
:0C0B8700C0027402C0E0A80808088682C2
:0C0B93000886831202711581D002754B98
:070B9F00807C007D008A0646
:0C0BA600C3EE95405033C006C004C005EB
:0E0BB20090000A121603AF82AA8315811581E6
:0C0BC000D0068F048A05EE2422F886027D
:0E0BCC007B00EA24D0FAEB34FFFBEA2CFCEBB2
:050BDA003DFD0E80C787
:0B0BDF008C068E4CC2AAC004C0051298
:0B0BEA00153FD2AA9016E775F08012AC
:0C0BF5001163A808080886820886831295
:060C01000162158115815E
:070C07007431B525028003E2
:030C0E00020CD500
:070C11007435B526028003D3
:030C1800020CD5F6
:0C0C1B007582061202A3AE82AF83A80807
:0E0C27000808A60608A607120358E58204FA7C
:0C0C3500C002740FC0E0A8080808868206
:0C0C41000886831202711581D002754BE9
:0B0C4D0080E5082408F87608E408F6AB
:0C0C5800E5082408F8C3E6941608E664DA
:0C0C6400809480505C8A067F00E5082424
:0E0C700008F8E62EFE08E63FFFEE24F8FBEF44
:0C0C7E0034FFFCAE407F00C3EB9EEC6432
:0C0C8A00808FF063F08095F0400DE508CD
:0B0C96002408F8E62444F876008017DC
:0A0CA100E5082408F9E72444F8E50B
:0A0CAB00082408F9E72A241AF98743
:030CB50006A6068A
:0B0CB800E5082408F806B60002080654
:020CC30080931C
:0E0CC500C2AA12153FD2AA9016E775F080124F
:020CD3001163AB
:0A0CD5007470B525287461B526235C
:0E0CDF007582051202A3AE82AF8375E4007524
:0D0CED00E71D75E6FC8FE58EE575E4689067
:080CFA0016E775F0801211638A
:070D02007462B525028003B5
:030D0900020E04D3
:070D0C007472B5260280039A
:030D1300020E04C9
:0C0D1600E4FAFBE54024F74003020DABBB
:0A0D2200C002C003E5402420F8865B
:060D2C0006E4BE300104E4
:0C0D3200D003D0026073C002C003E54093
:0B0D3E00142422F88606E4BE300104F5
:0B0D4900D003D002605CA8080876050B
:0C0D5400AF407E00EF24FEFCEE34FFFDFB
:0C0D6000A8080886067F00C3EE9CEF6424
:0E0D6C00808DF063F08095F05035C002C0031A
:0E0D7A0090000A121603AE82AF831581158118
:0A0D88008E028F03A90809E7242258
:0E0D9200F886067F00EE24D0FEEF34FFFFEE61
:0B0DA0002AFAEF3BFBA808080680A918
:080DAB00BA6005BB0002801EC6
:080DB300BAC005BB0002801666
:080DBB00BA8005BB0102800EA5
:080DC300BA4005BB02028006E4
:060DCB00BA802DBB042AD2
:0E0DD10075E40075E71D75E6FE8AE58BE57595
:0D0DDF00E4689016E775F080C002C00312B2
:0E0DEC001163D003D0028A828B83120FDC8049
:010DFA0009EF
:090DFB009016EB75F080121163F3
:070E04007472B524028003A3
:030E0B00020EEBE9
:0A0E0E007470B525507461B5264BD1
:0E0E1800901DFCE493C4540FFE7F008E828F69
:0B0E26008312103675822E12147A9091
:0E0E31001DFCE493FE53060F7F008E828F831C
:0A0E3F0012103675822E12147A90FC
:0E0E49001DFDE493FE7F008E828F8312103613
:0C0E570075820D12147A75820A12147A4A
:070E63007467B5250280034E
:030E6A00020EEB8A
:0C0E6D007461B526797582051202A3AEEF
:0C0E790082AF83A8080808A60608A60798
:060E85007E007CFF7DFFF2
:0E0E8B00C004C005EE75F004A4FFAAF08F822B
:0C0E9900741A2AF583E493FBA3E493FC95
:0C0EA500A8080808E6B5030908E6B50433
:050EB100047401800142
:010EB600E457
:0C0EB700D005D0046017741A2AFA8F824C
:0E0EC3008A83A3A3E493FAA3E493FB8A048B2F
:030ED100057EFF9C
:0E0ED4000EEE70B38C828D8312103675820D77
:090EE20012147A75820A12147AC6
:070EEB007464B524028003CA
:030EF200020F7E6E
:070EF5007475B525028003AE
:030EFC00020F7E64
:0A0EFF00746DB5267A7470B527757E
:070F09007406B540707A0088
:0E0F10008A82C0021211A975823A12147A75F3
:0E0F1E00822012147AD002EA75F004A4FBAC13
:0C0F2C00F08B82741A2CF583E493FDA373
:0E0F3800E493FE8D828E83C002C003C00412BB
:0D0F460013AB75822012147AD004D003740E
:0C0F53001A2CFC8B828C83A3A3E493FB7C
:0E0F5F00A3E493FC8B828C831213AB75820D7E
:0E0F6D0012147A75820A12147AD0020ABAFAA5
:010F7B000075
:020F7C004092A1
:0A0F7E007465B5243B7463B5253695
:0A0F88007468B52631746FB5272C8C
:0A0F9200743DB528277408B540220D
:0C0F9C0075E40075E71D75E6FB7430B5C8
:070FA800290575E500800337
:030FAF0075E501E4
:0C0FB20075E4689016E775F0801211637A
:020FBE007A00B7
:030FC000BA140060
:0B0FC3005009EA2422F876000A80F2B0
:060FCE00754000C208029C
:060FD40006ED850881D046
:020FDA000822EB
:0E16B5006B75626927732072732D696E746500
:0E16C30072666163652056312E3034207265E8
:0716D1006164792040200054
:0516D800313135320044
:0A16DD00303020426175642E0A00CF
:0416E7004F4B0A005B
:0E16EB006572726F723A20756E6B6E6F776E5D
:0C16F900206261756472617465210A0052
:0C0FDC00AA82AB83BA6005BB000280183B
:080FE800BAC005BB000280162F
:080FF000BA8005BB0102801468
:080FF800BA401DBB021A801271
:061000007AF07B0280166D
:061006007A707B018010EE
:06100C007AB07B00800AAF
:061012007A707B008004EF
:041018007A307B00AF
:0E101C0053BDFE5391FC5392FC75985043BA9D
:0C102A004043BD028BBF8ABE43BD0122C3
:0A103600C00885810805810581AA24
:0C10400082AB83D2087C007D008A068B06
:01104C00079C
:0E104D00C3EE9410EF942740130CBC00010D6D
:0E105B00EE24F0FEEF34D8FF8E028F0380E407
:0D1069008E028F03EC4D600C74302CF59955
:0510760010990280FB4F
:02107B00C208A9
:08107D007C007D008A068B0750
:0E108500C3EE94E8EF940340130CBC00010D81
:0E109300EE2418FEEF34FCFF8E028F0380E483
:0C10A100A80808A60408A6058E028F030C
:0710AD00EC4D700320081157
:0A10B400A80808860474302CF59992
:0510BE0010990280FB07
:0210C300C20861
:0810C5007C007D008A068B0708
:0E10CD00C3EE9464EF940040130CBC00010DC0
:0E10DB00EE249CFEEF34FFFF8E028F0380E4B4
:0C10E900A80808A60408A6058E028F03C4
:0710F500EC4D70032008110F
:0A10FC00A80808860474302CF5994A
:0511060010990280FBBE
:02110B00C20818
:08110D007C007D008A068B07BF
:0E111500C3EE940AEF940040130CBC00010DD1
:0E112300EE24F6FEEF34FFFF8E028F0380E411
:0C113100A80808A60408A6058E028F037B
:07113D00EC4D700320080FC8
:0A114400A80808860474302CF59901
:05114E0010990280FB76
:0511530074302AF5993B
:0511580010990280FB6C
:06115D00850881D0082284
:08116300AA82AB83ACF07D0011
:0E116B00ED2AFEE43BFF8C008E828F8388F01D
:0C117900121625FE6029BE0A0875990DAB
:0511850010990280FB3F
:0E118A00ED2AFEE43BFF8C008E828F8388F0FE
:05119800121625F59977
:05119D0010990280FB27
:0611A2000DED240150C315
:0111A8002224
:0A11A900C008E581F5082410F58167
:0C11B300AA82A808087630E804F9773119
:0E11BF00740228F97732740328F97733740428
:0E11CD0028F97734740528F97735740628F967
:0E11DB007736740728F97737740828F97738C3
:0E11E900740928F97739740A28F97741740BD4
:0E11F70028F97742740C28F97743740D28F913
:0E1205007744740E28F97745740F28F9774660
:0D121300EAC4540F28F98782C002C00012FF
:0E122000147AD000D00253020FEA28F886821A
:07122E0012147A850881D03B
:0212350008228D
:0A123700C008858108C082C083C092
:0C124100F0C0E0E5812414F581E50824EC
:0E124D0005F87630E804F97731740228F97755
:0E125B0032740328F97733740428F977347459
:0E1269000528F97735740628F97736740728BA
:0E127700F97737740828F97738740928F97761
:0E12850039740A28F97741740B28F9774274FE
:0E1293000C28F97743740D28F97744740E285F
:0C12A100F97745740F28F97746A9080971
:0E12AD00090909E7C4540FFE53060FE4EE28AA
:0C12BB00F98782C00012147AD000A90844
:0E12C70009090909870253020FEA28F98782F4
:0C12D500C00012147AD000A90809090911
:0E12E100870209E7C4CAC4540F6ACA540FCA70
:0E12EF006ACA53020FE4EA28F98782C000128F
:0C12FD00147AD000A908090909870253DF
:0E130900020FEA28F98782C00012147AD00081
:0C131700A9080909870209E7C4CAC454E8
:0E1323000F6ACA540FCA6ACAFB09E7C454F025
:0E1331004BE7C4540F53020FE4EA28F98782F9
:0C133F00C00012147AD000A90809098728
:0E134B000253020FEA28F98782C00012147ABA
:0C135900D000A90809870209E7C4CAC433
:0E136500540F6ACA540FCA6ACAFB09E7C4547F
:0E137300F04B870409E7C4CCC4540F6CCC5473
:0E1381000FCC6CCC53020FE4EA28F98782C02F
:0C138F000012147AD000A90809740F574E
:0C139B00FAE4EA28F8868212147A850829
:0413A70081D00822C7
:0A13AB00C008E581F5082410F58163
:0C13B500AA82AB83A808087630E804F98F
:0E13C1007731740228F97732740328F97733F4
:0E13CF00740428F97734740528F9773574060C
:0E13DD0028F97736740728F97737740828F94D
:0E13EB007738740928F97739740A28F97741A0
:0E13F900740B28F97742740C28F97743740DB1
:0E14070028F97744740E28F97745740F28F9F8
:0E1415007746EBC4540F28F98782C002C0034B
:0E142300C00012147AD000D0038B0453040FC3
:0E143100EC28F98782C003C00012147AD000A4
:0E143F00D003D0028A04EBC4CCC4540F6CCC92
:0E144D00540FCC6CCC53040FEC28F98782C0EE
:0E145B0002C003C00012147AD000D003D002E9
:0C14690053020FEA28F8868212147A85DC
:051475000881D00822EF
:03147A00858299CF
:05147D0010990280FB44
:011482002247
:0C148300C021C0E0C0F0C082C083C002E5
:0E148F00C003C004C005C006C007C000C001F5
:0D149D00C0D075D000C2AAC2AB9012DE1202
:0814AA0005DE75422074FFB558
:0814B2005C24754280740F55A3
:0A14BA0049FA74805549FBBB801409
:0314C400BA01006A
:0A14C700400FE54A700B74C0554B4E
:0714D100FABA800312007F4C
:0A14D800755B00C28BD2AAC28E75AC
:0C14E2005C00D0D0D001D000D007D006B4
:0E14EE00D005D004D003D002D083D082D0F03D
:0514FC00D0E0D0213218
:061501007A007B00C20825
:0A1507003094070ABA00230B80207D
:0C151100C002C003C0211203F0AC82D065
:0A151D0021D003D002BCCC0C30003A
:0A15270009D2087AB87B0B754280E8
:0C153100C3EA94B8EB6480948B40CBA21A
:02153D00082282
:09153F00C00885810805817A00CD
:0A1548007B00A80808740F5549F64F
:0E15520090495CC002C0031205DED003D00237
:0E156000208F132094FA90495CC002C0031241
:08156E0005DED003D00280EA83
:04157600C28E7D00A4
:0C157A00C002A8080886067F0074062E38
:0E158600FEE43FFF8D027C00C3EE9AEF64800E
:0D1594008CF063F08095F0D002402DED2426
:0B15A10044F88682C002C003C005129F
:0C15AC00050CD005D003ED2444F8E662E5
:0E15B800039004CEC003C0051205A9D005D0D3
:0615C60003D0020D80AE0F
:0E15CC00EBF4F582C00212050C121501D002DC
:0415DA0050027A033E
:0A15DE000A74DF5544F544EA24FCCA
:0515E80040030215485C
:0615ED00850881D00822F0
:0615F300208F03208EFA98
:0615F9007582CC02050C16
:0415FF00755B0022F6
:06005200E478FFF6D8FD82
:080030007900E94400601B7A2D
:0500380000901705789F
:03003D000075A0AB
:0A00400000E493F2A308B8000205E3
:08004A00A0D9F4DAF275A0FF61
:0E16030074FE2581F8E68582F0A4C0E08582A1
:0E161100F018E6A4F582D0E025F0C58386F03F
:06161F00A42583F58322DF
:080058007800E84400600A7919
:030060000075A088
:0600630000E4F309D8FCE3
:080069007800E84400600C7906
:0B00710000900000E4F0A3D8FCD9FAD6
:0300230075815C88
:0A0026001216B1E582600302001E0D
:0E16250020F71430F6148883A88220F507E61B
:06163300A883758300226C
:03163900E280F755
:03163C00E4932212
:02163F00E022A7
:0E164100AAF0FB74FB2581F8E58286F0A9F083
:0E164F0008A4FCADF0E58389F0A42DFDE43580
:0E165D00F0FEE58286F0A42DFDE5F03EFEE4F1
:0E166B0033FFEA89F0A42EFEE5F03FFFE58391
:0E16790086F0A42EFEE5F03FFFE5820886F025
:0E168700A42EFEE5F03FFFEB89F0A42FFFE557
:0E1695008386F0A42FFFEA1886F0A42FFFE54D
:0E16A30082080886F0A42F8EF08D838C8222A0
:0416B100758200221C
:00000001FF
