:0C007F00E4FAFB740F5527FCBC0177E588
:0C008B0025C423541FFD7E008D828E834F
:0A009700C004120F93D00475992ED7
:0500A10010990280FB34
:0C00A60074075525FD7E008D828E83C0FE
:0900B20004120F93D00475992E7D
:0500BB0010990280FB1A
:0B00C000AD267E008D828E83C00412EE
:0700CB000F93D00475993D6D
:0500D20010990280FB03
:0C00D700740F5529FD7E008D828E83C0C1
:0C00E30004120F93D004740F5529FDFA8D
:0500EF007B0075990D76
:0500F40010990280FBE1
:0300F90075990AEC
:0500FC0010990280FBD9
:0C010100BC0260E525C423541FFC7D00F7
:0A010D008C828D83120F9375992EDA
:0501170010990280FBBD
:0C011C0074075525FC7D008C828D831239
:050128000F9375992EF4
:05012D0010990280FBA7
:0C013200AC267D008C828D83120F93752B
:02013E00993DE9
:0501400010990280FB94
:0C014500AC2A7D008C828D83120F93AADF
:060151002A7B0075990DE8
:0501570010990280FB7D
:03015C0075990A88
:05015F0010990280FB75
:0A016400AC258C057C00AE267F0060
:0E016E00EE2CFCEF3DFDC002C0038C828D83A1
:08017C00120184158115812296
:0A018400C008858108C082C083E531
:0C018E00812407F5817C00A80808088681
:09019A0005E50824FCF8088606BE
:0E01A300C006EC75F004A4FAABF08A82741A60
:0C01B1002BF583E493FFA3E493FEA80861
:0E01BD0008E6B5070908E6B5060474018001DE
:0101CB00E44F
:0E01CC00D006701FC0068A82741A2BF583E4D9
:0E01DA0093FFA3E493FEE4BFFF04BEFF010405
:0701E800D00670030202CDF6
:0C01EF00C208C006EC23235403FF741A5E
:0C01FB002FFF743F5C25E025E0FBA80806
:0C020700080808EB04F6E5082404F8ECF5
:0C02130075F004A4F608A6F08F04E508BE
:0C021F002406F874022BF6E5082407F80A
:06022B0074032BF6D0065F
:060231003008030202CBBD
:0D023700C006C003C004C005C006C007C05B
:0502440021120522D08B
:0C02490021D007D006D005D004D003E57A
:0C025500082404F88682741A0826F58339
:0E026100E493FEA3E493FAE4BEFF04BAFF01A7
:01026F00048A
:0C027000D00660148FE78BE6A808088613
:0C027C00E58FE7A80808080886E68DE575
:0A0288008CE7E5082406F886E6E599
:0A0292000824FCF886E58CE7E50877
:0E029C002407F886E68EE5C003C004C005C046
:0902AA0006C007C021120526D090
:0C02B30021D007D006D005D004D003E510
:0702BF00E430E0030202310C
:0502C600D20802023124
:0202CB007CFFB6
:0702CD000CEC60030201A329
:0602D400850881D008221C
:0202DA007A3276
:0E02DC0090FFFFC00212054CD002DAF47A0047
:0E02EA00C002120522D002EA23235403FB7443
:0E02F8001A2BFB8BE7743F5A25E025E0FC8CA7
:0E030600E675E5FF8BE7EC04F5E675E5FFC054
:0B03140002120526D0020AEA70CC227B
:0C031F00AA827B007C007D007E007F0035
:0E032B00C3EF9A501174CD2BFB741C3CFCE404
:080339003DFDE43EFE0F80EAE9
:0E034100ECA2E7CB33CB33CB5401FCED2D4CBB
:0E034F00FCEEA2E7CD33CD33CD540130E002F9
:02035D0044FE5C
:08035F008CD28BD375D1612211
:0403670075D16022CA
:0C036B00C2AAC2AB90017C120581C2083E
:02037700C200C2
:0C037900308FFD900168C021120581D07A
:0703850021A29492097A0500
:09038C00A29482099209DAF8A298
:0803950009E433FA300902D239
:01039D000857
:02039E007B02E0
:0503A000BB00028033E8
:0C03A500308FFD90015EC002C003C0213B
:0C03B100120581D021D003D002A294924A
:0303BD00097C05B3
:0903C000A29482099209DCF830D4
:0503C9000903EB2AFA14
:0503CE00300902B20835
:0503D300EB2BFB80C8CC
:0B03D800308FFDC28EA29492097B05BD
:0903E300A29482099209DBF8A240
:0503EC0009200801B327
:0403F1005002D200E4
:0303F5008A8222D7
:0C03F800C021C0E0C0F0C082C083C00281
:0E040400C003C004C005C006C007C000C00190
:0E041200C0D075D000C28EC2AAC2AB12036B5E
:0E042000AA829000C8C00212054C9005461238
:08042E000581D002300023E536
:0C04360039700974F05AFBBBC00280074B
:07044200E5392422F8A602AF
:06044900E5397002F53AEE
:09044F00EA623A0539D2AB800AD9
:0A045800753900C2ABC28F753A007F
:0C046200C28BD2AAD201D0D0D001D000B1
:0E046E00D007D006D005D004D003D002D08332
:09047C00D082D0F0D0E0D0213292
:09048500AA82D208C209D29690A5
:0A048E00005FC002C02112054CD02F
:0704980021D002C2967B0097
:03049F00BB080097
:0C04A200505C9000D7C002C003C02112C3
:0C04AE000581D021D003D0028BF005F0B6
:0304BA00EA8002D3
:0204BD00C31367
:0C04BF00D5F0FB5401FCBC0104C20A8013
:0104CB00022E
:0204CC00D20A52
:0C04CE00308FFDA20A9296900064C002DC
:0804DA00C003C021120581D00E
:0904E20021D003D002200A0BB264
:0304EB00087C0585
:0504EE00209402D20978
:0204F300DCF932
:0304F500200908D3
:0804F800308FFDC2960B809FBE
:0905000020091A9000D4C0211258
:05050900054CD021A209
:09050E0008929690005FC02112D2
:06051700054CD021C29644
:05051D00C28EA20922BC
:0405220075E400225A
:0405260075E46822EE
:0A052A00C008858108E582FA24FE6E
:0C0534004013741C2AF5E7A808181818DA
:0905400086E6E50824FCF886E5D6
:03054900D00822B5
:0E054C00AA82AB83C28E74FFC39AFA74FF9B1F
:09055A00FB8B8D8A8BC28FD28EBF
:06056300308FFDC28E2264
:0E056900AA82AB83C28C74FFC39AFA74FF9B04
:0A057700FB8B8C8A8AC28DD28C2285
:0E058100AA82AB83C28E74FFC39AFA74FF9BEA
:0A058F00FB8B8D8A8BC28FD28E2267
:0E05990075950075911475924CC29675891176
:0E05A700758F00C28CC28E75D20E75D3A075F2
:0C05B500D161C20175A80075E800D2AF4A
:0E05C100C2A8D2AA75B80C75B70C75F80075F3
:0505CF00F700D28A22B2
:0400000002002332A5
:01000B0032C2
:030013000203F8ED
:03001B00021401CB
:03007C0002001E61
:05001E001205D480FE74
:0A05D400C008E581F5082418F58140
:0705DE001205991215AD1280
:0605E50002DA120F7AA8F1
:0805EB000808087600C208C2EE
:0805F300099015FF75F080C0AE
:0505FB00211210C0D028
:070600002175820DC02112DB
:0806070013F8D02175820AC02E
:05060F00211213F8D0D8
:0106140021C4
:0A06150030982EAB99BB0A02800753
:07061F00BB0D0BD208801E89
:0706260030081BD209801708
:0A062D00E5082403FBA9080909E70A
:0A0637002BF8A699A808080806C2CF
:0306410008C209E3
:02064400C2985A
:0A0646003009CCE5082403F8860310
:05065000BB66028003FF
:03065500020C8410
:0A065800E804F98703BB6202800387
:03066200020C8403
:0B066500740228F98703BB73028003B6
:030670000208D5A8
:0E067300740328FBC000A8038603D000BB3030
:03068100028003F1
:030684000208D594
:0E068700740428FBC000A8038603D000BB311A
:03069500028003DD
:030698000208D580
:0E069B00740528FBC000A8038603D000BB2F07
:0306A900028003C9
:0306AC000208D56C
:0E06AF00740828FBC000A8038603D000BB2FF0
:0306BD00028003B5
:0306C0000208D558
:0E06C300740A28FBC000A8038603D000BB2FDA
:0306D100028003A1
:0306D4000208D544
:0E06D700740E28FBC000A8038603D000BB3DB4
:0306E5000280038D
:0306E8000208D530
:0E06EB00740F28FBC000A8038604D000BC30AA
:0306F90002800874
:0506FC00BC3102800387
:030701000208D516
:0E070400C001740628FCC000A8048604D000C2
:0E0712007D00EC24D0FCED34FFFDC003C000E0
:0E072000C001C004C00590000A1215BDAC82D5
:0E072E00AD8315811581D001D000D003740772
:0E073C0028FEC000A80686067F00EE24D0FE30
:0C074A00EF34FFFFEE2CFCEF3DFDE50856
:0C0756002417F8A60408A605E5082417DF
:0E076200F808E618C40354F8C6C403C666C6F9
:0E07700054F8C66608F6D000740928FEC000D2
:0E077E00A80686067F00EE24D0FEEF34FFFFB3
:0C078C00E5082417F8EE26F6EF0836F614
:0C079800E5082417F8E608F6187600D0F3
:0E07A40000740B28FEC000A8068606D0007F59
:0E07B20000EE24D0FEEF34FFFFC003C000C0F5
:0E07C00001C006C0079000641215BDAE82AFE6
:0E07CE008315811581D001D000D003C000E555
:0C07DC00082417F8EE26FCEF0836FDD0CC
:0E07E80000740C28F987027E00EA24D0FAEE95
:0E07F60034FFFEC003C004C005C000C001C037
:0E08040002C00690000A1215BDAA82AE83152E
:0E081200811581D001D000D005D004D003EABA
:0E0820002CFCEE3DFD740D28F987077A00EFE1
:0E082E0024D0FFEA34FFFAEF2CFFEA3DFAC0B7
:0C083C0000E5082417F8A60708A60275BE
:0908480022BC901D17E493FA8A0A
:0808510023901D18E493FA8ABC
:0A08590024E5082417F80886028A37
:0908630025E5082417F886028A35
:05086C00267527E1756F
:0C0871002800A8038602D000E4BA310180
:01087D000476
:07087E00D001600375298120
:0C088500C000A8038602D000BA30037542
:020891002980BC
:0C089300740F5529FA7B00C2AAC002C0F5
:0E089F0003C000C0011214C7D2AA1213D7D092
:0E08AD0001D000D003D002C000C001C002C0C4
:0C08BB0003C000E5082417F886820886B8
:0E08C70083D00012018415811581D001D0006C
:0708D5008706BE73028003D9
:0308DC00020B12FA
:0E08DF00740328FEC000A8068606D000BE30B6
:0308ED0002800383
:0308F000020B12E6
:0E08F300740428FEC000A8068606D000BE369B
:030901000280036E
:03090400020B12D1
:0E090700740528FEC000A8068606D000BE2F8C
:030915000280035A
:03091800020B12BD
:0E091B00740828FEC000A8068606D000BE2F75
:0309290002800346
:03092C00020B12A9
:0E092F00740A28FEC000A8068606D000BE2F5F
:03093D0002800332
:03094000020B1295
:0E094300740E28FEC000A8068606D000BE3D39
:030951000280031E
:03095400020B1281
:0E095700C001740628FEC000A80686067F00B8
:0E096500EE24D0FEEF34FFFFC001C006C00735
:0E09730090000A1215BDAA82AB831581158172
:0E098100D001D000740728F987067F00EE240D
:0E098F00D0FEEF34FFFFEE2AFEEF3BFFC0006C
:0B099D00E5082417F8A60608A607E5E9
:0C09A800082417F808E618C40354F8C629
:0E09B400C403C666C654F8C66608F6D00074C2
:0E09C2000928F987067F00EE24D0FEEF34FFEF
:0C09D000FFC000E5082417F8EE26F6EF43
:0C09DC000836F6E5082417F8E608F618BF
:0E09E8007600D000740B28F987067F00EE24FD
:0E09F600D0FEEF34FFFFC000C001C006C007F6
:0E0A04009000641215BDAE82AF83158115817E
:0C0A1200D001E5082417F8EE26FAEF08E2
:0E0A1E0036FBD000740C28F987067F00EE240A
:0E0A2C00D0FEEF34FFFFC002C003C000C001C7
:0E0A3A00C006C00790000A1215BDAE82AF8341
:0E0A480015811581D001D000D003D002EE2A16
:0E0A5600FAEF3BFB740D28F987067F00EE24B3
:0E0A6400D0FEEF34FFFFEE2AFEEF3BFFC00096
:0B0A7200E5082417F8A60608A6077583
:090A7D0022BC901D17E493FE8ECB
:080A860023901D18E493FE8E7D
:0A0A8E0024E5082417F80886068EF8
:0A0A980025E5082417F88606D000B3
:060AA2008E267527E275A7
:0A0AA8002800752980740F28F9E773
:0E0AB20024D075F064A4FE741028F9E724D057
:0E0AC00075F00AA42EFE741128F9E724D02E3A
:0C0ACE00FE8E2A8E027B00C2AAC002C06D
:0E0ADA0003C000C0011214C7D2AA1213D7D055
:0E0AE80001D000D003D002C000C001C002C087
:0C0AF60003C000E5082417F8868208867B
:0E0B020083D00012018415811581D001D0002E
:020B1000D00112
:070B12008706BE720280039A
:030B1900020BA527
:0E0B1C00740328FEC000A8068606D000BE7036
:0E0B2A007A740428FEC000A8068606D000BE1D
:0E0B3800616B901D17E493C4540FFE7F008E76
:0E0B4600828F83C000C001120F93D001D00037
:030B540075992E62
:050B570010990280FB73
:0E0B5C00901D17E493FE53060F7F008E828FCC
:0E0B6A0083C000C001120F93D001D000759916
:010B78002E4E
:050B790010990280FB51
:0E0B7E00901D18E493FE7F008E828F83C000CE
:0C0B8C00C001120F93D001D00075990D2C
:050B980010990280FB32
:030B9D0075990A3D
:050BA00010990280FB2A
:070BA5008706BE7302800306
:030BAC00020C84B4
:0B0BAF00740328F98706BE7002800363
:030BBA00020C84A6
:0B0BBD00740428F98706BE6102800363
:030BC800020C8498
:0B0BCB00740728F98706BE2E02800385
:030BD600020C848A
:0B0BD900740A28F98706BE2E02800374
:030BE400020C847C
:090BE700A9080909B70E028003F8
:030BF000020C8470
:0E0BF300740528F9E724D075F00AA4FE7406F4
:0E0C010028F9E724D02EC454F0FA740828F91C
:0E0C0F00E724D075F00AA4FF740928F9E72441
:0E0C1D00D02F2AFA740B28F9E724D075F06462
:0E0C2B00A4FE740C28F9E724D075F00AA42E5C
:0E0C3900FE740D28F9E724D02EFEC002C0067E
:0E0C4700C000120522D000D006D002C006C0A8
:0E0C550000C0027417C0E075820112052A1556
:0E0C6300811581D000D006C000C0067418C0F4
:0E0C7100E075820112052A15811581120526F3
:050C7F001213D7D000A4
:0B0C8400740228F98706BE720280038C
:030C8F00020EA3AF
:0E0C9200740328FEC000A8068606D000BE67C8
:030CA000028003CC
:030CA300020EA39B
:0E0CA600740428FEC000A8068606D000BE61B9
:030CB400028003B8
:030CB700020EA387
:0E0CBA00740728FEC000A8068606D000BE2FD4
:030CC800028003A4
:030CCB00020EA373
:0E0CCE00740928FEC000A8068606D000BE2FBE
:030CDC0002800390
:030CDF00020EA35F
:0B0CE200C000A8080808B60D0280053D
:050CED00D000020EA37F
:0E0CF200D000C001740528FEC000A8068606CA
:0E0D00007F00EE24D0FEEF34FFFFC001C006DE
:0E0D0E00C00790000A1215BDAA82AB831581A2
:0E0D1C001581D001D000740628F987067F00EB
:0E0D2A00EE24D0FEEF34FFFFEE2AFEEF3BFF7B
:0C0D3800C000E5082417F8A60608A6076E
:0C0D4400E5082417F808E618C40354F86A
:0E0D5000C6C403C666C654F8C66608F6D000D0
:0E0D5E00740828F987067F00EE24D0FEEF34DB
:0C0D6C00FFFFC000E5082417F8EE26F693
:0C0D7800EF0836F6E5082417F8E608F648
:0E0D8400187600D000740A28F987067F00EE6A
:0E0D920024D0FEEF34FFFFC000C001C006C039
:0E0DA000079000641215BDAE82AF8315811559
:0C0DAE0081D001E5082417F8EE26FAEFCA
:0E0DBA000836FBD000740B28F987067F00EE88
:0E0DC80024D0FEEF34FFFFC002C003C000C005
:0E0DD60001C006C00790000A1215BDAE82AF24
:0E0DE4008315811581D001D000D003D002EE1E
:0E0DF2002AFAEF3BFB740C28F987067F00EE0F
:0E0E000024D0FEEF34FFFFEE2AFEEF3BFFC0D2
:0C0E0E0000E5082417F8A60608A607A8AF
:0C0E1A0008087600D0007AFF7BFFD001B2
:0C0E2600C001C000A80808E675F004A494
:0C0E3200FEAFF08E82741A2FF583E4935B
:0C0E3E00FCA3E493FDE5082417F8E6B5DA
:0B0E4A00040908E6B5050474018001EE
:010E5500E4B8
:0C0E5600D000D001601E741A2FFF8E82A5
:0E0E62008F83A3A3E493FCA3E493FD8C028D85
:0A0E700003C000A8080876FFD000B8
:0A0E7A00C000A8080806A80808E652
:0D0E8400D000709E8A828B83C000C00112D6
:0C0E91000F9375820D1213F875820A127F
:060E9D0013F8D001D000A3
:070EA3008702BA640280031C
:030EAA00020F58DC
:0B0EAD00740328F98702BA7502800365
:030EB800020F58CE
:0B0EBB00740428F98702BA6D0280035E
:030EC600020F58C0
:0B0EC900740528F98702BA700280034C
:030ED400020F58B2
:090ED700A9080909B7067A7A009E
:0D0EE0008A82C002C00012110675823A120B
:0E0EED0013F87582201213F8D000D002EA75B7
:0C0EFB00F004A4FBACF08B82741A2CF500
:0E0F070083E493FDA3E493FE8D828E83C002EB
:0D0F1500C003C004C0001213087582201232
:0C0F220013F8D000D004D003741A2CFC8B
:0E0F2E008B828C83A3A3E493FBA3E493FC8B40
:0E0F3C00828C83C00012130875820D1213F808
:0E0F4A0075820A1213F8D000D0020AEA7088ED
:020F58007A001D
:030F5A00BA1400C6
:0A0F5D005008EA28F977000A80F333
:090F6700A80808087600C208C2BF
:050F70000902061585D1
:050F75000881D00822F4
:0E15FF006B75626927732072732D696E7465B7
:0D160D0072666163652072656164792E006C
:0E0F7A005391FC5392FC75985043BA4043BD0E
:0B0F88000275BF0075BE3043BD0122A2
:0A0F9300C00885810805810581AAC8
:0C0F9D0082AB83D2087C007D008A068BAA
:010FA9000740
:0E0FAA00C3EE9410EF942740130CBC00010D11
:0E0FB800EE24F0FEEF34D8FF8E028F0380E4AB
:0D0FC6008E028F03EC4D600C74302CF599F9
:050FD30010990280FBF3
:020FD800C2084D
:080FDA007C007D008A068B07F4
:0E0FE200C3EE94E8EF940340130CBC00010D25
:0E0FF000EE2418FEEF34FCFF8E028F0380E427
:0C0FFE00A80808A60408A6058E028F03B0
:07100A00EC4D7003200811FA
:0A101100A80808860474302CF59935
:05101B0010990280FBAA
:02102000C20804
:081022007C007D008A068B07AB
:0E102A00C3EE9464EF940040130CBC00010D63
:0E103800EE249CFEEF34FFFF8E028F0380E457
:0C104600A80808A60408A6058E028F0367
:07105200EC4D7003200811B2
:0A105900A80808860474302CF599ED
:0510630010990280FB62
:02106800C208BC
:08106A007C007D008A068B0763
:0E107200C3EE940AEF940040130CBC00010D75
:0E108000EE24F6FEEF34FFFF8E028F0380E4B5
:0C108E00A80808A60408A6058E028F031F
:07109A00EC4D700320080F6C
:0A10A100A80808860474302CF599A5
:0510AB0010990280FB1A
:0510B00074302AF599DF
:0510B50010990280FB10
:0610BA00850881D0082228
:0810C000AA82AB83ACF07D00B5
:0E10C800ED2AFEE43BFF8C008E828F8388F0C1
:0C10D6001215DFFE6029BE0A0875990D96
:0510E20010990280FBE3
:0E10E700ED2AFEE43BFF8C008E828F8388F0A2
:0510F5001215DFF59962
:0510FA0010990280FBCB
:0610FF000DED240150C3B9
:0111050022C7
:0A110600C008E581F5082410F5810A
:0C111000AA82A808087630E804F97731BC
:0E111C00740228F97732740328F977337404CB
:0E112A0028F97734740528F97735740628F90A
:0E1138007736740728F97737740828F9773866
:0E114600740928F97739740A28F97741740B77
:0E11540028F97742740C28F97743740D28F9B6
:0E1162007744740E28F97745740F28F9774604
:0D117000EAC4540F28F98782C002C00012A3
:0E117D0013F8D000D00253020FEA28F8868241
:07118B001213F8850881D062
:02119200082231
:0A119400C008858108C082C083C036
:0C119E00F0C0E0E5812414F581E5082490
:0E11AA0005F87630E804F97731740228F977F9
:0E11B80032740328F97733740428F9773474FD
:0E11C6000528F97735740628F977367407285E
:0E11D400F97737740828F97738740928F97705
:0E11E20039740A28F97741740B28F9774274A2
:0E11F0000C28F97743740D28F97744740E2803
:0C11FE00F97745740F28F97746A9080915
:0E120A00090909E7C4540FFE53060FE4EE284D
:0C121800F98782C0001213F8D000A9086A
:0E12240009090909870253020FEA28F9878297
:0C123200C0001213F8D000A90809090937
:0E123E00870209E7C4CAC4540F6ACA540FCA13
:0E124C006ACA53020FE4EA28F98782C0001232
:0C125A0013F8D000A90809090987025305
:0E126600020FEA28F98782C0001213F8D000A8
:0C127400A9080909870209E7C4CAC4548C
:0E1280000F6ACA540FCA6ACAFB09E7C454F0C9
:0E128E004BE7C4540F53020FE4EA28F987829D
:0C129C00C0001213F8D000A9080909874F
:0E12A8000253020FEA28F98782C0001213F8E1
:0C12B600D000A90809870209E7C4CAC4D7
:0E12C200540F6ACA540FCA6ACAFB09E7C45423
:0E12D000F04B870409E7C4CCC4540F6CCC5417
:0E12DE000FCC6CCC53020FE4EA28F98782C0D3
:0C12EC00001213F8D000A90809740F5775
:0C12F800FAE4EA28F886821213F8850850
:0413040081D008226A
:0A130800C008E581F5082410F58106
:0C131200AA82AB83A808087630E804F932
:0E131E007731740228F97732740328F9773397
:0E132C00740428F97734740528F977357406AF
:0E133A0028F97736740728F97737740828F9F0
:0E1348007738740928F97739740A28F9774143
:0E135600740B28F97742740C28F97743740D54
:0E13640028F97744740E28F97745740F28F99C
:0E1372007746EBC4540F28F98782C002C003EF
:0E138000C0001213F8D000D0038B0453040FEA
:0E138E00EC28F98782C003C0001213F8D000CB
:0E139C00D003D0028A04EBC4CCC4540F6CCC36
:0E13AA00540FCC6CCC53040FEC28F98782C092
:0E13B80002C003C0001213F8D000D003D00210
:0C13C60053020FEA28F886821213F88503
:0513D2000881D0082293
:0313D70075994FB6
:0513DA0010990280FBE8
:0313DF0075994BB2
:0513E20010990280FBE0
:0313E70075990DE8
:0513EA0010990280FBD8
:0313EF0075990AE3
:0513F20010990280FBD0
:0113F70022D3
:0313F80085829952
:0513FB0010990280FBC7
:0114000022C9
:0C140100C021C0E0C0F0C082C083C00267
:0E140D00C003C004C005C006C007C000C00177
:0D141B00C0D075D000C2AAC2AB9012DE1284
:08142800058174FFB53A313073
:0414300004058539F1
:031434003E8029CE
:0A143700740F5527FA74805527FB47
:08144100E5257004E5266017A3
:06144900EB6014BA010083
:0A144F00400FE528700B74C055290A
:07145900FABA800312007FC4
:0A146000753900C28BD2AA200405E2
:05146A00C28E753A007E
:0E146F00D0D0D001D000D007D006D005D004D8
:0D147D00D003D002D083D082D0F0D0E0D0D8
:02148A0021320D
:06148C007A007B00C2089B
:0A1492003094070ABA00200B801DF9
:0C149C00C002C003C02112036BAC82D060
:0A14A80021D003D002BCCC093000B3
:0714B20006D2087AB87B0B9B
:0C14B900C3EA94B8EB6480948B40CEA290
:0214C5000822FB
:0914C700C00885810805817A0046
:0A14D0007B00A80808740F5527F6EA
:0E14DA0090495CC002C003120581D003D0020D
:0E14E800208F132094FA90495CC002C00312BA
:0814F6000581D003D00280EA59
:0414FE00C28E7D001D
:0C150200C002A8080886067F0074062EB0
:0E150E00FEE43FFF8D027C00C3EE9AEF648086
:0D151C008CF063F08095F0D002402DED249E
:0B15290022F88682C002C003C0051239
:0C1534000485D005D003ED2422F8E66207
:0E154000039004CEC003C00512054CD005D0A8
:06154E0003D0020D80AE87
:0E155400EBF4F582C00212048512148CD00252
:0415620050027A03B6
:0A1566000A74DF5522F522EA24FC86
:0515700040030214D04D
:06157500850881D0082268
:06157B00208F03208EFA10
:061581007582CC02048516
:0C158700120522C02A7417C0E075820112
:0C15930012052A15811581C02B7418C0A8
:0E159F00E075820112052A15811581020526CC
:0615AD00C202753D01C2FF
:0515B30003753900750D
:0515B8003E00C2042208
:06005200E478FFF6D8FD82
:080030007900E94400601B7A2D
:050038000090161A788B
:03003D000075A0AB
:0A00400000E493F2A308B8000205E3
:08004A00A0D9F4DAF275A0FF61
:0E15BD0074FE2581F8E68582F0A4C0E08582E8
:0E15CB00F018E6A4F582D0E025F0C58386F086
:0615D900A42583F5832226
:080058007800E84400600A7919
:030060000075A088
:0600630000E4F309D8FCE3
:080069007800E84400600C7906
:0B00710000900000E4F0A3D8FCD9FAD6
:0300230075813EA6
:0A0026001215FBE582600302001EC4
:0E15DF0020F71430F6148883A88220F507E662
:0615ED00A88375830022B3
:0315F300E280F79C
:0315F600E4932259
:0215F900E022EE
:0415FB0075820022D3
:00000001FF
