:0C007F00E526C423541FF582120CDF7527
:02008B00992EAC
:05008D0010990280FB48
:0C00920074075526F582120CDF75992EBC
:05009E0010990280FB37
:0900A300852782120CDF75993DDE
:0500AC0010990280FB29
:0C00B1007401552AF582120CDF75990DC0
:0500BD0010990280FB18
:0300C20075990A23
:0500C50010990280FB10
:0100CA002213
:0100CB002212
:0A00CC007584007585FF7580002221
:0C00D600C2AAC2AB90017C12029CC204C2
:0200E200C2005A
:0C00E400308FFD90016812029CA29492E3
:0300F000027A058C
:0900F300A29482029202DAF8A242
:0800FC0002E433FA300202B203
:0101040004F6
:020105007B017C
:03010700BB080032
:02010A00503B68
:0E010C00308FFD90015EC002C00312029CD035
:09011A0003D002A29492027C05BC
:09012300A29482029202DCF8A20F
:0B012C0002E433FC8BF005F0EC8002D5
:0201370025E0C1
:0A013900D5F0FBFC4202300202B2D6
:0101430004B7
:030144000B80C06D
:0B014700308FFDC28EA29492037B0556
:09015200A29482039203DBF8A2DF
:05015B0003200401B3C4
:040160005002D20077
:030164008A82226A
:0C016700C022C0E0C0F0C082C083C00213
:0E017300C003C004C005C006C007C000C00124
:0E018100C0D075D000C28EC2AAC2AB1200D68A
:0D018F00AA829000C8C00212027FD0023088
:05019C000012E53A2409
:0901A10023F8A602E53A7002F50C
:0101AA003B19
:0501AB00EA623B053A89
:0D01B00090054612029CD2ABC28BD2AAD29F
:0C01BD0001D0D0D001D000D007D006D077
:0E01C90005D004D003D002D083D082D0F0D075
:0401D700E0D0223220
:0901DB00AA82D206C207D2969056
:0D01E400005FC00212027FD002C2967B00B5
:0301F100BB080048
:0E01F40050549000D7C002C00312029CD003EA
:09020200D0028BF005F0EA800245
:02020B00C3131B
:0C020D00D5F0FB5401FCBC0104C20580CC
:0102190002E2
:02021A00D2050B
:0C021C00308FFDA2059296900064C00295
:0C022800C00312029CD003D00220050B82
:04023400B2067C058D
:05023800209402D20732
:02023D00DCF9EA
:03023F002007088D
:08024200308FFDC2960B80A76E
:0A024A002007129000D412027FA2D8
:0B02540006929690005F12027FC29697
:05025F00C28EA207227F
:0402640075E400221B
:0402680075E46822AF
:0D026C00E582FA24FE400B741C2AF5E7859C
:050279001DE6851EE5F5
:01027E00225D
:0E027F00AA82AB83C28E74FFC39AFA74FF9BEF
:09028D00FB8B8D8A8BC28FD28E8F
:06029600308FFDC28E2234
:0E029C00AA82AB83C28E74FFC39AFA74FF9BD2
:0A02AA00FB8B8D8A8BC28FD28E224F
:0E02B400759500759114759244C29675891265
:0E02C200758F01758BC043A210C2A9D28CC2E9
:0C02D0008E75D21D75D34075D161C2013E
:0E02DC0075A80075E800D2AFC2A8D2AA75B806
:0D02EA000C75B70C75F80075F700D28A226C
:0C02F700C022C0E0C0F0C082C083C00282
:0E030300C003C004C005C006C007C000C00192
:0D031100C0D075D000C2AAC2AB901270120D
:09031E00029C74FFB53B02800350
:0303270002041FAE
:0A032A00740F5528FA74805528FB63
:0A033400E526FC7030E527702C2050
:05033E00080302041F8A
:0A034300BA030CE529700874C0B578
:05034D002A0312064C1A
:070352007401B529028003CC
:0303590002041F7C
:07035C00E52A600302041F03
:0603630012067002041FE7
:06036900EB600302040634
:06036F00ECB53D02800325
:0303750002041F60
:07037800E53CB527028003FC
:03037F0002041F56
:0B03820074C35529FBBB420F74C0552B
:0C038D002AFBBB8007C0021205D9D00279
:0C039900EA702774C05529FBBBC007C0E8
:0603A5000212050FD00258
:0C03AB007480B52907C00212051BD002A7
:0C03B7007481B52907C00212052DD00288
:0C03C300BA012A74035529FBBB03127415
:0A03CF0080B52A0DC0021202B4121C
:0703D90008FB1200CCD0026A
:0A03E0007443B5290BE52A7007C02D
:0603EA0002120562D002C0
:0C03F000BA032C74C35529FBBB4224E562
:0A03FC002A54C0701E12057D8019FE
:0A040600BA0116E529701274FE55C4
:080410002AFABA800312007FF2
:07041800E52A70031200CB7E
:0C041F00753A00C28BD2AAC28ED0D0D099
:0E042B0001D000D007D006D005D004D003D0F9
:0C04390002D083D082D0F0D0E0D022327C
:06044500C20A7A007B00F0
:0A044B003094070ABA00180B801560
:0E045500C002C0031200D6AC82D003D002BC9D
:07046300CC05300002D20AB3
:0C046A00C3EA94B8EB6480948B40D6A2E7
:020476000A2258
:03047800754300C9
:09047B007B00740F5528F5429036
:09048400495CC00312029CD00384
:0E048D00208F0F2094FA90495CC00312029C4D
:04049B00D00380EE1C
:04049F00C28E7D008C
:0C04A300AE427F0074062EFEE43FFF8D89
:0E04AF00027C00C3EE9AEF64808CF063F08054
:0C04BD0095F0402BED2423F88682C0034C
:0D04C900C0051201DBD005D003E433ED24A3
:0C04D60023F8E662039004CEC003C005CA
:0A04E20012027FD005D0030D80B791
:0E04EC00EBF4F5821201DBE4331204455003F9
:0304FA0075430344
:0704FD00054374DF5523F5F0
:0805040023E54324FC4003023F
:02050C00047B6E
:01050E0022CA
:0C050F00308FFD7582CC1201DBE433223A
:06051B0020090ED2098543
:03052100243F85EF
:030524002540125D
:05052700050F75410104
:01052C0022AC
:06052D00E524B53F0CE5DA
:0505330025B540071092
:0305380009012294
:03053B0075410106
:01053E00229A
:06053F007523B0AA248A16
:0405450026AA258A33
:0305490027853DC6
:03054C0024853CC7
:07054F002575286074C0450A
:0805560029FA8A2974FE5AF506
:04055E0029020478F2
:0705620012050F12053F75A1
:0605690023B07528637544
:06056F002943752A4075C6
:060575002B00752C1202A0
:02057B00047802
:08057D0012050FAA2AC00212A8
:06058500053FD0027B00DF
:0C058B00C3EB9A5027E52B7011740A2B6B
:070597002423F8EB252C9052
:07059E001C0093FCF6800F26
:0A05A500740A2B2423F8EB252C9098
:0505AF001D0093FCF6A5
:0305B4000B80D4E5
:0905B7007523B074632AF528E5F0
:0A05C00041254125E0FB74424BF594
:0705CA002974404AF52A12D2
:0505D100047805415310
:0305D600410F22B0
:0B05D90012050F740F552AFAC0021221
:0905E400053F120264D0027B0005
:0A05ED00C3EB9A5057852B82EB25D3
:0705F7002CF51D740A2B24F2
:0905FE0023F8861EC002C003129E
:0C060700026CD003D002AC2C7D008B06EE
:0E0613007F00EE2CFCEF3D53043F7D00BC3F0A
:0D06210024BD00218A047D001CBCFF011DCA
:0A062E00EEB50406EFB50502800EDC
:0E063800C002C003120268120264D003D00296
:030646000B80A482
:0306490002026842
:04064C00852B3D8538
:030650002C3C122D
:060653000264751D17850D
:060659003D1E7582011236
:06065F00026C751D1885F8
:060665003C1E758201122B
:05066B00026C020268B0
:0706700012050F7523B08590
:030677003D24859A
:03067A003C2575A7
:06067D0026007527007540
:0606830028E17529017554
:050689002A4002047884
:0E068E00AA82901D12E493FB0B0B0BEA75F091
:0C069C0003A42BF58275831DE493F58206
:0106A800222F
:0E06A900AA827B00901D11E493FCF5827583FC
:0B06B7001DE493FDEC04FE0C0C7F0022
:0E06C200C3EF9D5016EF2FF82C901D0093F9FA
:0A06D000B50207E82E901D0093FB11
:0306DA000F80E5A9
:0506DD00BBFE02801EBF
:0E06E200EB2BFB2417901D0093FA74182B903D
:0E06F0001D0093FB7C008A05E42BFAED3CFB19
:0206FE00800476
:040700007A007B0000
:050704008A828B8322B4
:0E070900AA82901D16E493FB7CFF60257D0103
:0E071700C3EB9D401EED2DFE2417901D009398
:0E072500FFEAB5070D74182E901D0093FEB567
:040733001D028D0412
:030737000D80DD55
:03073A008C82228C
:0E073D00AA827BFF7CFF901D16E493FD6025D1
:02074B007E012D
:0E074D00C3ED9E401EEE2EFF2417901D00935C
:0E075B00F8EAB5000D74182F901D0093FFB53D
:040769001D028E04DB
:03076D000E80DD1E
:0C077000901D11E493FAF58275831DE4DE
:07077C0093FDBCFF02802386
:0707830074022AFE0A7F0048
:0E078A00C3EF9D5017EF2FF82A901D0093F932
:0B079800ECB50107E82E901D0093FB5C
:0307A3000F80E4E0
:0307A6008B822221
:0E07A900AA82C2AAC002120264D002EA75F04F
:0707B70005A4FA8A1D854428
:0C07BE001E758200C00212026CD002EA1C
:0507CA0004F51D854847
:0C07CF001E758200C00212026CD0027481
:0607DB00022AF51D85470E
:0C07E1001E758200C00212026CD002746F
:0607ED00032AF51D8546FC
:0C07F3001E758200C00212026CD002745D
:0607FF00042AF51D8545EA
:080805001E75820012026C1244
:05080D000268D2AA22DE
:0D081200AA827BFF7CFFEA75F003A4FD9035
:0E081F001D12E493FEC39A4049ED2EFA240206
:0E082D00901D0093FF74042A901D0093FABAE8
:02083B000800B3
:0C083D00500C8F8275831CE493FA8A0330
:020849007C0031
:0E084B00ED2E2404901D0093FABA081A8F8235
:0C08590075831CE493FA8A057A00EF0412
:0C086500901C0093FE7F002AFBEF3DFC7E
:050871008B828C832244
:0B087600AA82C20BEA75F003A4FB90FD
:0E0881001D12E493FCC39A406EEB2CFA240285
:0E088F00901D0093FD74042A901D0093FABA88
:02089D00080051
:0E089F005023C003C004C005120264D00585BA
:0308AD00491E8D54
:0A08B0001D758200C00512026C12D3
:0A08BA000268D005D004D003D20B71
:0E08C400EB2C2404901D0093FABA0828C005FE
:0708D200120264D005854A03
:0908D9001E8D1D758200C0051280
:0908E200026CD005ED04F51D8542
:0608EB00491E7582001297
:0608F100026C120268D245
:0108F7000BF5
:0308F800A20B222E
:0808FB00901D17E493F53D90F8
:070903001D18E493F53CC24E
:05090A0008754101C267
:05090F0009753A002209
:0400000002002332A5
:01000B0032C2
:0300130002016780
:03001B000202F7E7
:03007C0002001E61
:05001E0012091480FE30
:070914001202B41208FB12ED
:06091B0000CC120CCC75AB
:050921000800C20CC239
:010926000DC3
:0A092700309824AB99BB0A02800748
:07093100BB0D0BD20C80147A
:07093800300C11D20D800DFF
:08093F00E5082409F8A699055A
:0409470008C20CC214
:01094B000D9E
:02094C00C2984F
:06094E00200D03020CB2B3
:070954007466B5090280037F
:03095B00020C9BF0
:07095E007462B50A02800378
:03096500020C9BE6
:070968007473B50B0280035C
:03096F00020A99E0
:070972007430B50C02800394
:03097900020A99D6
:07097C007431B50D02800388
:03098300020A99CC
:07098600742FB50E0280037F
:03098D00020A99C2
:07099000742FB51102800372
:03099700020A99B8
:07099A00742FB51302800366
:0309A100020A99AE
:0709A400743DB5170280034A
:0309AB00020A99A4
:0709AE00AB18BB300280080A
:0509B500BB31028003CC
:0309BA00020A9995
:0A09BD00AB0F7C00EB24D0F51DEC1D
:0C09C70034FFF51E90000A120D51AB82A7
:0C09D300AC83AD107E00ED24D0FDEE34AE
:0E09DF00FFFEED2BFBEE3CC40354F8CBC4032B
:0C09ED00CB6BCB54F8CB6BFCAD127E0042
:0E09F900ED24D0FDEE34FFFEED2BFBEE3C8B2B
:0B0A0700047B00AD147E00ED24D0F550
:0A0A12001DEE34FFF51E900064C0D5
:0E0A1C0003C004120D51AD82AE83D004D0038E
:0C0A2A00ED2BFDEE3CFEAF157A00EF2432
:090A3600D0F51DEA34FFF51E9015
:0E0A3F00000AC005C006120D51AA82AF83D076
:0C0A4D0006D005EA2DFDEF3EFEAA167F44
:0E0A590000EA24D0FAEF34FFFFEA2DFBEF3E57
:060A6700FC7523BC853D77
:030A6D0024853CA1
:080A7000258C028A268B028A04
:050A7800277528E1755F
:080A7D0029007431B51803755E
:020A85002A81C4
:080A87007430B51803752A80D4
:0A0A8F00C2AA120478D2AA120D27A1
:070A99007473B50B0280032A
:030AA000020BC680
:070AA3007430B50C02800362
:030AAA00020BC676
:070AAD007436B50D02800351
:030AB400020BC66C
:070AB700742FB50E0280034D
:030ABE00020BC662
:070AC100742FB51102800340
:030AC800020BC658
:070ACB00742FB51302800334
:030AD200020BC64E
:070AD500743DB51702800318
:030ADC00020BC644
:0A0ADF00AA0F7D00EA24D0F51DEDFA
:0C0AE90034FFF51E90000A120D51AA8285
:0C0AF500AD83AE107F00EE24D0FEEF3485
:0E0B0100FFFFEE2AFBEF3DC40354F8CBC40304
:0C0B0F00CB6BCB54F8CB6BFCAA127D0022
:0E0B1B00EA24D0FAED34FFFDEA2BFBED3C8B13
:0B0B2900047B00AA147D00EA24D0F534
:0A0B34001DED34FFF51E900064C0B3
:0E0B3E0003C004120D51AA82AD83D004D0036F
:0C0B4C00EA2BFAED3CFDAE157F00EE2414
:090B5800D0F51DEF34FFF51E90ED
:0E0B6100000AC002C005120D51AE82AF83D053
:0C0B6F0005D002EE2AFAEF3DFDAE167F25
:0E0B7B0000EE24D0FEEF34FFFFEE2AFBEF3D2C
:060B8900FC7523BC853D54
:030B8F0024853C7E
:060B9200258C028A268B6F
:050B9800277528E2753D
:060B9D002900752A80E525
:0A0BA3001824D075F064A4FAE519D7
:0C0BAD0024D075F00AA42AFAE51A24D01E
:0B0BB9002AF52BC2AA120478D2AA125F
:020BC4000D27FB
:0A0BC6007472B50B437470B50C3E59
:0A0BD0007461B50D39E53DC4540F02
:080BDA00F582120CDF75992E63
:050BE20010990280FBE8
:0C0BE700740F553DF582120CDF75992E3D
:050BF30010990280FBD7
:090BF800853C82120CDF75990D99
:050C010010990280FBC8
:030C060075990AD3
:050C090010990280FBC0
:070C0E007473B50B028003B3
:030C1500020C9B33
:070C18007470B50C028003AB
:030C1F00020C9B29
:070C22007461B50D028003AF
:030C2900020C9B1F
:0A0C2C00742EB5106A742EB513651E
:0A0C3600740EB50860E50E24D075B9
:0C0C4000F00AA4FAE50F24D02AC454F0F6
:0A0C4C00F53DE51124D075F00AA46F
:090C5600FAE51224D02A253DF52F
:0A0C5F003DE51424D075F064A4FAFA
:0B0C6900E51524D075F00AA42AFAE576
:070C74001624D02AF53C1202
:060C7B000264751D1785DF
:060C81003D1E7582011208
:060C8700026C751D1885CA
:060C8D003C1E75820112FD
:060C9300026C120268125F
:020C99000D2725
:020C9B007A00DD
:030C9D00BA140086
:0B0CA0005009EA2409F876000A80F2EF
:060CAB00750800C20CC236
:010CB1000D35
:070CB200D2972097097A6434
:020CB900DAFE61
:050CBB003097FDB208B6
:070CC000A208B392977A64C9
:050CC700DAFE0209271E
:0E0CCC0075985043BA4043BD0275BF0075BE17
:050CDA003043BD0122C2
:0C0CDF00AA82D20E75F064EA84FB600C5F
:050CEB0074302BF599A7
:050CF00010990280FBD9
:020CF500C20E2D
:0E0CF700EB75F064A4D39AF4FA75F00A84FB4E
:050D05007003200E0A3E
:050D0A0074302BF59987
:050D0F0010990280FBB9
:0D0D1400EB75F00AA4D39AF4FA2430F59997
:050D210010990280FBA7
:010D260022AA
:030D270075994F6C
:050D2A0010990280FB9E
:030D2F0075994B68
:050D320010990280FB96
:030D370075990D9E
:050D3A0010990280FB8E
:030D3F0075990A99
:050D420010990280FB86
:010D47002289
:030D480085829908
:050D4B0010990280FB7D
:010D50002280
:06005200E478FFF6D8FD82
:080030007900E94400601B7A2D
:0500380000900D72783C
:03003D000075A0AB
:0A00400000E493F2A308B8000205E3
:08004A00A0D9F4DAF275A0FF61
:0B0D5100E582851DF0A4C582C0F0857E
:0A0D5C001EF0A4D0F025F0C5838539
:080D66001DF0A42583F5832292
:0400580075A0007817
:07005C0000E8440060077991
:0600630000E4F309D8FCE3
:080069007800E84400600C7906
:0B00710000900000E4F0A3D8FCD9FAD6
:0300230075814A9A
:0A002600120D6EE582600302001E59
:040D6E007582002268
:00000001FF
