:0A009F00E58124FEF8E6F918E6F802
:0500A9007A10E4FBFCED
:0E00AE00E58225E0F582E58333F583EB33FB35
:0E00BC00EC33FCEB98F5F0EC994006FCABF051
:0300CA004382016D
:0300CD00DADF2255
:0C00D000C0E0C0D0C000C004C005A80CF7
:0A00DC00850BAC850BAD7C007D00A8
:0A00E60085AC0D85AD0EE65402A2B4
:0E00F000E1E49283C3EC2401FCED3400FDB486
:0A00FE0040E67C807D007508007567
:020108000900EC
:0A010A00C385AC0D85AD0EE654026E
:0A011400A2E1E492833508F508E546
:0A011E00093400F509C3EC2401FCCC
:0E012800ED3400FDB4C4DBD005D004D000D00F
:04013600D0D0E02223
:0B013A00E582FA30E005750B30800311
:03014500750B2017
:09014800EA30E105750C0E80039C
:03015100750C0D1D
:030154000200D0D6
:0A015700C011E581F5112410F581B7
:07016100AA82C210C211E5E1
:0C016800112409F8E4F608F6E4FDFEEAB4
:0B01740024FD75F005A4FFBA09010F7F
:0C017F00C005C006E511240DF8A6070815
:0C018B007600E511240DF874F9C396FD10
:0C019700E40896FE8D8274372EF583E498
:0C01A30093FBE511240DF874FAC396FDDF
:0C01AF00E40896FE8D8274372EF583E480
:0E01BB0093540725E0FD9020DF93CDA393FE23
:0901C900ED250FFDEE3510FEE5F9
:0C01D20011240BF8A60508A6069037D3F0
:0C01DE00E493D006D00520E70302036282
:0501EA00BA03028003CE
:0301EF00020362A6
:0C01F200900005E0FA9037FBE493FCE578
:0C01FE00112405F8EC75F00AA4F608A620
:0E020A00F074075B9021A593FC7D00C002C03C
:0C02180003C004C005E5112405F886822F
:0E0224000886831210A8AC82AD831581158167
:0C023200D003D002E5112407F8A6040850
:0C023E00A605E5112407F8E60846700A42
:0A024A00E5112407F87601E408F638
:0E02540074F05BC4540FFB0BEBC454F0FB9032
:0C0262000002E0FCA3E0FDE5112405F81B
:0C026E00C3E69C08E69D503FE511240506
:0E027A00F8860608E6CE25E0CE33FFC3EE9CE4
:0E028800EF9D5012900005E0FEC39B400990D0
:080296000005EEC39BF0801788
:0D029E00900005E0FE24FC5009EE24FC90C9
:0502AB000005F08005D4
:0502B000900005E4F0E0
:0A02B500E5112405F8E5112407F90E
:0E02BF00E6C397FE08E60997FFC3EC9EED9F8D
:0C02CD005072EDCC25E0CC33FDE511248F
:0C02D90005F8E5112407F9E6C397FE08BC
:0E02E500E60997FFC3EC9EED9F50388B047D19
:0E02F3000074FFC39CFCE49DFD900005E0FE3E
:0B030100E511240FF8A606087600E5C1
:0C030C0011240FF8C3EC96ED6480088605
:0E031800F063F08095F04008900005EB2EF0A9
:0203260080193C
:08032800900005E0FBBBFC00A6
:0B033000500990000574042BF08006BB
:06033B0090000574FFF0C4
:0C034100900005E0FBEAB503030208FF92
:08034D00752B018B2C740125B6
:070355000FFAE43510FB8AEA
:04035C002D8B2E02B5
:0203600008FF94
:03036200BA0600D8
:0503650040030204E466
:0C036A00C005C006E511240DF874FBC3AB
:0C03760096FDE40896FE8D8274372EF58B
:0E03820083E49324F925E0FD9020F193CDA3B0
:0C03900093FEE5112405F8A60508A6065A
:0E039C0074075B9021A593FD7E00C002C00790
:0A03AA00C022C005C006E5112405BD
:0E03B400F886820886831210A8AD82AE8315EB
:0A03C200811581D022D007D002E59A
:0C03CC00112407F8A60508A606D006D0EC
:0C03D80005E5112407F8E60846700AE568
:0903E400112407F87601E408F683
:0C03ED00900002E0FBA3E0FCE5112405F9
:0B03F900F8C3E69B08E69C5002D210FF
:0A040400C005C006E5112405F8E567
:0C040E00112407F9E6C397FD08E60997E2
:0D041A00FEC3EB9DEC9ED006D0055002D233
:0104270011C3
:0C042800C005C006E511240DF874FAC3ED
:0C04340096FDE40896FE8D8274372EF5CC
:0E04400083E49354F0C4540F25E0FD9021AAEC
:0C044E0093CDA393FEE5112409F8A60548
:0C045A0008A606BA0306D006D0058011E3
:09046600D006D005BA0402804062
:05046F00BA05028054F3
:030474000207205C
:0E047700C005C0069037D3E493D006D0052010
:0E048500E71C9037CDE49354F0C4540F25E0EB
:0E049300FB9021AA93CBA393FC8B058C060251
:0204A100072032
:0C04A300E5112409F8E4F608F602072031
:0E04AF009037CDE493540F25E0FB9021AA93E3
:0B04BD00CBA393FC8B058C06020720EC
:0E04C8009037CCE49354F0C4540F25E0FB9021
:0E04D60021AA93CBA393FC8B058C0602072072
:0304E400BA080053
:0504E70040030205DFE7
:0C04EC00C005C006E511240DF874FBC328
:0C04F80096FDE40896FE8D8274372EF508
:0C05040083E493FDE5112405F8A605082A
:0C051000760074075BFDE5112407F8A6D7
:0C051C0005087600E5112405F8C3E694FC
:0E0528003308E69400D006D0054003020720F9
:0B053600C005C006C002C007C022E5DF
:0C054100112405F8E6C0E008E6C0E090D8
:0E054D0000641220B9AD82AE8315811581D0F5
:09055B0022D007D002900000E557
:0B05640011240FF8E0F6A3E008F6E514
:0C056F0011240FF88603088604C3ED9BDE
:0A057B00EE9CD006D0055002D2100D
:0A058500C005C006E5112405F8E5E5
:0C058F00112407F9E6C397FB08E6099762
:0C059B00FCC002C005C006C007C022C0A2
:0E05A70003C0049000641220B9AB82AC83152F
:0C05B500811581D022D007D006D005D0DF
:0C05C10002E511240FF88605088606C329
:0D05CD00ED9BEE9CD006D0054003020720F8
:0505DA00D21102072010
:0B05DF00BA08089037DFE493FB8007A8
:0705EA009037D9E493FCFBFC
:0E05F100C005C0065303F0EA9021CA93FC7DBA
:0605FF00000CBC00010D20
:0C0605008C8274372DF583E493FC5304C1
:0C06110070C210BC0006D006D005801896
:09061D00D006D005BC10028013C8
:05062600BC2002801958
:05062B00BC3002801F3D
:05063000BC40308025F4
:04063500D210802A35
:0B063900900004E0FCA2E39210801F80
:0B064400900004E0FCA2E4921080147F
:0B064F00900006E0FCA2E3921080097E
:09065A00900006E0FCA2E49210FD
:05066300BB1002801D28
:05066800BB2002803000
:05066D00BB30028044D7
:05067200BB40028059AD
:05067700BB5002806C85
:06067C00BB600302070150
:0306820002071953
:0C068500900004E05401FBA210E433FCE0
:06069100D3EB5C7001C315
:0606970092129210807C1B
:0C069D00900004E0035401FBA210E433C1
:0706A900FCD3EB5C7001C300
:0606B0009212921080631B
:0C06B600900004E003035401FBA210E4D8
:0806C20033FCD3EB5C7001C3B3
:0606CA009212921080491B
:0C06D000900006E05401FBA210E433FC93
:0606DC00D3EB5C7001C3CA
:0606E2009212921080311B
:0C06E800900006E0035401FBA210E43374
:0706F400FCD3EB5C7001C3B5
:0606FB009212921080181B
:0C070100900006E003035401FBA210E48A
:08070D0033FCD3EB5C7001C367
:04071500921292109A
:06071900A210B39212923F
:01071F0011C8
:03072000BA080014
:0307230040010F83
:0E072600C005C0067B0074F8C39FFCE49BFD79
:0B0734008C8274372DF583E493FCA841
:0C073F0011080808A60474F7C39FFFE42B
:0C074B009BFB8F8274372BF583E493FB3B
:0C075700A8110808A603EA24FDFB8BF0A3
:0907630005F0A8110874018002E0
:02076C0025E086
:0C076E00D5F0FBF6D006D00520100302E9
:02077A00083F36
:0C077C00900004E0FBA81108E65B60039D
:030788000208293B
:0B078B00E5112409F8E60846600C9018
:0B0796000009E0FCA81108E65C6025EB
:0A07A100E511240BF87401250FF692
:0A07AB00E4351008F6A81108E6F482
:0C07B500FC900009E0FF5CF0E51124045A
:0507C100F8760380360C
:0C07C600EA1425E025E02423F88607BF94
:0B07D2000509E5112404F87600801FE3
:0A07DD00E5112404F87607E5112465
:0A07E70009F8E6250FFF08E63510BB
:0B07F100FCE511240BF8A60708A60485
:0B07FC00EA1425E025E0FC2423F8E5CA
:0A080700112404F9E7F6EC2423FCA9
:0C08110004F8A911090909E7F674022C8B
:0C081D00F8E511240BF9E7F60809E7F6EE
:0A082900A81108900004E64BF0A8A7
:0C0833001108E6F4FB900006E0FC5BF00E
:06083F002011030208FF76
:0C084500900006E0FBA81108E65B6003D1
:030851000208E4B6
:0C085400ED4E600C900009E0FBA81108BC
:04086000E65B6025CE
:0A086400E511240BF87401250FF6CE
:0A086E00E4351008F6A81108E6F4BE
:0C087800FB900009E0FC5BF0E51124049B
:05088400F87601803050
:0C088900EA1425E025E02423F88603BBD8
:0B0895000709E5112404F87600801923
:0A08A000E5112404F87605ED250F9C
:0A08AA00FDEE3510FEE511240BF8F9
:0508B400A60508A606E0
:0A08B9001AEA2A25E0FA2423F8E5E4
:0A08C300112404F9E7F6EA2423FAF1
:0C08CD0004F8A9110909E7F674022AF8E2
:0B08D900E511240BF9E7F60809E7F62B
:0908E400900006E0FAA81108904A
:0C08ED000006E64AF0A81108E6F4FA90B4
:0608F9000004E0FB5AF0D0
:0608FF00851181D01122D9
:0A090500C011858111C082E5812434
:0C090F0007F5817B007C007D007E00A8C5
:0C091B001108E675F003A4FA903712E40E
:0A09270093FFA811080808A607A80E
:0A09310011080808E5112404F9E696
:0C093B00F7097700E5112406F8A6020871
:0A0947007600E5112404F8E5112400
:0E09510006F9E726FF09E70836FA74042FFFBF
:0C095F00E43AFA8F8274372AF583E4939F
:0A096B00FAA81108A911090909C32F
:07097500E7965003020A128D
:0C097C00C003C004C005C006E51124043F
:0C098800F8E5112406F9E726FF09E7084E
:0C09940036FB74022FFFE43BFB8F8274E3
:0A09A000372BF583E493FBA8110840
:0609AA0008A603BA0800D4
:0C09B000D006D005D004D0035017A811C9
:0A09BC000808E6240BF582E434007D
:0B09C600F583E0FFFB7C007D007E005D
:0A09D100BA083EA8110808E6240B3E
:0C09DB00F582E43400F583E0FA8A047B26
:0C09E70000A811080886027F000ABA0070
:0209F300010FF2
:0A09F500EA240BF582EF3400F583CD
:0E09FF00E0FA7F00EA2BFAEF3CFF8A03EFFCE0
:050A0D003395E0FDFE41
:0B0A12008B828C838DF0EE851181D06B
:020A1D001122A4
:0A0A1F00C011858111C0820581A875
:0C0A29001108E675F003A4FB903712E4FE
:0A0A350093FCA8110808A604A811FC
:0E0A3F0008088605E4FEFFEB2DFCEF3EFA747E
:0C0A4D00042CFCE43AFA8C8274372AF581
:0A0A590083E493FAA81108A911091B
:090A630009C3E7965003020AF0F2
:0E0A6C00EB2DFDEF3EFE74022DFDE43EFE8DEF
:0C0A7A008274372EF583E493FBBA080069
:0A0A86005036EB240BFCE43400FDB5
:0E0A90007E007407C39AFAE49EFE8AF005F019
:040A9E0074FF80025F
:020AA200C3137C
:0C0AA400D5F0FBFA7E00E51124FCF8E61A
:0E0AB000520208E652068C828D83EAF08032F4
:090ABE00EB240BFAE43400FCE522
:0C0AC7001124FCF80886058A828C83ED5F
:080AD300F07A000BBB00010AE0
:090ADB00EB240BFBEA3400FAE500
:0C0AE4001124FCF886048B828A83ECF05D
:060AF000851181D01122E6
:060AF600855282C053127C
:0A0AFC001F80AA821581BAFF0122B3
:0E0B06008A82C002121F58AB82D00253030C29
:0B0B1400BB0C0874402AF582021D7320
:010B1F0022B3
:060B2000855282C0531251
:0C0B26001F80AA821581BA0A367401559E
:0C0B320056FB7C00C002C003C0048A8295
:0C0B3E00120A1F15811581D002E5562017
:0E0B4A00E019900008E0FBF4FC900004E05C71
:0D0B5800F0900006E0FD5CF0900009EBF06D
:0C0B6500BA021D74015556FB7C00C00252
:0E0B7100C003C0048A82120A1F15811581D0AC
:060B7F0002E5561392800E
:0C0B8500BA0B2074015556FB7C00C00226
:0E0B9100C003C0048A82120A1F15811581E577
:090B9F00561392A4120F13D002A8
:0C0BA800BA0C1974015556FB7C00C00308
:0C0BB400C0048A82120A1F15811581E519
:040BC00056139287AF
:010BC400220E
:0A0BC500C0118581110581058175BD
:090BCF00D160050FE4B50F020529
:010BD800100C
:0C0BD90075D21D75D34075D161A81108BC
:020BE500760098
:0B0BE700A81108E624F85003020D7C62
:0A0BF200A811088603A81108E624E4
:090BFC00FE5006A81108E604FBF6
:0A0C0500A81108E625E025E0FC2414
:0C0C0F0023FD04F8860674022DF886050B
:0A0C1B0008860718EDB50F06EFB5C7
:040C25001002800336
:030C2900020D7544
:0A0C2C00EC2423F8E67003020D75B6
:080C3600C006C210C211EB90D0
:0C0C3E0021CA93F582758337E493FDA86A
:0C0C4A00110808A60575820AC003C0044A
:0C0C5600C022120905AF82AE83ADF0FA97
:0A0C6200D022D004D003A81108B678
:020C6C00020084
:0A0C6E00D0065022D210A81108860B
:0E0C7800027D0074D3C39AFAE49DFD8A827453
:0B0C8600372DF583E493FA30E066D2CE
:030C91001180626D
:0A0C9400EC2423F8E6FAA2E1921224
:0B0C9E00500CA8110808E630E50ED24B
:030CA90011800AAD
:0A0CAC00A8110808E630E702D21193
:0A0CB600301209A8110808E65430B6
:020CC000700CB6
:0A0CC200201216A8110808E654C01D
:020CCC00600DB9
:0B0CCE00A8110808E630E303EF7002F5
:020CD900D21037
:0D0CDB009037D3E493FA30E712BB030FA863
:0A0CE800110808E630E303EF700482
:040CF200D210D21139
:0C0CF600301029EB24FE50177A00C003D8
:0C0D0200C022C006C0028B82120A1F151E
:070D0E00811581D022D00302
:0A0D15008B82C003C022121D73D0B0
:030D1F0022D003DC
:0A0D2200A81108E625E025E0FA24F8
:0B0D2C0023F8E6FC30E204EC24FCF6A7
:0C0D3700301139EB9021CA93FB7C000BBB
:040D4300BB00010CE4
:0C0D47008B8274372CF583E493FB53037C
:0C0D53000FEA2425F9EB2BFA9020DF9327
:0A0D5F00CAA393FBEA250FFAEB3557
:0A0D690010FBA70209A7031980027E
:020D7300760008
:070D7500A8110806020BE7BC
:060D7C00E50FB5490EE58C
:050D820010B54A09E56F
:060D8700476005C2007583
:020D8D0047001D
:060D8F00851181D0112244
:0A0D9500C2E990000AE0FABA280053
:050D9F004003020E1BE1
:020DA4007B00D2
:0E0DA6008A047D007429C39CFCE49DFD8B062D
:0E0DB4007F00C3EE9CEF64808DF063F08095AD
:070DC200F05041C2867C00E5
:030DC900BC0A0061
:0E0DCC005016C28C758C00758A00C28DD28CB8
:050DDA00108D0280FBFA
:050DDF00C28C0C80E550
:040DE400D2867C0037
:030DE800BC0A0042
:0E0DEB005016C28C758C00758A00C28DD28C99
:050DF900108D0280FBDB
:050DFE00C28C0C80E531
:030E03000B80A0C1
:060E0600D20075470175E2
:090E0C0048007415250FFBE435C4
:050E150010FC8B498C6C
:010E1A004A8D
:070E1B00EA24D750777B00A9
:0E0E22008A047D00EC24D9FCED34FFFD8B0624
:0E0E30007F00C3EE9CEF64808DF063F0809530
:070E3E00F05041C2847C006A
:030E4500BC0A00E4
:0E0E48005016C28C758C00758A00C28DD28C3B
:050E5600108D0280FB7D
:050E5B00C28C0C80E5D3
:040E6000D2847C00BC
:030E6400BC0A00C5
:0E0E67005016C28C758C00758A00C28DD28C1C
:050E7500108D0280FB5E
:050E7A00C28C0C80E5B4
:030E7F000B80A045
:060E8200D2007547017566
:090E880048007415250FFAE43549
:050E910010FB8A498BF3
:010E96004A11
:040E9700759400222C
:0E0E9B00C0E0C082C083C002C003C0D075D0CA
:0E0EA90000C2AFC28C758C00758A00C28DD25B
:010EB7008CAE
:050EB800108D0280FB1B
:0C0EBD00C28C30002420841290000AE057
:040EC900FABA46002B
:0A0ECD00501790000AEA04F0800FAD
:0E0ED70090000AE0FA24F55006EA1490000A92
:010EE500F01C
:060EE600D2007547017502
:090EEC0048007415250FFAE435E5
:050EF50010FB8A498B8F
:010EFA004AAD
:0E0EFB003086FD3084FA759400D2AFD0D0D08E
:0A0F090003D002D083D082D0E03282
:0E0F130075F6F07580BF75842475850875A489
:0E0F21000075A50075A0FED284D286C2A5C2BE
:0B0F2F008C758C00758A00C28DD28C7E
:0E0F3A00308DFDD2A5C28C758202120905AA67
:0E0F480082EA13928075820B120905AA82EAD2
:0E0F56001392A475820C120905AA82AB83AC1B
:0C0F6400F0FDEA139287C20090006B744D
:060F70002EF0D2977A007A
:030F7600BA0300BB
:040F7900501C7B008D
:030F7D00BBC800EE
:0E0F80005012C28C758C00758A00C28DD28C06
:060F8E00308DFD0B80E92F
:030F94000A80DFF1
:0C0F9700C28CC201E4C0E0C0E07582061C
:0E0FA300120A1F15811581758206121D7343F7
:0E0FB100A40153A5FE43A104438E047586508F
:0E0FBF00759350759400900002E4F0A3F0903A
:0E0FCD00000074F0F0A374D8F09037ECE493B9
:0A0FDB0025E090000AF0120D959039
:0A0FE5000004E4F0900006F0E4F5CB
:040FEF000FF510905A
:0C0FF30000077401F0900008E4F07A039D
:0E0FFF00EA24F6402DEA9021CA93F58275830C
:0C100D0037E493FBEA24FDFC8CF005F0B6
:0410190074018002DC
:02101D0025E0CC
:0E101F00D5F0FBFCEB30E307900008E0FB4C43
:01102D00F0D2
:03102E000A80CE67
:0E103100E4C0E0C0E075820A120A1F158115A6
:03103F00817A09AA
:0C104200EA14FB25E025E0FC2423F876EE
:0A104E00008B02EA70EEF548F54948
:0C105800F54AF5E475E73775E60375E529
:0E1064000075E73775E60475E50075E737752A
:0E107200E60575E51075E73775E60675E500CD
:0E10800075E73775E60775E50175E73775E624
:0E108E000C75E50075E73775E60D75E5FF7525
:0C109C00E73775E61275E55675E468222A
:0E20DF00524424016B03B205630BC61629227E
:0420ED003D335244E9
:0E20F1000200020002000300030004000400CD
:0E20FF000500050006000700080009000A00A1
:0E210D000B000C000E00100012001400170052
:0E211B001A001E00230028002D00320037009D
:0E2129003C00460050005A0064006E007D002D
:0E2137008C00A000B400C800E60004012C01DA
:0E2145005E019001C201F40126025802BC02A4
:0E21530020038403E8034C04E20478054006F0
:0E2161000807D007FC08280AB80BAC0DA00F29
:0E216F00941188137C157017581B401F2823ED
:0E217D001027F82AD430B036803E5046204E4F
:0E218B00D85990653075B888409CC8AF50C3D5
:0C219900D8D660EAFFFFFFFFFFFFFFFF4A
:0521A50001020A050320
:0E21AA0000000A001900310049006100920097
:0E21B800DB002401B60147026B03B205630B86
:0421C6001C1129229D
:0A21CA00D2D100F9F4EFEAE5E0DA03
:040000000200433285
:01000B0032C2
:0300130002175879
:03001B0002178B3E
:0100230032AA
:01002B0032A2
:01003300329A
:03003B00020E9B17
:03009C0002003E21
:05003E001210D980FE44
:0A10A800E58124FEF8E6F918E6F8E9
:0510B2007A10E4FBFCD4
:0E10B700E58225E0F582E58333F583EB33FB1C
:0E10C500EC33FCEB98F5F0EC994006FCABF038
:0310D30043820154
:0310D600DADF223C
:0A10D900C011E581F5112408F5812E
:0910E300122059120F13D2929051
:0C10EC000000E0FAA3E0FBA81108A60237
:0C10F80008A603900002E0FCA3E0FDA8A5
:0911040011080808A60408A6055C
:0B110D0090370DE493FEBEFF0280034C
:031118000215B10C
:07111B00E57260030215B14B
:0C112200C2AB900007E0FEBE010280138B
:05112E00BE0202802159
:05113300BE0302803143
:06113800BE040302121ABE
:03113E0002143068
:06114100C2031216AB20F0
:0811470003069000077402F09A
:05114F00D2AB021430D8
:08115400C203121686500920A7
:08115C0003069000077403F084
:05116400D2AB021430C3
:0C116900C2031216BDAE82AF83D2AB30C1
:05117500030302143029
:0E117A00900000EEF0A3EFF0EE24E7F582EF18
:0E11880034FFF5837432C0E0E4C0E01210A81A
:0B119600AE82AF8315811581BE1200F0
:0411A10050027E1268
:0711A500EE24AF50027E5062
:0A11AC00EE24D6F582E43421F58329
:0E11B600E493FE9037CAE4932EF5F490000007
:0C11C400E0FEA3E0FFA81108E6B5060756
:0711D00008E6B50702803AB2
:0E11D7008E02EFC423CAC423541F6ACA541FD9
:0811E500CA6ACA30E40244E0CA
:0E11ED00FB53030774182BFBEF30E7047480EC
:0211FB002BFBCC
:0E11FD00C002C003758201120A1F1581158100
:06120B0075820712015775
:091211009000077404F00214308F
:0B121A00C20375820212013AD2AB3011
:05122500030302143078
:0C122A0074902509500B90000274FFF036
:05123600A3F002139F6C
:0B123B009000027402F0E4A3F07E00BB
:0C124600EE9021D493FFC3E5099F4018EF
:0E1252000E900002E0FFA3E0CF25E0CF33FABC
:0A126000900002EFF0A3EAF080DC3A
:0D126A00EEFF24FE4007900002E4F0A3F028
:0C127700AE097A00EF149021D493FBFC28
:0C1283007D00EEC39CFEEA9DFAE51124FC
:0E128F0005F8A60608A602EF9021D493C39B93
:05129D00FBFABF0B008D
:0B12A200E433FB600674022FFC8004A4
:0412AD00EF24FEFC30
:0B12B1008CF005F0E5112405F8800921
:0912BC00E625E0F608E633F61819
:0E12C500D5F0F48A047D00C003C004C005C04B
:0C12D30007C004C005E5112405F8868260
:0E12DF000886831210A8AE82AA83158115819D
:0C12ED00D007D005D004D003E511240583
:0E12F900F8A60608A602EB6022C004C005900D
:0C1307000002E0FEA3E0FCE5112405F864
:0E131300900002E62EF008E63CA3F0D005D0D4
:0313210004803411
:0A132400E5112405F8E5112407F98E
:0E132E00E6F708E6C454F0C7C4C767C754F01A
:0D133C00C76709F7900002E0FBA3E0FAE5A7
:0C134900112407F8900002E62BF008E6E3
:031355003AA3F0C8
:03135800BF0700CC
:0C135B005042AA08E4FBFE74022FFFE4DD
:081367003EFE8FF005F0800648
:06136F00EA2AFAEB33FB51
:0E137500D5F0F7C004C0058A828B831210A841
:0E138300AB83158115818B027B00900002E088
:0E139100FCA3E0FD900002EA2CF0EB3DA3F07F
:0C139F00900002E0FAA3E0FBA81108088F
:0C13AB0008E6B5020708E6B50302806DF5
:0E13B7008A04EBC313CC13CCFD8A06EBC313E0
:0E13C500CE13CEC313CE13CEFFEE2CFCEF3DA5
:0E13D300FDEBC403CAC40354076ACA5407CA18
:0D13E1006ACAFBEA2CFCEB3DFD7A007B386C
:0E13EE00C374FF9C74079D500DEDC313CC1308
:0813FC00CCFD74082BFB80EA14
:0E140400EA2CFCEB3DFDC004C0057582001211
:0E1412000A1F1581158175820412015775821B
:041420000512015759
:0C1424007582031201579000077401F05C
:0E1430009037D2E4935470C4540F75F064A446
:0E143E00FAABF04B605B900000E0FCA3E0FD19
:0C144C00EA2CFEEB3DFFA81108C3E69E51
:0E14580008E664808FF063F08095F05019A8CC
:0C1466001108EA26FEEB0836FFC3EC9EDE
:0C147200ED64808FF063F08095F0402165
:07147E007401F527F5282594
:071485000FFCE43510FD8CA3
:04148C00298D2A90EC
:0C1490000000E0FCA3E0FDA81108A60489
:03149C0008A6059A
:0D149F009037D3E493FC5470700302155A8B
:0E14AC009037D3E4935470C4540F9021E3930F
:0C14BA00FC7D00C004C005A81108080853
:0E14C60086820886831210A8AC82AD83158141
:0D14D40015818C028D03EA4B70037A01FB39
:0C14E100900002E0FCA3E0FDA811080848
:0C14ED0008C3E69C08E69D5018A81108F2
:0E14F9000808ECC396FCED0896FD8A068B07EA
:07150700C3EC9EED9F50298B
:0C150E00900002E0FCA3E0FDA81108081A
:0C151A0008C3EC96ED08965037A81108A5
:0E1526000808E6C39CFC08E69DFDC3EC9AEDA8
:031534009B4023B6
:071537007401F523F52425E2
:07153E000FFAE43510FB8AEF
:04154500258B26903C
:0C1549000002E0FAA3E0FBA8110808086B
:05155500A60208A60338
:0E155A007582081201577582091201573081FF
:0A1568001C200119D2017401C0E03B
:0E157200E4C0E0758206120A1F15811581750E
:051580008206121D733C
:0815850020811A1001028015FB
:0E158D00E4C0E0C0E0758206120A1F15811549
:07159B0081758206121D7329
:0615A20020A503120F1347
:0915A800748025D15003120BC51B
:0615B100300803121D8446
:0715B700D2972097147A641B
:0215BE00DAFE53
:0E15C0003097FD90006BE0FA63028190006BA3
:0215CE00EAF041
:0A15D00090006BE05401FAB4010032
:0915DA00929702110D851181D0D8
:0215E3001122D3
:0E21D4000009111B2835424F5860656A6D7076
:0121E200FFFD
:0521E30064140A05036D
:0E21E8000004080C0F1316191C2024272B2F9F
:0E21F60033373B3F43474D51555A5E63676C8C
:0E22040071767A7F83888D91959A9FA4A9AEFA
:0E221200B3B7BCC1C5C9CDD1D5D9DCE0E3E777
:07222000EAEDF0F3F6FAFD10
:0A15E500D210C2A19009C4C0221266
:0815EF00173BD022D2A17AFFC4
:0915F700A2A182109210DAF8B2F0
:0416000010A2102202
:04160400AA827B013A
:04160800BB00012200
:06160C00EB5A601E7C0099
:03161200BC020017
:071615005005C2A10C80F694
:0E161C00D2A1900104C002C00312173BD003FC
:04162A00D002801258
:0E162E00C2A1900113C002C00312173BD003EB
:04163C00D002D2A165
:05164000EB2BFB80C351
:041645007A007B01AB
:05164900BB000280352A
:02164E007C001E
:03165000BC0200D9
:071653005005C2A10C80F656
:0E165A00D2A1900001C002C00312173BD003C2
:08166800D00230A103EB4202A5
:0E16700090008CC002C00312173BD003D002C2
:05167E00EB2BFB80C610
:031683008A822236
:021686007A00E8
:03168800BA0200A3
:07168B005005C2A10A80F620
:0C169200D2A190000112173BA2A19210FF
:09169E0090008CC02212173BD011
:0416A70022A2102249
:0E16AB001215E5500C7582CC1216047582449F
:0316B90002160412
:0116BC00220B
:0E16BD001215E550707582CC1216047582BEAF
:0B16CB00121604121645AA82C002127B
:0E16D6001645AB82D00274805BFC8B05E4FBF2
:0E16E400FEEA2BFBEE3DFDFAEC6007C3E49B33
:0416F200FBE49AFA81
:0E16F600C002C003C004C003C0029000061270
:0E17040020B9AD82AE8315811581D004D003CB
:0E171200D002EAC313CB13CBC313CB13CBFA15
:0E172000EB2DFDEA3EFEEC600DC3E49DFDE402
:04172E009EFE800497
:041732007DFF7EFFBA
:051736008D828E83226C
:0E173B00AA82AB83C28C74FFC39AFA74FF9B20
:09174900FB8B8C8A8AC28DD28CC4
:06175200308DFDC28C2267
:0E175800C0E0C0D075D000C2AAC28E740F557A
:0E176600892420F589758B80758D80C28FD205
:091774008ED2AB757201C204D2E1
:05177D0002757100750A
:091782007000D203D0D0D0E03297
:0C178B00C022C0E0C0F0C082C083C002D9
:0E179700C003C004C005C006C007C000C001EA
:0C17A500C0D075D000AA72BA0002803ECD
:0517B100BA0202807382
:0617B600BA03030218D57E
:0617BC00BA04030218DB71
:0617C200BA050302193E06
:0617C800BA0A03021969D0
:0617CE00BA0B030219B979
:0617D400BA0C030219DC4F
:0617DA00BA0D030219E242
:0617E000BA1703021A2EE5
:0617E600BA5003021A33A1
:0317EC00021A4B93
:0717EF00E5746005157402AA
:0217F6001A4D8A
:0717F800E575B576028025BE
:0817FF00E5762466F8868212EB
:071807001B745011E576246B
:0A180E0066F8860274204AF675732E
:0418180000121A9709
:06181C0005765376070279
:021822001A4D5D
:05182400C28E021A4D06
:0A182900A28BB39210C28B757203FC
:08183300E571700A757101C234
:04183B0005C20602DA
:02183F001A4D40
:0A184100747F2571401C301008B2BE
:04184B0004E571251A
:03184F0070F570C1
:05185200E5712571F5B0
:06185700716003021A4D4E
:06185D00757181021A4DB5
:0A186300C28EC28FA204201001B350
:0A186D005026E56E700E74CCB570C5
:0318770002D20595
:07187A00740CB57002D206E8
:07188100200513200610E50D
:051888006E244FF8E59D
:05188D0070F6626F051A
:031892006E800263
:02189500C2028D
:05189700100B0280129D
:07189C0030050930020612BD
:0518A3001A6C021A4D51
:0618A800121AE5021A4DC0
:0718AE0030021E20051B2083
:0C18B5000618740F55892410F589758DF4
:0C18C100FA758BABD28E757204D2AA02AD
:0218CD001A4DB2
:0618CF00121A6C021A4D12
:0618D500757201021A4DBC
:0A18DB00300958E56E24FB5052C29C
:0E18E5008E740F55892410F589758DEF758B63
:0A18F3004FD28EC207E55430E71F04
:0618FD00855282C0531267
:0B1903001B0DAA821581BAFF028002B2
:02190E00D207FE
:09191000E552701CE5537018D279
:0319190007801430
:0C191C00903717E493FAB5520B9037187F
:08192800E493FAB55302D20763
:06193000757205021A4D5C
:06193600D208121A6C0237
:02193C001A4D42
:0A193E00C28E74FFB56F1930021657
:0719480030070D754FCCD2F2
:05194F0008121A97C206
:041954000B021A4D1B
:06195800121A6C021A4D88
:07195E00754F0C121A97C22D
:041965000B021A4D0A
:09196900E571247F4034E56E2491
:0A1972004FF88602E5715A7008D2A2
:07197C0096C20AB2048002CA
:02198300D20A86
:08198500E5717007757101C2E4
:03198D00048006CD
:05199000E5712571F571
:0119950071E0
:07199600E57170037571811A
:06199D0075720B021A4DE9
:0919A300200406D296C20A80025B
:0219AC00D20A5D
:0619AE00056E7571007565
:0519B400720D021A4D46
:0E19B900000000000000000000000000000020
:0C19C700C296A20A828B5005121A6C8096
:0119D3000310
:0319D40075720C1D
:0519D700C28B021A4D55
:0619DC0075720A021A4DAB
:0C19E200C296740F5554FA7B0074072A5B
:0C19EE00FAE43BFBAC6E7D00C3EA9CEB0E
:0C19FA0064808DF063F08095F0400AAA34
:061A06004FBACC02800380
:031A0C00BA0C1AF7
:071A0F00AA4FBACC02800EC1
:051A1600BA0C0280097A
:091A1B00D208121AE5D2AA8029B2
:051A2400121A6C802481
:051A290075720E801F24
:051A2E0075720A801A28
:0A1A330074FD2573400D74DF554F5C
:051A3D00F54F057312D6
:041A42001A97800768
:051A4600121A6C800281
:021A4B00057222
:0C1A4D00D203D0D0D001D000D007D006CA
:0E1A5900D005D004D003D002D083D082D0F0CC
:051A6700D0E0D02232A6
:0A1A6C00757200C28BC28EC2AB750A
:0A1A76006F00756E00C28E740F55EC
:0C1A8000892420F589758D80758B807598
:0B1A8C007496C28FD28ED2AAD2AB2279
:0E1A9700C28E740F55892420F589758D8075D7
:0C1AA5008B80C28F740F5554FA74072A0E
:061AB100FA756FFF7B00D7
:0C1AB700C3EB9A500BEB244FF8E6FC62E6
:041AC3006F0B80F035
:071AC700EA244FF8A66FC2EC
:041ACE0005C206D275
:051AD2000B75720A759E
:0A1AD7007100756E00C28BC2AAD226
:041AE1008ED2AB22D4
:0A1AE500757250C28BC28EC2AB7541
:0A1AEF006F00756E00C28E740F5573
:0E1AF900892410F589758DB5758B1EC28FD2AC
:061B07008EC2AAD2AB223F
:0A1B0D00C011858111AA827BFF90B0
:081B17003716E49360527C01D3
:0E1B1F00903716E493FDC39C4046C003EC755E
:0E1B2D00F002A4FDAEF074172DFFE43EFB8F16
:0E1B3B008274372BF583E493FBEAB503028036
:011B49000497
:041B4A00D003801E26
:0E1B4E00D00374182DFDE43EFE8D8274372EF8
:0C1B5C00F583E493FDA811181818E6B5F5
:041B680005028C03E3
:031B6C000C80B03A
:051B6F008B82D0112261
:0A1B7400C011E581F5112404F5818C
:071B7E00AA82C210BA800028
:051B85004003021C8D6D
:081B8A00EA30E604D2118002EA
:021B9200C2117E
:0C1B940053021F8A82C002C02212090501
:0C1BA000AB82AC83ADF0FED022D002A8D6
:0C1BAC001108A60308A60408A60508A658
:0C1BB800068A82C002C022121FE8AF8221
:0C1BC400AB83D022D0028F04EC4B7003E6
:031BD000021D6B88
:0A1BD300754FBC903717E493FD8DA9
:0A1BDD0050903718E493FD8D518BF2
:061BE700058D528C5375C0
:061BED00550030110575E2
:041BF30056408003D5
:031BF700755680A0
:0E1BFA00903712E493FB7C00EA75F003A42BF5
:0E1C0800FBEC35F0FC74042BFBE43CFC8B82FF
:0E1C160074372CF583E493FB24F95006EB247D
:041C2400FBFB800244
:021C28007B013E
:0C1C2A0074E02BF554EB24FE500F740600
:0A1C36002B244FF8A911098704A61A
:031C400004800914
:081C4300A81108E6FC2556F586
:011C4B005642
:0C1C4C00EB24FD500E74052B244FF8A96A
:071C58001109098704A6042D
:0C1C5F00EB24FC500F74042B244FF8A958
:081C6B00110909098704A60410
:0C1C7300EB24FB501074032B244FF8A945
:091C7F0011090909098703A603F4
:051C8800D210021D6BEB
:0A1C8D00754FB0903717E493FB8BFE
:0A1C970050903718E493FB8B518541
:031CA1004B52851E
:0A1CA4004C5353021FBA01028012D4
:051CAE00BA0202801BD8
:051CB300BA03028034B9
:051CB800BA04028040A7
:031CBD00021D699C
:0A1CC000755460743C555524C2F5BC
:041CCA0055021D6939
:081CCE007554637443254DF5C4
:051CD600557556407534
:061CDB005700755812E5E8
:061CE1004D2404F54D53F3
:051CE7004D3C021D69E7
:071CEC0075520075530075ED
:061CF30054E17555017576
:041CF9005640806C65
:021CFD007A006B
:0A1CFF00C3EA954E5049E5577023E3
:0A1D0900740A2A244FF8AB587C003E
:0C1D13008A057E00ED2BFBEE3CFCEB246F
:0A1D1F000BF582EC3400F583E0FBC5
:031D2900F6801F22
:0A1D2C00740A2A244FF8AB587C001B
:0E1D36008A057E00ED2BFBEE3CFC8B827437A1
:071D44002CF583E493FBF68C
:031D4B000A80B15A
:091D4E007463254EF554744245FE
:061D57004DF555744045F6
:041D5D004EF556E504
:061D61004D2404F54D5372
:021D67004D3CF1
:021D6900D21096
:061D6B00A210851181D0D9
:021D710011223D
:0A1D7300AA82E5752466F8A60205B1
:071D7D0075537507D28E2299
:081D8400C20874C35555FAE5CD
:091D8C0052FB7036E553703290F1
:0A1D9500006BE0FC20E003021E8159
:0B1D9F00EA700C74C0B55607C00212B9
:041DAA001F3DD00207
:051DAE00BA01028003F0
:031DB300021E818C
:071DB600E5566003021E81E7
:091DBD00758283121D73021E8160
:081DC600E55430E703021E6C36
:0C1DCE00903717E493FCEBB5040280038F
:031DDA00021E8165
:0B1DDD00903718E493FBB5530280031D
:031DE800021E8157
:051DEB00BA4202801263
:051DF000BA430280323D
:051DF500BA8002804EDF
:051DFA00BA81028059CE
:031DFF00021E8140
:0B1E020074C05556FBBB8003121E8508
:0A1E0D00E556FB54C06003021E817D
:0C1E17008B4E758281121D73758284123F
:041E23001D73805A51
:051E27007480B5560AAD
:081E2C00E57270FC122059124E
:021E34000F138A
:0C1E3600E5567047758281121D7375829D
:061E420082121D738039BD
:061E4800200C36D20C85CF
:031E4E00504B8571
:031E5100514C757C
:041E54004D00802994
:061E5800E550B54B24E546
:051E5E0051B54C1F10FE
:041E63000C02801AD3
:051E6700754D0080151F
:0C1E6C00EA701274C05556FABA800312D6
:021E78000B203D
:071E7A00E5567003120AF6A1
:041E8100756E002258
:0A1E8500C0118581110581058174EB
:0C1E8F000F5556FA758281C002121D73B7
:071E9B00D002E5577030FB97
:081EA200C3EB9A4003021F3755
:0C1EAA00AC587D008B067F00EE2CFCEF96
:0A1EB6003DFDEC240BFCED3400FDB3
:0C1EC000740A2B244FF886068C828D8358
:051ECC00EEF00B80D1D7
:0A1ED100E57270FCC2AF75E400ABCF
:031EDB00587C0030
:0E1EDE00C3EC9A504F75E737EC2BF5E6740A0B
:0B1EEC002C244FF886E58B057E00A833
:0A1EF7001108A604087600A81108DF
:0E1F0100E62DFD08E63E53053F7E00BD3F2065
:0C1F0F00BE001D8A057E001DBDFF011EE6
:0C1F1B00A81108E6B5050708E6B50602A7
:021F2700800632
:061F290075E46875E40098
:031F2F000C80AC77
:051F320075E468D2AF68
:061F3700851181D011228A
:0C1F3D00E57270FCC2AF75E40075E73778
:0A1F490075E6178557E58558E57524
:051F5300E468D2AF229A
:0E1F5800AA82903712E493FB7C0074032BFBEB
:0E1F6600E43CFCEA75F003A42BFBEC35F0FC28
:0C1F74008B8274372CF583E493F58222F5
:0A1F8000C011858111AA827BFFC009
:0C1F8A0003A811181818E6C0E08A8212A3
:0E1F96001B0DAA821581D003903711E493FC35
:0D1FA400F582758337E493FDBAFF028032A9
:031FB1007E000CA3
:0E1FB400C3EE9D502A8C82758337E493FFEABA
:0E1FC200B50719C0028C077A000FBF00010A94
:0E1FD0008F8274372AF583E493FB8D06D002CE
:051FDE000E0C0C80D187
:051FE3008B82D01122E9
:0E1FE800AA827BFE903711E493FC0CEA2A2CAF
:091FF600FCFD7E000DBD00010E92
:0E1FFF008D8274372EF583E493FDB502098CB4
:08200D0082758337E493FAFBAE
:05201500BBFE02803655
:0E201A00EB75F002A4FBAAF074172BFCE43A5D
:0E202800FD8C8274372DF583E493FD7C0074EB
:0E203600182BFBE43AFA8B8274372AF583E408
:0C20440093FA7B00EA2CFCEB3DFD8004CD
:042050007C007D0093
:052054008C828D832247
:0E20590075950075911475924CC2967589218B
:0E206700758F00C28CC28E758D80758B80C205
:0C2075008F75D20E75D3A075D161C20327
:0E20810075A80075E800C2ABC2A8C2AAD2AF13
:0E208F0075B80475B70475F80075F700D28AAD
:09209D0090006B742EF0C205C224
:0420A60006C208D294
:0520AA000975750075C9
:0620AF007600754D00C231
:0420B5000C021A6C93
:06007200E478FFF6D8FD62
:080050007900E94400601B7A0D
:05005800009022277852
:03005D000B75A080
:0A00600001E493F2A308B8000205C2
:08006A00A0D9F4DAF275A0FF41
:0E20B90074FE2581F8E68582F0A4C0E08582E1
:0E20C700F018E6A4F582D0E025F0C58386F07F
:0620D500A42583F583221F
:080078007800E84400600A79F9
:030080000075A068
:0600830000E4F309D8FCC3
:08008900780BE84401600C79DA
:0B00910002900000E4F0A3D8FCD9FAB4
:030043007581764E
:0A0046001220DBE582600302003E99
:0420DB0075820022E8
:00000001FF
