:040000000200433285
:01000B0032C2
:030013000202E006
:03001B00020313CA
:0100230032AA
:01002B0032A2
:01003300329A
:03003B0002016F50
:03009C0002003E21
:05003E0012009F80FE8E
:05009F00120C077A00BD
:0300A400BA32006D
:0E00A700501AC28C901D17E493F58C901D1812
:0800B500E493F58AC28DD28CA0
:0600BD00308DFD0A80E118
:0300C300120243E3
:0C00C600901D0DE493FABAFF2F20142CBB
:0600D200300029A201200C
:0300D8000301B36E
:0C00DB00400D20050A75820012091EA2CB
:0300E70001920380
:0600EA00A202200401B394
:0B00F000400A75820112091EA2029254
:0100FB000400
:0200FC00C20040
:0600FE00300C0312095151
:09010400748025D150031201A200
:07010D00D29720970A7A64E3
:02011400DAFE11
:060116003097FD635281E9
:08011C00E5525401FAB40100A0
:0401240092977A64D0
:04012800DAFE809AE1
:06012C00852E82C02F1297
:0C0132000B62AA821581BA020EE5323081
:07013E00E005C292D2052288
:04014500D292C2058B
:010149002293
:01014A002292
:0C014B00AA827B00EA7006A203E433FCE9
:01015700FBAC
:09015800BA0106A204E433FAFB2B
:0E0161007A007C007D008B828A838CF0ED2278
:0E016F00C0E0C002C0D075D000C2E9740355D4
:07017D0080FABA0202D20170
:05018400BA0102D202E5
:07018900EA7004C201C2028A
:0A019000D200D2077594008A93D2C2
:08019A00E9D0D0D002D0E03220
:0C01A20075D16075D2E175D3000508E44A
:0501AE00B5080205097F
:0601B300E508B50A41E574
:0501B90009B50B3C90AC
:0D01BE001DF4E493603575820012091E9057
:0E01CB001DF6E4936016901DF5E493FA75F0AE
:0701D9003CA42508F50AE52E
:0701E0000935F0F50B801258
:0C01E700901DF5E493FA7B00EA2508F572
:0501F3000AEB3509F5DF
:0101F8000BFB
:0601F900E508B50C41E52C
:0501FF0009B50D3C9064
:0D0204001DF7E493603575820112091E900C
:0E0211001DF9E4936016901DF8E493FA75F061
:07021F003CA42508F50CE5E5
:070226000935F0F50D80120F
:0C022D00901DF8E493FA7B00EA2508F528
:050239000CEB3509F596
:01023E000DB2
:04023F0075D16122F2
:0C0243007584007585007580FFC201C243
:04024F0002C203C222
:0402530004C200C21F
:0C02570005D29275860375930375940020
:0D026300D2E975D2E175D30075D161E4F5E3
:0402700008F50990F4
:0B0274001DF4E4936006750A02E4F537
:01027F000B73
:0C028000901DF7E4936006750C04E4F593
:01028C000D64
:0E028D00C2AF75E40075E71D75E60375E50068
:0E029B0075E71D75E60475E50075E71D75E64F
:0E02A9000575E51075E71D75E60675E503752C
:0E02B700E71D75E60775E50175E71D75E60C98
:0E02C50075E50075E71D75E60D75E5FF75E73B
:0D02D3001D75E61275E5A075E468D2AF2236
:0E02E000C0E0C0D075D000C2AAC28E740F5507
:0E02EE00892420F589758B35758D80C28FD2DD
:0902FC008ED2AB754E02C208D28D
:0503050006754D0075B6
:09030A004C00D207D0D0D0E03243
:0C031300C023C0E0C0F0C082C083C00264
:0E031F00C003C004C005C006C007C000C00176
:0C032D00C0D075D000E54EFA24F150035A
:0303390002063089
:07033C00EA2A2A9003437333
:070343000203700206300204
:06034A0003E302049D0222
:0603500004A602051B02D9
:0603560006300206300231
:06035C000630020630022B
:06036200053F0205A702A1
:0603680006300205CB0285
:02036E0006196E
:0E037000C28E740F55892420F589758B807517
:0A037E008D80C28FD28EE550B5517C
:030388000280519F
:08038B00E5512442F8868212BC
:0B039300071A503DC2AAE54E7032E58B
:0A039E00512442F8E6FA20E5077446
:0603A800204AF6754F002B
:0B03AE0074FC254F400512067B8016F2
:0603B9000551535107C27B
:0403BF0010C2151241
:0C03C300064FC28E758DF0758B00D28E37
:0503CF00D2AA02063075
:0603D40005515351070220
:0203DA000630EB
:0703DC00C28ED2AA02063016
:0A03E300A28BB39218C28B754E0373
:0A03ED00758D00E54D700A754D0195
:0503F700C209C20A0268
:0203FC000630C9
:0A03FE00747F254D401C301808B232
:0404080008E54D2591
:03040C004CF54C60
:05040F00E54D254DF54F
:060414004D6003020630FA
:06041A00754D8102063061
:0A042000C28EC28FA208201801B39B
:0A042A005026E54A700E74CCB54C64
:0304340002D209E8
:07043700740CB54C02D20A5F
:07043E00200913200A10E55C
:050445004A242BF8E53C
:05044A004CF6624B05B9
:03044F004A8002DE
:02045200C206E0
:05045400101002801DE4
:070459003009143006117593
:070460004F04101502800992
:07046700E5262404F52653ED
:02046E00263C2A
:0604700012064F020630E7
:0704760030061E20091B20C7
:0C047D000A18740F55892410F589758D3C
:0C048900FA758B70D28E754E04D2AA0258
:0204950006302F
:0604970012064F020630C0
:09049D00758D80754E02020630D7
:0A04A600300E64E54A24FB505EC2EC
:0E04B0008E740F55892410F589758DEF758BAC
:0804BE0042D28EA213920BE55D
:0804C6003030E71F852E82C0D3
:0C04CE002F1206C7AA821581BAFF028017
:0104DA00021F
:0204DB00D20B42
:0904DD00E52E701CE52F7018D209
:0304E6000B801474
:0C04E900901D17E493FAB52E0B901D181F
:0804F500E493FAB52F02D20BCB
:0904FD0074FFB54B05300B02D26F
:010506000CE8
:06050700754E05020630EE
:08050D00E54A24FE5002D20C65
:0605150012064F02063041
:0A051B00C28E74FFB54B13300B0ABB
:06052500D21112067BC298
:04052B001002063084
:06052F0012064F02063027
:06053500D21212067BC287
:04053B001002063074
:08053F00E54A242BF886023086
:0405470011027ACC57
:05054B003012027A0CE1
:09055000C2AA740AB54E02800330
:0305590002063067
:0A055C00E54D247F402CE54D5A7058
:0905660008D296C20FB20880020F
:02056F00D20FA9
:08057100E54D7007754D01C254
:03057900088006F1
:05057C00E54D254DF5E1
:010581004D2C
:07058200E54D7003754D818A
:05058900754E0B80130C
:09058E00200806D296C20F80027B
:02059700D20F81
:06059900054A754D0075D6
:02059F004E0DFF
:0605A100758D1202063008
:0A05A700E54A70077401B54D020526
:0105B1004FFA
:0A05B200C296A20F828B5007C21000
:0505BC0012064F80064D
:0605C100754E0A758D6EF7
:0405C700C28B8065FE
:0E05CB00C296C28E740F55892410F589758D65
:0A05D900FB758B90D28E20110330C9
:0205E3001205FF
:0505E50012064F802BFF
:0C05EA00740F5530FA7B0074072AFAE405
:0C05F6003BFBAC4A7D00C3EA9CEB648038
:0C0602008DF063F08095F05007D20D12CF
:04060E00064F800310
:03061200754E0E14
:04061500C28B8017FD
:0E061900C28E740F55892420F589758D6E757B
:090627008B80C28FD28E754E0A41
:0C063000D207D0D0D001D000D007D006F7
:0E063C00D005D004D003D002D083D082D0F0FD
:05064A00D0E0D02332D6
:0A064F00754E00C28BC28EC2AB755F
:0A0659004B00754A00C28E740F5565
:0C066300892410F589758D89758BAFC254
:0A066F0011C212C28FD28ED2AAD29D
:02067900AB22B2
:0E067B00C28E740F55892420F589758D6E7519
:0C0689008B80C28F740F5530FA74072A62
:06069500FA754BFF7B002B
:0C069B00C3EB9A500BEB242BF8E6FC623A
:0406A7004B0B80F089
:0706AB00EA242BF8A64BC264
:0406B20009C20AD29D
:0506B60010754E0A75ED
:0A06BB004D00754A00C2AAD28ED28B
:0206C500AB2266
:0A06C700C00E85810EAA827BFF9011
:0806D1001D16E493FCBCFF00C0
:0C06D900503A201337901D16E493603057
:0206E5007C0196
:0E06E700901D16E493FDC39C4024EC2CFD24D2
:0E06F50017901D0093FEEAB5061374182D90A1
:0C0703001D0093FDA80E181818E6B5059F
:03070F00028C0356
:030712000C80D286
:050715008B82D00E22D2
:0A071A00C00EE581F50E2404F58100
:0A072400AA82C218EAA2E59219BAEF
:02072E00800049
:05073000400302082E49
:0C073500EAA2E6921A53021F8A82C00258
:0C074100C02312014BAB82AC83ADF0FE74
:0A074D00D023D002A80E08A603086E
:0D075700A60408A60508A6068A82C002C0F6
:0907640023120BBBAF82AB83D062
:0C076D0023D0028F04EC4B700302090D36
:0A077900752BBC901D17E493FD8D55
:0A0783002C901D18E493FD8D2D8BC2
:06078D00058D2E8C2F7576
:060793003100301A05756B
:040799003240800367
:03079D0075328032
:0E07A000901D12E493FBEA75F003A42B2404D1
:0E07AE00F582E4341DF583E493FB24F9500634
:0607BC00EB24FBFB8002B0
:0207C2007B01B9
:0C07C40074E02BF530EB24FE500F74069F
:0A07D0002B242BF8A90E098704A6BC
:0307DA0004801088
:0C07DD00A80E08743F56FCE4FDFEFFEC83
:0407E9002532F5328E
:0C07ED00EB24FD500E74052B242BF8A902
:0707F9000E09098704A604A4
:0C080000EB24FC500F74042B242BF8A9EF
:08080C000E0909098704A60486
:0C081400EB24FB501074032B242BF8A9DC
:090820000E090909098703A6036A
:05082900D21802090DC8
:0A082E00752BB0901D17E493FB8BAF
:0A0838002C901D18E493FB8B2D8516
:03084200242E85DC
:0A084500252F53021FEA24FA500386
:03084F0002090B90
:07085200EA2A2A90085973FD
:0708590002090B02086B020B
:06086000087702088E0279
:05086600089F020905D6
:08086B0075306074C2252AF506
:040873003102090B3A
:0808770075306374432526F57A
:05087F003175324075E7
:060884003300753412D2AE
:04088A001502090B3F
:07088E00752E00752F0075A7
:0608950030E17531017530
:04089B003240806CFB
:02089F007A00DD
:0A08A100C3EA95275042E528702CA9
:0A08AB00740A2A242BF8EA2529908C
:0C08B5001C0093F6AB297C008A057E0035
:0E08C100ED2BFBEE3CFCBB601CBC0019740A66
:0808CF002A242BF8A652800F29
:0A08D700740A2A242BF8EA25299060
:0508E1001D0093FBF671
:0308E6000A80B8CD
:0908E90074632527F530744245C3
:0608F20026F531744045BB
:0408F80027F5328529
:0308FC0028338519
:0308FF002934D2C7
:0309020015800657
:06090500753060753181C0
:02090B00D21800
:08090D0030190674DF552BF5CB
:010915002BB6
:06091600A218850E81D03D
:02091C000E22A9
:0A091E00AA82C218AB507C000BBB8C
:0309280000010CBF
:0C092B005303077C00AD517E00EDB503C6
:0709370006EEB50402800E7C
:08093E00E5502442F8A6020571
:0509460050535007D2E0
:01094B001893
:05094C00D28EA218226A
:09095100C20CAA3174C35AFBACBC
:07095A0032E52EFD702BE5D4
:090961002F7027E55220E001226D
:0E096A00EB700EBCC00BC003C004120B2FD0EC
:0309780004D003A5
:05097B00BB0102800138
:010980002254
:04098100EC60012203
:0609850075828302091EC9
:08098B00E53030E703020A37F2
:0C099300901D17E493FEEDB506028001F4
:01099F002235
:0B09A000901D18E493FDB52F028001AC
:0109AB002229
:0509AC00BB42028015B2
:0509B100BB4302804180
:0509B600BB8002805629
:0509BB00BB8102806217
:0509C000BB8302806C06
:0109C500220F
:0C09C600743C5AF52A5304F0BC800D75F7
:0C09D2008281C00412091E120A4FD004DA
:0409DE00EC600122A6
:0409E20085322785AE
:0309E6003328852E
:0609E90034297582811221
:0809EF00091E75828402091E35
:0B09F700743C5AF52ABC800343A208A0
:0D0A0200EC704975828112091E7582820216
:020A0F00091EBE
:060A110020143AD2148506
:030A17002C248507
:030A1A002D257512
:050A1D002600C21522B5
:060A2200E52CB52427E5D8
:050A28002DB525221090
:030A2D001401228F
:010A300022A3
:060A310075828502091E1A
:0D0A3700EB701474C05CFABA8007C00412A2
:040A4400012CD004AD
:060A4800EC700302014AFC
:010A4E002285
:0A0A4F00C00EE581F50E2404F581C8
:080A5900A80E08740F5532F6D7
:0A0A6100E54E70FCC2AF75E400AB77
:0A0A6B0034AC3374015C241CFDA8B8
:050A75000E08087600E8
:0A0A7A00A80E0808A90E09C3E697AC
:050A84004003020B24F9
:0C0A8900EC7030C0058B077D00A80E0843
:0E0A95000886027E00EA2FFFEE3DFDBF6005E1
:050AA300BD000280040B
:040AA800D0058010E5
:0A0AAC00D005A80E0808740A2624DD
:060AB6002BF886528002BD
:020ABC008DE7C4
:0A0ABE00A80E0808E62BF5E6A80EC6
:0C0AC8000808740A26242BF886E58B022F
:0A0AD4007E00A80E0808A90E09090B
:0C0ADE0009E6F7097700A80E080808E6F2
:0E0AEA002AFA08E63E53023F7E00BA3F25BEC0
:0C0AF8000022A80E0886027E001ABAFF39
:020B0400011ED0
:0C0B0600A80E080808E6B5020708E6B5CE
:040B12000602800651
:060B160075E46875E400BF
:080B1C00A80E080806020A7A7F
:0A0B240075E468D2AF850E81D00E93
:010B2E0022A4
:0C0B2F00E54E70FCC2AF75E40075E71DD8
:0A0B3B0075E6178533E58534E5758E
:050B4500E468D2AF22BC
:0E0B4A00AA82901D12E493FB0B0B0BEA75F0D0
:0A0B580003A42B901D0093F58222E8
:0A0B6200C00E85810EAA827BFFC041
:0C0B6C0003A80E181818E6C0E08A8212D8
:0E0B780006C7AA821581D003901D11E493FCDC
:0D0B8600F58275831DE493FDBAFF02802304
:030B93007E000CD5
:0E0B9600C3EE9D501B8C8275831DE493FFEA15
:0D0BA400B5070AEC04901D0093FFFB8D06C1
:050BB1000E0C0C80E0B9
:050BB6008B82D00E222D
:0E0BBB00AA827BFE901D11E493FC0CEA2A2C0A
:0E0BC900FC04901D0093FDB502098C8275831B
:050BD7001DE493FAFB90
:050BDC00BBFE02801DBC
:0E0BE100EB2BFB2417901D0093FC7A00741878
:0E0BEF002B901D0093FB7D002AFAED3CFC804C
:010BFD0004F3
:040BFE007A007C00FD
:050C02008A828C8322B0
:0E0C070075950075911475924CC296758921F1
:0E0C1500758F00C28CC28E758D80758B80C26B
:0C0C23008F75D20E75D3A075D161C20789
:0E0C2F0075A80075E800C2ABC2A8C2AAD2AF79
:0C0C3D0075B80475B70CD28A75522EC22F
:040C490009C20AC210
:040C4D0011C212C2FC
:040C51000CD20E753E
:060C55005000755100750E
:050C5B002600C215C2D5
:040C600014C21302A5
:020C6400064F39
:06007200E478FFF6D8FD62
:080050007900E94400601B7A0D
:0500580000900C6A7825
:03005D000075A08B
:0A00600000E493F2A308B8000205C3
:08006A00A0D9F4DAF275A0FF41
:080078007800E84400600A79F9
:030080000075A068
:0600830000E4F309D8FCC3
:080089007800E84400600C79E6
:0B00910000900000E4F0A3D8FCD9FAB6
:0300430075815272
:0A004600120C66E582600302003E22
:040C66007582002271
:00000001FF
