:0E00AD0043B708120A1C901DC4E493FA740FA6
:0C00BB005A7868F6901DC4E493C4540FFA
:0C00C700FA7869A602901DC6E493540864
:0C00D300C423541FFA786AA602901DC6D0
:0C00DF00E4935480235401FA786BA602CD
:0E00EB00901DC6E493540725E0FA901CEB9399
:0E00F900CAA393FB901DC8E493FC7D00C004D5
:0E010700C0058A828B83121CB6AA82AB8315B8
:0B011500811581786EA60208A60390F9
:0E0120001DC6E493C4540725E0FA901CEB932F
:0E012E00CAA393FB901DC9E493FC7D00C0049E
:0E013C00C0058A828B83121CB6AA82AB831583
:0B014A008115817870A60208A60390C2
:0A0155001DD3E493FAE4BA0001049C
:04015F00FAB40100ED
:0C016300E433FA7B00787AA60208A603B9
:0B016F00901DD4E493FAE4BA000104F0
:04017A00FAB40100D2
:0C017E00E433FA7B00787CA60208A6039C
:0E018A00901DD2E493540725E0FA901CEB93ED
:0E019800CAA393FB901DD3E493FC7D00C0042A
:0E01A600C0058A828B83121CB6AA82AB831519
:0B01B4008115817872A60208A6039056
:0E01BF001DD2E493C4540725E0FA901CEB9384
:0E01CD00CAA393FB901DD4E493FC7D00C004F4
:0E01DB00C0058A828B83121CB6AA82AB8315E4
:0B01E9008115817874A60208A603901F
:0A01F4001DD7E493FAE4BA000104F9
:0401FE00FAB401004E
:0C020200E433FA7B00787EA60208A60315
:0B020E00901DD8E493FAE4BA0001044C
:04021900FAB4010032
:0C021D00E433FA7B007880A60208A603F8
:0E022900901DD6E493540725E0FA901CEB9349
:0E023700CAA393FB901DD7E493FC7D00C00486
:0E024500C0058A828B83121CB6AA82AB831579
:0B0253008115817876A60208A60390B2
:0E025E001DD6E493C4540725E0FA901CEB93E0
:0E026C00CAA393FB901DD8E493FC7D00C00450
:0E027A00C0058A828B83121CB6AA82AB831544
:0B0288008115817878A60208A6037893
:080293006C7600786D760075B1
:06029B000800750900785F
:0802A10082760078837600905C
:0E02A9001DC2E493FA740F5A75F00FA4241EC0
:0E02B700FAC002758200120CF51581901DC26E
:0E02C500E493C4540F75F00FA4241EFAC00277
:0E02D300758201120CF51581901DE2E493FA7C
:0E02E100740F5AF582E4C0E0120396AA82154B
:0E02EF00817401C0E0E4C0E0C0E0C0E0740132
:0E02FD00C0E0C002758200120C70E58124FA88
:0E030B00F581901DE2E493C4540FFA740F5A6A
:0E031900F5827401C0E0120396AA8215817469
:0E03270001C0E0E4C0E0C0E0C0E07401C0E04E
:0E033500C002758201120C70E58124FAF58178
:0E034300C2AF75E40075E71D75E60375E500B1
:0E03510075E71D75E60475E50875E71D75E690
:0E035F000575E53075E71D75E60675E5157543
:0E036D00E71D75E60775E50175E71D75E60CE1
:0E037B0075E50075E71D75E60D75E5FF75E784
:0D0389001D75E61275E58A75E468D2AF2295
:0A039600C00A85810AE582FA24F10D
:0703A0005005758280800802
:0803A700EA901CDC93FAF582D8
:0303AF00D00A224F
:0503B200AA82BA02005E
:0C03B7005018EA2488F88603E4BB00011B
:0103C3000435
:0D03C400FB3395E0FCFD8B828C838DF022D5
:0303D100BA060069
:0C03D4005016EA24FC2488F886037C0004
:0C03E0007D007E008B828C838DF0EE226D
:0303EC00BA08004C
:0C03EF005022EA24FA2488F88603E4BBBC
:0303FB00000104FA
:0403FE00FBB401004B
:0E040200E433FB7C007D007E008B828C838DBA
:03041000F0EE22E9
:03041300BA0A0022
:0C0416005016EA24F82488F886037C00C5
:0C0422007D007E008B828C838DF0EE222A
:03042E00BA0D0004
:0E0431005014901CFFE493FB7C007D007E00C5
:08043F008B828C838DF0EE220C
:03044700BA1000E8
:0C044A005016EA24F22482F886037C009D
:0C0456007D007E008B828C838DF0EE22F6
:03046200BA1200CB
:0C0465005016EA24F02484F886027B0084
:0C0471007C007D008A828B838CF0ED22E1
:07047D00900099E4F5F02264
:09048400C00A85810AE582FA2410
:0C048D0008F8E6604D901DC3E493FB8A64
:0E049900047D0074062CFCE43D8CF005F07C24
:0504A700017D0080064C
:0604AC00EC2CFCED33FD19
:0E04B200D5F0F77E00EB5204EE5205EC4D60E3
:0D04C0000C74062AF582C002121969D002E0
:0E04CD0074082AF582C002121969D002EA24CE
:0404DB0008F87600A7
:0304DF00D00A221E
:0A04E200C00AE581F50A240FF58138
:0604EC00854282C04312AC
:0C04F2001751AA821581A80A0808A6026A
:0A04FE00A80A0808B6FF030208A4CC
:0C050800901D11E493FBF58275831DE447
:0A05140093FCE50A2403F8A604E5B1
:0A051E000A2405F8A64774022BFE1C
:0A052800E50A240BF8EB04F6E50ADF
:050532002404F876002E
:0A053700E50A2404F8E50A2403F99C
:08054100C3E69740030208A481
:0C054900C006E50A2404F8E625E0FAE507
:0C0555000A240BF8EA26901D0093FEA873
:090561000A0808E6B5060280054F
:05056A00D00602089B11
:0C056F00D006EA2E901D0093FBE50A2444
:0C057B0007F8A603E50A2406F8743F55B3
:0805870046F6E50A2406F8E53A
:09058F000A2408F9E4B601010494
:0A059800F7E50A2406F8E50A240935
:0605A200F9E4B6090104B2
:0A05A800F7E50A2406F8E50A240A24
:0605B200F9E4B6080104A3
:0605B800F7A80A08760016
:0605BE00A80A08B60200C5
:0505C400400302089B4A
:0A05C900E50A2406F8E67069E50A69
:0C05D3002407F8A90A0986F0E7B5F05BE0
:0A05DF00A90A09E7246CF8E6705140
:0A05E900C006A80A08E625E0FE247B
:0C05F30076F8860208860718E4FDFCEE8E
:0C05FF00247EF8860608860318EE4BB434
:02060B000100EC
:0E060D00E433FEC006C002C007C005C004C032
:0C061B0006E4C0E0A80A088682120C70F9
:0C062700E58124FAF581D006A80A08E657
:070633002408F87601D0064F
:0B063A00E50A2408F8E670030206DE63
:0A064500E50A2407F8A90A0986F067
:06064F00E7B5F002800394
:030655000206DEBC
:0A065800A90A09E7246CF8E6707C9B
:0A066200C006A80A08E625E0FA2405
:0C066C0072F8860308860418E4FDFFEA1B
:0C067800247AF8860208860618EA4EB4C0
:02068400010073
:0A068600E433FAA90A09E72468F832
:0D0690008606C002C003C004C005C007A854
:0C069D000A08E6C0E08E82120396AE82CE
:0E06A9001581D007D005D004D003D002C006C2
:0D06B700C003C004C005C007C002C006A8F3
:0C06C4000A088682120C70E58124FAF509
:0A06D00081D006A80A08E62408F805
:0406DA007601D006CF
:0C06DE00A80A0886047A0074022CFCE4D0
:0C06EA003AFAE50A2407F886037D00EBCD
:0906F600B50406EDB50202800313
:0306FF000207CC23
:0A070200A90A09E7246CF8E6600379
:03070C000207CC15
:0B070F00E50A2409F8E66040C006A8D7
:0A071A000A08E625E0246EF88602C6
:0E072400088604187F007E00C003C005C006D2
:0E073200C002C004C007C006E4C0E074FFC0EF
:0C074000E0A80A088682120C70E58124F3
:0B074C00FAF581D006D005D003D006DE
:0B075700E50A2408F8E66040C006A890
:0A0762000A08E625E0246EF886027E
:0E076C00088604187F007E00C003C005C0068A
:0E077A00C002C004C007C006E4C0E07401C0A5
:0C078800E0A80A088682120C70E58124AB
:0B079400FAF581D006D005D003D00696
:0A079F00E50A2406F8E66008E50A02
:0607A900240AF8E6601DC1
:0C07AF00A80A088682C003C005C006121C
:0C07BB000CE2D006D005D003A80A08E626
:0507C7002408F8760192
:0C07CC00A80A0886047A0074042CFCE4DF
:0C07D8003AFAEBB50406EDB5020280020F
:0207E40080771C
:0A07E600A90A09E7246CF8E6706D1B
:0A07F000C006A80A08E625E0246E02
:0C07FA00F8860208860418E50A240CF8B2
:0C080600A60208A604087600087600A9E7
:0A0812000A09E7246AF88602C00311
:0C081C00C005C006E50A240CF8E6C0E0A8
:0E08280008E6C0E008E6C0E008E6C0E0C00256
:0A083600E50A2405F8E6C0E0A80A70
:0E084000088682120C70E58124FAF581D0063C
:0A084E00D005D003A80A08E624082C
:05085800F87601D00656
:0C085D00A80A0886047A00740C2CFCE445
:0C0869003AFAEBB50425EDB50221A90A0E
:0C08750009E7246CF8E67017C2AF75E4C8
:0C0881000075E71C75E6FFE50A2405F889
:07088D0086E575E468D2AFB7
:07089400A80A08060205BED8
:09089B00E50A2404F80602053701
:0608A400850A81D00A2242
:0608AA00854282C04312EA
:0A08B0001B6EAA821581BAFF012217
:0E08BA008A82C002121B53AB82D00253030C81
:0B08C800BB0C0874402AF5820219697D
:0108D3002202
:0C08D400E582FA25E0FB24ACF88604085D
:0E08E0008605C374D09C74079DE433FCEB24A2
:0C08EE00A8F88605088606C3ED94E8EE25
:0C08FA0094035052EA2482F88605ECB505
:040906000502804620
:0C090A00EA2482F8A604740E2AF582C0CC
:0E09160002C003C004121969D004D003D0023D
:0E092400EC6029C002C003E4C0E0C0E0C0E007
:0E093200C0E07401C0E0E4C0E08A82120C70E4
:0C094000E58124FAF581D003D002EA24FE
:04094C0008F8760130
:0C095000EB24A8F88603088605C374A0F9
:0C095C009B740F9DE433FCEA2484F886B1
:0609680003ECB5030122BF
:0C096E00EA2484F8A60474102AF5820222
:02097A001969F9
:0E1CDC00000119334C667F99B2CCE6FFFFFF82
:011CEA00FFFA
:0C1CEB0000000100100000010010FFFFCD
:0600000002004B02116B2F
:03000B000210D30D
:030013000213A72E
:03001B000213DAF3
:0100230032AA
:01002B0032A2
:01003300329A
:03003B0002119E11
:0300430002107B2D
:0300AA000200460B
:0500460012097C80FEA0
:0E097C00C2AF75E40075E71C75E6FF901CFF26
:0E098A00E49304F5E575E468D2AF121C597AC7
:01099800005E
:03099900BA32006F
:0C099C00501090FFFFC002121C41D0025E
:0609A800308DFD0A80EB1A
:0909AE001200AD75820C121969EA
:0E09B700E5D130E71853D17F120B1EA2AFE43A
:0E09C50033FAC2AF75C2A575C35AEA24FF9279
:0109D300AF74
:0609D40030060312197841
:0E09DA007582001208D47582011208D4D297DB
:0509E8002097217A6454
:0209ED00DAFE30
:0E09EF00209717E5D130E7F853D17F120B1E89
:0C09FD00C2AF75C2A575C35AD2AF80E628
:030A09006367819F
:080A0C00E5675401FBB4010091
:040A140092977A64D7
:040A1800DAFE809BE7
:0600A400753900753A00F9
:0E0A1C0075840075854143F80453F7FBE4C070
:0E0A2A00E075820012134B1581E4C0E0758266
:0E0A38000112134B158175AC2875AD28D2EA5A
:070A46007529A0752A8C75CB
:0A0A4D002B78752C05C28C74F0554F
:0E0A570089F5F0740145F0F589538FF0D2A9AE
:0A0A6500753900753A0075D200756E
:060A6F00D31D75D16122C8
:0C0A7500E582FA2496F8E6604BEA2AFBC2
:0A0A8100248AF8EB24A4F987040985
:0A0A8B008705EA2488F98706EB24AA
:0C0A9500A0F987020987077B00C004C09D
:0E0AA10005C000C002C0078E828B83121CB6F7
:0E0AAF00AB82AE8315811581D000D005D00436
:0C0ABD00EB2CFCEE3DFDA60408A6052273
:0A0AC900EA2AFB248AF8EB24A4F9C2
:0B0AD3008704098705E529C39CFCE5AA
:0A0ADE002A9DFDEA2488F98702EB47
:0C0AE80024A0F987030987067F00C004E2
:0D0AF400C005C000C003C0068A828F8312B7
:0E0B01001CB6AA82AB8315811581D000D005E9
:0E0B0F00D004ECC39AFCED9BFDA60408A605DD
:010B1D0022B5
:020B1E007A005B
:030B2000BA020016
:030B23004001226C
:0C0B2600EA2A25E0FB2498F886040886E3
:0E0B3200050886060886071818181CBCFF095F
:090B40001DBDFF051EBEFF011FD3
:0E0B4900A60408A60508A60608A60718181890
:0C0B5700EB2498F8860308860408860545
:0D0B6300088606181818EB4C4D4E60030272
:020B70000BEC8C
:0A0B7200EA2486F88603EA2488F8D6
:0C0B7C008604C3EC9B500AEA2488F8E6CB
:050B8800FB04F6802EC5
:0A0B8D00EA2486F88603EA2488F8BB
:0C0B97008604C3EB9C500AEA2488F8E6B0
:050BA300FB14F68013B5
:0C0BA800EA2488F88603C002C0038A8299
:070BB4001204841581D00238
:0E0BBB008A82C002120A75D002EA2A25E0FBE7
:0A0BC9002498F8EB248EF987030945
:0E0BD3008704098705098706191919A6030862
:0B0BE100A60408A60508A606181818B0
:0C0BEC00EA2AFB24A8F8860408860518F5
:0C0BF800C3EC94FFED94FF5015EB24A813
:0C0C0400F88603088604180BBB00010CE6
:060C1000A60308A604186B
:0A0C1600EA7007A285E433FB8006B4
:060C2000A287E433FCFB97
:090C2600EA2484F8E6FCB40100A4
:0C0C2F00E433FC5B602CEA2AFB24ACF8E8
:0E0C3B00860408860518C3EC94FFED94FF5064
:0C0C490022EB24ACF88603088604180B8C
:040C5500BB00010CD3
:080C5900A60308A60418800B95
:0B0C6100EA2AFB24ACF87600087600BD
:040C6C000A020B204D
:090C7000C00A85810AE582FA241C
:0A0C790086F8E50A24FDF9E7F6EA23
:0A0C83002A25E0FB248EF8E50A2480
:0E0C8D00F8F9E7F60809E7F60809E7F608099E
:0A0C9B00E7F6EB2498F8E50A24F8C8
:0E0CA500F9E7F60809E7F60809E7F60809E797
:0B0CB300F6E50A24FCF8E66023EA24C2
:090CBE0088F88603EA2488F8E5B1
:0C0CC7000A24FDF9E7F6C002C0038A828F
:0C0CD3001204841581D0028A82120A7576
:030CDF00D00A2216
:0A0CE200E582FA2486F8EA2488F976
:090CEC008703A6038A82020A753F
:0A0CF500C00A85810AE5822582FA13
:080CFF0024A4F8AB2A7C00E5F7
:0C0D07000A24FDF987057E00C002C00030
:0E0D1300C003C0048D828E83121CB6AB82AC6E
:0E0D21008315811581D000D002A60308A60418
:0A0D2F00EA24A0F8E5292433FBE5CF
:0A0D39002A34E3FCEA24A4F987023F
:0E0D4300098705EBC39AEC9DFB7C00A6030814
:050D5100A604D00A22F7
:0A0D5600C00A85810AC082C083052F
:0C0D600081A80A08C3E496FC08E496FD94
:0A0D6C00E53A702CE53975F003A498
:0A0D7600242DF8E50A24FDF9E7F644
:0A0D8000E53975F003A4242D04F8F2
:0C0D8A0076FF0876FF053AC28C8D8C8C39
:060D96008AD28C020FDD81
:090D9C0074FC253A5003020FDD3E
:0E0DA500C004C005C28CAF8C7E00AC8A7D00FD
:0E0DB300EC2EFEED3FFFC3E49EFEE49FFF8E9C
:0C0DC100028F03A80A08C3E69A08E69B0C
:0B0DCD00D005D0045040E539700575DA
:040DD8003903800259
:020DDC001539C7
:090DDE00053AE53975F003A4247F
:0A0DE7002DF8E50A24FDF9E7F6E512
:0A0DF1003975F003A4242D04F8A9BD
:0C0DFB000A09E7C39AFE09E79BFFA60661
:0C0E070008A6078D8C8C8AD28C020FDDAF
:080E1300E50A2403F8A639A842
:0C0E1B000A08E6C39AF608E69BF67D0084
:0C0E2700C005E50A2403F8E675F003A4FA
:0C0E3300FE242D04F8860708860518BF71
:070E3F00FF05BDFF02800466
:040E4600D005805201
:0A0E4A00D005EE242D04F8A90A09D2
:0E0E5400C3E497FF09E497FAA60708A602E593
:0A0E62000A2403F8B60309E50A2488
:060E6C0003F87600800689
:060E7200E50A2403F80666
:0C0E7800E50A2403F8E675F003A4FA2450
:0A0E84002DF8E50A24FDF9E7F6EA6F
:0A0E8E00242D04F876FF0876FF0516
:040E98003A020FDD2E
:0C0E9C00EE242D04F8860208860318C31B
:0C0EA800E49AFAE49BFBA80A08C3E69A4F
:080EB40008E69B4003020FA7B2
:070EBC00E50A2403F8860596
:070EC300BD03047D00800166
:010ECA000D1A
:0C0ECB00ED75F003A4242D04F886030844
:0E0ED700860718BBFFE6BFFFE3BD03047B00E8
:020EE500800388
:030EE700ED04FB1C
:0C0EEA00EB75F003A4FF242D04F8C003F6
:0C0EF600ED75F003A4FB242D04F9870423
:0C0F020009870219A60408A60218EF24B3
:0A0F0E002DF8EB242DF98702A6024E
:0B0F1800E50A2403F8E6B5050280049A
:040F2300D003801463
:090F2700D003EB70047B03800190
:010F30001BA5
:070F3100ED70047D0380B2A6
:030F38001D80AF6A
:0B0F3B00E50A2403F8E675F003A42487
:0A0F46002D04F8A90A09C3E497FA84
:0C0F500009E497FBA60208A603E50A24AA
:0C0F5C0003F8B60309E50A2403F8760048
:020F6800800601
:060F6A00E50A2403F8066D
:0C0F7000E50A2403F8E675F003A4FA2457
:0A0F7C002DF8E50A24FDF9E7F6EA76
:0A0F8600242D04F8EA242D04F98755
:0C0F900002098703A90A09E72AFA09E709
:0B0F9C003BFBA60208A603053A8036C6
:0C0FA700EE242D04F8860208860318A82A
:0A0FB3000A08EA26F6EB0836F6E518
:0A0FBD000A2403F8B60309E50A242C
:060FC70003F8760080062D
:060FCD00E50A2403F8060A
:0A0FD3000DC3ED953A5003020E27FE
:080FDD00D28C850A81D00A22A2
:0C0FE500E582FA25E0FB24A8F87600085D
:090FF10076000527E4B52702058E
:010FFA0028CE
:0A0FFB00EA2496F8E66041EA248833
:0B100500F8E66031EA6004D28080024F
:02101000D28686
:0D101200EA2A25E0FC8CF005F0740980024C
:02101F0025E0CA
:0C102100D5F0FBFCEB248AF8860508865D
:0D102D0006C0048D828E83120D561581229F
:06103A00EA6003C28022FF
:03104000C2862243
:07104300EA6004C280800294
:02104A00C2865C
:0C104C00EA2488F8E66027EA2A25E0FA8A
:081058008AF005F07408800223
:0210600025E089
:0C106200D5F0FBFAEB248AF88603088620
:0C106E0004C0028B828C83120D56158189
:01107A002253
:0C107B00C022C0E0C0F0C082C083C002F0
:0E108700C003C004C005C006C007C000C00101
:0E109500C0D075D000E5AC30E00953ACFE755C
:0510A3008200120FE5C0
:0E10A800E5AD30E00953ADFE758201120FE593
:0E10B600D0D0D001D000D007D006D005D00495
:0D10C400D003D002D083D082D0F0D0E0D095
:0210D1002232C9
:0E10D300C0E0C0F0C002C003C000C0D075D0A5
:0810E10000E53A700302115E04
:0A10E900E53975F003A4242DF88604
:0C10F3000253020FBA08097888E6600971
:0410FF00D286800510
:05110300BA0902C286DA
:0A110800E53975F003A4242DF8E684
:0C111200FBC4540FFABA08097889E660A3
:05111E0009D2808005EC
:05112300BA0902C280C0
:07112800153AE53A6024E5E9
:0A112F003975F003A4242D04F8869E
:0C113900020886038B8CE53975F003A4D6
:0C114500242D04F886020886038A8AD252
:011151008C11
:0A1152007403B539057539008002F9
:02115C00053953
:0D115E00D0D0D000D003D002D0F0D0E032CD
:0E116B00C0E0C002C003C004C005C0D075D0F3
:0E11790000AB8C7A00AC8A7D00EC2AFAED3BCC
:0A118700FBC3E49AF523E49BF52472
:0D119100D0D0D005D004D003D002D0E03281
:0E119E00C0E0C002C003C004C005C0D075D0C0
:0E11AC0000AB8C7A00AC8A7D00EC2AFAED3B99
:0A11BA00FBC3E49AF525E49BF5263B
:0D11C400D0D0D005D004D003D002D0E0324E
:0A11D100C00AE581F50A2406F58145
:0B11DB00AA82A80A0876FF0876FFE54C
:0C11E6000A2403F8E4F608F68AF005F08D
:0411F2007401800202
:0211F60025E0F2
:0C11F800D5F0FBFF8AF005F0E50A24FDAD
:04120400F8E6800286
:0212080025E0DF
:0C120A00D5F0FBFAE50A24FCF886F0059C
:0A121600F0E50A2405F874018002D7
:0212200025E0C7
:0C122200D5F0FBF6E50A24FCF886F00588
:09122E00F0E50A24FBF8E6800259
:0212370025E0B0
:0C123900D5F0FBFEE50A2406F8A606C26C
:07124500AFC28C7BFF7C00AF
:05124C001BBBFF011CAB
:06125100EB4C70F7FBFC02
:0C125700C3EB9414EC9400400302133924
:08126300758A00758C00D28C25
:0D126B00C003C004EF5580FBB502028006F1
:06127800D004D003800F3A
:0D127E00D004D00374FFB58CE490FFFF0294
:02128B00134509
:0A128D00C28C758A00758C00D28CAB
:0E129700C003C004EF5580FBB50206D004D0A2
:0312A50003800FB4
:0D12A800D004D00374FFB58CE690FFFF0268
:0212B5001345DF
:0A12B700C28C758A00758C00D28C81
:0C12C100C003C004E50A2405F8E65580CF
:0C12CD00FBE50A2406F8E6B50306D00491
:0412D900D003800EB0
:0E12DD00D004D00374FFB58CDB90FFFF805A65
:0E12EB00C003C004C28CAC8C7B00AE8A7D00B8
:0C12F900EE2BFBED3CFC8B058C06E50A9F
:0E1305002403F8C3E69D08E69ED004D00350F2
:0B1313000AE50A2403F8A60508A60658
:0C131E00A80A08C3ED96EE08965008A837
:07132A000A08A60508A6064B
:051331000BBB00010CE4
:0313360002125749
:0C133900D2AFD28CA80A088682088683F6
:06134500850A81D00A2296
:08134B00C00A85810AE5822435
:0A13530096F8E50A24FDF9E7F6D04C
:02135D000A2262
:01135F00226B
:0C136000AA827B007C007D007E007F00E4
:0E136C00C3EF9A501174CD2BFB741C3CFCE4B3
:08137A003DFDE43EFE0F80EA98
:0E138200ECA2E7CB33CB33CB5401FCED2D4C6A
:0E139000FCEEA2E7CD33CD33CD54018CD28BD1
:05139E00D375D16122AE
:0413A30075D160227E
:0E13A700C0E0C0D075D000C2AAC28E740F552F
:0E13B500892420F589758B80758D80C28FD2BA
:0913C3008ED2AB756201C202D2A8
:0513CC000075610075D1
:0913D1006000D201D0D0D0E0325E
:0C13DA00C022C0E0C0F0C082C083C0028E
:0E13E600C003C004C005C006C007C000C0019F
:0C13F400C0D075D000AA62BA0002803E92
:05140000BA0202806F3A
:06140500BA0303021520EA
:06140B00BA0403021526DD
:06141100BA050302158775
:06141700BA0A030215B23F
:06141D00BA0B03021602E7
:06142300BA0C03021620C2
:06142900BA0D03021626B5
:06142F00BA170302167259
:06143500BA500302167715
:03143B0002168F07
:07143E00E56460051564027E
:021445001691FE
:06144700E565B566030235
:02144D001691F6
:08144F00E5662456F8868212BE
:0714570017945011E5662413
:0A145E0056F8860274204AF6756302
:04146800001216DB7D
:06146C000566536607024D
:021472001691D1
:0A147400A28BB39210C28B756203C5
:08147E00E561700A756101C20D
:0414860003C2040297
:02148A001691B9
:0A148C00747F2561401C301008B287
:0414960002E56125E5
:03149A0060F5609A
:05149D00E5612561F589
:0614A200616003021691D7
:0614A8007561810216913E
:0A14AE00C28EC28FA202201001B30B
:0A14B8005026E55E700E74CCB5609E
:0314C20002D20350
:0714C500740CB56002D204B3
:0714CC00200313200410E5CA
:0514D3005E243FF8E576
:0514D80060F6625F05F3
:0314DD005E80022C
:0214E000C20048
:0514E200100902801258
:0714E700300309300006127A
:0514EE0016B00216918A
:0614F300121729021691F8
:0714F90030001E20031B2040
:0C1500000418740F55892410F589758DAE
:0C150C00FA758BABD28E756204D2AA0275
:0215180016912A
:06151A001216B00216914A
:0615200075620102169144
:0A152600300758E55E24FB5052C266
:0E1530008E740F55892410F589758DEF758B1B
:0A153E004FD28EC205E54430E71FCE
:06154800854282C043123F
:0B154E001751AA821581BAFF0280022B
:02155900D205B9
:09155B00E542701CE5437018D252
:03156400058014EB
:0C156700901D17E493FAB5420B901D187C
:08157300E493FAB54302D2052E
:06157B00756205021691E5
:061581001216B0021691E3
:0A158700C28E74FFB55F1930001624
:0715910030050D753FCCD2BF
:05159800061216DBC283
:04159D000902169198
:0615A1001216B0021691C3
:0715A700753F0C1216DBC2B8
:0415AE000902169187
:0915B200E561247F4034E55E246C
:0A15BB003FF88602E5615A7008D27D
:0715C50096C208B202800289
:0215CC00D20843
:0815CE00E5617007756101C2BF
:0315D6000280068A
:0515D900E5612561F54C
:0115DE0061AB
:0715DF00E5617003756181F5
:0615E60075620B02169174
:0915EC00200206D296C20880021A
:0215F500D2081A
:0615F700055E7561007540
:0515FD00620D021691D1
:0E1602000000000000000000000000000000DA
:0A161000C296A208828B40037562A7
:01161A000CC3
:05161B00C28B021691D4
:0616200075620A0216913A
:0C162600C296740F5544FA7B0074072A2A
:0C163200FAE43BFBAC5E7D00C3EA9CEBDD
:0C163E0064808DF063F08095F0400AAAF3
:06164A003FBACC02800350
:03165000BA0C1AB7
:07165300AA3FBACC02800E91
:05165A00BA0C0280093A
:09165F00D206121729D2AA802933
:051668001216B0802401
:05166D0075620E801FF4
:0516720075620A801AF8
:0A16770074FD2563400D74DF553F3C
:05168100F53F056312B6
:0416860016DB8007E8
:05168A001216B0800201
:02168F000562F2
:0C169100D201D0D0D001D000D007D0068C
:0E169D00D005D004D003D002D083D082D0F08C
:0516AB00D0E0D0223266
:0A16B000756200C28BC28EC2AB75DA
:0A16BA005F00755E00C28E740F55CC
:0C16C400892420F589758D80758B807558
:0B16D0006496C28FD28ED2AAD2AB2249
:0E16DB00C28E740F55892420F589758D807597
:0C16E9008B80C28F740F5544FA74072ADE
:0616F500FA755FFF7B00A7
:0C16FB00C3EB9A500BEB243FF8E6FC62B6
:041707005F0B80F004
:07170B00EA243FF8A65FC2CB
:0417120003C204D238
:051716000975620A756F
:0A171B006100755E00C28BC2AAD205
:041725008ED2AB2293
:0A172900756250C28BC28EC2AB7510
:0A1733005F00755E00C28E740F5552
:0E173D00892410F589758DB5758B1EC28FD26B
:06174B008EC2AAD2AB22FF
:0A175100C00A85810AAA82901D16C5
:09175B00E493FB7CFF602D7D018D
:0E176400C3EB9D4026ED2D2417FEF582758304
:0E1772001DE493FFEAB50712EE04901D0093EC
:0C178000FEE50A24FDF8E6B506028D0423
:03178C000D80D5F8
:05178F008C82D00A224B
:0A179400C00AE581F50A2404F5817E
:07179E00AA82C210BA80000C
:0517A500400302189151
:0817AA00EA30E604D2118002CE
:0217B200C21162
:0C17B40053021F8A82C002C0221203B23E
:0C17C000AB82AC83ADF0FED022D002A8BA
:0C17CC000A08A60308A60408A60508A643
:0C17D800068A82C002C022121BD4AF821D
:0C17E400AB83D022D0028F04EC4B7003CA
:0317F0000219617A
:0A17F300753FBC901D17E493FD8DB7
:0A17FD0040901D18E493FD8D418B10
:06180700058D428C4375C3
:06180D00450030110575D5
:0418130046408003C8
:0318170075468093
:0E181A008A82121C22E582FB24F95006EB2480
:04182800FBFB800244
:02182C007B013E
:0C182E0074E02BF544EB24FE500F740610
:0A183A002B243FF8A90A098704A631
:0318440004800914
:08184700A80A08E6FC2546F59D
:01184F004652
:0C185000EB24FD500E74052B243FF8A97A
:07185C000A09098704A60434
:0C186300EB24FC500F74042B243FF8A968
:08186F000A0909098704A60417
:0C187700EB24FB501074032B243FF8A955
:091883000A090909098703A603FB
:05188C00D210021961F9
:0A189100753FB0901D17E493FB8B28
:0A189B0040901D18E493FB8B41857B
:0318A5003B42853E
:0A18A8003C4353021FBA01028012F4
:0518B200BA0202801BD8
:0518B700BA03028033BA
:0518BC00BA0402803FA8
:0318C10002195FAA
:0A18C400754460743C554524C2F5DC
:0418CE004502195F57
:0818D2007544637443253DF5E4
:0518DA00457546407554
:0618DF004700754812E508
:0618E5003D2404F53D5313
:0418EB003D3C807090
:0718EF00754200754300750E
:0618F60044E17545017597
:0418FC004640805F83
:021900007A006B
:0A190200C3EA953E503CE54770260D
:0A190C00740A2A243FF87600AB4865
:0E1916007C008A057E00ED2BFBEE3CFCBB60E6
:0B1924001CBC0019740A2A243FF8A61E
:03192F0067800FBF
:0A193200740A2A243FF8EA254890C1
:05193C001D0093FBF605
:031941000A80BE5B
:091944007463253EF5447442452C
:06194D003DF54574404524
:041953003EF546E532
:061957003D2404F53D53A0
:02195D003D3C0F
:02195F00D210A4
:06196100A210850A81D0EE
:021967000A2252
:0A196900AA82E5652456F8A60205DF
:05197300655365072229
:08197800C20674C35545FAE5EF
:0919800042FB7033E543702FE5D2
:071989006720E003021A725F
:0B199000EA700C74C0B54607C00212DC
:04199B001B38D00223
:05199F00BA0102800303
:0319A400021A72B2
:0719A700E5466003021A721D
:0919AE00758283121969021A7294
:0819B700E54430E703021A5D6C
:0C19BF00901D17E493FCEBB504028003BC
:0319CB00021A728B
:0B19CE00901D18E493FBB5430280035A
:0319D900021A727D
:0519DC00BA4202801276
:0519E100BA4302803250
:0519E600BA8002804EF2
:0519EB00BA81028059E1
:0319F000021A7266
:0B19F30074C05546FBBB8003121A763F
:0A19FE00E546FB54C06003021A72B4
:0C1A08008B3E7582811219697582841270
:041A14001969805A72
:051A18007480B5460AD0
:081A1D00E56270FC121C591275
:021A250000AD12
:0C1A2700E54670477582811219697582CE
:061A3300821219698039DE
:061A3900200A36D20A85E6
:031A3F00403B85A4
:031A4200413C75AF
:041A45003D008029B7
:061A4900E540B53B24E579
:051A4F0041B53C1F1031
:041A54000A02801AE8
:051A5800753D00801542
:0C1A5D00EA701274C05546FABA800312F9
:021A690004E295
:071A6B00E54670031208AA12
:041A7200755E00227B
:0A1A7600C00A85810A05810581740C
:0C1A80000F5546FA758281C002121969E8
:0A1A8C00D002E547FB7034AC48FBC4
:081A9600C3EB9A4003021B326E
:0E1A9E00C0028C067F008B027D00EA2EFEED5A
:0A1AAC003FFFBE6005BF000280048A
:041AB600D002800AD0
:0A1ABA00D002740A2B243FF886675F
:031AC4000B80CFC5
:0C1AC700E56270FCC2AF75E40074015BC6
:071AD300241CFBAC487D0060
:0E1ADA00C3ED9A504E8BE7ED2CF5E6740A2D05
:0A1AE800243FF886E58C067F00A875
:0A1AF2000A08A605087600A80A08F5
:0E1AFC00E62EFE08E63F53063F7F00BE3F2069
:0C1B0A00BF001D8A067F001EBEFF011FE9
:0C1B1600A80A08E6B5060708E6B50702B5
:021B220080063B
:061B240075E46875E400A1
:031B2A000D80AD7E
:051B2D0075E468D2AF71
:061B3200850A81D00A22A1
:0C1B3800E56270FCC2AF75E40075E71DAB
:0A1B440075E6178547E58548E5754D
:051B4E00E468D2AF22A3
:0E1B5300AA82901D12E493FB0B0B0BEA75F0B7
:0D1B610003A42BF58275831DE493F5822209
:0A1B6E00C00A85810AAA827BFFC02D
:0C1B780003E50A24FDF8E6C0E08A8212B2
:0E1B84001751AA821581D003901D11E493FC25
:0D1B9200F58275831DE493FDBAFF028030DB
:031B9F000C7E00B9
:0E1BA200BBFF2AC3EE9D5025C005EE2E2CFF82
:0E1BB000F58275831DE493FDEAB505028004FD
:041BBE00D005800AC4
:0A1BC200D005EF04901D0093FFFB17
:031BCC000E80D3B5
:051BCF008B82D00A2208
:0E1BD400AA827BFE901D11E493FC0CEA2A2CE1
:0E1BE200FC04901D0093FDB502098C827583F2
:051BF0001DE493FAFB67
:051BF500BBFE02801F91
:0E1BFA00EB2BFB2417901D0093FA74182B9010
:0E1C08001D0093FB7C008A05E42BFBED3CFCE9
:031C1600FA80044D
:041C19007B007A00D2
:051C1D008B828A832286
:0E1C2200AA827BFF901D12E493FCC39A400E31
:0E1C3000EA75F003A42C2404901D0093FAFB27
:031C3E008B822274
:0E1C4100AA82AB83C28C74FFC39AFA74FF9B15
:0A1C4F00FB8B8C8A8AC28DD28C2296
:0E1C590075950075911475924CC2967589218F
:0E1C6700758F00C28CC28E758D80758B80C209
:0C1C75008F75D20E75D3A075D161C2012D
:0E1C810075A80075E800C2ABC2A8C2AAD2AF17
:0E1C8F0075B80475B70475F80075F700D28AB1
:061C9D0075672EC203C2B0
:041CA30004C206D29F
:051CA7000775650075E2
:061CAC006600753D00C258
:041CB2000A0216B05C
:06007A00E478FFF6D8FD5A
:080058007900E94400601B7A05
:0500600000901CF77880
:030065000075A083
:0A00680000E493F2A308B8000205BB
:08007200A0D9F4DAF275A0FF39
:0E1CB60074FE2581F8E68582F0A4C0E08582E8
:0E1CC400F018E6A4F582D0E025F0C58386F086
:061CD200A42583F5832226
:080080007800E84400600A79F1
:030088000075A060
:06008B0000E4F309D8FCBB
:080091007800E84400600C79DE
:0B00990000900000E4F0A3D8FCD9FAAE
:03004B007581AF0D
:0A004E00121CD8E582600302004690
:041CD80075820022EF
:00000001FF
