:0A007F00E58124FEF8E6F918E6F822
:050089007A10E4FBFC0D
:0E008E00E58225E0F582E58333F583EB33FB55
:0E009C00EC33FCEB98F5F0EC994006FCABF071
:0300AA004382018D
:0300AD00DADF2275
:0C00B000C0E0C0D0C000C004C005A80C17
:0A00BC00850BAC850BAD7C007D00C8
:0A00C60085AC0D85AD0EE65402A2D4
:0E00D000E1E49280C3EC2401FCED3400FDB4A9
:0A00DE0040E67C807D007508007587
:0200E80009000D
:0A00EA00C385AC0D85AD0EE654028F
:0A00F400A2E1E492803508F508E56A
:0A00FE00093400F509C3EC2401FCED
:0E010800ED3400FDB4C4DBD005D004D000D02F
:04011600D0D0E02243
:0B011A00E582FA30E005750B30800331
:03012500750B2037
:09012800EA30E105750C0E8003BC
:03013100750C0D3D
:030134000200B016
:0A013700C015E581F515240BF581D4
:07014100AA82C208C209E511
:0C014800152408F8E4F608F6E4FDFEEAD1
:0B01540024FD75F005A4FFBA09010F9F
:0E015F00C005C00674F9C39F901D0093FB7489
:0D016D00FAC39F901D0093540725E0FD90FC
:0C017A001AED93CDA393FEED250FFDEED2
:0A0186003510FEE515240AF8A60561
:0E01900008A60675820AC002C003C005C0069C
:08019E00C007C02112196ED048
:0C01A60021D007D006D005D003D0029075
:0E01B2001DD3E493D006D00520E7030203100E
:0501C000BA03028003F8
:0301C50002031022
:0901C800AA2F901DFBE493FCE555
:0C01D100152404F8EC75F00AA4F608A64A
:0E01DD00F074075B901BB393FC7D00C002C062
:0C01EB0003C004C005E5152404F886825A
:0E01F700088683120E5CAC82AD8315811581E3
:0C020500D003D002E5152406F8A604087A
:0C021100A605E5152406F8E60846700A6C
:0A021D00E5152406F87601E408F662
:0E02270074F05BFCC4540FFB0BEBC454F0FBF3
:0A023500E5152404F8C3E695280837
:0A023F00E695295039E5152404F86E
:0D024900860408E6CC25E0CC33FDC3EC951F
:0802560028ED9529500EC3E5C7
:09025E002F9B4008E52FC39BF51E
:030267002F8013D2
:09026A00E52F24FC500A152F15A4
:040273002F152F15FF
:030277002F8003D2
:03027A00752F00DD
:0A027D00E5152404F8E5152406F940
:0C028700E6C397FC08E60997FDC3E528D4
:090293009CE5299D505AE528253F
:07029C0028FCE52933FDE514
:0A02A300152404F8E5152406F9E619
:0E02AD00C397FE08E60997FFC3EC9EED9F5035
:0E02BB00268B047D0074FFC39CFCE49DFDAE09
:0C02C9002F7F00C3EC9EED64808FF0637B
:0A02D500F08095F04007EB252FF5AF
:0302DF002F80115C
:0A02E2007404252F4008E52F2404C2
:0402EC00F52F800367
:0302F000752FFF68
:0702F300EAB52F030207C466
:0502FA00753C01852F99
:0802FF003D7401250FFAE435FE
:0503070010FB8A3E8B93
:04030C003F0207C4E1
:03031000BA06002A
:0503130040030204702C
:0E031800C005C00674FBC39F901D009324F91E
:0C03260025E0FD901AFF93CDA393FEE5A7
:0C033200152404F8A60508A60674075B55
:0C033E00901BB393FD7E00C002C007C0FE
:0A034A0021C005C006E5152404F8E3
:0E0354008682088683120E5CAD82AE83158110
:0A0362001581D021D007D002E51567
:0D036C002406F8A60508A606D006D005E573
:0A037900152406F8E60846700AE5B0
:09038300152406F87601E408F6E1
:0A038C00E5152404F8C3E6952808DF
:07039600E695295002D20890
:0A039D00C005C006E5152404F8E5CC
:0C03A700152406F9E6C397FD08E6099747
:0A03B300FEC3E5289DE5299ED00653
:0603BD00D0055002D20938
:0E03C300C005C00674FAC39F901D009354F04D
:0E03D100C4540F25E0FD901BB893CDA393FEFE
:0C03DF00E5152408F8A60508A606BA03D8
:0703EB0006D006D0058011C9
:0903F200D006D005BA04028040D7
:0503FB00BA0502805468
:030400000206559C
:0E040300C005C006901DD3E493D006D005209E
:0E041100E71C901DCDE49354F0C4540F25E079
:0E041F00FB901BB893CBA393FC8B058C0602BD
:02042D00065572
:0C042F00E5152408F8E4F608F60206556E
:0E043B00901DCDE493540F25E0FB901BB89369
:0B044900CBA393FC8B058C060206552C
:0E045400901DCCE49354F0C4540F25E0FB90AF
:0E0462001BB893CBA393FC8B058C06020655AA
:03047000BA0800C7
:050473004003020542F8
:0E047800C005C00674FBC39F901D0093FDE5F8
:0C048600152404F8A60508760074075B36
:0C049200FDE5152406F8A605087600E537
:0C049E00152404F8C3E6943308E694002B
:0904AA00D006D0054003020655FE
:0B04B300C005C006C002C007C021E564
:0C04BE00152404F8E6C0E008E6C0E09059
:0E04CA000064121AC7AD82AE8315811581D071
:0804D80021D007D002AB22ACD9
:0C04E00023C3ED9BEE9CD006D00550021B
:0204EC00D20834
:0A04EE00C005C006E5152404F8E57A
:0C04F800152406F9E6C397FB08E60997F7
:0C050400FCC002C005C006C007C021C03A
:0E05100003C004900064121AC7AB82AC8315BE
:0C051E00811581D021D007D006D005D077
:0A052A0002AD22AE23C3ED9BEE9C50
:09053400D006D005400302065573
:05053D00D20902065581
:0E054200BA080B901DDFE493FB5303F0800A10
:0A055000901DD9E493FC74F05CFBED
:0E055A00EA901BD89304901D0093FC5304708C
:07056800C208BC0002801470
:05056F00BC1002801326
:05057400BC200280160E
:05057900BC30028019F6
:05057E00BC4024801CBC
:04058300D208801EFC
:08058700E52EA2E392088016A4
:08058F00E52EA2E49208800EA3
:08059700E530A2E392088006A2
:06059F00E530A2E4920821
:0505A500BB1002801CE8
:0505AA00BB2002802DC2
:0505AF00BB3002803F9B
:0505B400BB4002805273
:0505B900BB500280634D
:0505BE00BB6002807526
:0305C30002064EDF
:0A05C600E52E5401FBA208E433FC0B
:0605D000D3EB5C7001C3D7
:0605D600920A92088072F7
:0A05DC00E52E035401FBA208E433EE
:0705E600FCD3EB5C7001C3C4
:0605ED00920A9208805BF7
:0A05F300E52E03035401FBA208E407
:0805FD0033FCD3EB5C7001C379
:06060500920A92088043F6
:0A060B00E5305401FBA208E433FCC3
:06061500D3EB5C7001C391
:06061B00920A9208802DF6
:0A062100E530035401FBA208E433A6
:07062B00FCD3EB5C7001C37E
:06063200920A92088016F6
:0A063800E53003035401FBA208E4BF
:0806420033FCD3EB5C7001C333
:04064A00920A920876
:06064E00A208B3920A921B
:01065400099C
:03065500BA0800E0
:0306580040010F4F
:0C065B0074F8C39F901D0093FBA81508C5
:0D06670008A60374F7C39F901D0093FCA824
:0C0674001508A604EA24FDFF8FF005F035
:04068000740180027F
:0206840025E06F
:0A068600D5F0FBFF20080302072E49
:08069000EF552E60030207265E
:0C069800E5152408F8E608466005EF555B
:0306A40033601DA3
:0A06A700E515240AF87401250FF68A
:0A06B100E4351008F6EFF4FC5233B4
:0906BB00A8150808087603803632
:0C06C400EA1425E025E02434F88604BC8C
:0B06D0000509A8150808087600801F27
:0A06DB00A8150808087607E51524A5
:0A06E50008F8E6250FFC08E63510C2
:0B06EF00FBE515240AF8A60408A6038A
:0B06FA00EA1425E025E0FB2434F8A9F9
:0A07050015090909E7F6EB2434FB9F
:0C070F0004F8A9150909E7F674022BF89C
:0B071B00E515240AF9E7F60809E7F6E7
:08072600EF422EEFF4FB52300C
:06072E002009030207C4CC
:08073400EF553060030207BC21
:09073C00ED4E6005EF5533601D20
:0A074500E515240AF87401250FF6EB
:0A074F00E4351008F6EFF4FB523316
:09075900A815080808760180309B
:0C076200EA1425E025E02434F88603BBEF
:0B076E000709A815080808760080198C
:0A077900A8150808087605ED250F05
:0A078300FDEE3510FEE515240AF81E
:05078D00A60508A60608
:0A0792001AEA2A25E0FA2434F8A937
:0A079C0015090909E7F6EA2434FA0A
:0C07A60004F8A91509E7F674022AF8E52A
:0A07B20015240AF9E7F60809E7F636
:0807BC00EF4230EFF4FF522E72
:0607C400851581D015220D
:0807CA00C015858115AA82A863
:0C07D200151818188682C00212186AABB5
:0C07DE0082AC83D002EB4C70030208696F
:0A07EA007558BC901D17E493FD8DB7
:0807F40059901D18E493FD8DDE
:0607FC005A8C058D5B8B99
:080802005C755E00EA700575EB
:04080A005F408003C8
:03080E00755F8093
:0C081100A81518181886821219D4AA82A3
:03081D00BA060018
:0A082000E433FB600E755DE1E515A1
:09082A0024FBF8E6FC255FF55FF4
:0C083300EB7011EA24F8400C755DE2E562
:08083F001524FBF886038B6011
:0A084700BA0816755DE3E51524FB01
:0A085100F80886028A60E51524FB12
:05085B00F886028A612D
:09086000C2AA1215E5C28BD2AA4E
:03086900D0152285
:06086C00855B82C05C12F6
:0A08720018FAAA821581BAFF0122CC
:0C087C00C002121699D002BA0002800AD5
:05088800BA0102800B23
:05088D00BA0320800CFD
:06089200AB2CAC2D802907
:06089800AB24AC25802317
:0E089E00901DD3E493FD20E7098A82C0021268
:0408AC00196ED002EF
:0E08B0008A82C00212196EAD82AE83D0028D14
:0308BE00038E04A2
:0E08C1008A82C002C003C00412184FAD82D05C
:0E08CF0004D003D00253050CBD0C12C003C0B0
:0E08DD0004C0027582001207CA15811581152C
:0108EB00818B
:0108EC0022E9
:0608ED00855B82C05C1275
:0E08F30018FAAA821581BA0A4AC00212169992
:0C090100D0027401555FFB7C00C003C0F5
:0C090D00048A821219F815811581E55F3B
:0809190020E02A7533007A008A
:0D092100EA24F840208AF005F074018002FD
:02092E0025E0C2
:0C093000D5F0FBFB5532600BEBF4FC52E1
:06093C002EEC5230EB42EC
:010942003381
:030943000A80DB4C
:01094600228E
:0A094700C015858115058105811298
:060951000C15050FE4B5D2
:040957000F02051076
:08095B00758282120BD27A00B2
:08096300EA24F85003020AE542
:09096B00EAFB24FE5003EA04FB40
:0C097400EA2A25E0FC2434FD04F8860685
:0C09800074022DF8860508860718EDB5F6
:08098C000F06EFB51002800315
:03099400020AE173
:0A099700EC2434F8E67003020AE1D4
:0809A100C006C208C209EB9078
:0C09A9001BD893FDF58275831DE493FFBD
:0E09B500ED14901D009375820AC002C003C0AD
:0C09C30004C007C02112196EAD82AE8383
:0C09CF00D021D007D004D003D002BA0021
:0509DB0004D0068007B6
:0709E000D006BA011E800ED3
:0709E700A81508A62C08A6C4
:0409EE002DD208D22C
:0309F20009806712
:0709F500A81508A62408A6BE
:0409FC0025D208D226
:030A000009805911
:0A0A0300A81508A606087600EC24EA
:0C0A0D0034F8E6FC30E108EF30E50AD2D6
:030A19000980064B
:060A1C00EF30E702D209F1
:0C0A2200EA2A25E02434F8E6FC30E10567
:050A2E00EF54307009D7
:090A3300EC20E10EEF54C0600953
:070A3C00EF30E303ED70024F
:020A4300D208D7
:0E0A4500901DD3E493FC30E70EBB030BEF30A3
:050A5300E303ED700457
:040A5800D208D209E5
:0A0A5C0030083FC002C003C021A80B
:0C0A66001508E6C0E008E6C0E0C003751B
:0C0A720082011207CA158115811581D080
:080A7E0021D003C003C021A830
:0C0A86001508E6C0E008E6C0E08B821214
:0C0A920019F815811581D021D003D00285
:0C0A9E00EA2A25E0FC2434F8E6FD30E2F2
:050AAA0004ED24FCF640
:0A0AAF0030092DEB901BD893049042
:0C0AB9001D0093FB53030FEC2436F9EBF7
:0C0AC5002BFB901AED93CBA393FCEB25C8
:0A0AD1000FFBEC3510FCA70309A78A
:040ADB000419800278
:020ADF0076009F
:040AE1000A02096399
:060AE500851581D01522E9
:0E0AEB0075F6F07580BF758422758541E4F5BF
:040AF90028F529F5BE
:040AFD002AF52B7536
:060B010022187523FC75AB
:060B070026187527FC759D
:060B0D002E00E4F530F5B6
:040B13000FF5107555
:070B170031017532007A0381
:0E0B1E00EA24F64029EA901BD893F5827583ED
:0C0B2C001DE493FBEA24FDFC8CF005F0B6
:040B380074018002C2
:020B3C0025E0B2
:0B0B3E00D5F0FBFCEB30E303EC42328F
:030B49000A80D24D
:0E0B4C00E4C0E0C0E075820A1219F8158115A8
:030B5A00817A0994
:0C0B5D00EA14FB25E025E0FC2434F876C7
:0A0B6900008B02EA70EEF559F55A10
:0C0B7300F55BF5E475E71D75E60375E51C
:0E0B7F000075E71D75E60475E50175E71D7547
:0E0B8D00E60575E52275E71D75E60675E51CA3
:0E0B9B0075E71D75E60775E50175E71D75E642
:0E0BA9000C75E50075E71D75E60D75E5FF7529
:0E0BB700E71D75E61275E55675E46875E400F5
:0D0BC50075E71C75E66075E52E75E4682285
:0E1AED00524424016B03B205630BC616292276
:041AFB003D335244E1
:0E1AFF000200020002000300030004000400C5
:0E1B0D000500050006000700080009000A0098
:0E1B1B000B000C000E0010001200140017004A
:0E1B29001A001E00230028002D003200370095
:0E1B37003C00460050005A0064006E007D0025
:0E1B45008C00A000B400C800E60004012C01D2
:0E1B53005E019001C201F40126025802BC029C
:0E1B610020038403E8034C04E20478054006E8
:0E1B6F000807D007FC08280AB80BAC0DA00F21
:0E1B7D00941188137C157017581B401F2823E5
:0E1B8B001027F82AD430B036803E5046204E47
:0E1B9900D85990653075B888409CC8AF50C3CD
:0C1BA700D8D660EAFFFFFFFFFFFFFFFF42
:051BB30001020A050318
:0E1BB80000000A00190031004900610092008F
:0E1BC600DB002401B60147026B03B205630B7E
:041BD4001C11292295
:0A1BD800D2D100F9F4EFEAE5E0DAFB
:0C0BD200AA827B007C007D007E007F007A
:0E0BDE00C3EF9A501174CD2BFB741C3CFCE449
:080BEC003DFDE43EFE0F80EA2E
:0E0BF400ECA2E7CB33CB33CB5401FCED2D4C00
:0E0C0200FCEEA2E7CD33CD33CD54018CD28B66
:050C1000D375D1612243
:040C150075D1602213
:0C0C1900C2AAC2AB90017C120E07C208F8
:020C2500C2000B
:0C0C2700308FFD900168C021120E07D034
:070C330021A29492097A0549
:090C3A00A29482099209DAF8A2E1
:080C430009E433FA300902D282
:010C4B0008A0
:020C4C007B0229
:050C4E00BB0002803331
:0C0C5300308FFD90015EC002C003C02184
:0C0C5F00120E07D021D003D002A2949204
:030C6B00097C05FC
:090C6E00A29482099209DCF8301D
:050C77000903EB2AFA5D
:050C7C00300902B2087E
:050C8100EB2BFB80C815
:0B0C8600308FFDC28EA29492097B0506
:090C9100A29482099209DBF8A289
:050C9A0009200801B370
:040C9F005002D2002D
:030CA3008A822220
:0C0CA600C021C0E0C0F0C082C083C002CA
:0E0CB200C003C004C005C006C007C000C001DA
:0E0CC000C0D075D000C28EC2AAC2AB120C19F1
:0E0CCE00AA829000C8C002120DD290054612F4
:080CDC000E07D002300023E5F1
:0C0CE4006F700974F05AFBBBC00280075F
:070CF000E56F2458F8A6028D
:060CF700E56F7002F570CC
:090CFD00EA6270056FD2AB800CB5
:0A0D0600756F00C2ABC28EC28F757C
:020D1000700071
:0C0D1200C28BD2AAD201D0D0D001D000F8
:0E0D1E00D007D006D005D004D003D002D08379
:090D2C00D082D0F0D0E0D02132D9
:090D3500AA82D208C209D29690EC
:0A0D3E00005FC002C021120DD2D0E8
:070D480021D002C2967B00DE
:030D4F00BB0800DE
:0C0D5200505C9000D7C002C003C021120A
:0C0D5E000E07D021D003D0028BF005F06E
:030D6A00EA80021A
:020D6D00C313AE
:0C0D6F00D5F0FB5401FCBC0104C20A805A
:010D7B000275
:020D7C00D20A99
:0C0D7E00308FFDA20A9296900064C00223
:080D8A00C003C021120E07D0C6
:090D920021D003D002200A0BB2AB
:030D9B00087C05CC
:050D9E00209402D209BF
:020DA300DCF979
:030DA5002009081A
:080DA800308FFDC2960B809F05
:090DB00020091A9000D4C02112A0
:050DB9000DD2D021A2C3
:090DBE0008929690005FC021121A
:060DC7000DD2D021C296FE
:050DCD00C28EA2092204
:0E0DD200AA82AB83C28E74FFC39AFA74FF9B91
:090DE000FB8B8D8A8BC28FD28E31
:060DE900308FFDC28E22D6
:0E0DEF00AA82AB83C28C74FFC39AFA74FF9B76
:0A0DFD00FB8B8C8A8AC28DD28C22F7
:0E0E0700AA82AB83C28E74FFC39AFA74FF9B5B
:0A0E1500FB8B8D8A8BC28FD28E22D8
:0E0E1F0075950075911475924CC296758911E7
:0E0E2D00758F00C28CC28E75D20E75D3A07563
:0C0E3B00D161C20175A80075E800C2ABCF
:0E0E4700C2A8D2AAD2AF75B80C75B70C75F858
:070E55000075F700D28A22AC
:0400000002002332A5
:01000B0032C2
:03001300020CA636
:03001B0002143696
:03007C0002001E61
:05001E00120E8D80FEB2
:0A0E5C00E58124FEF8E6F918E6F837
:050E66007A10E4FBFC22
:0E0E6B00E58225E0F582E58333F583EB33FB6A
:0E0E7900EC33FCEB98F5F0EC994006FCABF086
:030E8700438201A2
:030E8A00DADF228A
:0A0E8D00C01585811505810581124D
:060E97000E1F121AA61244
:020E9D000AEB5E
:060E9F00308E0302114237
:0B0EA500901D0DE493FABAFF028003D9
:030EB000021142EA
:070EB3007401B53102801942
:070EBA007402B53102802330
:070EC1007403B53102802A21
:080EC8007404B53103020F4F61
:030ED000021142CA
:060ED300C20112135030B1
:050ED9000103021142BB
:060EDE0075310202114211
:080EE40012132B40030211421E
:060EEC0075310302114202
:0A0EF200C201121362AA82AB833022
:050EFC00010302114298
:050F01008A228B23E5AC
:050F060026B52207E5FD
:060F0B0027B52302803827
:0A0F1100AA22E523C423CAC4235416
:0D0F1B001F6ACA541FCA6ACA30E40244E0CB
:0A0F2800FB8A2474075B2418F525EA
:0A0F3200E52330E70674802525F55D
:010F3C00258F
:0C0F3D0075820612013775820712013719
:060F4900753104021142A3
:0C0F4F0075820312011A749025095009E4
:070F5B007528FF7529FF0254
:020F620010B3CA
:020F64007A0011
:0C0F6600EA901BE293FBC3E5099B4003EB
:030F72000A80F101
:0D0F7500EAFB24FE50237C001ABAFF011C89
:0A0F82008AF005F0752808752900B3
:020F8C00800BD8
:050F8E00E5282528F50F
:050F930028E52933F5FB
:010F9800292F
:050F9900D5F0F2800517
:050F9E00E4F528F5292F
:0C0FA300EB14901BE293FAE509C39AFCE2
:0C0FAF00EB901BE293FDC39AFABB0B0011
:0C0FBB0050548A057E00C002A81508A64C
:0E0FC700040876008B027F0074022AFAE43FD1
:0C0FD5008AF005F0A815088602088607BF
:020FE100800688
:060FE300EA2AFAEF33FFD9
:0E0FE900D5F0F7C003C005C0068A828F8312C0
:0E0FF7000E5CAA82AD8315811581D003EA2518
:0510050028F528ED357F
:07100A0029F529D0028061E5
:0C1011008A057E00A81508A604087600D9
:0E101D00C0028B027C00EA24FEFAEC34FF8A4B
:0C102B00F005F0A8150886020886048075
:0110370006B2
:06103800EA2AFAEC33FC89
:0E103E00D5F0F7C003C005C0068A828C83126D
:0E104C000E5CAA82AC8315811581D003ECC422
:0E105A0054F0CAC4CA6ACA54F0CA6AFCEA2535
:0510680028F528EC351D
:05106D0029F529D00265
:03107200BB0700B9
:0C107500503C7C00AD08E4FEFF74022B30
:0A108100FBE43FFF8BF005F0800652
:06108B00ED2DFDEE33FE29
:0E109100D5F0F7C002C0048D828E83120E5C73
:0C109F00AB83158115818B027B00EA25D4
:0510AB0028F528EB35DB
:0310B00029F529F6
:0610B300E52AB52807E55F
:0610B9002BB52902807A2C
:0410BF0085282CE56F
:0710C30029C313C52C13C55E
:0410CA002CF52DAA2A
:0A10CE0028E529C313CA13CAC3138F
:0A10D800CA13CAFBEA252CF52CEB25
:0510E200352DF52DAADB
:0A10E70028E529C403CAC403540716
:0C10F1006ACA5407CA6ACAFBEA252CF53B
:0510FD002CEB352DF580
:051102002D7A007B388E
:0A110700C374FF952C7407952D505A
:0911110011E52DC313C52C13C513
:09111A002CF52D74082BFB80E478
:07112300EA252CF52CEB3549
:07112A002DF52D7582041262
:08113100013775820512013738
:09113900758203120137753101C2
:0E114200901DD2E493FA54706059901DD2E4CF
:0E115000935470C4540F75F064A4FAABF025EC
:08115E0022FCEB3523FDC3E583
:0A116600269CE52764808DF063F0FD
:0B1170008095F05019EA2526FCEB35B5
:07117B0027FDC3E5229CE5FE
:0C1182002364808DF063F08095F040172E
:07118E007401F538F5392565
:071195000FFCE43510FD8C96
:04119C003A8D3B85C8
:0311A0002226857F
:0211A300232700
:0D11A500901DD3E493FC54707003021238C7
:0E11B200901DD3E4935470C4540F901BF1931E
:0B11C000FC7D00C004C005852A82856C
:0C11CB002B83120E5CAC82AD83158115E5
:0C11D700818C028D03EA4B70037A01FB4F
:0611E300C3E52A9528E592
:0611E9002B95295016E5CC
:0611EF0028C3952AFCE56F
:0A11F50029952BFD8A068B07C3EC39
:0511FF009EED9F501D54
:06120400C3E528952AE570
:06120A0029952B5029E597
:061210002AC39528FCE54D
:0A1216002B9529FDC3EC9AED9B40D7
:0112200017B6
:071221007401F534F53525D9
:071228000FFAE43510FB8A08
:04122F00368B37853E
:03123300282A85E1
:02123600292B62
:0E123800758208120137758209120137748021
:0712460025D15003120947F6
:07124D00D2972097227A647A
:02125400DAFEC0
:0E1256003097FDC2AF75E40075E71C75E660C9
:0E126400901C60E493FA74816AF5E575E46805
:02127200D2AFF9
:0B127400901C60E4935401FAB40100E8
:09127F009297020E9F851581D0A3
:0212880015222D
:0E1BE2000009111B2835424F5860656A6D706E
:011BF000FFF5
:051BF10064140A050365
:0A128A00D208C2879009C4C02112E7
:081294001419D021D2877AFF62
:09129C00A28782089208DAF8B278
:0412A50008A2082271
:0412A900AA827B0199
:0412AD00BB0001225F
:0612B100EB5A601E7C00F8
:0312B700BC020076
:0712BA005005C2870C80F60D
:0E12C100D287900104C002C003121419D0039A
:0412CF00D0028012B7
:0E12D300C287900113C002C003121419D00389
:0412E100D002D287DE
:0512E500EB2BFB80C3B0
:0412EA007A007B010A
:0512EE00BB0002803589
:0212F3007C007D
:0312F500BC020038
:0712F8005005C2870C80F6CF
:0E12FF00D287900001C002C003121419D00360
:08130D00D002308703EB42021D
:0E13150090008CC002C003121419D003D00245
:05132300EB2BFB80C66E
:031328008A822294
:02132B007A0046
:03132D00BA020001
:071330005005C2870A80F698
:0C133700D287900001121419A2879208BE
:0913430090008CC021121419D095
:04134C0021A20822B0
:0E13500012128A500C7582CC1212A9758244BA
:03135E000212A9CF
:011361002269
:0813620012128A40030214106C
:0D136A007582CC1212A97582BE1212A91252
:0E13770012EAAA82C0021212EAAB82C003126E
:0613850012EA1212EA1246
:06138B0012EA1212EA1240
:0E13910012EAAC82D003D0025303F8EAC40380
:0E139F0054072BFBEAC40354F8FA5302F0740F
:0E13AD0010C39C2AFA74805BFC8B05E4FBFEE7
:0E13BB00EA2BFBEE3DFDFAEC6007C3E49BFB62
:0313C900E49AFAA9
:0E13CC00C002C003C004C003C002900006129D
:0E13DA001AC7AD82AE8315811581D004D003F1
:0E13E800D002EAC313CB13CBC313CB13CBFA43
:0E13F600EB2DFDEA3EFEED24E7FDEE34FFFE9A
:0C140400EC600DC3E49DFDE49EFE80043E
:041410007DFF7EFFDF
:051414008D828E832291
:0E141900AA82AB83C28C74FFC39AFA74FF9B45
:09142700FB8B8C8A8AC28DD28CE9
:06143000308DFDC28C228C
:0C143600C021C0E0C0F0C082C083C00232
:0E144200C003C004C005C006C007C000C00142
:0D145000C0D075D000C2AAC2AB90127012BD
:09145D000E0774FFB57002800354
:03146600021577F5
:05146900300306856F51
:04146E0014021580CF
:0A14720074C3555EFAE55BFB7034AD
:0C147C00E55C7030901C60E493FC20E004
:0414880003021580C6
:0B148C00EA700C74C0B55F07C00212CC
:041497001810D00257
:05149B00BA010280030C
:0314A000021580B2
:0714A300E55F600302158004
:0614AA0012182702158054
:0814B000E55D30E70302156061
:0C14B800901D17E493FCEBB504028003C8
:0314C4000215808E
:0B14C700901D18E493FBB55C0280034D
:0314D20002158080
:0514D500BA4202801E76
:0514DA00BA4302803559
:0514DF00BA8002804903
:0514E400BA81028059ED
:0614E900BAC20302155611
:0614EF00BAC30302155B05
:0314F5000215805D
:0A14F800D20474C0555FFBBB8003F3
:0315020012178E2F
:09150500E55F54C060030215808B
:06150E00121732021580E5
:08151400D2047480B55F0912D6
:06151C000E1F121AA612B8
:021522000AEBD2
:09152400E55F705812171780539F
:06152D00200250D204D29E
:03153300028559D5
:0315360011855AC2
:05153900121216997565
:04153E001301803ED7
:06154200E559B51139E581
:051548005AB512341039
:04154D000202802FE7
:05155100751301802A62
:0515560012169980252A
:05155B0012169980202A
:0C156000EA701D74C0555FFABA800312D7
:02156C0008ED88
:09156E00E55F700E12086C8009A3
:09157700E56F24FE50031216ACCE
:0A158000756F00C28BD2AA2003058C
:05158A00C28E75700027
:0E158F00D0D0D001D000D007D006D005D004B7
:0D159D00D003D002D083D082D0F0D0E0D0B7
:0215AA002132EC
:0615AC007A007B00C2087A
:0A15B2003094070ABA00200B801DD8
:0C15BC00C002C003C021120C19AC82D088
:0A15C80021D003D002BCCC09300092
:0715D20006D2087AB87B0B7A
:0C15D900C3EA94B8EB940B40D0A20822A7
:0915E500C01585811505817A000D
:0A15EE007B00A81508740F555DF688
:0E15F80090495CC002C003120E07D003D0025F
:0E160600208F132094FA90495CC002C003129A
:081614000E07D003D00280EAAA
:04161C00C28E7D00FD
:0C162000C002A8150886067F0074062E84
:0E162C00FEE43FFF8D027C00C3EE9AEF648067
:0D163A008CF063F08095F0D002402DED247F
:0B16470058F88682C002C003C00512E4
:0C1652000D35D005D003ED2458F8E662F9
:0E165E00039004CEC003C005120DD2D005D0FB
:06166C0003D0020D80AE68
:0E167200EBF4F582C002120D351215ACD00259
:0416800050027A0397
:0A1684000A74DF5558F558EA24FCFB
:05168E0040030215EE0F
:06169300851581D015222F
:06169900208F03208EFAF1
:0D169F007582CC120D35C28EC28FC2AB22F7
:0616AC00208F03208EFADE
:0D16B20075820C120D35C28EC28FC2AB22A4
:0C16BF00C2AA7558B0901D17E493FA8A77
:0816CB0059901D18E493FA8AFE
:0316D3005A851124
:0316D6005B85121F
:0516D9005C755D607509
:0A16DE005E811215E5C28BD2AAC28C
:0216E8000222DC
:0616EA007558B0AA598AF0
:0416F0005BAA5A8A0D
:0816F4005C901D17E493FA8AD3
:0816FC0059901D18E493FA8ACD
:071704005A755D6074C045D9
:08170B005EFA8A5E74FE5AF5D5
:041713005E0215E578
:071717001216991216EA7583
:06171E0058B0755D637513
:061724005E43755F407595
:06172A006000756112026F
:0217300015E5BD
:08173200121699AA5FC0021211
:06173A0016EAD0027B005C
:0C174000C3EB9A5027E5607011740A2B6F
:07174C002458F8EB25619021
:071753001C0093FCF6800F5F
:0A175A00740A2B2458F8EB25619067
:051764001D0093FCF6DE
:031769000B80D41E
:09176C007558B074632AF55DE5BF
:0A17750013251325E0FB74424BF529
:07177F005E74404AF55F12A1
:0517860015E5051353F9
:03178B00130F2217
:0A178E00C015858115058105811243
:0A1798001699740F555FFAC0021293
:0C17A20016EAD00275E4007401556024C2
:0617AE001CFBAC617D0094
:0E17B400C3ED9A504E8BE7ED2CF5E6740A2D2E
:0A17C2002458F886E58C067F00A885
:0A17CC001508A605087600A8150808
:0E17D600E62EFE08E63F53063F7F00BE3F2092
:0C17E400BF001D8A067F001EBEFF011F13
:0C17F000A81508E6B5060708E6B50702D4
:0217FC00800665
:0617FE0075E46875E400CB
:031804000D80ADA7
:0918070075E468851581D01522F5
:0C181000C2AF75E40075E71D75E6178592
:0A181C0060E58561E575E468D2AF70
:01182600229F
:071827001216997558B090EC
:08182E001D17E493FA8A59909A
:081836001D18E493FA8A5A75AB
:06183E005B00755C007503
:061844005DE1755E017517
:05184A005F400215E5FE
:0E184F00AA82901D12E493FB0B0B0BEA75F0BE
:0C185D0003A42BF58275831DE493F58233
:01186900225C
:0E186A00AA827BFE901D11E493FC2402FDEA8D
:0E1878002AFE2D901D0093FDB50209EC042EF2
:06188600901D0093FAFB27
:05188C00BBFE02801FFD
:0E189100EB2BFB2417901D0093FA74182B907C
:0E189F001D0093FB7C008A05E42BFBED3CFC56
:0318AD00FA8004BA
:0418B0007B007A003F
:0518B4008B828A8322F3
:0818B900C015858115AA82907B
:0B18C1001D16E493FB7CFF602B7D01F3
:0E18CC00C3EB9D4024ED2DFE2417901D0093CC
:0E18DA00FFEAB5071374182E901D0093FEA8A8
:0A18E80015181818E6B506028D0465
:0318F2000D80D78F
:0518F5008C82D01522D9
:0A18FA00C0158581150581AA827BC7
:0C190400FFC003A815181818E6C0E08A00
:0E191000821218B9AA821581D003901D11E42D
:0B191E0093FCF58275831DE493FDA887
:091929001508A605BAFF0280347E
:0719320074022CFE0C7F0083
:0C193900BBFF2AA81508C3EF965022C07F
:0E19450006EF2FFD2C901D0093FEEAB5060262
:0219530080040E
:04195500D006800A2E
:0A195900D006ED2E901D0093FDFB5B
:031963000F80D31F
:081966008B82851581D015224A
:0D196E00AA827BFF7CFFEA75F003A4FD90C8
:0C197B001D12E493FE2D2404F582E434D8
:0C1987001DF583E493FFC3EE9A403DED94
:0A1993002E2402F582E4341DF583D2
:06199D00E493FABF08000C
:0C19A300500B8A8275831CE493FDFB7CD2
:0119AF000037
:0C19B000BF081C8A8275831CE493FE7D36
:0E19BC0000EA04901C0093FA7F002DFDEF3E20
:0519CA00FE8D038E04F8
:0519CF008B828C8322D5
:0E19D400AA827BFF901D12E493FCC39A40137D
:0C19E200EA75F003A42C2404F582E43420
:0719EE001DF583E493FAFBF1
:0319F5008B8222C0
:0819F800C015858115AA82C209
:0C1A000008EA75F003A4FB901D12E493AB
:0A1A0C00FC2B2404F582E4341DF5E0
:0C1A160083E493FDC3EC9A5003021AA174
:0A1A2200EB2C2402F582E4341DF5DC
:071A2C0083E493FABD0800FA
:021A3300504120
:0C1A350020083E75E40075E71C8AE68D71
:0E1A4100037C007407C39BFBE49CFC8BF00548
:051A4F00F074FF8002AD
:021A5400C313BA
:0C1A5600D5F0FBFB7C00E51524FCF8E655
:0E1A6200520308E652048BE575E468E5E420C3
:061A7000E0C3D20880BFB4
:0B1A7600BD0828E51524FCF8088603D5
:0C1A810020081D75E40075E71C8AE68B48
:0C1A8D00E5E51524FCF886E575E468E545
:081A9900E420E0E4D20880E043
:051AA100A208D015228F
:0E1AA600C2AF75E40075E71C75E66075E500DB
:0A1AB40075E468D2AF751301C20299
:071ABE00756F00751400C2F2
:021AC5000322FA
:06005200E478FFF6D8FD82
:080030007900E94400601B7A2D
:0500380000901BF678AA
:03003D000075A0AB
:0A00400000E493F2A308B8000205E3
:08004A00A0D9F4DAF275A0FF61
:0E1AC70074FE2581F8E68582F0A4C0E08582D9
:0E1AD500F018E6A4F582D0E025F0C58386F077
:061AE300A42583F5832217
:080058007800E84400600A7919
:030060000075A088
:0600630000E4F309D8FCE3
:080069007800E84400600C7906
:0B00710000900000E4F0A3D8FCD9FAD6
:0300230075817074
:0A002600121AE9E582600302001ED1
:041AE90075820022E0
:00000001FF
