:0C007F00E526C423541FF58212093675D3
:02008B00992EAC
:05008D0010990280FB48
:0C00920074075526F58212093675992E68
:05009E0010990280FB37
:0900A30085278212093675993D8A
:0500AC0010990280FB29
:0C00B1007401552AF58212093675990D6C
:0500BD0010990280FB18
:0300C20075990A23
:0500C50010990280FB10
:0100CA002213
:0100CB002212
:0C00CC0075B10075B200D2B11202F375DC
:0900D8000804750901758201128A
:0600E10002FB7508057525
:0900E70009227582011202FB7569
:0900F000080675091C7582011255
:0600F90002FB750807750B
:0900FF0009017582011202FB7572
:09010800080C7509007582011252
:0601110002FB75080D75EC
:0901170009FF7582011202FB755B
:09012000081275095675820112DE
:0501290002FB0202F7D9
:0C012E00C2AAC2AB90017C12032BC204D9
:02013A00C20100
:0C013C00308FFD90016812032BA29492FA
:03014800027A0533
:09014B00A29482029202DAF8A2E9
:0801540002E433FA300202B2AA
:01015C00049E
:02015D007B0025
:03015F00BB0700DB
:050162005030EA2AFA0A
:0E016700308FFD90015EC002C00312032BD04A
:0901750003D002A29492027C0561
:09017E00A29482029202DCF8A2B4
:0901870002E4332AFA300202B24C
:01019000046A
:030191000B80CB15
:0B019400308FFDC28EA29492037B0509
:0A019F00A29482039203DBF874803F
:0E01A9005A235401FB74405AC40354072BFB25
:0E01B70074205AC423541F2BFB74105AC31318
:0E01C5002BFB74085A25E02BFB74045AC4036C
:0E01D30054F82BFB74025AC42354E0FC2BFB9F
:0C01E100530201EA035480FA2BFBA20336
:0401ED00200401B336
:0401F1005002D201E5
:0301F5008B8222D8
:0C01F800C022C0E0C0F0C082C083C00282
:0E020400C003C004C005C006C007C000C00192
:0E021200C0D075D000C28EC2AAC2AB12012E9F
:0D022000AA829000C8C00212030ED0023066
:05022D000112E53A2476
:0902320023F8A602E53A7002F57A
:01023B003B87
:05023C00EA623B053AF7
:0E02410090054612032BD2ABC28BD2AAD0D0AE
:0E024F00D001D000D007D006D005D004D003D7
:0C025D00D002D083D082D0F0D0E0D022BC
:010269003262
:09026A00AA82D206C207D29690C6
:0D027300005FC00212030ED002C2967B0095
:03028000BB0800B8
:0E02830050549000D7C002C00312032BD003CA
:09029100D0028BF005F0EA8002B6
:02029A00C3138C
:0C029C00D5F0FB5401FCBC0104C205803D
:0102A8000253
:0202A900D2057C
:0C02AB00308FFDA2059296900064C00206
:0C02B700C00312032BD003D00220050B63
:0402C300B2067C05FE
:0502C700209402D207A3
:0202CC00DCF95B
:0302CE00200708FE
:0802D100308FFDC2960B80A7DF
:0A02D9002007129000D412030EA2B9
:0B02E30006929690005F12030EC29678
:0502EE00C28EA20722F0
:0402F30075E400228C
:0402F70075E4682220
:0D02FB00E582FA24FE400B741C2AF5E7850D
:0503080008E68509E58F
:01030D0022CD
:0E030E00AA82AB83C28E74FFC39AFA74FF9B5F
:09031C00FB8B8D8A8BC28FD28EFF
:06032500308FFDC28E22A4
:0E032B00AA82AB83C28E74FFC39AFA74FF9B42
:0A033900FB8B8D8A8BC28FD28E22BF
:0C034300AA828A037A00AC087D00EC2A34
:0E034F00FAED3BFB8A82741C2BF583E493F5D8
:02035D008222FA
:0E035F00759500759114759244C296758912B9
:0E036D00758F01758BC043A210C2A9D28CC23D
:0E037B008E75D21D75D34075D16175A80075C1
:0E038900E800D2AFC2A8D2AA75B80C75B70CA6
:0E03970075F80075F700D28A75985043BA4089
:0D03A50043BD0275BF0075BE3043BD01228F
:0C03B200C022C0E0C0F0C082C083C002C6
:0E03BE00C003C004C005C006C007C000C001D7
:0D03CC00C0D075D000C2AAC2AB9012701252
:0903D900032B74FFB53B02800305
:0303E2000204DA38
:0A03E500740F5528FA74805528FBA8
:0A03EF00E526FC7030E527702C2095
:0503F90009030204DA13
:0A03FE00BA030CE529700874C0B5BD
:050408002A03120708A1
:07040D007401B52902800310
:030414000204DA05
:07041700E52A60030204DA8C
:06041E0012072C0204DAB3
:06042400EB60030204C1BD
:06042A00ECB53D02800369
:030430000204DAE9
:07043300E53CB52702800340
:03043A000204DADF
:0B043D0074C35529FBBB420F74C0556F
:0C0448002AFBBB8007C002120695D00200
:0C045400EA702774C05529FBBBC007C02C
:06046000021205CFD002DC
:0C0466007480B52907C0021205DBD0022B
:0C0472007481B52907C0021205EDD0020C
:0C047E00BA012A74035529FBBB03127459
:0A048A0080B52A0DC00212035F12B4
:0704940009001200CCD002A8
:0A049B007443B5290BE52A7007C071
:0604A50002120622D00243
:0C04AB00BA032C74C35529FBBB4224E5A6
:0A04B7002A54C0701E12063D801981
:0A04C100BA0116E529701274FE5509
:0804CB002AFABA800312007F37
:0704D300E52A70031200CBC3
:0C04DA00753A00C28BD2AAD0D0D001D05D
:0E04E60000D007D006D005D004D003D002D03D
:0A04F40083D082D0F0D0E0D0223295
:0604FE007A007B007C0087
:0A0504003094070BBB001C0C80199B
:0E050E00C002C003C00412012EAD82D004D082
:0B051C0003D002BDCC053008027A01BC
:0E052700C3EB94B8EC6480948B40D28A82229D
:030535007543000B
:090538007B00740F5528F5429078
:09054100495CC00312032BD00336
:0E054A00208F0F2094FA90495CC00312032BFF
:04055800D00380EE5E
:04055C00C28E7D00CE
:0C056000AE427F0074062EFEE43FFF8DCB
:0E056C00027C00C3EE9AEF64808CF063F08096
:0C057A0095F0402BED2423F88682C0038E
:0D058600C00512026AD005D003E433ED2455
:0C05930023F8E662039004CEC003C0050C
:0A059F0012030ED005D0030D80B743
:0E05A900EBF4F58212026AE4331204FEAA8219
:0605B700BA0103754303C5
:0705BD00054374DF5523F52F
:0805C40023E54324FC4003027F
:0205CC000538F0
:0105CE00220A
:0C05CF00308FFD7582CC12026AE43322EA
:0605DB00200A0ED20A8581
:0305E100243F852F
:0305E4002540129D
:0505E70005CF75410184
:0105EC0022EC
:0605ED00E524B53F0CE51A
:0505F30025B5400710D2
:0305F8000A0122D3
:0305FB0075410146
:0105FE0022DA
:0605FF007523B0AA248A56
:0406050026AA258A72
:0306090027853D05
:03060C0024853C06
:07060F002575286074C04549
:0806160029FA8A2974FE5AF545
:04061E002902053573
:070622001205CF1205FF7560
:0606290023B07528637583
:06062F002943752A407505
:060635002B00752C1202DF
:02063B00053583
:08063D001205CFAA2AC0021227
:0606450005FFD0027B005E
:0C064B00C3EB9A5023740A2B2423F8857B
:060657002B82EB252CF5BF
:0C065D0008C002C003C000120343E58285
:0A066900D000D003D002F60B80D8B9
:090673007523B074632AF528E533
:0A067C0041254125E0FB74424BF5D7
:070686002974404AF52A1215
:05068D00053505415395
:03069200410F22F3
:0B0695001205CF740F552AFAC00212A4
:0906A00005FF1202F3D0027B00F9
:0A06A900C3EB9A5057852B82EB2516
:0706B3002CF508740A2B244A
:0906BA0023F88609C002C00312F6
:0C06C30002FBD003D002AC2C7D008B06A3
:0E06CF007F00EE2CFCEF3D53043F7D00BC3F4E
:0D06DD0024BD00218A047D001CBCFF011D0E
:0A06EA00EEB50406EFB50502800E20
:0E06F400C002C0031202F71202F3D003D002BC
:030702000B80A4C5
:030705000202F7F6
:04070800852B3D857B
:03070C002C3C1270
:06070F0002F375081785D6
:060715003D09758201128E
:06071B0002FB75081885C1
:060721003C097582011283
:0507270002FB0202F7D5
:07072C001205CF7523B08513
:030733003D2485DD
:030736003C2575EA
:0607390026007527007583
:06073F0028E17529017597
:050745002A4002053509
:0B074A00AA82750812758201C002121D
:0E0755000343E582D0022403FBEA75F003A4FF
:090763002BF50875820102034325
:0C076C00AA827B00750811758201C00292
:0C077800C003120343AC828C08758201A0
:0E078400C004120343AD82D004D003D002ECB7
:0607920004FE0C0C7F00C8
:0C079800C3EF9D5051EF2FF82CF50875B1
:0E07A4008201C002C003C004C005C006C00729
:0E07B200C000120343A982D000D007D006D0A9
:0E07C00005D004D003D002E9B50220E82EF5E2
:0C07CE0008758201C002C004C005C0060E
:0E07DA00C007120343AB82D007D006D005D073
:0307E80004D00238
:0307EB000F80AAD2
:0507EE00BB0002803099
:0C07F300EB2BFB2417F508758201C003F6
:0C07FF00120343AA82D00374182BF508E3
:0E080B00758201C002120343AB82D0027C0052
:0A0819008A05E42BFAED3CFB800495
:040823007A007B00DC
:050827008A828B832290
:0B082C00AA82750816758201C0021236
:0D0837000343AB82D0027CFFEB60557D01D6
:0C084400C3EB9D404EED2DFE74172EF509
:0C08500008758201C002C003C004C0058E
:0E085C00C006120343AF82D006D005D004D0F0
:0C086A0003D002EAB5072374182EF5082D
:0E087600758201C002C003C004C00512034316
:0C088400AE82D005D004D003D002EEB547
:0408900044028D048D
:030894000D80AD27
:030897008C82222E
:0E089A00AA82C0021202F3D002EA75F005A491
:0708A800FBE5452AF5098B71
:0C08AF0008758200C0031202FBD003EBAE
:0508BB0004F508854969
:0C08C00009758200C0031202FBD0037413
:0608CC00022BF50885482F
:0C08D20009758200C0031202FBD0037401
:0608DE00032BF50885471D
:0C08E40009758200C0031202FBD00374EF
:0608F000042BF50885460B
:0808F600097582001202FB02E9
:0208FE0002F7FF
:0B090000750817758201120343858201
:08090B003D7508187582011208
:06091300034385823CC293
:0509190009754101C257
:05091E000A753A0022F9
:0E09230075985043BA4043BD0275BF0075BEC3
:050931003043BD01226E
:0E093600AA8275F064EA84FB600A74302BF527
:010944009919
:0509450010990280FB87
:0E094A00EB75F064A4D39AF4FA75F00A84FBFE
:07095800600A74302BF599D1
:05095F0010990280FB6D
:0D096400EB75F00AA4D39AF4FA2430F5994B
:0509710010990280FB5B
:01097600225E
:0309770075994F20
:05097A0010990280FB52
:03097F0075994B1C
:0509820010990280FB4A
:0309870075990D52
:05098A0010990280FB42
:03098F0075990A4D
:0509920010990280FB3A
:01099700223D
:03099800858299BC
:05099B0010990280FB31
:0109A0002234
:0400000002002332A5
:01000B0032C2
:030013000201F8EF
:03001B000203B22B
:03007C0002001E61
:05001E00120B1480FE2E
:0C09A100D20CC2B19007D012030ED2B1EC
:0209AD007AC806
:0609AF00300C0320B1042E
:0409B500C20D8002ED
:0209B900D20D5D
:0709BB00A20D920CDAEEB26E
:0409C2000CA20C2255
:0409C600AA827B0086
:0309CA00BB080067
:0C09CD0050588BF005F07C017D00800686
:0609D900EC2CFCED33FDE7
:0E09DF00D5F0F78A067F00EE5204EF5205BCF9
:0709ED000005BD0002801EA1
:0209F4007C0085
:0309F600BC020040
:0709F9005005C2B10C80F6AD
:0E0A0000D2B1900104C002C00312030ED00355
:040A0E00D002801280
:0E0A1200C2B1900113C002C00312030ED00344
:040A2000D002D2B17D
:030A24000B80A3A1
:010A270022AC
:040A28007A007B00D5
:030A2C00BB080004
:040A2F0050467C00B1
:030A3300BC020002
:070A36005005C2B10C80F66F
:0E0A3D00D2B1900001C002C00312030ED0031C
:0E0A4B00D002A2B1E433FC8BF005F0EC800287
:020A590025E096
:0E0A5B00D5F0FBFC900078C002C003C004126E
:0E0A6900030ED004D003D002EC42020B80B585
:030A77008A82224E
:0E0A7A001209A1E4337582CC1209C6758244BC
:030A88001209C68A
:0E0A8B00120A28AA82BAFFF81209A1E43375F4
:0C0A990082CC1209C67582BE1209C6127A
:0E0AA5000A28AA82C002120A28AB82D002746C
:0E0AB300075BFC8C05E4FCFEEA2CFCEE3DFD2E
:0A0AC1008C088D09900006C003C0E8
:0E0ACB0004C005120B89AA82AE83D005D004A8
:0E0AD900D003EDA2E713CC13CCA2E713CC138D
:0E0AE700CCFDEC2AFAED3EFEC423CAC4235413
:0D0AF5001F6ACA541FCA6ACA30E40244E0F6
:0E0B0200FE5303808B04E42AFAEC3E24188A8A
:040B100082F58322C5
:070B140012035F1209001239
:060B1B0000CC12092312B8
:0E0B21000A7AAA82AB838B048C82C002C003C6
:0E0B2F00C004120936758220120998D004D035
:0E0B3D0003D0028A82C002C004120936D0041E
:0A0B4B00D002C2AA7523BC75241164
:070B550075254775260D759B
:060B5C0027137528E37564
:060B62002900752A808CB9
:040B68002B8A2C1296
:040B6C000535D2AACF
:070B7000D2972097097A6477
:020B7700DAFEA4
:050B79003097FDB209F8
:070B7E00A209B392977A640B
:040B8500DAFE80E72D
:06005200E478FFF6D8FD82
:080030007900E94400601B7A2D
:0500380000900BAA7806
:03003D000075A0AB
:0A00400000E493F2A308B8000205E3
:08004A00A0D9F4DAF275A0FF61
:0B0B8900E5828508F0A4C582C0F0855D
:0A0B940009F0A4D0F025F0C5838518
:080B9E0008F0A42583F5832271
:0400580075A0007817
:07005C0000E8440060077991
:0600630000E4F309D8FCE3
:080069007800E84400600C7906
:0B00710000900000E4F0A3D8FCD9FAD6
:030023007581499B
:0A002600120BA6E582600302001E23
:040BA6007582002232
:00000001FF
