:0400000002003B328D
:03000B000200FFF1
:030013000200F5F3
:01001B0032B2
:0100230032AA
:01002B0032A2
:030033000200A91F
:07009400E4F50DF50EE4F5A3
:05009B000FF510E4F573
:0400A00011F51275CF
:0200A400130047
:0300A6000200361F
:0500360012019880FE9C
:0E00A900C0E0C000C0D075D0007460B5D903AF
:0300B700750C00C5
:0700BA007480B5D902050CAA
:0800C10074A0B5D903750C0011
:0A00C900E50C24FE500D74FC250C1C
:0900D3004007E50C2406F8A6DA4A
:0900DC00C2DBD0D0D000D0E0322C
:0900E500751300E5086002D287E2
:0600EE00E5096002D28664
:0100F40022E9
:0A00F500C0E0E4F50DF50ED0E03296
:0C00FF00C020C0E0C0F0C082C083C0027E
:0E010B00C003C004C005C006C007C000C0018C
:0D011900C0D075D000758A95758CFFC3E5C8
:0A0126000D9488E50E9413500805AF
:060130000DE4B50D02050F
:010136000EBA
:0A01370074CCB50D077401B50E027B
:02014100800D2F
:0A01430074CDB50D06E4B50E028080
:01014D0002AF
:02014E0080032C
:030150001200E5B5
:0701530074FFB513028002E6
:02015A0005138B
:09015C00C3E51395084002C287B7
:09016500C3E51395094002C286AE
:0E016E00D0D0D001D000D007D006D005D004EC
:0D017C00D003D002D083D082D0F0D0E0D0EC
:02018900203222
:0D018B004391105392EFD2AAD28AD2AF2234
:070198001202DD1202131236
:0E019F00018B43910343920390045875F08046
:0E01AD0012033A53843F4385C0C287C2867551
:0E01BB008901758C00D2A9D28CD2AF5384FD7D
:0301C90043850269
:0601CC00E50AB50807E595
:0601D2000BB50902802CB0
:0A01D80090046775F08012033A8569
:0901E200088212038075822012CC
:0601EB00042F85098212B9
:0901F100038090046975F080128E
:0401FA00033A850837
:0301FE000A850966
:030201000B80C8A7
:040204007A887B1366
:050208001ABAFF011B02
:06020D00EA4B70F780B916
:0E04580050726F6772616D6D73746172740A19
:010466000095
:0204670044004F
:020469000A0087
:0E02130043910C5392F375DBA075D84475DD52
:0D0221000075DC00D293D292D2E8D2AF2259
:0E022E0043910C43920C75DBA075D84475DD2E
:09023C001175DC11D293D292225B
:040245007A007B00C0
:0802490020DB140ABA00010BCE
:0E025100C374B89A740B9B50EFC2DB7582FF2A
:01025F00227C
:06026000C2DB75820022E2
:0A026600C014858114AA8275DD1111
:0E02700075DC1175D800D2DEC2D8D2DDC00216
:0E027E00120245E582D00260057582FF804EB7
:0E028C00C2DD75DAA0C002120245E582D00282
:07029A0060057582FF803949
:0E02A10075DA00C002120245E582D002600547
:0502AF007582FF8026AE
:0E02B4008ADA120245E58260057582FF801825
:0C02C200A81418181886DA120245E5820C
:0702CE0060057582FF800549
:0502D500D2DC7582007F
:0302DA00D014221B
:0E02DD0075985043BA4043BD0275BF0075BE10
:0502EB003043BD0122BB
:0C02F000AA82D20075F064EA84FB600C66
:0502FC0074302BF599A0
:0503010010990280FBD1
:02030600C20033
:0E030800EB75F064A4FCEAC39CFA75F00A845D
:06031600FB700320000A49
:05031C0074302BF5997F
:0503210010990280FBB1
:0E032600EB75F00AA4FBEAC39BFA2430F599AC
:0503340010990280FB9E
:0103390022A1
:08033A00AA82AB83ACF07D0048
:0E034200ED2AFEE43BFF8C008E828F8388F054
:0C035000120438FE6029BE0A0875990DE1
:05035C0010990280FB76
:0E036100ED2AFEE43BFF8C008E828F8388F035
:05036F00120438F599AD
:0503740010990280FB5E
:060379000DED240150C34C
:01037F00225B
:0A038000C014E581F5142410F58186
:0C038A00AA82A814087630E804F9773144
:0E039600740228F97732740328F9773374045F
:0E03A40028F97734740528F97735740628F99E
:0E03B2007736740728F97737740828F97738FA
:0E03C000740928F97739740A28F97741740B0B
:0E03CE0028F97742740C28F97743740D28F94A
:0E03DC007744740E28F97745740F28F9774698
:0D03EA00EAC4540F28F98782C002C0001237
:0E03F700042FD000D00253020FEA28F88682AD
:0704050012042F851481D0C1
:02040C001422B8
:03040E0075994F8E
:0504110010990280FBC0
:0304160075994B8A
:0504190010990280FBB8
:03041E0075990DC0
:0504210010990280FBB0
:0304260075990ABB
:0504290010990280FBA8
:01042E0022AB
:03042F008582992A
:0504320010990280FB9F
:0104370022A2
:06006A00E478FFF6D8FD6A
:080048007900E94400601B7A15
:050050000090046B7834
:030055000075A093
:0A00580000E493F2A308B8000205CB
:08006200A0D9F4DAF275A0FF49
:080070007800E84400600A7901
:030078000075A070
:06007B0000E4F309D8FCCB
:080081007800E84400600C79EE
:0B00890000900000E4F0A3D8FCD9FABE
:03003B00758120AC
:0A003E00120454E58260030200364C
:0E04380020F71430F6148883A88220F507E61A
:06044600A883758300226B
:03044C00E280F754
:03044F00E4932211
:02045200E022A6
:04045400758200228B
:00000001FF
