:0C007F00C0E0C0D0C000C004C005A80C48
:0A008B00850BAC850BAD7C007D00F9
:0A00950085AC0D85AD0EE65402A205
:0C009F00E1E4928020013EC3EC2401FC4F
:0C00AB00ED3400FDB440E37C807D007566
:0500B7000800750900BE
:0900BC00200125C385AC0D85ADC2
:0A00C5000EE65402A2E1E492803539
:0400CF0008F508E543
:0A00D300093400F509C3EC2401FC18
:0700DD00ED3400FDB4C4D8AE
:0B00E400D005D004D000D0D0D0E02226
:0B00EF00E582FA30E005750B3080035D
:0300FA00750B2063
:0900FD00EA30E105750C0E8003E8
:03010600750C0D68
:0301090002007F72
:0A010C00C015E581F515240BF581FF
:07011600AA82C210C211E52C
:0C011D00152408F8E4F608F6E4FDFEEAFC
:0B01290024FD75F005A4FFBA09010FCA
:0E013400C005C00674F9C39F901D0093FB74B4
:0D014200FAC39F901D0093540725E0FD9027
:0C014F001AB893CDA393FEED250FFDEE32
:0A015B003510FEE515240AF8A6058C
:0E01650008A606901DD3E493D006D00520E72F
:04017300030202C7BA
:05017700BA0302800341
:03017C000202C7B5
:09017F00AA28901DFBE493FCE5A5
:0C018800152404F8EC75F00AA4F608A693
:0E019400F074075B901B7E93FC7D00C002C0E0
:0C01A20003C004C005E5152404F88682A3
:0E01AE00088683121178AC82AD83158115810D
:0C01BC00D003D002E5152406F8A60408C4
:0C01C800A605E5152406F8E60846700AB6
:0A01D400E5152406F87601E408F6AC
:0E01DE0074F05BFCC4540FFB0BEBC454F0FB3D
:0A01EC00E5152404F8C3E695250884
:0A01F600E695265039E5152404F8BB
:0D020000860408E6CC25E0CC33FDC3EC9568
:08020D0025ED9526500EC3E516
:09021500289B4008E528C39BF575
:03021E0028801322
:09022100E52824FC500A152815FB
:04022A002815281556
:03022E0028800322
:030231007528002D
:0A023400E5152404F8E5152406F989
:0C023E00E6C397FC08E60997FDC3E52520
:09024A009CE5269D505AE525258E
:0702530025FCE52633FDE563
:0A025A00152404F8E5152406F9E662
:0E026400C397FE08E60997FFC3EC9EED9F507E
:0E027200268B047D0074FFC39CFCE49DFDAE52
:0C028000287F00C3EC9EED64808FF063CB
:0A028C00F08095F04007EB2528F5FF
:03029600288011AC
:0A029900740425284008E528240419
:0402A300F5288003B7
:0302A7007528FFB8
:0702AA00EAB5280302077802
:0502B1007535018528F0
:0802B600367401250FFAE4354E
:0502BE0010FB8A378BE4
:0402C300380207787E
:0302C700BA060074
:0502CA004003020427BF
:0E02CF00C005C00674FBC39F901D009324F968
:0C02DD0025E0FD901ACA93CDA393FEE526
:0C02E900152404F8A60508A60674075B9F
:0C02F500901B7E93FD7E00C002C007C07D
:0A03010022C005C006E5152404F82B
:0E030B008682088683121178AD82AE8315813A
:0A0319001581D022D007D002E515AF
:0D0323002406F8A60508A606D006D005E5BC
:0A033000152406F8E60846700AE5F9
:09033A00152406F87601E408F62A
:0A034300E5152404F8C3E69525082B
:07034D00E695265002D210D4
:0A035400C005C006E5152404F8E515
:0C035E00152406F9E6C397FD08E6099790
:0A036A00FEC3E5259DE5269ED006A2
:06037400D0055002D21179
:0E037A00C005C00674FAC39F901D009354F096
:0E038800C4540F25E0FD901B8393CDA393FE7C
:0C039600E5152408F8A60508A606BA0321
:0703A20006D006D005801112
:0903A900D006D005BA0402804020
:0503B200BA05028054B1
:0303B70002060932
:0E03BA00C005C006901DD3E493D006D00520E8
:0E03C800E71C901DCDE49354F0C4540F25E0C3
:0E03D600FB901B8393CBA393FC8B058C06023C
:0203E400060908
:0C03E600E5152408F8E4F608F602060904
:0E03F200901DCDE493540F25E0FB901B8393E8
:0B040000CBA393FC8B058C06020609C1
:0E040B00901DCCE49354F0C4540F25E0FB90F8
:0E0419001B8393CBA393FC8B058C0602060974
:03042700BA080010
:05042A0040030204F98B
:0E042F00C005C00674FBC39F901D0093FDE541
:0C043D00152404F8A60508760074075B7F
:0C044900FDE5152406F8A605087600E580
:0C045500152404F8C3E6943308E6940074
:09046100D006D005400302060993
:0B046A00C005C006C002C007C022E5AC
:0C047500152404F8E6C0E008E6C0E090A2
:0E0481000064121A92AD82AE8315811581D0EF
:08048F0022D007D002AB23AC20
:0C04970024C3ED9BEE9CD006D005500263
:0204A300D21075
:0A04A500C005C006E5152404F8E5C3
:0C04AF00152406F9E6C397FB08E6099740
:0C04BB00FCC002C005C006C007C022C083
:0E04C70003C004900064121A92AB82AC83153D
:0C04D500811581D022D007D006D005D0C0
:0A04E10002AD23AE24C3ED9BEE9C98
:0904EB00D006D005400302060909
:0504F400D2110206090F
:0B04F900BA0808901DDFE493FB8007A9
:07050400901DD9E493FCFBFC
:0E050B005303F0EA901BA39304901D0093FC91
:0A051900530470C210BC00028014ED
:05052300BC1002801372
:05052800BC200280165A
:05052D00BC3002801942
:05053200BC4024801C08
:04053700D210801E40
:08053B00E527A2E392108016EF
:08054300E527A2E49210800EEE
:08054B00E529A2E392108006ED
:06055300E529A2E492106C
:05055900BB1002801C34
:05055E00BB2002802D0E
:05056300BB3002803FE7
:05056800BB40028052BF
:05056D00BB5002806399
:05057200BB6002807572
:0305770002060277
:0A057A00E5275401FBA210E433FC56
:06058400D3EB5C7001C323
:06058A0092129210807233
:0A059000E527035401FBA210E43339
:07059A00FCD3EB5C7001C310
:0605A10092129210805B33
:0A05A700E52703035401FBA210E452
:0805B10033FCD3EB5C7001C3C5
:0605B90092129210804333
:0A05BF00E5295401FBA210E433FC0F
:0605C900D3EB5C7001C3DE
:0605CF0092129210802D33
:0A05D500E529035401FBA210E433F2
:0705DF00FCD3EB5C7001C3CB
:0605E60092129210801633
:0A05EC00E52903035401FBA210E40B
:0805F60033FCD3EB5C7001C380
:0405FE0092129210B3
:06060200A210B392129257
:0106080011E0
:03060900BA08002C
:03060C0040010F9B
:0C060F0074F8C39F901D0093FBA8150811
:0D061B0008A60374F7C39F901D0093FCA870
:0C0628001508A604EA24FDFF8FF005F081
:0406340074018002CB
:0206380025E0BB
:0A063A00D5F0FBFF2010030206E2DA
:08064400EF552760030206DAFE
:0C064C00E5152408F8E608466005EF55A7
:030658002C601DF6
:0A065B00E515240AF87401250FF6D6
:0A066500E4351008F6EFF4FC522C07
:09066F00A815080808760380367E
:0C067800EA1425E025E0242DF88604BCDF
:0B0684000509A8150808087600801F73
:0A068F00A8150808087607E51524F1
:0A06990008F8E6250FFC08E635100E
:0B06A300FBE515240AF8A60408A603D6
:0B06AE00EA1425E025E0FB242DF8A94C
:0A06B90015090909E7F6EB242DFBF3
:0C06C30004F8A9150909E7F674022BF8E9
:0B06CF00E515240AF9E7F60809E7F634
:0806DA00EF4227EFF4FB522967
:0606E2002011030207785D
:0806E800EF55296003020770C1
:0906F000ED4E6005EF552C601D74
:0A06F900E515240AF87401250FF638
:0A070300E4351008F6EFF4FB522C69
:09070D00A81508080876018030E7
:0C071600EA1425E025E0242DF88603BB42
:0B0722000709A81508080876008019D8
:0A072D00A8150808087605ED250F51
:0A073700FDEE3510FEE515240AF86A
:05074100A60508A60654
:0A0746001AEA2A25E0FA242DF8A98A
:0A07500015090909E7F6EA242DFA5D
:0C075A0004F8A91509E7F674022AF8E576
:0A07660015240AF9E7F60809E7F682
:08077000EF4229EFF4FF5227CC
:06077800851581D0152259
:0A077E00C015E581F5152408F5818A
:0C078800AA82A81508E4F608F608F60896
:0E079400F6EA75F003A4FB901D12E493FF2B10
:0A07A2002404F582E4341DF583E41D
:0C07AC0093FCC3EF9A406EEB2F2402F583
:0C07B80082E4341DF583E493FAF58275A9
:0A07C400831CE493FFA81508A607A4
:0D07CE00087600087600087600BC0847A8F1
:0A07DB001508E5152405F90808E6E5
:0E07E500090909F718E619F718E619F7197748
:0D07F30000EA04901C0093FDE4FEFAFBE513
:0C080000152405F8ED26FDEE0836FEEA92
:0C080C000836FAEB0836FBA81508A60514
:0908180008A60608A60208A603C2
:0C082100A8150886820886830886F00867
:07082D00E6851581D01522BC
:08083400C015858115AA82C2DE
:0C083C0010EA75F003A4FB901D12E49379
:0A084800FC2B2404F582E4341DF5B6
:0C08520083E493FDC3EC9A406FEB2C2470
:0A085E0002F582E4341DF583E493F3
:06086800FAC2AFBD08005A
:0B086E00E433FBE51524FCF8088604C9
:0C08790020104C75E40075E71C8AE6EBCB
:0E088500602C8D067F007407C39EFEE49FFF6B
:080893008EF005F074FF8002F5
:02089B00C31385
:0C089D00D5F0FBFE7F00E51524FCF8E61A
:0A08A900520608E652078EE58009AA
:0908B3008CE5E51524FCF886E54E
:0C08BC0075E468E5E420E0B5D21080B1DE
:0208C800D2AFAD
:0308CA00D0152224
:0608CD00855882C059129B
:0A08D300198AAA821581BAFF0122DA
:0E08DD008A82C002121972AB82D00253030C41
:0B08EB00BB0C0874402AF58202178A3B
:0108F60022DF
:0608F700855882C0591271
:0C08FD00198AAA821581BA0A25740155D7
:0B0909005CFB7C00C003C0048A82126B
:0C091400083415811581E55C20E00CE53D
:070920002BF4FA5227EA5202
:0309270029852BF4
:01092A002CA0
:01092B0022A9
:0A092C00C015858115058105817550
:09093600D160050FE4B50F0205C4
:01093F0010A7
:0C09400075D21D75D34075D161A8150853
:02094C00760033
:0B094E00A81508E624F85003020ACBAD
:0A095900A815088603A81508E62477
:09096300FE5006A81508E604FB8D
:0A096C00A81508E625E025E0FC24AC
:0C0976002DFD04F8860674022DF886059D
:0A09820008860718EDB50F06EFB563
:04098C0010028003D2
:03099000020AC494
:0A099300EC242DF8E67003020AC4FC
:08099D00C006C210C211EB906C
:0C09A5001BA393F58275831DE493FDA84D
:0C09B100150808A60575820AC003C004E2
:0C09BD00C02212077EAF82AE83ADF0FABC
:0A09C900D022D004D003A81508B610
:0209D300020020
:0A09D500D0065016D210A8150874C1
:0D09DF00D3C396901D0093FA540F6066D2AA
:0309EC0011806215
:0A09EF00EC242DF8E6FAA2E19212C2
:0B09F900500CA8150808E630E50ED2EF
:030A040011800A54
:0A0A0700A8150808E630E702D21136
:0A0A1100301209A8150808E6543059
:020A1B00700C5D
:0A0A1D00201216A8150808E654C0C0
:020A2700600D60
:0B0A2900A8150808E630E303EF700298
:020A3400D210DE
:0D0A3600901DD3E493FA30E712BB030FA824
:0A0A4300150808E630E303EF700425
:040A4D00D210D211E0
:0C0A5100301029EB24FE50177A00C0037F
:0C0A5D00C022C006C0028B8212083415B3
:070A6900811581D022D003AA
:0A0A70008B82C003C02212178AD047
:030A7A0022D00384
:0A0A7D00A81508E625E025E0FA249C
:0B0A87002DF8E6FC30E204EC24FCF645
:0A0A920030112DEB901BA39304908C
:0C0A9C001D0093FB53030FEA242FF9EB1D
:0C0AA8002BFA901AB893CAA393FBEA251E
:0A0AB4000FFAEB3510FBA70209A7AB
:040ABE000319800296
:020AC2007600BC
:070AC400A815080602094E07
:060ACB00851581D0152203
:0D0AD10075F6F07580BF758422758541753E
:060ADE0025FF7526FF75DF
:060AE40023187524FC75C7
:060AEA0011FF7512FF75FB
:060AF00013187514FC75DB
:060AF6002700E4F529F5DC
:040AFC000FF510756D
:090B00002A01752B007A017B0328
:0E0B0900EB24F64019EB901BA393F582758345
:0A0B17001DE493FC30E303EA422BD7
:060B2100EA2AFA0B80E253
:0E0B2700E4C0E0C0E075820A120834158115A2
:030B3500817A07BB
:0C0B3800EA14FB25E025E0FC242DF876F3
:0A0B4400008B02EA70EEF552F55343
:0C0B4E00F554901DD3E493FA540F60138B
:090B5A00752D01752E0174322580
:070B63000FFAE43510FB8AD4
:030B6A002F8B309E
:0C0B6D00901DD2E493FA540F6013753110
:0A0B7900017532017437250FFAE40C
:060B83003510FB8A338BE4
:010B89003437
:0E0B8A00C2AF75E40075E71D75E60375E50062
:0E0B980075E71D75E60475E50175E71D75E648
:0E0BA6000575E52275E71D75E60675E51C75FB
:0E0BB400E71D75E60775E50175E71D75E60C92
:0E0BC20075E50075E71D75E60D75E5FF75E735
:0E0BD0001D75E61275E55675E46875E400754E
:0E0BDE00E71C75E66075E52E75E468D2AF225F
:0E1AB800524424016B03B205630BC6162922AB
:041AC6003D33524416
:0E1ACA000200020002000300030004000400FA
:0E1AD8000500050006000700080009000A00CE
:0E1AE6000B000C000E00100012001400170080
:0E1AF4001A001E00230028002D0032003700CB
:0E1B02003C00460050005A0064006E007D005A
:0E1B10008C00A000B400C800E60004012C0107
:0E1B1E005E019001C201F40126025802BC02D1
:0E1B2C0020038403E8034C04E204780540061D
:0E1B3A000807D007FC08280AB80BAC0DA00F56
:0E1B4800941188137C157017581B401F28231A
:0E1B56001027F82AD430B036803E5046204E7C
:0E1B6400D85990653075B888409CC8AF50C302
:0C1B7200D8D660EAFFFFFFFFFFFFFFFF77
:051B7E0001020A05034D
:0E1B830000000A0019003100490061009200C4
:0E1B9100DB002401B60147026B03B205630BB3
:041B9F001C112922CA
:0A1BA300D2D100F9F4EFEAE5E0DA30
:0400000002002332A5
:01000B0032C2
:030013000211A92E
:03001B000211DCF3
:03007C0002001E61
:05001E00120BEC80FE56
:080BEC00C01585811505811279
:040BF4001A2F7A003A
:030BF800BA32000E
:0E0BFB00501AC28C901D17E493F58C901D18B3
:080C0900E493F58AC28DD28C40
:060C1100308DFD0A80E1B8
:030C1700120AD1ED
:0B0C1A00901D0DE493FABAFF02800366
:030C2500020FA417
:070C2800E5786003020FA450
:060C2F00300E03020FA4C9
:090C3500C2AB7401B52A0280195A
:070C3E007402B52A028022B6
:070C45007403B52A02802DA3
:080C4C007404B52A03020CF840
:030C5400020E9FEE
:060C5700C2011210922000
:050C5D000103752A02ED
:050C6200D2AB020E9F61
:080C6700C20112106D500620BD
:050C6F000103752A03DA
:050C7400D2AB020E9F4F
:0C0C7900C2011210A4AA82AB83D2AB907F
:070C85001DCAE493FC7D0A87
:0E0C8C00ECFE3395E0FFEE2AFAEF3BFBDDF2C3
:060C9A00300103020E9F71
:050CA0008A238B24E50E
:050CA50013B52307E573
:060CAA0014B52402804293
:0A0CB000AA23E524C423CAC4235478
:0D0CBA001F6ACA541FCA6ACA30E40244E02F
:0C0CC700FB53030774182BFBE52430E7F7
:050CD3000474802BFBFE
:0E0CD800C002C0037582011208341581158117
:0C0CE60075820612010C75820712010CC9
:060CF200752A04020E9FAA
:0B0CF800C2017582031200EFD2AB3086
:050D03000103020E9F38
:0A0D08007490250950097525FF7548
:050D120026FF020E188F
:080D1700752502E4F5267A00BF
:0C0D1F00EA901BAD93FBC3E5099B400E5E
:080D2B000AE526C52525E0C5F7
:060D33002533F52680E6E1
:0A0D3900EAFB24FE4005E4F525F571
:010D43002689
:0C0D4400AA097C00EB14901BAD93FDFE8F
:0E0D50007F00EAC39EFAEC9FFCEB901BAD9374
:0A0D5E00FEC39DFDA81508BB0B00A5
:0C0D6800E433F6A81508E6600674022BC0
:030D7400FF8004F9
:040D7700EB24FEFF6C
:080D7B00C0038FF005F08006B3
:060D8300EA2AFAEC33FC41
:0E0D8900D5F0F77F00C005C007C005C0078A7F
:0E0D9700828C83121178AB82AE831581158198
:0C0DA500D007D0058B028E04D003A815E7
:0A0DB10008E6600CEA2525F525ECA4
:060DBB003526F526801824
:0E0DC100ECC454F0CAC4CA6ACA54F0CA6AFC30
:070DCF00EA2525F525EC35AE
:030DD60026F526D9
:030DD900BB070055
:0C0DDC00503AAA08E4FCFE74022BFBE471
:080DE8003EFE8BF005F08006D1
:060DF000EA2AFAEC33FCD4
:0E0DF600D5F0F7C005C0078A828C83121178F1
:0C0E0400AB83158115818B027B00EA2571
:050E100025F525EB357E
:030E150026F52699
:060E1800E511B52507E518
:060E1E0012B526028072ED
:0A0E2400AA25E526C313CA13CAFB72
:0A0E2E00AC25E526C313CC13CCC39A
:0C0E380013CC13CCFDEC2AFAED3BFBAC14
:0A0E440025E526C403CCC4035407BF
:0E0E4E006CCC5407CC6CCCFDEC2AFAED3BFBCF
:040E5C007C007D3861
:0E0E6000C374FF9A74079B500DEBC313CA13A3
:080E6E00CAFB74082DFD80EAA7
:0E0E7600EC2AFAED3BFBC002C00375820012AD
:0E0E840008341581158175820412010C7582E7
:040E92000512010C38
:090E960075820312010C752A019A
:0E0E9F00901DD2E4935470C4540F75F064A4F7
:0C0EAD00FAABF04B6049EA2523FCEB3562
:070EB90024FDC3E5139CE5D5
:0C0EC0001464808DF063F08095F05019F0
:0A0ECC00EA2513FCEB3514FDC3E525
:0A0ED600239CE52464808DF063F096
:050EE0008095F04017B1
:070EE5007401F531F532251F
:070EEC000FFCE43510FD8C42
:040EF300338D348582
:030EF7002313853D
:020EFA002414BE
:0D0EFC00901DD3E493FC54707003020F8F1F
:0E0F0900901DD3E4935470C4540F901BBC93FE
:0B0F1700FC7D00C004C0058511828530
:0C0F22001283121178AC82AD831581158A
:0C0F2E00818C028D03EA4B70037A01FBFA
:060F3A00C3E5119525E559
:060F40001295265016E593
:060F460025C39511FCE536
:0A0F4C00269512FD8A068B07C3EC00
:050F56009EED9F501DFF
:060F5B00C3E5259511E538
:060F61002695125029E55F
:060F670011C39525FCE515
:0A0F6D00129526FDC3EC9AED9B409F
:010F77001762
:070F78007401F52DF52E2593
:070F7F000FFAE43510FB8AB4
:040F86002F8B3085F8
:030F8A00251185A9
:020F8D0026122A
:0E0F8F0075820812010C75820912010C748023
:070F9D0025D1500312092CBD
:060FA40030060312179B4A
:070FAA00D29720970A7A6438
:020FB100DAFE66
:060FB3003097FD637D8113
:080FB900E57D5401FAB40100CA
:090FC1009297020C1A851581D0EB
:020FCA001522EE
:0E1BAD000009111B2835424F5860656A6D70A3
:011BBB00FF2A
:051BBC0064140A05039A
:0A0FCC00D210C2879009C4C022129F
:080FD600115BD022D2877AFFE3
:090FDE00A28782109210DAF8B229
:040FE70010A2102222
:040FEB00AA827B015A
:040FEF00BB00012220
:060FF300EB5A601E7C00B9
:030FF900BC020037
:070FFC005005C2870C80F6CE
:0E100300D287900104C002C00312115BD0031B
:04101100D002801277
:0E101500C287900113C002C00312115BD0030A
:04102300D002D2879E
:05102700EB2BFB80C370
:04102C007A007B01CA
:05103000BB0002803549
:021035007C003D
:03103700BC0200F8
:07103A005005C2870C80F68F
:0E104100D287900001C002C00312115BD003E1
:08104F00D002308703EB4202DE
:0E10570090008CC002C00312115BD003D002C7
:05106500EB2BFB80C62F
:03106A008A822255
:02106D007A0007
:03106F00BA0200C2
:071072005005C2870A80F659
:0C107900D28790000112115BA287921038
:0910850090008CC02212115BD016
:04108E0022A2102268
:0E109200120FCC500C7582CC120FEB758244FD
:0310A000020FEB51
:0110A300222A
:0810A400120FCC4003021152AF
:0D10AC007582CC120FEB7582BE120FEB1295
:0E10B900102CAA82C00212102CAB82C00312AF
:0610C700102C12102C1287
:0610CD00102C12102C1281
:0E10D300102CAC82D003D0025303F8EAC40301
:0E10E10054072BFBEAC40354F8FA5302F074D0
:0E10EF0010C39C2AFA74805BFC8B05E4FBFEA8
:0E10FD00EA2BFBEE3DFDFAEC6007C3E49BFB23
:03110B00E49AFA69
:0E110E00C002C003C004C003C002900006125D
:0E111C001A92AD82AE8315811581D004D003E6
:0E112A00D002EAC313CB13CBC313CB13CBFA03
:0E113800EB2DFDEA3EFEED24E7FDEE34FFFE5A
:0C114600EC600DC3E49DFDE49EFE8004FF
:041152007DFF7EFFA0
:051156008D828E832252
:0E115B00AA82AB83C28C74FFC39AFA74FF9B06
:09116900FB8B8C8A8AC28DD28CAA
:06117200308DFDC28C224D
:0A117800E58124FEF8E6F918E6F818
:051182007A10E4FBFC03
:0E118700E58225E0F582E58333F583EB33FB4B
:0E119500EC33FCEB98F5F0EC994006FCABF067
:0311A30043820183
:0311A600DADF226B
:0E11A900C0E0C0D075D000C2AAC28E740F552F
:0E11B700892420F589758B80758D80C28FD2BA
:0911C5008ED2AB757801C202D292
:0511CE000075770075BB
:0911D3007600D201D0D0D0E03248
:0C11DC00C022C0E0C0F0C082C083C0028E
:0E11E800C003C004C005C006C007C000C0019F
:0C11F600C0D075D000AA78BA0002803E7C
:05120200BA0202807336
:06120700BA0303021326E6
:06120D00BA040302132CD9
:06121300BA050302139767
:06121900BA0A030213C033
:06121F00BA0B0302141AD1
:06122500BA0C0302143CA8
:06122B00BA0D030214419C
:06123100BA17030214814C
:06123700BA500302148608
:03123D0002149EFA
:07124000E57A6005157A0252
:0212470014A0F1
:07124900E57BB57C02802566
:08125000E57C246CF886821293
:0712580015A55011E57C24EF
:0A125F006CF8860274204AF67579D7
:04126900001214EA71
:06126D00057C537C070222
:0212730014A0C5
:05127500C28E0214A06E
:0A127A00A28BB39210C28B757803AB
:08128400E577700A757701C2DD
:04128C0003C2040293
:0212900014A0A8
:0A129200747F2577401C301008B26D
:04129C0002E57725CB
:0312A00076F5766A
:0512A300E5772577F559
:0612A8007760030214A0B0
:0612AE007577810214A017
:0A12B400C28EC28FA202201001B307
:0A12BE005026E574700E74CCB5766E
:0312C80002D2034C
:0712CB00740CB57602D20499
:0712D200200313200410E5C6
:0512D900742455F8E546
:0512DE0076F6627505C3
:0312E30074800212
:0212E600C20044
:0512E800100A02801253
:0712ED003003093000061276
:0512F40014BF0214A06C
:0612F9001215380214A0DA
:0712FF0030001E20031B203C
:0C1306000418740F55892410F589758DAA
:0C131200FA758BABD28E757804D2AA025B
:02131E0014A019
:061320001214BF0214A02C
:061326007578010214A01D
:0A132C0030085AE57424FB5054C247
:0E1336008E740F55892410F589758DEF758B17
:081344006DD28EA20D9205E5A9
:08134C005A30E71F855882C0EA
:0C13540059121560AA821581BAFF0280B0
:01136000028A
:02136100D205B3
:09136300E558701CE5597018D220
:03136C00058014E5
:0C136F00901D17E493FAB5580B901D1860
:08137B00E493FAB55902D20512
:061383007578050214A0BC
:08138900E57424FE5002D206B7
:061391001214BF0214A0BB
:0A139700C28E74FFB5751830001502
:0613A10030050CD206D25B
:0513A7000B1214EAC264
:0413AC000A0214A07D
:0613B0001214BF0214A09C
:0613B600D20C1214EAC281
:0413BC000A0214A06D
:0813C000E5742455F8860230A3
:0413C8000B027ACCCE
:0513CC00300C027A0C58
:0A13D100E577247F402DE5775A7080
:0913DB0008D296C209B202800298
:0213E400D2092C
:0813E600E5777007757701C27D
:0313EE0002800674
:0513F100E5772577F50A
:0113F600777F
:0713F700E5777003757781B3
:0613FE0075780B0214A03B
:09140400200206D296C209800202
:02140D00D20902
:06140F00057475770075FD
:05141500780D0214A097
:0E141A000000000000000000000000000000C4
:0C142800C296A209828B50051214BF80EE
:0114340003B4
:0314350075780CBB
:04143800C28B80647F
:05143C0075780A805FD5
:08144100C296200B03300C09D8
:061449001214BFC20BC229
:03144F000C804EC0
:0C145200740F555AFA7B0074072AFAE464
:0C145E003BFBAC747D00C3EA9CEB648097
:0C146A008DF063F08095F05009D207125D
:061476001538D2AA802403
:05147C0075780E801FD1
:0514810075780A801AD5
:0A14860074FD2579400D74DF555503
:05149000F5550579127D
:0414950014EA8007CE
:051499001214BF8002E7
:02149E000578CF
:0C14A000D201D0D0D001D000D007D0067F
:0E14AC00D005D004D003D002D083D082D0F07F
:0514BA00D0E0D0223259
:0A14BF00757800C28BC28EC2AB75B7
:0A14C9007500757400C28E740F5593
:0C14D300892420F589758D80758B80754B
:0B14DF007A96C28FD28ED2AAD2AB2226
:0E14EA00C28E740F55892420F589758D80758A
:0C14F8008B80C28F740F555AFA74072ABB
:06150400FA7575FF7B0083
:0C150A00C3EB9A500BEB2455F8E6FC6292
:04151600750B80F0E1
:07151A00EA2455F8A675C292
:0415210003C204D22B
:051525000A75780A754B
:0A152A007700757400C28BC2AAD2CC
:041534008ED2AB2286
:0A153800757850C28BC28EC2AB75ED
:0A1542007500757400C28E740F5519
:0E154C00892410F589758DB5758B1EC28FD25E
:06155A008EC2AAD2AB22F2
:0A156000C015858115AA827BFF905B
:08156A001D16E49360307C01C2
:0E157200901D16E493FDC39C4024EC2CFD2438
:0E15800017901D0093FEEAB5061374182D9007
:0C158E001D0093FDA815181818E6B505FF
:03159A00028C03BD
:03159D000C80D2ED
:0515A0008B82D0152232
:0A15A500C015E581F5152404F58159
:0715AF00AA82C210BA8000FD
:0515B60040030216B223
:0815BB00EA30E604D2118002BF
:0215C300C21153
:0C15C50053021F8A82C002C02212077E5F
:0C15D100AB82AC83ADF0FED022D002A8AB
:0C15DD001508A60308A60408A60508A629
:0C15E900068A82C002C0221219E3AF8201
:0C15F500AB83D022D0028F04EC4B7003BB
:031601000217824B
:0A1604007555BC901D17E493FD8D91
:0A160E0056901D18E493FD8D578BD4
:06161800058D588C597588
:06161E005B0030110575B0
:041624005C408003A3
:03162800755C806E
:0E162B00901D12E493FBEA75F003A42B240437
:0E163900F582E4341DF583E493FB24F950069A
:06164700EB24FBFB800216
:02164D007B011F
:0C164F0074E02BF55AEB24FE500F7406DB
:0A165B002B2455F8A915098704A6F1
:03166500048009F5
:08166800A81508E6FC255CF55D
:011670005C1D
:0C167100EB24FD500E74052B2455F8A945
:07167D001509098704A6040A
:0C168400EB24FC500F74042B2455F8A933
:08169000150909098704A604ED
:0C169800EB24FB501074032B2455F8A920
:0916A40015090909098703A603D1
:0516AD00D210021782BB
:0A16B2007555B0901D17E493FB8BF3
:0A16BC0056901D18E493FB8B578530
:0316C600515885F3
:0A16C900525953021FBA01028012A9
:0516D300BA0202801BB9
:0516D800BA030280339B
:0516DD00BA0402803F89
:0316E2000217806C
:0A16E500755A60743C555B24C2F591
:0416EF005B02178003
:0816F300755A6374432553F599
:0516FB005B755C407509
:061700005D00755E12E5BC
:06170600532404F55353C7
:04170C00533C80705A
:0717100075580075590075C2
:061717005AE1755B01754B
:04171D005C40805F4D
:021721007A004C
:0A172300C3EA9554503CE55D7026C2
:0A172D00740A2A2455F87600AB5E1A
:0E1737007C008A057E00ED2BFBEE3CFCBB60C7
:0B1745001CBC0019740A2A2455F8A6E9
:031750007D800F8A
:0A175300740A2A2455F8EA255E9076
:05175D001D0093FBF6E6
:031762000A80BE3C
:0917650074632554F55A744245E1
:06176E0053F55B744045D9
:0417740054F55CE5E7
:06177800532404F5535355
:02177E00533CDA
:02178000D21085
:06178200A210851581D0C4
:02178800152228
:0A178A00AA82E57B246CF8A6020594
:071794007B537B07D28E227C
:08179B00C20674C3555BFAE5B8
:0917A30058FB7033E559702FE585
:0717AC007D20E00302189B01
:0B17B300EA700C74C0B55C07C00212A5
:0417BE001957D002E5
:0517C200BA01028003E2
:0317C70002189B6A
:0717CA00E55C600302189BBF
:0917D10075828312178A02189B2D
:0817DA00E55A30E7030218860E
:0C17E200901D17E493FCEBB5040280039B
:0317EE0002189B43
:0B17F100901D18E493FBB55902800323
:0317FC0002189B35
:0517FF00BA4202801255
:05180400BA4302803828
:05180900BA80028054CA
:05180E00BA8102805FB9
:0318130002189B1D
:0C18160074C0555CFBBB80097582811218
:05182200178A12189F57
:0A182700E55CFB54C0600302189B4F
:0C1831008B5475828112178A7582841214
:04183D00178A805A2C
:051841007480B55C0A93
:08184600E57870FC121A2F1264
:02184E000AD1BD
:0C185000E55C704775828112178A758272
:06185C008212178A803998
:06186200200E36D20E85B7
:0318680056518551
:03186B005752755C
:04186E00530080297A
:06187200E556B55124E526
:0518780057B5521F10DE
:04187D000E02801ABD
:05188100755300801505
:0C188600EA701274C0555CFABA800312BC
:0218920008F755
:07189400E55C70031208CDB2
:04189B00757400223E
:0A189F00C0158581150581058174CF
:0A18A9000F555CFAE55DFB7034ACEE
:0218B3005EFBDA
:0818B500C3EB9A400302195134
:0E18BD00C0028C067F008B027D00EA2EFEED3D
:0A18CB003FFFBE6005BF000280046D
:0418D500D002800AB3
:0A18D900D002740A2B2455F8867D16
:0318E3000B80CFA8
:0C18E600E57870FCC2AF75E40074015B93
:0718F200241CFBAC5E7D002D
:0E18F900C3ED9A504E8BE7ED2CF5E6740A2DE8
:0A1907002455F886E58C067F00A841
:0A1911001508A605087600A81508C1
:0E191B00E62EFE08E63F53063F7F00BE3F204B
:0C192900BF001D8A067F001EBEFF011FCC
:0C193500A81508E6B5060708E6B507028D
:0219410080061E
:0619430075E46875E40084
:031949000D80AD61
:05194C0075E468D2AF54
:06195100851581D015226E
:0C195700E57870FCC2AF75E40075E71D78
:0A19630075E617855DE5855EE57504
:05196D00E468D2AF2286
:0E197200AA82901D12E493FB0B0B0BEA75F09A
:0A19800003A42B901D0093F58222B2
:0A198A00C015858115AA827BFFC0FD
:0C19940003A815181818E6C0E08A82129B
:0E19A0001560AA821581D003901D11E493FCFE
:0D19AE00F58275831DE493FDBAFF028023CE
:0319BB007E000C9F
:0E19BE00C3EE9D501B8C8275831DE493FFEADF
:0D19CC00B5070AEC04901D0093FFFB8D068B
:0519D9000E0C0C80E083
:0519DE008B82D01522F0
:0E19E300AA827BFE901D11E493FC0CEA2A2CD4
:0E19F100FC04901D0093FDB502098C827583E5
:0519FF001DE493FAFB5A
:051A0400BBFE02801D85
:0E1A0900EB2BFB2417901D0093FC7A00741841
:0E1A17002B901D0093FB7D002AFAED3CFC8015
:011A250004BC
:041A26007A007C00C6
:051A2A008A828C83227A
:0E1A2F0075950075911475924CC296758921BB
:0E1A3D00758F00C28CC28E758D80758B80C235
:0C1A4B008F75D20E75D3A075D161C20159
:0E1A570075A80075E800C2ABC2A8C2AAD2AF43
:0E1A650075B80475B70475F80075F700D28ADD
:061A7300757D2EC203C2C6
:041A790004C20BC2D6
:041A7D000CC206D2BF
:051A810008757B0075F3
:061A86007C00755300C254
:041A8C000EC20D0277
:021A900014BF81
:06005200E478FFF6D8FD82
:080030007900E94400601B7A2D
:0500380000901BC178DF
:03003D000075A0AB
:0A00400000E493F2A308B8000205E3
:08004A00A0D9F4DAF275A0FF61
:0E1A920074FE2581F8E68582F0A4C0E085820E
:0E1AA000F018E6A4F582D0E025F0C58386F0AC
:061AAE00A42583F583224C
:080058007800E84400600A7919
:030060000075A088
:0600630000E4F309D8FCE3
:080069007800E84400600C7906
:0B00710000900000E4F0A3D8FCD9FAD6
:0300230075817D67
:0A002600121AB4E582600302001E06
:041AB4007582002215
:00000001FF
