:0C007F00AA8290C350C002120F7DD00274
:0D008B00308DFD740F5580FBB502537B00D6
:03009800BB0400A6
:0A009B00504A8BF005F0740180025A
:0200A50025E054
:0C00A700D5F0FBFC5A601BEC551C7016D9
:0C00B300C2F0C002C003C00485F0218B25
:0A00BF00821200EAD004D003D00240
:0C00C900EC5A7017EC551C6012D2F0C00D
:0C00D50002C00385F0218B821200EAD0EB
:0300E10003D00247
:0300E4000B80B1DD
:0200E7008A1C71
:0100E90022F4
:0A00EA00C01DE581F51D2404F58119
:0C00F400AA82C209EAC31324CF901D00A9
:0E01000093FB74015A75F004A4F5F005F0EBC2
:02010E0080026D
:02011000C31317
:0B011200D5F0FB540FFBBB0102800F77
:06011D00BB02030201BA5F
:06012300BB0303020446C9
:030129000205B616
:0C012C00300814EA2A25E024D3901D00BE
:0B0138009323235403FB5303038012A6
:0E014300EA2A25E024D3901D0093C4540FFC3B
:0401510074035CFBDC
:05015500BB0102800A5D
:05015A00BB0202800958
:05015F00BB0322801E1D
:04016400D209801C20
:0E0168008A82C002C003121627AC82AD83D07B
:0C01760003D002EC4D24FFB3920980027C
:02018200C209B0
:06018400EB70030205B65A
:0A018A00A209E433FB7C00C002C0B0
:0B01940021C003C004C00275820112EC
:0C019F0007E7158115811581D021D002E1
:0A01AB00A20992F085F0218A821269
:0501B50006CD0205B6B5
:0601BA0020080302038B84
:0E01C000EA2A25E0FB24D3901D0093FC30E2D8
:0C01CE0012C2F0C002C00385F0218A823A
:0701DA001206CDD003D00294
:0C01E100C00274D62B901D0093FCA81DDA
:0E01ED0008A60408760008760008760074D58F
:0E01FB002B901D0093FA74305AFCE4BC0001F6
:0102090004F0
:09020A00D0027013BC1002804107
:05021300BC2002807315
:06021800BC30030202C429
:03021E000202EDEC
:0C022100A81D08080808E618C454F0C620
:0E022D00C4C666C654F0C66608F61818E6C4C5
:0E023B00540F0846F618E618C454F0C6C4C6A0
:0B02490066C654F0C66608F60202ED1F
:0C025400A81D08080808E618C42354E0A0
:0E026000C6C423C666C654E0C66608F6181863
:0E026E00E6C423541F0846F618E618C42354AD
:0E027C00E0C6C423C666C654E0C66608F68017
:01028A006211
:0C028B00A81D08080808E6185403A2E0AB
:0E029700C613C613A2E0C613C613C608F61897
:0E02A50018E60303543F0846F618E618540303
:0E02B300A2E0C613C613A2E0C613C613C60807
:0302C100F680299B
:0C02C400A81D08080808E6185401A2E074
:0E02D000C613C613C608F61818E6C313084670
:0E02DE00F618E6185401A2E0C613C613C608AF
:0102EC00F61B
:0A02ED00C002A81D08E50826F6E58A
:0A02F700090836F6E50A0836F6E5B8
:0C0301000B0836F674D32B901D0093FA05
:09030D0074305AFCE4BC10010438
:09031600D0027008BC30028038EE
:03031F000205B61E
:0E03220074D42B901D009354F0C4540F24404B
:0C033000FC74042AFDA81D08E6C0E008CB
:0E033C00E6C0E008E6C0E008E6C0E0C0048DC0
:0D034A0082120CBBE58124FBF5810205B693
:0E03570074D42B901D0093FB740F5B2440FBAD
:0C03650074042AFCA81D08E6C0E008E6AD
:0E037100C0E008E6C0E008E6C0E0C0038C82F1
:0C037F00120CBBE58124FBF5810205B6E1
:0C038B0074042A25E025E0FB2422F8E69B
:0E0397006071EA2A25E024D3901D0093FB53E9
:0703A5000330BB10028005CC
:0503AC00BB3050802968
:0E03B100C0027401C0E0E4C0E0C00275820129
:0E03BF001207E7158115811581D002D2F0C01A
:0C03CD000285F0218A821206CDD0028049
:0103D90025FE
:0D03DA00C002E4C0E0C0E0C0027582011264
:0E03E70007E7158115811581D002C2F0C00212
:0A03F50085F0218A821206CDD002A5
:0B03FF0074042AF582120D030205B6FB
:0E040A00EA2A25E024D3901D0093FB20E61A79
:0E04180074082AFBE4C0E0C0E0C00375820255
:0C0426001207E71581158115810205B64B
:0E04320074082AF582E4C0E0C0E01216B71587
:060440008115810205B6E2
:0604460020080302057905
:0E044C00EA2A25E0FB24D3901D00935410C42F
:0E045A00540FFC7D00C002C003C004C005C0EA
:0E046800027582011207E7158115811581D0FA
:0C04760003D002D2F0C002C00385F021C8
:0D0482008A821206CDD003D00274D52B90D3
:0C048F001D0093FCA81D08A604087600C0
:0E049B0008760008760074D42B901D0093FCA8
:0804A900530406BC0202800AA4
:0504B100BC04028037CD
:0504B600BC0676804940
:0C04BB00A81D08080808E618C454F0C684
:0E04C700C4C666C654F0C66608F61818E6C429
:0E04D500540F0846F618E618C454F0C6C4C604
:0A04E30066C654F0C66608F68042B3
:0C04ED00A81D080808E608F61818E60824
:0B04F900F61818E608F6187600802BB5
:0C050400A81D0808E608C6C454F0C6C4D0
:0E051000C666C654F0C66608F6181818E6C48B
:0E051E0054F008F618E6C4540F080846F61804
:03052C001876003E
:08052F00A81D08E50826F6E509
:0A053700090836F6E50A0836F6E575
:0C0541000B0836F674D32B901D00935469
:0C054D0010C4540F2480FB74042AFCA886
:0C0559001D08E6C0E008E6C0E008E6C0AF
:0E056500E008E6C0E0C0038C82120CBBE5810A
:0605730024FBF581803D30
:0C05790074042A25E025E02422F8E6FBAB
:0E05850030E426EA2A25E024D3901D0093548A
:0E05930010C4540FFB7C00C003C004C00275EE
:0D05A10082011207E7158115811581800880
:0805AE0074042AF582120D030A
:0605B600851D81D01D220D
:0805BC00C01D85811D0581852C
:0505C4004D82C04E1243
:0C05C9001571AA821581BAFF030206C753
:0A05D500901D17E493FBB54B0B904B
:0A05DF001D18E493FBB54C028007E1
:0705E900C00212124BD00208
:0C05F000901D11E493FBF58275831DE45F
:0C05FC0093FCA81D08A60474022BFD0B44
:020608007E0072
:0B060A00A81D08C3EE9640030206C7BF
:0E061500C005EE2EFF2B901D0093FDEAB505EB
:050623000474018001D8
:01062800E4ED
:07062900D00570030206C3B7
:0E063000C003EF2D901D0093FFF582C002C0A5
:0E063E0005C006C007121507AB82D007D00614
:0C064C00D005D002530314E4BB140104D9
:07065800D0036067BF0C0036
:0C065F005062C005AD517C00C002C00319
:0D066B00C005C006C007C005C0048F821284
:0E06780016B715811581D007D006D005D00326
:05068600D002BF0400DA
:0D068B00E433D0056032EF2F25E024D3903A
:0A0698001D0093FC530407BC04008E
:0A06A200501FE55113920892F0C0BA
:0C06AC0002C003C005C00685F0218F824B
:0B06B8001206CDD006D005D003D00202
:0406C3000E02060A13
:0606C700851D81D01D22FB
:0506CD00AA82BA04003E
:0306D200400122C2
:0E06D500EA2A25E024D3901D0093FB5303076F
:0506E300BB00028012C3
:0506E800BB01028012BD
:0506ED00BB03028012B6
:0506F200BB04028012B0
:0306F7000207B93E
:0506FA00C2080207B96F
:0506FF00D2080207B95A
:05070400B2080207B974
:0C070900D208901DCEE493FBBB260280BA
:010715000DD6
:05071600BB7602803AF1
:05071B00BB960280689E
:030720000207B914
:0A072300745E2508FBE43509FCE4D0
:0A072D00350AFDE4350BFEC002C0E2
:0C07370021C003C004C005C0067480C0CF
:0D074300E08A82120CBBE58124FBF581D019
:0507500021D0028064CD
:0A07550074192508FB74013509FC36
:0A075F00E4350AFDE4350BFEC0028C
:0C076900C021C003C004C005C00674809D
:0E077500C0E08A82120CBBE58124FBF581D026
:0507830021D0028031CD
:0A07880074772508FB74013509FCA5
:0A079200E4350AFDE4350BFEC00259
:0C079C00C021C003C004C005C00674806A
:0E07A800C0E08A82120CBBE58124FBF581D0F3
:0307B60021D0024D
:0C07B900EA2404FA8AF005F074018002C2
:0207C50025E02D
:0C07C700D5F0FBF45280A208E433FB8A5A
:0607D300F005F0EB8002CE
:0207D90025E019
:0C07DB00D5F0FBF5F0740F45F0428022D1
:0807E700C01D85811DAA82A836
:0C07EF001D1818188682C002121522ABDB
:0C07FB0082AC83D002EB4C70030208CAF1
:0A080700754ABC901D17E493FD8DA7
:080811004B901D18E493FD8DCE
:060819004C8C058D4D8B97
:06081F004EBA0102800F39
:05082500BA0202802A66
:05082A00BA0502804543
:05082F00BA0672805EB4
:07083400754FD1755000E57E
:0C083B001D24FBF8E65401F6087600E5E9
:0A0847001D24FBF8860274802AF5D8
:0308510051805083
:07085400754FD1755000E55E
:0C085B001D24FBF8E6540FF6087600E5BB
:0A0867001D24FBF8860274802AF5B8
:0308710051803083
:07087400754FE3755000759C
:0A087B005180E51D24FBF8088602F9
:0A0885008A52E51D24FBF886028A62
:03088F0053801281
:07089200754FE2755000757F
:0A0899005180E51D24FBF886028A59
:0108A3005202
:0C08A400C2AA121197D2AAE51D24FBF88D
:0C08B000E6C0E008E6C0E0A81D1818181B
:0E08BC0086821216B7158115811205BC801AAE
:0C08CA00E51D24FBF8E6C0E008E6C0E0F5
:0C08D600A81D18181886821216B715818C
:0208E20015817E
:0308E400D01D2202
:0A08E700C01DE581F51D2409F5810F
:0708F100120D6F0508E4B5CC
:0508F800080C0509B524
:0508FD000907050AB522
:040902000A02050BD5
:0A090600E4B5080FE4B5090BE4B5F1
:090910000A077401B50B02800214
:02091900800953
:06091B00E4F508F509F502
:030921000AF50BC9
:05092400A81D0876008B
:06092900A81D08B608003D
:05092F004003020B6B08
:0A093400A81D08E625E025E0FB24DD
:09093E0022F8E6FC7003020B64D0
:0A094700C004EB042422F88605A882
:0C0951001D0808A60508760008760008BE
:0A095D007600A81D0808E51D240619
:0E096700F90808E6090909F718E619F718E675
:0C09750019F719770074022B2422F88671
:0C09810002E4FC3395E0FDFEE51D2406B9
:0E098D00F8EA26FAEC0836FCED0836FDEE0816
:0C099B0036FEA81D0808A60208A60408E5
:0A09A700A60508A606A81D0808E52D
:0C09B1001D2406F90808E6090909F718DA
:0E09BD00E619F718E619F719770074032B24D2
:0C09CB0022F88603E4FF3395E0FAFCE517
:0C09D7001D2406F8EB26FBEF0836FFEAB3
:0C09E3000836FAEC0836FCA81D0808A62F
:0C09EF000308A60708A60208A604A81D1D
:0A09FB000808E6B5081308E6B50980
:0A0A05000E08E6B50A0908E6B50B75
:050A0F000474018001E8
:010A1400E4FD
:070A1500D0047003020B6422
:060A1C00A81D08B604004D
:0C0A2200501DA81D08740426F5F005F016
:040A2E0074018002CD
:020A320025E0BD
:0D0A3400D5F0FBF4FA528043800F020B64F2
:070A4100EC20E703020B3D6E
:0C0A480074015CFA7B00A81D08740426F1
:0D0A5400FDC004C002C003C0057582011280
:0C0A610007E7158115811581D004A81D40
:0E0A6D0008E624FC25E025E0FA24D6901D00C2
:0E0A7B0093FBE4FDFEFF74D42A901D0093FA55
:080A8900530260BA2002800A4A
:050A9100BA40028029BB
:050A9600BA604C802E47
:0E0A9B00EFC454F0CEC4CE6ECE54F0CE6EFF3B
:0E0AA900EDC4540F4EFEEDC454F0CBC4CB6B25
:080AB700CB54F0CB6BFD80264F
:0A0ABF008E078D068B057B00801C5E
:0E0AC900EDCEC454F0CEC4CE6ECE54F0CE6E40
:0E0AD700FFEBC454F0FDEBC4540F4EFE7B0049
:0B0AE500EB4D4E4F6046E5082BFBE593
:080AF000093DFDE50A3EFEE5AB
:0A0AF8000B3FFFA81D08E624FC25B3
:0E0B0200E025E024D3901D00935410C4540F3E
:0E0B10002410FAC004C003C005C006C007C010
:0C0B1E0002A81D088682120CBBE5812491
:070B2A00FBF581D004800CF3
:0C0B3100A81D088682C004120D03D00429
:0C0B3D00EC30E6237A00A81D08740426A2
:0E0B4900FBC004C002C0037582021207E7154C
:0B0B57008115811581A81D08868212FF
:020B62000D0381
:070B6400A81D080602092983
:0A0B6B00758208120D27851D81D048
:020B75001D223F
:020B77007A0002
:030B7900BA0400BB
:050B7C005020BA080042
:0A0B810050188AF005F0740180029C
:020B8B0025E063
:0E0B8D00D5F0FBFB74FFC39BFB5284EB52853B
:030B9B000A80DBF2
:020B9E007A04D7
:030BA000BA080090
:0E0BA300E433FB601DEB60178AF005F074016F
:020BB1008002C0
:020BB30025E03B
:0D0BB500D5F0FBFB74FFC39B5284EB42851F
:030BC2000A80DBCB
:0C0BC50075800F751C0F120D6F758208F3
:070BD100120D27E4F508F501
:040BD80009F50AF51C
:0C0BDC000B120F36E4C0E07403C0E0759B
:0E0BE8008201120F3E158115817404C0E07465
:0E0BF60004C0E0758201120F3E158115817456
:0E0C040010C0E07405C0E0758201120F3E15AD
:0E0C12008115817452C0E07406C0E075820145
:0E0C2000120F3E158115817401C0E07407C0EB
:0E0C2E00E0758201120F3E15811581E4C0E0D1
:0E0C3C00740CC0E0758201120F3E1581158107
:0E0C4A0074FFC0E0740DC0E0758201120F3E11
:0E0C580015811581749AC0E07412C0E0758297
:0D0C660001120F3E15811581120F3A7A0020
:030C7300BA0C00B8
:0E0C76005015C002E4C0E0C0E08A821216B73A
:090C840015811581D0020A80E6F9
:020C8D007A00EB
:030C8F00BA0800A0
:0E0C9200500C8A82C002120D03D0020A80EFBD
:020CA0007A00D8
:030CA200BA040091
:0C0CA5005011C2F0C00285F0218A8212BA
:070CB10006CDD0020A80EA23
:030CB800D2AA229B
:0A0CBB00C01D85811DE58225E0259E
:0A0CC500E0FA2422F8A91D191919FC
:0A0CCF00E7F6EA042422F8E51D24EC
:0C0CD900F9F909098703A60374022A2414
:0A0CE50022F8E51D24F9F909870340
:0A0CEF00A60374032A2422F8E51D71
:0A0CF90024F9F98702A602D01D229B
:0C0D0300E58225E025E0FA2422F87600C5
:0B0D0F00EA042422F8760074022A2473
:0A0D1A0022F8760074032A2422F860
:030D240076002234
:0C0D2700AA827B007C007D007E007F0023
:0E0D3300C3EF9A501174CD2BFB741C3CFCE4F2
:080D41003DFDE43EFE0F80EAD7
:0E0D4900ECA2E7CB33CB33CB5401FCED2D4CA9
:0E0D5700FCEEA2E7CD33CD33CD540130E002E7
:020D650044FE4A
:080D67008CD28BD375D16122FF
:040D6F0075D16022B8
:0C0D7300C2AAC2AB90017C120F95C2080E
:020D7F00C201AF
:0C0D8100308FFD900168C021120F95D04A
:070D8D0021A29492097A05EE
:090D9400A29482099209DAF8A286
:080D9D0009E433FA300902D227
:010DA5000845
:020DA6007B01CF
:030DA800BB080085
:020DAB00503FB7
:0C0DAD00308FFD90015EC002C003C02129
:0C0DB900120F95D021D003D002A294921A
:030DC500097C05A1
:090DC800A29482099209DCF8A250
:0B0DD10009E433FC8BF005F0EC80021D
:020DDC0025E010
:0A0DDE00D5F0FBFC4202300902B21E
:010DE8000802
:030DE9000B80BCC0
:0B0DEC00308FFDC28EA29492097B059F
:090DF700A29482099209DBF8A222
:050E000009200801B308
:040E05005002D201C4
:030E09008A8222B8
:0C0E0C00C021C0E0C0F0C082C083C00262
:0E0E1800C003C004C005C006C007C000C00172
:0E0E2600C0D075D000C28EC2AAC2AB120D732E
:0E0E3400AA829000C8C002120F6090054612FC
:080E42000F95D002300123E5F9
:0C0E4A0061700974F05AFBBBC002800705
:070E5600E561244AF8A60241
:060E5D00E5617002F56280
:090E6300EA62620561D2AB800A6B
:0A0E6C00756100C2ABC28F75620011
:0C0E7600C28BD2AAD202D0D0D001D00092
:0E0E8200D007D006D005D004D003D002D08314
:090E9000D082D0F0D0E0D0213274
:090E9900AA82D208C209D2969087
:0A0EA200005FC002C021120F60D0F3
:070EAC0021D002C2967B0079
:030EB300BB080079
:0C0EB600505C9000D7C002C003C02112A5
:0C0EC2000F95D021D003D0028BF005F07A
:030ECE00EA8002B5
:020ED100C31349
:0C0ED300D5F0FB5401FCBC0104C20A80F5
:010EDF000210
:020EE000D20A34
:0C0EE200308FFDA20A9296900064C002BE
:080EEE00C003C021120F95D0D2
:090EF60021D003D002200A0BB246
:030EFF00087C0567
:050F0200209402D20959
:020F0700DCF913
:030F0900200908B4
:080F0C00308FFDC2960B809F9F
:090F140020091A9000D4C021123A
:050F1D000F60D021A2CD
:090F220008929690005FC02112B4
:060F2B000F60D021C29608
:050F3100C28EA209229E
:040F360075E400223C
:040F3A0075E46822D0
:0A0F3E00C01D85811DE582FA24FE26
:0C0F48004013741C2AF5E7A81D181818A7
:090F540086E6E51D24FCF886E5A3
:030F5D00D01D2282
:0E0F6000AA82AB83C28E74FFC39AFA74FF9B01
:090F6E00FB8B8D8A8BC28FD28EA1
:060F7700308FFDC28E2246
:0E0F7D00AA82AB83C28C74FFC39AFA74FF9BE6
:0A0F8B00FB8B8C8A8AC28DD28C2267
:0E0F9500AA82AB83C28E74FFC39AFA74FF9BCC
:0A0FA300FB8B8D8A8BC28FD28E2249
:0E0FAD0075950075911475924CC29675891158
:0E0FBB00758F00C28CC28E75D20E75D3A075D4
:0C0FC900D161C20275A80075E800D2AF2B
:0E0FD500C2A8D2AA75B80C75B70C75F80075D5
:050FE300F700D28A2294
:0C0FE800C021C0E0C0F0C082C083C00285
:0E0FF400C003C004C005C006C007C000C00195
:0D100200C0D075D000C2AAC2AB9012DE12A1
:09100F000F9574FFB56202800325
:0310180002113092
:05101B003005068561AF
:041020006602113023
:0A102400740F554FFA7480554FFB0E
:0A102E00E54DFC7030E54E702C20FB
:0510380003030211306A
:0A103D00BA030CE550700874C0B54A
:05104700510312139992
:07104C007401B5500280039E
:0310530002113057
:07105600E5516003021130B7
:06105D001213BF02113066
:06106300EB600302110A1C
:0C106900901D17E493FBECB5030280031C
:0310750002113035
:0B107800901D18E493FBB54E028003AE
:0310830002113027
:0B10860074C35550FBBB420F74C055F3
:0C10910051FBBB8007C00212131FD002ED
:0C109D00EA702774C05550FBBBC007C0B0
:0610A9000212124BD002FE
:0C10AF007480B55007C002121257D00226
:0C10BB007481B55007C002121269D00207
:0C10C700BA012A74035550FBBB031274DD
:0A10D30080B5510DC002120FAD12DE
:0710DD0017CC120B77D002C3
:0A10E4007443B5500BE5517007C0CE
:0610EE00021212A8D0025C
:0C10F400BA033974C35550FBBB4231E510
:0A1100005154C0702B1212C3802658
:03110A00BA010027
:0A110D004013E550700F74C05551F7
:0B111700FBBB8007C0021205BCD00229
:0A112200BA010BE5507007E55170AB
:04112C00031213E7B0
:0A113000756100C28BD2AA200505EC
:05113A00C28E75620089
:0E113F00D0D0D001D000D007D006D005D0040B
:0D114D00D003D002D083D082D0F0D0E0D00B
:02115A00213240
:06115C007A007B00C208CE
:0A1162003094070ABA00200B801D2C
:0C116C00C002C003C021120D73AC82D081
:0A11780021D003D002BCCC093001E5
:0711820006D2087AB87B0BCE
:0C118900C3EA94B8EB6480948B40CEA2C3
:0211950008222E
:09119700C01D85811D05817A004F
:0A11A0007B00A81D08740F554FF6E0
:0E11AA0090495CC002C003120F95D003D00222
:0E11B800208F132094FA90495CC002C00312ED
:0811C6000F95D003D00280EA6E
:0411CE00C28E7D0050
:0C11D200C002A81D0886067F0074062ECF
:0E11DE00FEE43FFF8D027C00C3EE9AEF6480BA
:0D11EC008CF063F08095F0D002402DED24D2
:0B11F9004AF88682C002C003C0051245
:0C1204000E99D005D003ED244AF8E662F4
:0E121000039004CEC003C005120F60D005D0BD
:06121E0003D0020D80AEBA
:0E122400EBF4F582C002120E9912115CD0029A
:0412320050027A03E9
:0A1236000A74DF554AF54AEA24FC69
:0512400040030211A0B3
:06124500851D81D01D2271
:06124B00208F03208EFA43
:061251007582CC020E992B
:0612570020040ED2048504
:03125D004B63855B
:031260004C6412C9
:05126300124B7565014E
:011268002263
:06126900E54BB5630CE546
:05126F004CB5640710FE
:0312740004012250
:0312770075650199
:01127A002251
:06127B00754AB0AA4B8A7F
:041281004DAA4C8A9C
:081285004E901D17E493FA8A54
:08128D004B901D18E493FA8A4E
:071295004C754F6074C04569
:08129C0050FA8A5074FE5AF565
:0412A400500211974C
:0712A80012124B12127B75BC
:0612AF004AB0754F6375A3
:0612B50050437551407525
:0612BB00520075531202FF
:0212C100119783
:0812C30012124BAA51C00212E5
:0612CB00127BD0027B0043
:0C12D100C3EB9A5027E5527011740A2BF1
:0712DD00244AF8EB255390B1
:0712E4001C0093FCF6800FD3
:0A12EB00740A2B244AF8EB255390F7
:0512F5001D0093FCF652
:0312FA000B80D492
:0912FD00754AB074632AF54FE54F
:0A13060065256525E0FB74424BF5F8
:071310005074404AF5511230
:0513170011970565536C
:03131C00650F2238
:0B131F0012124B740F5551FAC002125D
:09132A00127B120F36D0027B0089
:0C133300C3EB9A505E740A2B244AF88623
:0C133F0004EB2553FDC002C003C004C035
:0C134B0005855282120F3E15811581D0DD
:0C13570003D002AC537D008B067F00EE3B
:0E1363002CFCEF3D53043F7D00BC3F24BD0039
:0A137100218A047D001CBCFF011D51
:0A137B00EEB50406EFB50502800E82
:0E138500C002C003120F3A120F36D003D0027E
:031393000B809D2F
:03139600020F3A09
:0C139900120F36C0527417C0E0758201BC
:0C13A500120F3E15811581C0537418C052
:0E13B100E0758201120F3E15811581020F3A80
:0713BF0012124B754AB090B9
:0813C6001D17E493FA8A4B9015
:0813CE001D18E493FA8A4C7526
:0613D6004D00754E00758C
:0613DC004FE175500175A0
:0513E2005140021197CB
:0A13E700C01D85811D05810581856B
:0513F1004D82C04E1208
:0C13F60015B2AA821581BAFF030215018E
:0E140200C00212124BD0028A82C002121627BC
:0C141000AB82AC83D002A81D08A6030824
:0E141C00A6048A82C002121507AD82D00253C8
:07142A00050CBD0C0280035C
:03143100021501A0
:0A143400754ABC901D17E493FD8D6E
:08143E004B901D18E493FD8D95
:0C1446004C8A82C002121691AD82D002C6
:03145200BD0600D4
:0E14550050258A82C002121522AD82AE83D0CD
:0A146300028E078F4D8D078F4E7526
:06146D004FE1755000A8DC
:091473001D08860774402FF55195
:0E147C008A82C002121691AF82D002BF060013
:0E148A0040398A82C002121691AF82D002EF62
:0E14980024F840298A82C002121522AF82ABCE
:0C14A60083D0028F058B068E038B4D8DCA
:0714B200038B4E754FE2753C
:0614B9005000755140A82F
:0614BF001D0886038B529C
:0E14C5008A82C002121691AB82D002BB082BA5
:0E14D3008A82121522AA82AB838A058B068EAE
:0614E100028A4D8D4E75DC
:0614E7004FE37550007593
:0914ED005140A81D080886028A7E
:0714F60052A81D0886038BBC
:0114FD00539B
:0314FE0012119731
:06150100851D81D01D22B2
:0E150700AA82901D12E493FB0B0B0BEA75F009
:0C15150003A42BF58275831DE493F5827E
:0115210022A7
:0E152200AA827BFE901D11E493FC2402FDEAD8
:0E1530002AFE2D901D0093FDB50209EC042E3D
:06153E00901D0093FAFB72
:05154400BBFE02801F48
:0E154900EB2BFB2417901D0093FA74182B90C7
:0E1557001D0093FB7C008A05E42BFBED3CFCA1
:03156500FA800405
:041568007B007A008A
:05156C008B828A83223E
:08157100C01D85811DAA8290B6
:0B1579001D16E493FB7CFF602B7D013E
:0E158400C3EB9D4024ED2DFE2417901D009317
:0E159200FFEAB5071374182E901D0093FEA8F3
:0A15A0001D181818E6B506028D04A8
:0315AA000D80D7DA
:0515AD008C82D01D221C
:0A15B200C01D85811D0581AA827B02
:0C15BC00FFC003A81D181818E6C0E08A44
:0E15C80082121571AA821581D003901D11E4C4
:0B15D60093FCF58275831DE493FDA8D3
:0915E1001D08A605BAFF028035C1
:0715EA0074022CFE0C7F00CF
:0C15F100BBFF2BA81D08C3EF965023C0C1
:0E15FD0006EF2FFD2C901D0093FEEAB50604AC
:04160B0074018001E5
:01160F00E4F6
:0C161000D0066008ED2E901D0093FDFB3D
:03161C000F80D26A
:08161F008B82851D81D01D2284
:0D162700AA827BFF7CFFEA75F003A4FD9012
:0E1634001D12E493FEC39A404FED2EFA2402DD
:0E164200901D0093FF74042A901D0093FABAC5
:02165000080090
:0C165200500B8F8275831CE493FAFB7C24
:01165E00008B
:0A165F00ED2E2404F582E4341DF59D
:0C16690083E493FABA081C8F8275831C7E
:0E167500E493FD7A00EF04901C0093FE7F00CA
:091683002AFAEF3DFD8A038D04F3
:05168C008B828C83221B
:0E169100AA827BFFEA75F003A4FC901D12E410
:0C169F0093FDC39A400FEC2D2404F5824B
:0916AB00E4341DF583E493FAFB1D
:0316B4008B822204
:0816B700C01D85811DAA82C23D
:0C16BF0008EA75F003A4FB901D12E493F0
:0A16CB00FC2B2404F582E4341DF525
:0C16D50083E493FDC3EC9A50030217C796
:0A16E100EB2C2402F582E4341DF521
:0716EB0083E493FABD08003F
:0216F200506442
:0A16F400200861C002C005C02112E9
:0C16FE000F36D021D005D0028D037C00F7
:0E170A007407C39BFBE49CFC8BF005F074FF9E
:0217180080024D
:02171A00C313F7
:0C171C00D5F0FBFB7C00E51D24FCF8E68A
:0C172800520308E65204C002C005C021B4
:0E173400C003C002758200120F3E15811581A0
:05174200D021C02112BE
:0C1747000F3AD021D005D002E5E420E0EC
:05175300A0D208809CFB
:0C175800BD086CE51D24FCF8088603EABF
:0217640004FC83
:0A17660020085EC002C003C004C0EA
:0517700021120F36D02C
:0C17750021D004D003D002C002C003C089
:0B17810004C021C003C00275820012EA
:0B178C000F3E15811581D021D004E52F
:0A1797001D24FCF88605C004C021E3
:0E17A100C005C004758200120F3E158115812F
:0517AF00D021C0211251
:0C17B4000F3AD021D004D003D002E5E4AD
:0717C00020E0A3D208809F86
:0517C700A208D01D2264
:0617CC00C203756501C2B5
:0517D2000475610075C3
:0517D7006600C20522BE
:0400000002002332A5
:01000B0032C2
:03001300020E0CCE
:03001B00020FE8E9
:03007C0002001E61
:05001E001217DC80FE5A
:0717DC00120FAD1217CC1231
:0417E3000B777A32D4
:0C17E70090FFFFC002120F60D002DAF485
:0A17F300740F5580FAB51C0280093E
:0917FD00740F5580F58212007F83
:09180600748025D150031208E79B
:0A180F00E508A2E49208740F55806A
:06181900FABA0302800888
:08181F00740F5580FABA0C0A9F
:08182700E580540F600280F817
:02182F00B20302
:09183100300306A2089297801012
:0E183A00901DCDE4935410C4540FFAB4010075
:02184800929775
:02184A007A64BE
:04184C00DAFE80A39D
:06005200E478FFF6D8FD82
:080030007900E94400601B7A2D
:0500380000901854784F
:03003D000075A0AB
:0A00400000E493F2A308B8000205E3
:08004A00A0D9F4DAF275A0FF61
:080058007800E84400600A7919
:030060000075A088
:0600630000E4F309D8FCE3
:080069007800E84400600C7906
:0B00710000900000E4F0A3D8FCD9FAD6
:030023007581667E
:0A002600121850E582600302001E6C
:04185000758200227B
:00000001FF
