:0C007F00AA8290C350C002120F62D0028F
:0D008B00308DFD740F5580FBB502537B00D6
:03009800BB0400A6
:0A009B00504A8BF005F0740180025A
:0200A50025E054
:0C00A700D5F0FBFC5A601BEC551C7016D9
:0C00B300C2F0C002C003C00485F0218B25
:0A00BF00821200EAD004D003D00240
:0C00C900EC5A7017EC551C6012D2F0C00D
:0C00D50002C00385F0218B821200EAD0EB
:0300E10003D00247
:0300E4000B80B1DD
:0200E7008A1C71
:0100E90022F4
:0A00EA00C01DE581F51D2404F58119
:0C00F400AA82C209EAC31324CF901D00A9
:0E01000093FB74015A75F004A4F5F005F0EBC2
:02010E0080026D
:02011000C31317
:0B011200D5F0FB540FFBBB0102800F77
:06011D00BB02030201BA5F
:06012300BB0303020446C9
:030129000205B616
:0C012C00300814EA2A25E024D3901D00BE
:0B0138009323235403FB5303038012A6
:0E014300EA2A25E024D3901D0093C4540FFC3B
:0401510074035CFBDC
:05015500BB0102800A5D
:05015A00BB0202800958
:05015F00BB0322801E1D
:04016400D209801C20
:0E0168008A82C002C0031214D6AC82AD83D0CE
:0C01760003D002EC4D24FFB3920980027C
:02018200C209B0
:06018400EB70030205B65A
:0A018A00A209E433FB7C00C002C0B0
:0B01940021C003C004C00275820112EC
:0C019F000837158115811581D021D00290
:0A01AB00A20992F085F0218A821269
:0501B500071D0205B664
:0601BA0020080302038B84
:0E01C000EA2A25E0FB24D3901D0093FC30E2D8
:0C01CE0012C2F0C002C00385F0218A823A
:0701DA0012071DD003D00243
:0C01E100C00274D62B901D0093FCA81DDA
:0E01ED0008A60408760008760008760074D58F
:0E01FB002B901D0093FA74305AFCE4BC0001F6
:0102090004F0
:09020A00D0027013BC1002804107
:05021300BC2002807315
:06021800BC30030202C429
:03021E000202EDEC
:0C022100A81D08080808E618C454F0C620
:0E022D00C4C666C654F0C66608F61818E6C4C5
:0E023B00540F0846F618E618C454F0C6C4C6A0
:0B02490066C654F0C66608F60202ED1F
:0C025400A81D08080808E618C42354E0A0
:0E026000C6C423C666C654E0C66608F6181863
:0E026E00E6C423541F0846F618E618C42354AD
:0E027C00E0C6C423C666C654E0C66608F68017
:01028A006211
:0C028B00A81D08080808E6185403A2E0AB
:0E029700C613C613A2E0C613C613C608F61897
:0E02A50018E60303543F0846F618E618540303
:0E02B300A2E0C613C613A2E0C613C613C60807
:0302C100F680299B
:0C02C400A81D08080808E6185401A2E074
:0E02D000C613C613C608F61818E6C313084670
:0E02DE00F618E6185401A2E0C613C613C608AF
:0102EC00F61B
:0A02ED00C002A81D08E50826F6E58A
:0A02F700090836F6E50A0836F6E5B8
:0C0301000B0836F674D32B901D0093FA05
:09030D0074305AFCE4BC10010438
:09031600D0027008BC30028038EE
:03031F000205B61E
:0E03220074D42B901D009354F0C4540F24404B
:0C033000FC74042AFDA81D08E6C0E008CB
:0E033C00E6C0E008E6C0E008E6C0E0C0048DC0
:0D034A0082120CD4E58124FBF5810205B67A
:0E03570074D42B901D0093FB740F5B2440FBAD
:0C03650074042AFCA81D08E6C0E008E6AD
:0E037100C0E008E6C0E008E6C0E0C0038C82F1
:0C037F00120CD4E58124FBF5810205B6C8
:0C038B0074042A25E025E0FB2422F8E69B
:0E0397006071EA2A25E024D3901D0093FB53E9
:0703A5000330BB10028005CC
:0503AC00BB3050802968
:0E03B100C0027401C0E0E4C0E0C00275820129
:0E03BF00120837158115811581D002D2F0C0C9
:0C03CD000285F0218A8212071DD00280F8
:0103D90025FE
:0D03DA00C002E4C0E0C0E0C0027582011264
:0E03E7000837158115811581D002C2F0C002C1
:0A03F50085F0218A8212071DD00254
:0B03FF0074042AF582120D1C0205B6E2
:0E040A00EA2A25E024D3901D0093FB20E61A79
:0E04180074082AFBE4C0E0C0E0C00375820255
:0C0426001208371581158115810205B6FA
:0E04320074082AF582E4C0E0C0E012156015DF
:060440008115810205B6E2
:0604460020080302057905
:0E044C00EA2A25E0FB24D3901D00935410C42F
:0E045A00540FFC7D00C002C003C004C005C0EA
:0E04680002758201120837158115811581D0A9
:0C04760003D002D2F0C002C00385F021C8
:0D0482008A8212071DD003D00274D52B9082
:0C048F001D0093FCA81D08A604087600C0
:0E049B0008760008760074D42B901D0093FCA8
:0804A900530406BC0202800AA4
:0504B100BC04028037CD
:0504B600BC0676804940
:0C04BB00A81D08080808E618C454F0C684
:0E04C700C4C666C654F0C66608F61818E6C429
:0E04D500540F0846F618E618C454F0C6C4C604
:0A04E30066C654F0C66608F68042B3
:0C04ED00A81D080808E608F61818E60824
:0B04F900F61818E608F6187600802BB5
:0C050400A81D0808E608C6C454F0C6C4D0
:0E051000C666C654F0C66608F6181818E6C48B
:0E051E0054F008F618E6C4540F080846F61804
:03052C001876003E
:08052F00A81D08E50826F6E509
:0A053700090836F6E50A0836F6E575
:0C0541000B0836F674D32B901D00935469
:0C054D0010C4540F2480FB74042AFCA886
:0C0559001D08E6C0E008E6C0E008E6C0AF
:0E056500E008E6C0E0C0038C82120CD4E581F1
:0605730024FBF581803D30
:0C05790074042A25E025E02422F8E6FBAB
:0E05850030E426EA2A25E024D3901D0093548A
:0E05930010C4540FFB7C00C003C004C00275EE
:0D05A100820112083715811581158180082F
:0805AE0074042AF582120D1CF1
:0605B600851D81D01D220D
:0805BC00C01D85811D0581852C
:0505C4004D82C04E1243
:0C05C9001420AA821581BAFF030206C7A5
:0A05D500901D17E493FBB54B0B904B
:0A05DF001D18E493FBB54C028007E1
:0705E900C002121249D0020A
:0C05F000901D11E493FBF58275831DE45F
:0C05FC0093FCA81D08A60474022BFD0B44
:020608007E0072
:0B060A00A81D08C3EE9640030206C7BF
:0E061500C005EE2EFF2B901D0093FDEAB505EB
:050623000474018001D8
:01062800E4ED
:07062900D00570030206C3B7
:0E063000C003EF2D901D0093FFF582C002C0A5
:0E063E0005C006C0071213B6AB82D007D00667
:0C064C00D005D002530314E4BB140104D9
:07065800D0036067BF0C0036
:0C065F005062C005AD517C00C002C00319
:0D066B00C005C006C007C005C0048F821284
:0E067800156015811581D007D006D005D0037E
:05068600D002BF0400DA
:0D068B00E433D0056032EF2F25E024D3903A
:0A0698001D0093FC530407BC04008E
:0A06A200501FE55113920892F0C0BA
:0C06AC0002C003C005C00685F0218F824B
:0B06B80012071DD006D005D003D002B1
:0406C3000E02060A13
:0606C700851D81D01D22FB
:0606CD00854D82C04E12B3
:0A06D3001461AA821581BAFF01220A
:0E06DD00C002121249D0028A82C0021214D644
:0E06EB00AB82AC83D0028A82C002C003C0047E
:0E06F9001213B6AD82D004D003D00253050C0C
:0D070700BD0C12C003C004C00275820012B8
:080714000837158115811581DC
:01071C0022BA
:05071D00AA82BA0400ED
:0307220040012271
:0E072500EA2A25E024D3901D0093FB5303071E
:05073300BB0002801272
:05073800BB010280126C
:05073D00BB0302801265
:05074200BB040280125F
:030747000208099C
:05074A00C208020809CD
:05074F00D208020809B8
:05075400B208020809D3
:0C075900D208901DCEE493FBBB2602806A
:010765000D86
:05076600BB7602803AA1
:05076B00BB960280684E
:0307700002080973
:0A077300745E2508FBE43509FCE480
:0A077D00350AFDE4350BFEC002C092
:0C07870021C003C004C005C0067480C07F
:0D079300E08A82120CD4E58124FBF581D0B0
:0507A00021D00280647D
:0A07A50074192508FB74013509FCE6
:0A07AF00E4350AFDE4350BFEC0023C
:0C07B900C021C003C004C005C00674804D
:0E07C500C0E08A82120CD4E58124FBF581D0BD
:0507D30021D00280317D
:0A07D80074772508FB74013509FC55
:0A07E200E4350AFDE4350BFEC00209
:0C07EC00C021C003C004C005C00674801A
:0E07F800C0E08A82120CD4E58124FBF581D08A
:0308060021D002FC
:0C080900EA2404FA8AF005F07401800271
:0208150025E0DC
:0C081700D5F0FBF45280A208E433FB8A09
:06082300F005F0EB80027D
:0208290025E0C8
:0C082B00D5F0FBF5F0740F45F042802280
:08083700C01D85811DAA82A8E5
:0C083F001D1818188682C0021213D1ABDD
:0C084B0082AC83D002EB4C700302091A4F
:0A085700754ABC901D17E493FD8D57
:080861004B901D18E493FD8D7E
:060869004C8C058D4D8B47
:06086F004EBA0102800FE9
:05087500BA0202802A16
:05087A00BA05028045F3
:05087F00BA0672805E64
:07088400754FD1755000E52E
:0C088B001D24FBF8E65401F6087600E599
:0A0897001D24FBF8860274802AF588
:0308A10051805033
:0708A400754FD1755000E50E
:0C08AB001D24FBF8E6540FF6087600E56B
:0A08B7001D24FBF8860274802AF568
:0308C10051803033
:0708C400754FE3755000754C
:0A08CB005180E51D24FBF8088602A9
:0A08D5008A52E51D24FBF886028A12
:0308DF0053801231
:0708E200754FE2755000752F
:0A08E9005180E51D24FBF886028A09
:0108F30052B2
:0C08F400C2AA121195D2AAE51D24FBF83F
:0C090000E6C0E008E6C0E0A81D181818CA
:0E090C008682121560158115811205BC801AB5
:0C091A00E51D24FBF8E6C0E008E6C0E0A4
:0C092600A81D1818188682121560158193
:0209320015812D
:03093400D01D22B1
:0A093700C01DE581F51D2409F581BE
:07094100120D880508E4B562
:05094800080C0509B5D3
:05094D000907050AB5D1
:040952000A02050B85
:0A095600E4B5080FE4B5090BE4B5A1
:090960000A077401B50B028002C4
:02096900800903
:06096B00E4F508F509F5B2
:030971000AF50B79
:05097400A81D0876003B
:06097900A81D08B60800ED
:05097F004003020BCB58
:0A098400A81D08E625E025E0FB248D
:09098E0022F8E6FC7003020BC420
:0A099700C004EB042422F88605A832
:0C09A1001D0808A605087600087600086E
:0A09AD007600A81D0808E51D2406C9
:0E09B700F90808E6090909F718E619F718E625
:0C09C50019F719770074022B2422F88621
:0C09D10002E4FC3395E0FDFEE51D240669
:0E09DD00F8EA26FAEC0836FCED0836FDEE08C6
:0C09EB0036FEA81D0808A60208A6040895
:0A09F700A60508A606A81D0808E5DD
:0C0A01001D2406F90808E6090909F71889
:0E0A0D00E619F718E619F719770074032B2481
:0C0A1B0022F88603E4FF3395E0FAFCE5C6
:0C0A27001D2406F8EB26FBEF0836FFEA62
:0C0A33000836FAEC0836FCA81D0808A6DE
:0C0A3F000308A60708A60208A604A81DCC
:0A0A4B000808E6B5081308E6B5092F
:0A0A55000E08E6B50A0908E6B50B25
:050A5F00047401800198
:010A6400E4AD
:070A6500D0047003020BC472
:060A6C00A81D08B60400FD
:0C0A7200501DA81D08740426F5F005F0C6
:040A7E00740180027D
:020A820025E06D
:0D0A8400D5F0FBF4FA528043800F020BC442
:070A9100EC20E703020B8DCE
:0C0A980074015CFA7B00A81D08740426A1
:0D0AA400FDC004C002C003C0057582011230
:0C0AB1000837158115811581D004A81D9F
:0E0ABD0008E624FC25E025E0FA24D6901D0072
:0E0ACB0093FBE4FDFEFF74D42A901D0093FA05
:080AD900530260BA2002800AFA
:050AE100BA400280296B
:050AE600BA604C802EF7
:0E0AEB00EFC454F0CEC4CE6ECE54F0CE6EFFEB
:0E0AF900EDC4540F4EFEEDC454F0CBC4CB6BD5
:080B0700CB54F0CB6BFD8026FE
:0A0B0F008E078D068B057B00801C0D
:0E0B1900EDCEC454F0CEC4CE6ECE54F0CE6EEF
:0E0B2700FFEBC454F0FDEBC4540F4EFE7B00F8
:0B0B3500EB4D4E4F6046E5082BFBE542
:080B4000093DFDE50A3EFEE55A
:0A0B48000B3FFFA81D08E624FC2562
:0E0B5200E025E024D3901D00935410C4540FEE
:0E0B60002410FAC004C003C005C006C007C0C0
:0C0B6E0002A81D088682120CD4E5812428
:070B7A00FBF581D004800CA3
:0C0B8100A81D088682C004120D1CD004C0
:0C0B8D00EC30E40CA81D088682C00412A5
:040B99000D1CD0045B
:0C0B9D00EC30E6237A00A81D0874042642
:0E0BA900FBC004C002C003758202120837159B
:0B0BB7008115811581A81D088682129F
:020BC2000D1C08
:070BC400A81D0806020979D3
:0A0BCB00758208120D40851D81D0CF
:020BD5001D22DF
:020BD7007A00A2
:030BD900BA04005B
:050BDC005020BA0800E2
:0A0BE10050188AF005F0740180023C
:020BEB0025E003
:0E0BED00D5F0FBFB74FFC39BFB5284EB5285DB
:030BFB000A80DB92
:020BFE007A0477
:030C0000BA08002F
:0E0C0300E433FB601DEB60178AF005F074010E
:020C110080025F
:020C130025E0DA
:0D0C1500D5F0FBFB74FFC39B5284EB4285BE
:030C22000A80DB6A
:0C0C250075800F751C0F120D8875820879
:070C3100120D40E4F508F587
:040C380009F50AF5BB
:0C0C3C000BF5E475E71D75E60375E50097
:0E0C480075E71D75E60475E50475E71D75E694
:0E0C56000575E51075E71D75E60675E5527526
:0E0C6400E71D75E60775E50175E71D75E60CE1
:0E0C720075E50075E71D75E60D75E5FF75E784
:0C0C80001D75E61275E59A75E4687A00AF
:030C8C00BA0C009F
:0E0C8F005015C002E4C0E0C0E08A8212156079
:090C9D0015811581D0020A80E6E0
:020CA6007A00D2
:030CA800BA080087
:0E0CAB00500C8A82C002120D1CD0020A80EF8B
:020CB9007A00BF
:030CBB00BA040078
:0C0CBE005011C2F0C00285F0218A8212A1
:070CCA00071DD0020A80EAB9
:030CD100D2AA2282
:0A0CD400C01D85811DE58225E02585
:0A0CDE00E0FA2422F8A91D191919E3
:0A0CE800E7F6EA042422F8E51D24D3
:0C0CF200F9F909098703A60374022A24FB
:0A0CFE0022F8E51D24F9F909870327
:0A0D0800A60374032A2422F8E51D57
:0A0D120024F9F98702A602D01D2281
:0C0D1C00E58225E025E0FA2422F87600AC
:0B0D2800EA042422F8760074022A245A
:0A0D330022F8760074032A2422F847
:030D3D007600221B
:0C0D4000AA827B007C007D007E007F000A
:0E0D4C00C3EF9A501174CD2BFB741C3CFCE4D9
:080D5A003DFDE43EFE0F80EABE
:0E0D6200ECA2E7CB33CB33CB5401FCED2D4C90
:0E0D7000FCEEA2E7CD33CD33CD540130E002CE
:020D7E0044FE31
:080D80008CD28BD375D16122E6
:040D880075D160229F
:0C0D8C00C2AAC2AB90017C120F7AC20810
:020D9800C20196
:0C0D9A00308FFD900168C021120F7AD04C
:070DA60021A29492097A05D5
:090DAD00A29482099209DAF8A26D
:080DB60009E433FA300902D20E
:010DBE00082C
:020DBF007B02B5
:050DC100BB00028033BD
:0C0DC600308FFD90015EC002C003C02110
:0C0DD200120F7AD021D003D002A294921C
:030DDE00097C0588
:090DE100A29482099209DCF830A9
:050DEA000903EB2AFAE9
:050DEF00300902B2080A
:050DF400EB2BFB80C8A1
:0B0DF900308FFDC28EA29492097B0592
:090E0400A29482099209DBF8A214
:050E0D0009200801B3FB
:040E12005002D201B7
:030E16008A8222AB
:0C0E1900C021C0E0C0F0C082C083C00255
:0E0E2500C003C004C005C006C007C000C00165
:0E0E3300C0D075D000C28EC2AAC2AB120D8C08
:0E0E4100AA829000C8C002120F45900546120A
:080E4F000F7AD002300123E507
:0C0E570061700974F05AFBBBC0028007F8
:070E6300E561244AF8A60234
:060E6A00E5617002F56273
:090E7000EA62620561D2AB800C5C
:0A0E7900756100C2ABC28EC28F7516
:020E830062000B
:0C0E8500C28BD2AAD202D0D0D001D00083
:0E0E9100D007D006D005D004D003D002D08305
:090E9F00D082D0F0D0E0D0213265
:090EA800AA82D208C209D2969078
:0A0EB100005FC002C021120F45D0FF
:070EBB0021D002C2967B006A
:030EC200BB08006A
:0C0EC500505C9000D7C002C003C0211296
:0C0ED1000F7AD021D003D0028BF005F086
:030EDD00EA8002A6
:020EE000C3133A
:0C0EE200D5F0FB5401FCBC0104C20A80E6
:010EEE000201
:020EEF00D20A25
:0C0EF100308FFDA20A9296900064C002AF
:080EFD00C003C021120F7AD0DE
:090F050021D003D002200A0BB236
:030F0E00087C0557
:050F1100209402D2094A
:020F1600DCF904
:030F1800200908A5
:080F1B00308FFDC2960B809F90
:090F230020091A9000D4C021122B
:050F2C000F45D021A2D9
:090F310008929690005FC02112A5
:060F3A000F45D021C29614
:050F4000C28EA209228F
:0E0F4500AA82AB83C28E74FFC39AFA74FF9B1C
:090F5300FB8B8D8A8BC28FD28EBC
:060F5C00308FFDC28E2261
:0E0F6200AA82AB83C28C74FFC39AFA74FF9B01
:0A0F7000FB8B8C8A8AC28DD28C2282
:0E0F7A00AA82AB83C28E74FFC39AFA74FF9BE7
:0A0F8800FB8B8D8A8BC28FD28E2264
:0E0F920075950075911475924CC29675891173
:0E0FA000758F00C28CC28E75D20E75D3A075EF
:0C0FAE00D161C20275A80075E800D2AF46
:0E0FBA00C2A8D2AA75B80C75B70C75F80075F0
:050FC800F700D28A22AF
:0C0FCD00C021C0E0C0F0C082C083C002A0
:0E0FD900C003C004C005C006C007C000C001B0
:0D0FE700C0D075D000C2AAC2AB9012DE12BD
:090FF4000F7A74FFB5620280035C
:030FFD0002112EB0
:051000003005068561CA
:041005006602112E40
:0A100900740F554FFA7480554FFB29
:0A101300E54DFC7030E54E702C2016
:05101D00030302112E87
:0A102200BA030CE550700874C0B565
:05102C00510312137BCB
:071031007401B550028003B9
:0310380002112E74
:07103B00E551600302112ED4
:0610420012138E02112EB4
:06104800EB600302110839
:0C104E00901D17E493FBECB50302800337
:03105A0002112E52
:0B105D00901D18E493FBB54E028003C9
:0310680002112E44
:0B106B0074C35550FBBB420F74C0550E
:0C10760051FBBB8007C0021212F9D0022F
:0C108200EA704074C05550FBBBC007C0B2
:06108E0002121249D0021B
:091094007480B55015200412D23D
:03109D0004854B7C
:0310A00063854C19
:0910A30064C002121249D002756A
:0210AC006501DC
:0810AE007481B55012E54BB549
:0510B600630DE54CB5DF
:0710BB006408100402800329
:0310C20075650150
:0C10C500BA012A74035550FBBB031274DF
:0A10D10080B5510DC002120F9212FB
:0710DB00160E120BD7D00224
:0A10E2007443B5500BE5517007C0D0
:0610EC0002121282D00284
:0C10F200BA033974C35550FBBB4231E512
:0A10FE005154C0702B12129D802681
:03110800BA010029
:0A110B004013E550700F74C05551F9
:0B111500FBBB8007C0021205BCD0022B
:0A112000BA010BE5507007E55170AD
:04112A00031206CDD9
:0A112E00756100C28BD2AA200505EE
:05113800C28E7562008B
:0E113D00D0D0D001D000D007D006D005D0040D
:0D114B00D003D002D083D082D0F0D0E0D00D
:02115800213242
:06115A007A007B00C208D0
:0A1160003094070ABA00200B801D2E
:0C116A00C002C003C021120D8CAC82D06A
:0A11760021D003D002BCCC093001E7
:0711800006D2087AB87B0BD0
:0C118700C3EA94B8EB6480948B40CEA2C5
:02119300082230
:09119500C01D85811D05817A0051
:0A119E007B00A81D08740F554FF6E2
:0E11A80090495CC002C003120F7AD003D0023F
:0E11B600208F132094FA90495CC002C00312EF
:0811C4000F7AD003D00280EA8B
:0411CC00C28E7D0052
:0C11D000C002A81D0886067F0074062ED1
:0E11DC00FEE43FFF8D027C00C3EE9AEF6480BC
:0D11EA008CF063F08095F0D002402DED24D4
:0B11F7004AF88682C002C003C0051247
:0C1202000EA8D005D003ED244AF8E662E7
:0E120E00039004CEC003C005120F45D005D0DA
:06121C0003D0020D80AEBC
:0E122200EBF4F582C002120EA812115AD0028F
:0412300050027A03EB
:0A1234000A74DF554AF54AEA24FC6B
:05123E00400302119EB7
:06124300851D81D01D2273
:06124900208F03208EFA45
:06124F007582CC020EA81E
:06125500754AB0AA4B8AA5
:04125B004DAA4C8AC2
:08125F004E901D17E493FA8A7A
:081267004B901D18E493FA8A74
:07126F004C754F6074C0458F
:0812760050FA8A5074FE5AF58B
:04127E005002119574
:07128200121249121255750A
:061289004AB0754F6375C9
:06128F005043755140754B
:0612950052007553120225
:02129B001195AB
:08129D00121249AA51C002120D
:0612A5001255D0027B008F
:0C12AB00C3EB9A5027E5527011740A2B17
:0712B700244AF8EB255390D7
:0712BE001C0093FCF6800FF9
:0A12C500740A2B244AF8EB2553901D
:0512CF001D0093FCF678
:0312D4000B80D4B8
:0912D700754AB074632AF54FE575
:0A12E00065256525E0FB74424BF51F
:0712EA005074404AF5511257
:0512F100119505655395
:0312F600650F225F
:0A12F900C01D85811D0581058112CD
:0A1303001249740F5551FAC002128E
:0C130D001255D00275E400740155522402
:061319001CFBAC537D003B
:0E131F00C3ED9A504E8BE7ED2CF5E6740A2DC7
:0A132D00244AF886E58C067F00A82C
:0A1337001D08A605087600A81D0891
:0E134100E62EFE08E63F53063F7F00BE3F202B
:0C134F00BF001D8A067F001EBEFF011FAC
:0C135B00A81D08E6B5060708E6B5070265
:021367008006FE
:0613690075E46875E40064
:03136F000D80AD41
:0913720075E468851D81D01D227F
:0C137B0075E40075E71D75E6178552E566
:071387008553E575E46822BF
:07138E00121249754AB090EC
:081395001D17E493FA8A4B9046
:08139D001D18E493FA8A4C7557
:0613A5004D00754E0075BD
:0613AB004FE175500175D1
:0513B1005140021195FE
:0E13B600AA82901D12E493FB0B0B0BEA75F05C
:0C13C40003A42BF58275831DE493F582D1
:0113D00022FA
:0E13D100AA827BFE901D11E493FC2402FDEA2B
:0E13DF002AFE2D901D0093FDB50209EC042E90
:0613ED00901D0093FAFBC5
:0513F300BBFE02801F9B
:0E13F800EB2BFB2417901D0093FA74182B901A
:0E1406001D0093FB7C008A05E42BFBED3CFCF3
:03141400FA800457
:041417007B007A00DC
:05141B008B828A832290
:08142000C01D85811DAA829008
:0B1428001D16E493FB7CFF602B7D0190
:0E143300C3EB9D4024ED2DFE2417901D009369
:0E144100FFEAB5071374182E901D0093FEA845
:0A144F001D181818E6B506028D04FA
:031459000D80D72C
:05145C008C82D01D226E
:0A146100C01D85811D0581AA827B54
:0C146B00FFC003A81D181818E6C0E08A96
:0E14770082121420AA821581D003901D11E468
:0B14850093FCF58275831DE493FDA825
:091490001D08A605BAFF02803513
:0714990074022CFE0C7F0021
:0C14A000BBFF2BA81D08C3EF965023C013
:0E14AC0006EF2FFD2C901D0093FEEAB50604FE
:0414BA007401800138
:0114BE00E449
:0C14BF00D0066008ED2E901D0093FDFB90
:0314CB000F80D2BD
:0814CE008B82851D81D01D22D7
:0D14D600AA827BFF7CFFEA75F003A4FD9065
:0C14E3001D12E493FE2D2404F582E43475
:0C14EF001DF583E493FFC3EE9A403DED31
:0A14FB002E2402F582E4341DF5836F
:06150500E493FABF0800A8
:0C150B00500B8A8275831CE493FDFB7C6E
:0115170000D3
:0C151800BF081C8A8275831CE493FE7DD2
:0E15240000EA04901C0093FA7F002DFDEF3EBC
:05153200FE8D038E0494
:051537008B828C832271
:0E153C00AA827BFF901D12E493FCC39A401319
:0C154A00EA75F003A42C2404F582E434BC
:071556001DF583E493FAFB8D
:03155D008B82225C
:08156000C01D85811DAA82C295
:0C15680008EA75F003A4FB901D12E49348
:0A157400FC2B2404F582E4341DF57D
:0C157E0083E493FDC3EC9A5003021609AD
:0A158A00EB2C2402F582E4341DF579
:0715940083E493FABD080097
:02159B005041BD
:0C159D0020083E75E40075E71C8AE68D0E
:0E15A900037C007407C39BFBE49CFC8BF005E5
:0515B700F074FF80024A
:0215BC00C31357
:0C15BE00D5F0FBFB7C00E51D24FCF8E6EA
:0E15CA00520308E652048BE575E468E5E42060
:0615D800E0C3D20880BF51
:0B15DE00BD0828E51D24FCF80886036A
:0C15E90020081D75E40075E71C8AE68BE5
:0C15F500E5E51D24FCF886E575E468E5DA
:08160100E420E0E4D20880E0DF
:05160900A208D01D2223
:06160E00C203756501C274
:05161400047561007582
:051619006600C205227D
:0400000002002332A5
:01000B0032C2
:03001300020E19C1
:03001B00020FCD04
:03007C0002001E61
:05001E0012161E80FE19
:07161E00120F9212160E12CA
:041625000BD77A3233
:0C16290090FFFFC002120F45D002DAF45F
:0A163500740F5580FAB51C028009FD
:09163F00740F5580F58212007F42
:09164800748025D150031209370A
:0A165100E508FAA2E49208D29720FF
:04165B0097097A640D
:02165F00DAFEB1
:051661003097FDB2030B
:09166600300306A20892978010DF
:0E166F00901DCDE4935410C4540FFAB4010042
:02167D00929742
:02167F007A648B
:04168100DAFE80B05D
:06005200E478FFF6D8FD82
:080030007900E94400601B7A2D
:0500380000901689781C
:03003D000075A0AB
:0A00400000E493F2A308B8000205E3
:08004A00A0D9F4DAF275A0FF61
:080058007800E84400600A7919
:030060000075A088
:0600630000E4F309D8FCE3
:080069007800E84400600C7906
:0B00710000900000E4F0A3D8FCD9FAD6
:030023007581667E
:0A002600121685E582600302001E39
:041685007582002248
:00000001FF
