:0A007F00C011E581F5112406F5819A
:06008900852582C026124D
:0C008F0014F9AA821581A81108A602A885
:08009B001108B6FF030203DCAB
:0D00A30012125E901D11E493FBF58275832F
:0A00B0001DE493FCA8110808A60443
:0700BA0074022BFD0B7E0018
:0C00C100A8110808C3EE9640030203CB10
:0C00CD00C005EE2EFF2B901D0093FDA837
:0A00D9001108E6B50504740180016A
:0100E300E438
:0700E400D00570030203C701
:0E00EB00EF2D901D0093FFF582C003C005C0ED
:0E00F90006C00712148FD007D006D005D00322
:03010700BF08002E
:0A010A00501FE52913920892F0C07F
:0C01140003C005C006C00785F0218F82E3
:0B0120001203E2D007D006D005D00388
:08012B00EF24F840030203C7B2
:03013300BF0C00FE
:0501360040030203C7B5
:0C013B007480B5291BC005EF24F8F5F016
:0601470005F074018002C6
:02014D0025E0AB
:0C014F00D5F0FBFD740FC39D520AD005D3
:0C015B007481B52913EF24F8F5F005F0CD
:04016700740180029D
:02016B0025E08D
:06016D00D5F0FBFC420A84
:0A0173007C00A8110808087600E5DA
:0A017D00112404F87600E5112405B2
:0C018700F8A607087600E5112405F8E64C
:0E01930024F8FA08E634FFFFBA0005BF0002A8
:0201A100801CC0
:0801A300BA0105BF0002804310
:0801AB00BA0205BF0002806DDD
:0901B300BA0306BF000302024E6C
:0301BC0002027EBE
:0E01BF00901DD8E493FF740F5FFC901DEFE4D9
:0C01CD0093FFA81108080874035FF69067
:0C01D9001DEFE4930303543FFFE51124E5
:0901E50004F874035FF602027EC7
:0E01EE00901DD8E49354F0C4540FFC901DEF04
:0C01FC00E493C4540FFFA8110808087415
:0E020800035FF6901DEFE49323235403FFE5FC
:0A021600112404F874035FF6805E03
:0E022000901DD9E493FF740F5FFC901DF0E475
:0C022E0093FFA81108080874035FF69005
:0C023A001DF0E4930303543FFFE5112482
:0802460004F874035FF6803038
:0E024E00901DD9E49354F0C4540FFC901DF0A1
:0C025C00E493C4540FFFA81108080874B4
:0E026800035FF6901DF0E49323235403FFE59B
:08027600112404F874035FF683
:0C027E00C005901DEDE493FFE511240580
:0E028A00F8E624F8FD08E634FFCD25E0CD337C
:08029800FA8DF005F0EF800281
:0202A000C31386
:0D02A200D5F0FBFF74035FFAE4BA0001041D
:0902AF00D0057008BA0102805B61
:0302B8000203C777
:0702BB00AA29BA80028005A8
:0502C200BA812C801838
:0A02C700EC14F5F005F0740180025C
:0202D10025E026
:0C02D300D5F0FBFA74FFC39A520C8012A5
:0A02DF00EC14F5F005F07401800244
:0202E90025E00E
:0602EB00D5F0FBFA420C05
:0A02F100E529139208EC14F582A22F
:0B02FB000892F0C003C005C00685F0AB
:0B030600211203E2D006D005D0030254
:0203110003C720
:07031300AA29BA800280084C
:05031A00BA81028053CE
:03031F000203C70F
:0A032200EC14F5F005F07401800200
:02032C0025E0CA
:0B032E00D5F0FBFA74FFC39A520BE5F8
:0C033900112404F8B60116EC14F5F005D0
:05034500F074018002CC
:02034A0025E0AC
:0A034C00D5F0FBFA74FFC39A5209C2
:0C035600E5112404F8B60269EC14F5F07F
:0603620005F074018002A9
:0203680025E08E
:08036A00D5F0FBFA42098055B1
:0A037200EC14F5F005F074018002B0
:02037C0025E07A
:0A037E00D5F0FBFA420BA8110808A5
:0E03880008B60116EC14F5F005F074018002C1
:0203960025E060
:0A039800D5F0FBFA74FFC39A520976
:0C03A200A811080808B60212EC14F5F0CF
:0603AE0005F0740180025D
:0203B40025E042
:0603B600D5F0FBFA42093C
:0B03BC001CEC2C25E0FC243FF8760030
:0403C7000E0200C161
:0B03CB00901C29E493FAB5090280069B
:0603D600850982120B47AD
:0603DC00851181D0112201
:0A03E200C011E581F5112408F58132
:0E03EC00AA82901DEBE493FB8AF005F0EB80F3
:0103FA000200
:0203FB00C3132A
:0A03FD00D5F0FBFB13920920080362
:03040700300906B3
:06040A002008030207B602
:0C0410008A82C002C02112148FAB82D07F
:0A041C0021D002A81108A6038AF0FF
:0604260005F074018002E4
:02042C0025E0C9
:0C042E00D5F0FBFC7E00A8110808760049
:0C043A00901DD8E493FF53070FE5112438
:0C04460007F8A602087600C002E51124A9
:0E04520007F8740126FAE40836FB7D00EFB5CA
:0A0460000208EDB5030474018001E9
:01046A00E4AD
:06046B00D00260027E01D8
:0E047100C004901DD8E49354F0C4540FFBE572
:0C047F00112407F8740126FDE40836FF84
:0E048B007C00EBB50508ECB507047401800198
:01049900E47E
:06049A00D00460027E02A6
:0C04A000C004901DD9E493FB53030FE54A
:0C04AC00112407F8740126FDE40836FF57
:0E04B8007C00EBB50508ECB50704740180016B
:0104C600E451
:0604C700D00460027E0378
:0E04CD00C004901DD9E49354F0C4540FFBE515
:0C04DB00112407F8740126FDE40836FF28
:0E04E7007C00EBB50508ECB50704740180013C
:0104F500E422
:0604F600D00460027E0448
:0E04FC00EE6052C004901DEDE493FB8E057F70
:0E050A0000ED24FFFCEF34FFCC25E0CC33FEE7
:070518008CF005F0EB8002FE
:02051F00C31304
:0E052100D5F0FB5403D0047027901DEEE49338
:06052F00FB1DBDFF011FD2
:0E053500EFCD25E0CD33FF8DF005F0EB800219
:02054300C313E0
:0C054500D5F0FBFBA811080874035BF65E
:08055100E50B5C60030207B634
:0C055900A81108741456FBBB14028003A8
:030565000207B6D4
:0C056800E5112407F8740126FBE40836B6
:0E057400A2E713CB13CB74F92B901D0093FB61
:0D058200FE74015AFDBD010553060F8008EF
:08058F0074F05EFDC4540FFE80
:0C059700A811080808E4F608F608F608A9
:0E05A300F67F00901DEAE493FB8AF005F0EB72
:0205B1008002C6
:0205B300C31370
:0C05B500D5F0FBFD74015DFB200827A8B9
:0A05C100110808E66049A8110808B7
:0B05CB00B601108AF005F0E50C80027C
:0205D600C3134D
:0605D800D5F0FB30E0321B
:0705DE00A8110808B6020095
:0205E50050299B
:0A05E700A208E433FDBD0102800309
:0305F1000206827D
:0705F400A8110808B602007F
:0505FB0050030206821E
:080600008AF005F0E50C800210
:02060800C3131A
:06060A00D5F0FB20E072B8
:0C06100074E22A901D0093FDA811080858
:0D061C0008A605087600087600087600A8FC
:0C06290011080808E6084608460846606C
:0406350003BB0147BB
:0D063900901DF2E493FD8AF005F0ED8002C3
:02064600C313DC
:0C064800D5F0FB20E007ECF4FD52098027
:0106540003A2
:03065500EC42096B
:0E065800740C2AF582C002C003C004C006C0A4
:0C06660007C0217480C0E0120BA31581B6
:0C067200D021D007D006D004D003D00265
:02067E008002F8
:020680007F8079
:0A068200A208E433FDBD012EA8110B
:0C068C000808E66051A8110808B6010239
:02069800804898
:07069A00A8110808B60200D8
:0A06A10040158AF005F0E50C800218
:0206AB00C31377
:0B06AD00D5F0FB5401FDBD0102802AC6
:0606B80030080302076296
:0906BE00A8110808B6010280032E
:0306C700020762C5
:0806CA008AF005F0E50C800246
:0206D200C31350
:0B06D400D5F0FB5401FDBD01028003C6
:0306DF00020762AD
:0C06E20074DA2A901D0093FDA81108088E
:0D06EE0008A605087600087600087600A82A
:0C06FB0011080808E6084608460846708A
:0E07070058BB011A7F8074E22A901D0093FBFC
:0C071500A811080808A603087600087662
:040721000008760056
:0D072500901DF2E493FB8AF005F0EB8002DA
:02073200C313EF
:0B073400D5F0FB20E005EC4209800539
:05073F00ECF4FC52097E
:0E074400740C2AF582C002C006C0077481C082
:0E075200E0120BA31581D007D006D002800262
:020760007F8197
:0C076200EF604C8EF005F0A811080808AC
:0D076E008603088604088605088606800CB0
:0C077B00EB2BFBEC33FCED33FDEE33FE0A
:0A078700D5F0F1E50D2BFBE50E3C6B
:0A079100FCE50F3DFDE5103EFEC043
:0E079B0003C004C005C006C0078A821215AF55
:0807A900E58124FBF5818005C8
:0507B1008A821215F719
:0607B600851181D0112223
:0A07BC00C011E581F5112409F58153
:0C07C600C20875D16075D20E75D3A07A00
:0707D20000200003020A757C
:0707D900050DE4B50D0C0550
:0507E0000EB50E070537
:0507E5000FB50F020535
:0107EA0010FE
:0A07EB00E4B50D0FE4B50E0BE4B504
:0907F5000F077401B51002800227
:0207FE00800970
:06080000E4F50DF50EF514
:030806000FF510DB
:070809007A00A81108760037
:0B081000A81108E624F85003020A704B
:0A081B00A81108E625E025E0FC2402
:090825003FF8E6FD7003020A64CD
:0A082E00C005EC04243FF88606A87C
:0C083800110808A60608760008760008E3
:0A0844007600A8110808E51124064B
:0E084E00F90808E6090909F718E619F718E68F
:0C085C0019F719770074022C243FF8866D
:0C08680003E4FD3395E0FEFFE5112406DB
:0E087400F8EB26FBED0836FDEE0836FEEF0829
:0C08820036FFA8110808A60308A6050808
:0A088E00A60608A607A8110808E551
:0C089800112406F90808E6090909F71800
:0E08A400E619F718E619F719770074032C24EB
:0C08B2003FF88604E4FB3395E0FDFEE512
:0C08BE00112406F8EC26FCEB0836FBEDDC
:0C08CA000836FDEE0836FEA8110808A64E
:0C08D6000408A60308A60508A606A81141
:0A08E2000808E6B50D1308E6B50E90
:0A08EC000E08E6B50F0908E6B51086
:0508F600047401800103
:0108FB00E418
:0708FC00D0057003020A643D
:0A090300D208A8110886F005F07470
:03090D0001800264
:0209100025E0E0
:09091200D5F0FBFBBD810280035E
:03091B00020A1BB2
:0C091E00901DF2E493FCA8110886F0057F
:04092A00F0EC80026B
:02092E00C313F1
:0B093000D5F0FB20E005EB420980053C
:05093B00EBF4FC520981
:0B094000C2AAA81108740C26F582C0A2
:0B094B00217481C0E0120BA31581D0C5
:0A09560021D2AAA81108E625E02529
:0C096000E0243FF87600901DEAE493FCD0
:0A096C00A8110886F005F0EC8002E7
:02097600C313A9
:0D097800D5F0FBFD74015DFCBC01028003A5
:03098500020A64FF
:0C098800A8110886057E000DBD00010EC0
:0E099400EEA2E713CD13CD74F92D901D009344
:0C09A200FDA81108740156FEBE010553AB
:0409AE00050F8008A9
:0809B20074F05DFEC4540FFD5A
:0C09BA00A8110874E226901D0093FE7046
:0409C60003020A64BA
:0609CA00EC7003020A6458
:0C09D0007C008DF005F0AD06AF04800641
:0609DC00ED2DFDEF33FFDD
:0C09E200D5F0F7EF3395E0FCFEE50D2D9D
:0A09EE00FDE50E3FFFE50F3CFCE5C0
:0A09F800103EFEC021C005C007C07C
:0C0A020004C0067480C0E0A811088682C1
:0C0A0E001215AFE58124FBF581D021809A
:010A1A004992
:0C0A1B00901DF2E493FCA8110886F00581
:040A2700F0EC80026D
:020A2B00C313F3
:0C0A2D00D5F0FB20E007EBF4FC52098040
:010A390003B9
:030A3A00EB420983
:0B0A3D00C2AAA81108740C26F582C0A4
:0B0A4800217480C0E0120BA31581D0C8
:0A0A530021D2AAA81108E625E0252B
:070A5D00E0FB243FF87600E6
:0A0A6400A8110806A8110886020276
:020A6E0008106E
:050A7000A81108860238
:0C0A7500E58A24AF40FAC2027B00D29355
:040A81007C017D0077
:030A8500BD0800A9
:0E0A88005014ECF4F580209307EC42038D022D
:020A96007D07DA
:060A9800EC2CFC0D80E7D0
:0C0A9E00901C29E493F580EBB5080302DE
:020AAA000B330C
:080AAC00901C29E493F509E513
:0C0AB40008F4FDEB52058D04EC6072ECC0
:070AC0006209D208C2AA90EE
:0C0AC7001DF2E493FD8AF005F0ED8002C2
:020AD300C3134B
:0C0AD500D5F0FB20E029EC5509FD8AF06B
:050AE10005F0ED8002AC
:020AE600C31338
:0E0AE800D5F0FB2480FD740C2AF582C003C0FB
:090AF60021C005120BA31581D0EB
:050AFF0021D003802B53
:0B0B0400E50952048AF005F0EC8002C5
:020B0F00C3130E
:0E0B1100D5F0FBFC7481C39CFC740C2AFAC066
:0C0B1F0003C021C0048A82120BA31581C0
:040B2B00D021D00302
:020B2F00D2AA48
:020B31008B082F
:070B3300300806850982125B
:020B3A000B4767
:090B3C0075D161B200851181D070
:020B450011227B
:090B4700AA82758C00D2927B0099
:0E0B5000EB24B94033901C29E493F4FC5AF5D1
:0B0B5E0080C28EC28F758DFF758B2248
:070B6900208F04D28E80F9F9
:0E0B70008A80C28EC28F758DFF758BF5D28E76
:070B7E00208F04D28E80F9E4
:030B85000B80C81A
:0C0B8800C28E758CC0120DD8C0097429F3
:0D0B9400C0E0758200120DE0158115810290
:020BA1000DDC69
:0A0BA300C011858111AA82C0021260
:0D0BAD0014AAAB82AC83D002EB4C605975EA
:090BBA0022BC901D17E493FD8D8F
:080BC30023901D18E493FD8D41
:060BCB00248C058D258B32
:050BD100267527D17517
:0C0BD6002800EA24F4FA901DF3E493FBDD
:070BE2008AF005F0EB800230
:020BE900C31334
:0C0BEB00D5F0FBFA74015AFB7007A8114A
:050BF700181818862902
:0C0BFC00BB0110A811181818B680057570
:040C080029818003BB
:030C0C00752980C7
:030C0F001211AA15
:030C1200D01122DC
:0C0C1500C2AAC2AB90017C120E1FC208E4
:020C2100C2010E
:0C0C2300308FFD900168C021120E1FD020
:070C2F0021A29492097A054D
:090C3600A29482099209DAF8A2E5
:080C3F0009E433FA300902D286
:010C470008A4
:020C48007B012E
:030C4A00BB0800E4
:020C4D00503F16
:0C0C4F00308FFD90015EC002C003C02188
:0C0C5B00120E1FD021D003D002A29492F0
:030C6700097C0500
:090C6A00A29482099209DCF8A2AF
:0B0C730009E433FC8BF005F0EC80027C
:020C7E0025E06F
:0A0C8000D5F0FBFC4202300902B27D
:010C8A000861
:030C8B000B80BC1F
:0B0C8E00308FFDC28EA29492097B05FE
:090C9900A29482099209DBF8A281
:050CA20009200801B368
:040CA7005002D20124
:030CAB008A822218
:0C0CAE00C021C0E0C0F0C082C083C002C2
:0E0CBA00C003C004C005C006C007C000C001D2
:0E0CC800C0D075D000C28EC2AAC2AB120C15ED
:0E0CD600AA829000C8C002120E0290054612BB
:080CE4000E1FD002300123E5D0
:0C0CEC0039700974F05AFBBBC00280078D
:070CF800E5392422F8A602F1
:060CFF00E5397002F53A30
:090D0500EA623A0539D2AB800A1A
:0A0D0E00753900C2ABC28F753A00C0
:0C0D1800C28BD2AAD202D0D0D001D000F1
:0E0D2400D007D006D005D004D003D002D08373
:090D3200D082D0F0D0E0D02132D3
:090D3B00AA82D208C209D29690E6
:0A0D4400005FC002C021120E02D0B1
:070D4E0021D002C2967B00D8
:030D5500BB0800D8
:0C0D5800505C9000D7C002C003C0211204
:0C0D64000E1FD021D003D0028BF005F050
:030D7000EA800214
:020D7300C313A8
:0C0D7500D5F0FB5401FCBC0104C20A8054
:010D8100026F
:020D8200D20A93
:0C0D8400308FFDA20A9296900064C0021D
:080D9000C003C021120E1FD0A8
:090D980021D003D002200A0BB2A5
:030DA100087C05C6
:050DA400209402D209B9
:020DA900DCF973
:030DAB0020090814
:080DAE00308FFDC2960B809FFF
:090DB60020091A9000D4C021129A
:050DBF000E02D021A28C
:090DC40008929690005FC0211214
:060DCD000E02D021C296C7
:050DD300C28EA20922FE
:040DD80075E400229C
:040DDC0075E4682230
:0A0DE000C011858111E582FA24FE9E
:0C0DEA004013741C2AF5E7A81118181813
:090DF60086E6E51124FCF886E50F
:030DFF00D01122EE
:0E0E0200AA82AB83C28E74FFC39AFA74FF9B60
:090E1000FB8B8D8A8BC28FD28E00
:060E1900308FFDC28E22A5
:0E0E1F00AA82AB83C28E74FFC39AFA74FF9B43
:0A0E2D00FB8B8D8A8BC28FD28E22C0
:0E0E370075950075911475924CC296758912CE
:0E0E4500758F01758CC043A210C2A9D28CC259
:0C0E53008E75D20E75D3A075D161C2025D
:0E0E5F0075A80075E800D2AFC2A8D2AA75B877
:0D0E6D000C75B70C75F80075F700D28A22DD
:0400000002002332A5
:01000B0032C2
:03001300020CAE2E
:03001B0002100CC4
:03007C0002001E61
:05001E00120FE180FE5D
:0C0E7A007508007584007585FF901C2928
:0C0E8600E493F509901DF6E493FA7B005C
:0E0E9200EB24FC4045EB75F002A4FCADF08CA7
:060EA000F005F0EA8002FB
:020EA600C31374
:0E0EA800D5F0FBFC530403BC01148BF005F0E5
:040EB6007401800241
:020EBA0025E031
:0A0EBC00D5F0FBFD74FFC39D520941
:0B0EC600BC02108BF005F074018002EC
:020ED10025E01A
:060ED300D5F0FBFD420911
:030ED9000B80B6D5
:080EDC00901DF7E493FA7B007E
:0E0EE400EB24FC404CEB75F002A4FDAEF08D4B
:060EF200F005F0EA8002A9
:020EF800C31322
:0E0EFA00D5F0FBFD74035DFCBC011774042BE6
:080F0800F5F005F07401800210
:020F100025E0DA
:0A0F1200D5F0FBFD74FFC39D5209EA
:0E0F1C00BC021374042BF5F005F07401800282
:020F2A0025E0C0
:060F2C00D5F0FBFC4209B8
:030F32000B80AF82
:070F3500850982120B4775CC
:060F3C000A00E4F50BF5CC
:040F42000DF50EF5A6
:040F46000FF510F59E
:040F4A000CC20012C3
:0D0F4E000DD8E4C0E07403C0E0758201120C
:0E0F5B000DE0158115817404C0E07404C0E03F
:0E0F6900758201120DE0158115817420C0E023
:0E0F77007405C0E0758201120DE01581158130
:0E0F85007460C0E07406C0E0758201120DE0D9
:0E0F9300158115817401C0E07407C0E07582FD
:0E0FA10001120DE015811581E4C0E0740CC052
:0E0FAF00E0758201120DE01581158174FFC0FE
:0E0FBD00E0740DC0E0758201120DE015811583
:0D0FCB0081749AC0E07412C0E075820112BA
:090FD8000DE015811581020DDC0C
:070FE100120E3712175D121A
:020FE8000E7A7F
:090FEA00748025D150031207BCEC
:070FF300D2972097097A64F0
:020FFA00DAFE1D
:050FFC003097FDB20377
:07100100A203B392977A6489
:04100800DAFE80DEAE
:0C100C00C021C0E0C0F0C082C083C00260
:0E101800C003C004C005C006C007C000C00170
:0D102600C0D075D000C2AAC2AB9012DE127D
:091033000E1F74FFB53A028003A0
:03103C0002114757
:05103F003005068539B3
:041044003E02114710
:0A104800740F5527FA74805527FB3A
:0A105200E525FC7030E526702C2027
:05105C0003030211472F
:0A106100BA030CE528700874C0B54E
:05106B0029031213AC83
:071070007401B528028003A2
:031077000211471C
:07107A00E5296003021147A4
:061081001213D202114718
:06108700EB600302112ED4
:0C108D00901D17E493FBECB503028003F8
:03109900021147FA
:0B109C00901D18E493FBB526028003B2
:0310A700021147EC
:0B10AA0074C35528FBBB420F74C055F7
:0C10B50029FBBB8007C002121332D002DE
:0C10C100EA702774C05528FBBBC007C0B4
:0610CD000212125ED002C7
:0C10D3007480B52807C00212126AD00217
:0C10DF007481B52807C00212127CD002F8
:0C10EB00BA012A74035528FBBB031274E1
:0A10F70080B5290DC002120E371259
:07110100175D120E7AD00207
:0A1108007443B5280BE5297007C0F9
:06111200021212BBD00224
:0C111800BA032C74C35528FBBB4224E52D
:0A1124002954C0701E1212D6801963
:0A112E00BA0116E528701274C055CE
:0811380029FABA800312007FBE
:07114000E52970031213FA08
:0A114700753900C28BD2AA200505FD
:05115100C28E753A009A
:0E115600D0D0D001D000D007D006D005D004F4
:0D116400D003D002D083D082D0F0D0E0D0F4
:02117100213229
:06117300C2087A007B00B7
:0A1179003094070ABA001C0B80191D
:0C118300C002C003C021120C15AC82D0C9
:0A118F0021D003D002BCCC053001D2
:0311990002D20877
:0C119C00C3EA94B8EB6480948B40D2A2AC
:0211A80008221B
:0911AA00C01185811105817A0054
:0A11B3007B00A81108740F5527F601
:0E11BD0090495CC002C003120E1FD003D00286
:0E11CB00208F132094FA90495CC002C00312DA
:0811D9000E1FD003D00280EAD2
:0411E100C28E7D003D
:0C11E500C002A8110886067F0074062EC8
:0E11F100FEE43FFF8D027C00C3EE9AEF6480A7
:0D11FF008CF063F08095F0D002402DED24BF
:0B120C0022F88682C002C003C0051259
:0C1217000D3BD005D003ED2422F8E66268
:0E122300039004CEC003C005120E02D005D009
:0612310003D0020D80AEA7
:0E123700EBF4F582C002120D3B121173D002CF
:0412450050027A03D6
:0A1249000A74DF5522F522EA24FCA6
:0512530040030211B38D
:06125800851181D0112276
:06125E00208F03208EFA30
:061264007582CC020D3B77
:06126A0020040ED20485F1
:03127000233B8598
:03127300243C1206
:05127600125E753D0150
:01127B002250
:06127C00E523B53B0CE583
:0512820024B53C07103B
:031287000401223D
:03128A00753D01AE
:01128D00223E
:06128E007522B0AA238ABC
:0412940025AA248AD9
:0812980026901D17E493FA8A69
:0812A00023901D18E493FA8A63
:0712A8002475276074C045A6
:0812AF0028FA8A2874FE5AF5A2
:0412B700280211AA4E
:0712BB0012125E12128E7583
:0612C20022B075276375E0
:0612C80028437529407562
:0612CE002A00752B12023C
:0212D40011AA5D
:0812D60012125EAA29C00212E7
:0612DE00128ED0027B001D
:0C12E400C3EB9A5027E52A7011740A2B06
:0712F0002422F8EB252B90EE
:0712F7001C0093FCF6800FC0
:0A12FE00740A2B2422F8EB252B9034
:051308001D0093FCF63E
:03130D000B80D47E
:091310007522B074632AF527E58B
:0A1319003D253D25E0FB74424BF535
:071323002874404AF529126D
:05132A0011AA053D536E
:03132F003D0F224D
:0B13320012125E740F5529FAC002125F
:09133D00128E120DD8D0027B00C3
:0C134600C3EB9A505E740A2B2422F88638
:0C13520004EB252BFDC002C003C004C04A
:0C135E0005852A82120DE015811581D052
:0C136A0003D002AC2B7D008B067F00EE50
:0E1376002CFCEF3D53043F7D00BC3F24BD0026
:0A138400218A047D001CBCFF011D3E
:0A138E00EEB50406EFB50502800E6F
:0E139800C002C003120DDC120DD8D003D0022B
:0313A6000B809D1C
:0313A900020DDC56
:0C13AC00120DD8C02A7417C0E075820131
:0C13B800120DE015811581C02B7418C0C7
:0E13C400E0758201120DE015811581020DDC2D
:0713D20012125E7522B090BB
:0813D9001D17E493FA8A23902A
:0813E1001D18E493FA8A24753B
:0613E900250075260075C9
:0613EF0027E175280175DD
:0513F50029400211AACD
:0613FA00852582C02612C9
:0A140000153AAA821581BAFF0122F5
:0E140A00C00212125ED0028A82C00212161BAD
:0E141800AB82AC83D0028A82C002C003C00443
:0E14260012148FAD82D004D003D00274085D82
:0C143400FEBE0856530504BD045075228E
:0A144000BC901D17E493FD8D23906E
:0C144A001D18E493FD8D248A82C002C0AE
:0E14560003C004121685AD82D004D003D0026C
:0E146400ED24F940228A82C003C0041214AAAB
:0C147200AA82AD83D004D0038D068E2525
:06147E008A267527E175C6
:07148400280074402BF5293C
:03148B000211AAA1
:01148E00223B
:0E148F00AA82901D12E493FB0B0B0BEA75F082
:0C149D0003A42BF58275831DE493F582F7
:0114A9002220
:0E14AA00AA827BFE901D11E493FC2402FDEA51
:0E14B8002AFE2D901D0093FDB50209EC042EB6
:0614C600901D0093FAFBEB
:0514CC00BBFE02801FC1
:0E14D100EB2BFB2417901D0093FA74182B9040
:0E14DF001D0093FB7C008A05E42BFBED3CFC1A
:0314ED00FA80047E
:0414F0007B007A0003
:0514F4008B828A8322B7
:0814F900C011858111AA829047
:0B1501001D16E493FB7CFF602B7D01B6
:0E150C00C3EB9D4024ED2DFE2417901D00938F
:0E151A00FFEAB5071374182E901D0093FEA86B
:0A15280011181818E6B506028D042C
:031532000D80D752
:051535008C82D01122A0
:0A153A00C0118581110581AA827B92
:0C154400FFC003A811181818E6C0E08AC8
:0E155000821214F9AA821581D003901D11E4B5
:0B155E0093FCF58275831DE493FDA84B
:091569001108A605BAFF02803545
:0715720074022CFE0C7F0047
:0C157900BBFF2BA81108C3EF965023C045
:0E15850006EF2FFD2C901D0093FEEAB5060424
:04159300740180015E
:01159700E46F
:0C159800D0066008ED2E901D0093FDFBB6
:0315A4000F80D2E3
:0815A7008B82851181D0112215
:0A15AF00C011858111E58225E025B9
:0A15B900E0FA243FF8A911191919EE
:0A15C300E7F6EA04243FF8E51124DE
:0C15CD00F9F909098703A60374022A2417
:0A15D9003FF8E51124F9F909870332
:0A15E300A60374032A243FF8E51163
:0A15ED0024F9F98702A602D01122AA
:0C15F700E58225E025E0FA243FF87600AC
:0B160300EA04243FF8760074022A2459
:0A160E003FF8760074032A243FF829
:0316180076002237
:0D161B00AA827BFF7CFFEA75F003A4FD901E
:0E1628001D12E493FEC39A404FED2EFA2402E9
:0E163600901D0093FF74042A901D0093FABAD1
:0216440008009C
:0C164600500B8F8275831CE493FAFB7C30
:011652000097
:0A165300ED2E2404F582E4341DF5A9
:0C165D0083E493FABA081C8F8275831C8A
:0E166900E493FD7A00EF04901C0093FE7F00D6
:091677002AFAEF3DFD8A038D04FF
:051680008B828C832227
:0E168500AA827BFFEA75F003A4FC901D12E41C
:0C16930093FDC39A400FEC2D2404F58257
:09169F00E4341DF583E493FAFB29
:0316A8008B822210
:0816AB00C011858111AA82C261
:0C16B30008EA75F003A4FB901D12E493FC
:0816BF00FCC39A500302175806
:0E16C700EB2CFA2402901D0093FD74042A906F
:0716D5001D0093FABA0800A2
:0E16DC00502DC003C004C005120DD8D005E586
:0C16EA001124FCF88602C005C002C005F7
:0E16F600758200120DE015811581120DDCD0F9
:0717040005D004D003D20858
:0A170B00EB2C2404F582E4341DF5F4
:0E17150083E493FABA083CC005120DD8D00543
:0C172300E51124FCF8088602C005C00295
:0E172F00C005758200120DE015811581D005F0
:0C173D00E51124FCF886020DC002C00576
:0E174900758200120DE015811581120DDCD2A3
:011757000889
:05175800A208D01122DF
:06175D00C203753D01C24C
:0517630004753900755A
:051768003E00C2052255
:06005200E478FFF6D8FD82
:080030007900E94400601B7A2D
:05003800009017717833
:03003D000075A0AB
:0A00400000E493F2A308B8000205E3
:08004A00A0D9F4DAF275A0FF61
:080058007800E84400600A7919
:030060000075A088
:0600630000E4F309D8FCE3
:080069007800E84400600C7906
:0B00710000900000E4F0A3D8FCD9FAD6
:0300230075815E86
:0A00260012176DE582600302001E50
:04176D00758200225F
:00000001FF
