:0A007F00C013E581F5132406F58196
:06008900852582C026124D
:0C008F001536AA821581A81308A602A845
:08009B001308B6FF0302048400
:0D00A30012130A901D11E493FBF582758382
:0A00B0001DE493FCA8130808A60441
:0700BA0074022BFD0B7E0018
:0C00C100A8130808C3EE96400302048454
:0C00CD00C005EE2EFF2B901D0093FDA837
:0A00D9001308E6B505047401800168
:0100E300E438
:0700E400D005700302048047
:0E00EB00EF2D901D0093FFF582C003C005C0ED
:0E00F90006C007121498D007D006D005D00319
:03010700BF08002E
:0C010A0050517480B52918C0058FF00515
:05011600F074018002FD
:02011B0025E0DD
:0C011D00D5F0FBFD74FFC39D5209D00516
:0C0129007481B529108FF005F07401807E
:0101350002C7
:0201360025E0C2
:06013800D5F0FBFC4209BA
:07013E00AC29BC8002800324
:03014500BC811565
:0E0148008F82C003C005C006C0071205DCD0C0
:0701560007D006D005D0031D
:08015D00EF24F84003020480C6
:03016500BF0C00CC
:050168004003020480C9
:0C016D007480B5292CC0058F047D00ECC7
:0E01790024F8FCED34FF8CF005F07C017D00D5
:020187008006F0
:06018900EC2CFCED33FD3F
:0C018F00D5F0F7740FC39CFCE49DEC520B
:03019B000AD00582
:0C019E007481B52925C0058F047D00EC9C
:0E01AA0024F8FCED34FF8CF005F07C017D00A4
:0201B8008006BF
:0601BA00EC2CFCED33FD0E
:0801C000D5F0F7EC420AD0056E
:0A01C8007C00A8130808087600E583
:0A01D200132404F87600E513240559
:0C01DC00F8A607087600E5132405F8E6F5
:0E01E80024F8FA08E634FFFFBA0005BF000253
:0201F600801C6B
:0801F800BA0105BF00028043BB
:08020000BA0205BF0002806D87
:09020800BA0306BF00030202A3C1
:030211000202D313
:0E021400901DD8E493FF740F5FFC901DEFE483
:0C02220093FFA81308080874035FF6900F
:0C022E001DEFE4930303543FFFE513248D
:09023A0004F874035FF60202D31C
:0E024300901DD8E49354F0C4540FFC901DEFAE
:0C025100E493C4540FFFA81308080874BD
:0E025D00035FF6901DEFE49323235403FFE5A7
:0A026B00132404F874035FF6805EAC
:0E027500901DD9E493FF740F5FFC901DF0E420
:0C02830093FFA81308080874035FF690AE
:0C028F001DF0E4930303543FFFE513242B
:08029B0004F874035FF68030E3
:0E02A300901DD9E49354F0C4540FFC901DF04C
:0C02B100E493C4540FFFA813080808745D
:0E02BD00035FF6901DF0E49323235403FFE546
:0802CB00132404F874035FF62C
:0C02D300C005901DEDE493FFE513240529
:0E02DF00F8E624F8FD08E634FFFA8DF005F08D
:0302ED00EF80029D
:0202F000C31336
:0D02F200D5F0FBFF74035FFAE4BA000104CD
:0902FF00D0057008BA0102806DFF
:030308000204806C
:07030B00AA29BA8002800557
:05031200BA814A8029B8
:090317008C027F001ABAFF011FDD
:0A0320008AF005F07A017F008006E4
:06032A00EA2AFAEF33FF9E
:0D033000D5F0F774FFC39AFAE49FFFEA527C
:03033D000D801F11
:090340008C027F001ABAFF011FB4
:0A0349008AF005F07A017F008006BB
:06035300EA2AFAEF33FF75
:06035900D5F0F7EA420DA9
:0E035F00EC14F582C003C005C0061205DCD008
:08036D0006D005D00302048054
:07037500AA29BA80028008EA
:05037C00BA8102806659
:0303810002046E05
:090384008C027F001ABAFF011F70
:0A038D008AF005F07A017F00800677
:06039700EA2AFAEF33FF31
:0D039D00D5F0F774FFC39AFAE49FFFEA520F
:0A03AA000CE5132404F8B601148CCE
:0703B400F005F07401800266
:0203BB0025E03B
:0A03BD00D5F0FBFA74FFC39A520852
:0A03C700E5132404F8B602028003D7
:0303D10002046EB5
:0803D4008CF005F074018002B9
:0203DC0025E01A
:0903DE00D5F0FBFA420802046E9E
:0903E7008C027F001ABAFF011F0D
:0A03F0008AF005F07A017F00800614
:0603FA00EA2AFAEF33FFCE
:0A040000D5F0F7EA420CA813080833
:0C040A0008B601148CF005F074018002AB
:0204160025E0DF
:0A041800D5F0FBFA74FFC39A5208F6
:0C042200A813080808B602108CF005F0C2
:04042E0074018002D3
:0204320025E0C3
:06043400D5F0FBFA4208BE
:0E043A00C003C004C005C006121000D006D0DA
:0E04480005D004EC1475F005A4FAC005C0063A
:0E045600E4C0E0C00275820012100815811586
:0A04640081121004D006D005D00369
:0C046E00850882C003C005C006120C24E3
:06047A00D006D005D003FE
:040480000E0200C1A7
:06048400851381D0132254
:0A048A00C0138581130581058185EB
:050494002582C02612C4
:0C0499001536AA821581A81308A602A837
:0804A5001308B6FF030205D69F
:0D04AD0012130A901D11E493FBF582758374
:0A04BA001DE493FCA8130808A60433
:0704C40074022BFD0B7E000A
:0C04CB00A8130808C3EE9640030205D6F3
:0C04D700C005EE2EFF2B901D0093FDA829
:0A04E3001308E6B50504740180015A
:0104ED00E42A
:0704EE00D00570030205D2E6
:0E04F500C003EF2D901D0093FFF582C005C0DF
:0E05030006C007121498AB82D007D006D005B0
:0B0511008B0274085AFBE4BB080104D5
:07051C00D00370030205D2B9
:0B052300C00574045AFDE4BD0401048F
:07052E00D00570030205D2A5
:050535007522BC853CAD
:03053A0023853BDB
:05053D00247527E175A3
:080542002800752940BF0800E4
:0A054A0050168FF005F074018002D6
:0205540025E0A0
:0A055600D5F0FBFCE5095C600375BD
:0205600029412F
:08056200EF24F85031BF0C003A
:0E056A00502CC0058F057A00ED24F8FDEA3410
:0B057800FF8DF005F07D017A00800689
:06058300ED2DFDEA33FA44
:0C058900D5F0F78D04E50A5CD005600396
:0305950075294184
:0E059800EF24F450267A00EF24F4FFEA34FF3B
:0A05A6008FF005F07F017A00800657
:0605B000EF2FFFEA33FA11
:0B05B600D5F0F78F04E50B5C600375C7
:0205C1002941CE
:0E05C300C003C005C006121252D006D005D0EB
:0105D1000326
:0405D2000E0204CB46
:0605D600851381D0132201
:0A05DC00C013E581F5132405F58135
:0C05E600AA82C002121498AB82D002A8B6
:0A05F200130808A6038AF005F0A81C
:0605FC00130874018002E7
:0206020025E0F1
:0C060400D5F0FBF6A81308080876007E6D
:0C06100000901DD8E493FF53070FE51382
:0C061C002404F8A602087600E51324046C
:0E062800F8740126FDE40836FB7C00EFB505F2
:0C0636000BECB50307A8130808087601B8
:0C064200901DD8E49354F0C4540FFBE565
:0C064E00132404F8740126FCE40836FDB7
:0C065A007F00EBB5040BEFB50507A813FB
:050666000808087602FF
:0C066B00901DD9E493FB53030FE513240A
:0E06770004F8740126FCE40836FD7F00EBB5A4
:0C068500040BEFB50507A8130808087661
:010691000365
:0C069200901DD9E49354F0C4540FFBE514
:0C069E00132404F8740126FCE40836FD67
:0C06AA007F00EBB5040BEFB50507A813AB
:0506B6000808087604AD
:0B06BB00A813080808E66053C0069072
:0C06C6001DEDE493FBA81308080886054E
:0E06D2007C00ED24FFFFEC34FFCF25E0CF339A
:0806E000FE8FF005F0EB800233
:0206E800C3133A
:0E06EA00D5F0FB5403D0067023901DEEE49370
:0606F800FB1DBDFF011C0B
:0E06FE00ECCD25E0CD33FC8DF005F0EB800255
:02070C00C31315
:08070E00D5F0FBFB74035BFE58
:09071600A81308E50C566003026B
:02071F00092DA2
:0C072100A8130808740456FBBB040280F7
:01072D0003C8
:03072E0002092D90
:0C073100A8130808741056FBBB100280CF
:01073D0003B8
:03073E0002092D80
:0C074100E5132404F8740126FBE40836DC
:0E074D00A2E713CB13CB74F92B901D0093FB86
:0C075B0074015AFCBC010553030F800818
:0807670074F05BFCC4540FFBAD
:0E076F00C0037C007D00901DEAE493FF8AF039
:05077D0005F0EF800211
:02078200C3139F
:0D078400D5F0FBFB74015BFF8AF005F0E58A
:08079100132404F8E5098002BD
:02079900C31388
:0C079B00D5F0FBF6E5132404F8E6540149
:0E07A700D003701BEE6041BE01108AF005F019
:0407B500E50D8002CC
:0207B900C31368
:0607BB00D5F0FB30E02E3A
:0307C100BE020075
:0207C4005029BA
:0C07C600C005E5132404F8740156FDE49E
:0407D200BD01010460
:0707D600D005605ABE0200CD
:0A07DD0040558AF005F0E50D80029A
:0207E700C3133A
:0607E900D5F0FB20E04505
:0E07EF00C00574E22A901D0093FD8D04D00514
:0607FD00EC6003BF012FB8
:0E080300C005901DF2E493FD8AF005F0ED8033
:0108110002E4
:02081200C3130E
:0C081400D5F0FB5401D005700DC005A804
:0A0820001308E6F45208D005800A20
:08082A00A81308E64208800251
:020832007D80C7
:0C083400C005E5132404F8740156FDE42F
:04084000BD010104F1
:0C084400D0056028EE6044BE0102803F39
:03085000BE0200E5
:0C085300401BC0058AF005F0E50D800296
:02085F00C313C1
:0B086100D5F0FB5401FDE4BD010104D3
:04086C00D005701F24
:0C087000E5132404F8E620E05BBE01580C
:08087C008AF005F0E50D800291
:02088400C3139C
:09088600D5F0FB5401FEBE014552
:0E088F0074DA2A901D0093FE8E04EC7036BFC2
:0E089D00010C7D8074E22A901D0093FE8E04F3
:0D08AB00901DF2E493FE8AF005F0EE80024D
:0208B800C31368
:0B08BA00D5F0FB20E008A81308E64280
:0308C50008800C9C
:0A08C800A81308E6F4FE52088002AF
:0208D2007D8126
:0508D400BD00028040A0
:0C08D9007E008BF005F0AB04AF0680063B
:0608E500EB2BFBEF33FFDB
:0C08EB00D5F0F7EF3395E0FCFEE50E2B96
:0A08F700FBE50F3FFFE5103CFCE5B8
:0C090100113EFEC003C007C004C006C0C9
:0C090D00058A82121615E58124FBF58195
:08091900A81308E51256FAA824
:0A0921001308E6B5020685088212ED
:02092B000C249A
:06092D00851381D01322A6
:0A093300C013E581F5132409F581D6
:0C093D0075D16075D21D75D340050EE425
:06094900B50E0C050FB510
:05094F000F070510B5C3
:040954001002051177
:05095800A81308760061
:0B095D00A81308E624F85003020C1B4E
:0C096800A81308E675F005A4FBF58275E5
:0B097400831CE493FCBC0003020C1485
:0C097F00C004EB04901C0093FDA81308BA
:0D098B0008A605087600087600087600A88A
:0A099800130808E5132406F9080807
:0E09A200E6090909F718E619F718E619F7191A
:0E09B000770074022B901C0093FAE4FC339540
:0C09BE00E0FDFEE5132406F8EA26FAEC42
:0C09CA000836FCED0836FDEE0836FEA8ED
:0C09D600130808A60208A60408A60508DD
:0A09E200A606A8130808E513240672
:0E09EC00F90808E6090909F718E619F718E6F0
:0E09FA0019F719770074032B901C0093FFE48B
:0C0A0800FA3395E0FCFDE5132406F8EF3E
:0E0A140026FFEA0836FAEC0836FCED0836FD3F
:0C0A2200A8130808A60708A60208A604EE
:0A0A2E0008A605A8130808E5132424
:0E0A380006F90808E6090909F718E619F71883
:0E0A4600E619F719770074042B901C0093FB3F
:0C0A5400E4FF3395E0FAFCE5132406F8FB
:0E0A6000EB26FBEF0836FFEA0836FAEC083604
:0C0A6E00FCA8130808A60308A60708A6A9
:0A0A7A000208A604A8130808E6B558
:0A0A84000E1308E6B50F0E08E6B5E4
:0A0A8E00100908E6B5110474018098
:010A9800015C
:010A9900E478
:070A9A00D0047003020C14EC
:0B0AA100A8130886F005F07401800225
:020AAC0025E043
:090AAE00D5F0FBFABC81028003C3
:030AB700020BBD72
:0C0ABA00901DF2E493FBA8130886F005E1
:040AC600F0EB8002CF
:020ACA00C31354
:0B0ACC00D5F0FB20E005EA42088005A1
:050AD700EAF4FB5208E7
:0C0ADC00A81308740C26F5827481C0E099
:090AE800120C581581121000A82F
:0C0AF1001308E675F005A4FBE4C0E0C0AB
:0E0AFD00037582001210081581158112100475
:0C0B0B00901DEAE493FBA8130886F00597
:040B1700F0EB80027D
:020B1B00C31302
:0D0B1D00D5F0FBFC74015CFBBB0102800302
:030B2A00020C0EAC
:0C0B2D00A8130886047D000CBC00010D1C
:0E0B3900EDA2E713CC13CC74F92C901D0093A1
:0C0B4700FCA81308740156FDBD01055305
:040B5300040F800803
:080B570074F05CFDC4540FFCB6
:0C0B5F00A8130874E226901D0093FDBD51
:050B6B000003020C0E66
:060B7000BB0003020C0EA5
:0C0B76007B008CF005F0AC05AE0380069F
:060B8200EC2CFCEE33FE3A
:0C0B8800D5F0F7EE3395E0FBFDE50E2CF8
:0A0B9400FCE50F3EFEE5103BFBE51B
:0C0B9E00113DFDC004C006C003C005747A
:0C0BAA0080C0E0A813088682121615E532
:070BB6008124FBF581805151
:0C0BBD00901DF2E493FBA8130886F005DD
:040BC900F0EB8002CB
:020BCD00C31350
:0C0BCF00D5F0FB20E007EAF4FB520880A0
:010BDB000316
:030BDC00EA4208E2
:0C0BDF00A81308740C26F5827480C0E096
:090BEB00120C581581121000A82B
:0C0BF4001308E675F005A4FAE4C0E0C0A8
:0E0C0000027582001210081581158112100471
:060C0E00850882120C248F
:070C1400A813080602095DA8
:090C1B0075D161851381D013220B
:0E0C2400AA82758B00D2928A80C00212100044
:0E0C32007429C0E0758200121008158115812A
:0E0C4000121004C28EC28F758DA0758B00D26B
:010C4E008E17
:090C4F00308FFDC28E758BC022AE
:0A0C5800C013858113AA82C00212A6
:0E0C620014B3AB82AC83D002BB0005BC000211
:020C70008053AF
:050C72007522BC853C69
:030C770023853B97
:060C7A00248C058D258B82
:050C8000267527D17567
:0C0C85002800EA24F4FA901DF3E493FB2D
:070C91008AF005F0EB800280
:020C9800C31384
:0C0C9A00D5F0FBFA74015AFB7007A81398
:050CA600181818862952
:0C0CAB00BB0110A813181818B6800575BE
:040CB700298180030C
:030CBB0075298018
:070CBE00C2AA121252D2AAD1
:030CC500D0132227
:0C0CC8007584007585FF901C29E493F5ED
:090CD40008901DF6E493FA7B0080
:0E0CDD00EB24FC4045EB75F002A4FCADF08C5E
:060CEB00F005F0EA8002B2
:020CF100C3132B
:0E0CF300D5F0FBFC530403BC01148BF005F09C
:040D010074018002F7
:020D050025E0E7
:0A0D0700D5F0FBFD74FFC39D5208F8
:0B0D1100BC02108BF005F074018002A2
:020D1C0025E0D0
:060D1E00D5F0FBFD4208C8
:030D24000B80B68B
:0A0D2700901DF7E493FB8B027B00A4
:080D3100EB24FC5003020DA4A9
:0E0D3900EB75F002A4FDAEF08DF005F0EA803F
:010D470002A9
:020D4800C313D3
:0E0D4A00D5F0FBFD74035DFCBC01288B057E1B
:0E0D58000074042DFDE43E8DF005F07D017E5B
:030D660000800604
:060D6900ED2DFDEE33FE4E
:0D0D6F00D5F0F774FFC39DFDE49EFEED522C
:010D7C00086E
:0E0D7D00BC02208B047D0074042CFCE43D8C31
:090D8B00F005F07C017D008006FA
:060D9400EC2CFCED33FD28
:060D9A00D5F0F7EC420861
:040DA0000B020D3104
:070DA400850880121000C059
:0C0DAB00087429C0E075820012100815C1
:0A0DB7008115811210047512FF75FA
:060DC1000A00E4F50CF548
:040DC7000EF50FF521
:040DCB0010F511F519
:050DCF000D7509001282
:0E0DD40010007404C0E07404C0E075820112C7
:0E0DE2001008158115817420C0E07405C0E072
:0E0DF000758201121008158115817460C0E033
:0E0DFE007406C0E0758201121008158115817F
:0E0E0C007401C0E07407C0E075820112100886
:0E0E1A0015811581E4C0E0740CC0E075820102
:0E0E28001210081581158174FFC0E0740DC012
:0E0E3600E075820112100815811581749AC0B2
:0E0E4400E07412C0E0758201121008158115CD
:040E52008102100405
:0C0E5600C2AAC2AB90017C121047C20877
:020E6200C200CC
:0C0E6400308FFD900168C021121047D0B3
:070E700021A29492097A050A
:090E7700A29482099209DAF8A2A2
:080E800009E433FA300902B263
:010E88000861
:020E89007B01EB
:030E8B00BB0800A1
:020E8E00503FD3
:0C0E9000308FFD90015EC002C003C02145
:0C0E9C00121047D021D003D002A2949283
:030EA800097C05BD
:090EAB00A29482099209DCF8A26C
:0B0EB40009E433FC8BF005F0EC800239
:020EBF0025E02C
:0A0EC100D5F0FBFC4202300902B23A
:010ECB00081E
:030ECC000B80BCDC
:0B0ECF00308FFDC28EA29492097B05BB
:090EDA00A29482099209DBF8A23E
:050EE30009200801B325
:040EE8005002D200E2
:030EEC008A8222D5
:0C0EEF00C021C0E0C0F0C082C083C0027F
:0E0EFB00C003C004C005C006C007C000C0018F
:0E0F0900C0D075D000C28EC2AAC2AB120E5666
:0D0F1700AA829000C8C00212102AD0023039
:050F24000012E5392474
:090F290022F8A602E5397002F578
:010F32003A84
:050F3300EA623A0539F5
:0D0F3800900546121047D2ABC28BD2AAD250
:0C0F450001D0D0D001D000D007D006D0E1
:0E0F510005D004D003D002D083D082D0F0D0DF
:040F5F00E0D021328B
:090F6300AA82D208C209D29690BC
:0A0F6C00005FC002C02112102AD05D
:070F760021D002C2967B00AE
:030F7D00BB0800AE
:0C0F8000505C9000D7C002C003C02112DA
:0C0F8C001047D021D003D0028BF005F0FC
:030F9800EA8002EA
:020F9B00C3137E
:0C0F9D00D5F0FB5401FCBC0104C20A802A
:010FA9000245
:020FAA00D20A69
:0C0FAC00308FFDA20A9296900064C002F3
:080FB800C003C021121047D054
:090FC00021D003D002200A0BB27B
:030FC900087C059C
:050FCC00209402D2098F
:020FD100DCF949
:030FD300200908EA
:080FD600308FFDC2960B809FD5
:090FDE0020091A9000D4C0211270
:050FE700102AD021A238
:090FEC0008929690005FC02112EA
:060FF500102AD021C29673
:050FFB00C28EA20922D4
:0410000075E4002271
:0410040075E4682205
:0A100800C013858113E582FA24FE6F
:0C1012004013741C2AF5E7A813181818E6
:09101E0086E6E51324FCF886E5E2
:03102700D01322C1
:0E102A00AA82AB83C28E74FFC39AFA74FF9B36
:09103800FB8B8D8A8BC28FD28ED6
:06104100308FFDC28E227B
:0E104700AA82AB83C28E74FFC39AFA74FF9B19
:0A105500FB8B8D8A8BC28FD28E2296
:0E105F00759500759114759244C296758912AC
:0E106D00758F01758BC043A210C2A9D28CC230
:0C107B008E75D21D75D34075D161C20185
:0E10870075A80075E800D2AFC2A8D2AA75B84D
:0D1095000C75B70C75F80075F700D28A22B3
:0400000002002332A5
:01000B0032C2
:03001300020EEFEB
:03001B000210CD03
:03007C0002001E61
:05001E001210A280FE9B
:0710A20012105F1217D512B6
:0210A9000CC871
:0910AB00748025D15003120933B1
:0710B400D2972097097A642E
:0210BB00DAFE5B
:0510BD003097FDB202B6
:0710C200A202B392977A64C9
:0410C900DAFE80DEED
:0C10CD00C021C0E0C0F0C082C083C0029F
:0E10D900C003C004C005C006C007C000C001AF
:0D10E700C0D075D000C2AAC2AB9013381261
:0910F400104774FFB53A028003B5
:0310FD000211F5E8
:0A110000740F5527FA74805527FB81
:0A110A00E525FC7030E526702C206E
:0511140002030211F5C9
:0A111900BA030CE528700874C0B595
:05112300290312144E27
:071128007401B528028003E9
:03112F000211F5B5
:07113200E52960030211F53D
:0611390012147A0211F508
:06113F00EB60030211DC6D
:06114500ECB53C02800342
:03114B000211F599
:07114E00E53BB5260280031A
:031155000211F58F
:0B11580074C35528FBBB420F74C05548
:0C11630029FBBB8007C0021213D4D0028D
:0C116F00EA702774C05528FBBBC007C005
:06117B000212130AD0026B
:0C1181007480B52807C002121316D002BB
:0C118D007481B52807C002121328D0029C
:0C119900BA012A74035528FBBB03127432
:0A11A50080B5290DC00212105F1280
:0711AF0017D5120CC8D00295
:0A11B6007443B5280BE5297007C04B
:0611C0000212135DD002D3
:0C11C600BA032C74C35528FBBB4224E57F
:0A11D2002954C0701E121378801912
:0A11DC00BA0116E528701274FE55E2
:0811E60029FABA800312007F10
:0711EE00E529700312048AD9
:0C11F500753900C28BD2AAC28ED0D0D0B7
:0E12010001D000D007D006D005D004D003D015
:0C120F0002D083D082D0F0D0E0D0213299
:06121B00C2087A007B000E
:0A1221003094070ABA001C0B801974
:0C122B00C002C003C021120E56AC82D0DD
:0A12370021D003D002BCCC0530002A
:0312410002D208CE
:0C124400C3EA94B8EB6480948B40D2A203
:02125000082272
:09125200C01385811305817A00A7
:0A125B007B00A81308740F5527F656
:0E12650090495CC002C003121047D003D002B3
:0E127300208F132094FA90495CC002C0031231
:081281001047D003D00280EAFF
:04128900C28E7D0094
:0C128D00C002A8130886067F0074062E1D
:0E129900FEE43FFF8D027C00C3EE9AEF6480FE
:0D12A7008CF063F08095F0D002402FED2414
:0B12B40022F88682C002C003C00512B1
:0C12BF000F63D005D003E433ED2422F8C7
:0E12CB00E662039004CEC003C00512102AD0C4
:0812D90005D003D0020D80AC2A
:0E12E100EBF4F582C002120F63E43312121B0D
:0612EF00D00250027A0358
:0A12F5000A74DF5522F522EA24FCFA
:0512FF00400302125B38
:06130400851381D01322C5
:0C130A00308FFD7582CC120F63E433229B
:0613160020030ED2038546
:03131C00233E85E8
:03131F00243F1256
:05132200130A754001F3
:0113270022A3
:06132800E523B53E0CE5D3
:05132E0024B53F07108B
:0313330003012291
:03133600754001FE
:011339002291
:06133A007522B0AA238A0F
:0413400025AA248A2C
:0313440026853CBF
:0313470023853BC0
:07134A002475276074C04503
:0813510028FA8A2874FE5AF5FF
:041359002802125202
:07135D0012130A12133A7586
:0613640022B0752763753D
:06136A00284375294075BF
:061370002A00752B120299
:02137600125211
:0813780012130AAA29C0021297
:06138000133AD0027B00CD
:0C138600C3EB9A5027E52A7011740A2B63
:071392002422F8EB252B904B
:071399001C0093FCF6800F1D
:0A13A000740A2B2422F8EB252B9091
:0513AA001D0093FCF69C
:0313AF000B80D4DC
:0913B2007522B074632AF527E5E9
:0A13BB0040254025E0FB74424BF58D
:0713C5002874404AF52912CB
:0513CC00125205405320
:0313D100400F22A8
:0B13D40012130A740F5529FAC0021210
:0913DF00133A121000D0027B0049
:0C13E800C3EB9A505E740A2B2422F88696
:0C13F40004EB252BFDC002C003C004C0A8
:0C14000005852A8212100815811581D084
:0C140C0003D002AC2B7D008B067F00EEAD
:0E1418002CFCEF3D53043F7D00BC3F24BD0083
:0A142600218A047D001CBCFF011D9B
:0A143000EEB50406EFB50502800ECC
:0E143A00C002C003121004121000D003D00232
:031448000B809D79
:03144B0002100488
:04144E00852A3C852A
:031452002B3B121F
:0C1455001000C03C7417C0E0758201124A
:0C146100100815811581C03B7418C0E014
:0D146D00758201121008158115810210040E
:07147A0012130A7522B08570
:031481003C238584
:031484003B247591
:061487002500752600752A
:06148D0027E1752801753E
:05149300294002125285
:0E149800AA82901D12E493FB0B0B0BEA75F079
:0C14A60003A42BF58275831DE493F582EE
:0114B2002217
:0A14B300C0138581130581AA827B16
:0C14BD0000901D11E493FCF58275831D66
:0C14C900E493FDA81308A605EC04FE0C3B
:0314D5000C7F0089
:0C14D800A81308C3EF965023C003EF2FA9
:0E14E400FD2C901D0093FBB5020474018001E5
:0114F200E415
:0D14F300D0036009ED2E901D0093FD8D03C8
:031500000F80D584
:05150300BBFE02802088
:0E150800EB2BFB2417901D0093FA74182B9008
:0E1516001D0093FB7C008A05E42BFBED3CFCE2
:041524008C028004B1
:041528007B007A00CA
:0A152C008B828A83851381D013227D
:08153600C013858113AA829005
:0B153E001D16E493FB7CFF602B7D0179
:0E154900C3EB9D4024ED2DFE2417901D009352
:0E155700FFEAB5071374182E901D0093FEA82E
:0A15650013181818E6B506028D04ED
:03156F000D80D715
:051572008C82D0132261
:0A157700C0138581130581AA827B51
:0D158100FF7CFF901D16E493FD60367E0197
:0D158E00C3ED9E402FC003EE2EFF241790EA
:0C159B001D0093FBEAB5030474018001FD
:0115A700E45F
:0D15A800D003601374182F901D0093FFA84E
:0A15B50013181818E6B507028E049B
:0315BF000E80CCCF
:0C15C200901D11E493FAF58275831DE47E
:0C15CE0093FDA81308A605BCFF028033A3
:0715DA0074022AFE0A7F00E3
:0C15E100A81308C3EF965024C003EF2F9E
:0E15ED00FD2A901D0093FBECB50304740180F1
:0115FB0001EE
:0115FC00E40A
:0D15FD00D0036009ED2E901D0093FD8D03BD
:03160A000F80D47A
:08160D008B82851381D01322AA
:0A161500C013858113AA82C2AAC087
:0E161F0002121000D002EA75F005A4FAC00213
:0C162D00A813181818E6C0E0C00275826F
:0C1639000012100815811581D002E51385
:0E16450024F9F80808088603EA04FCC002C075
:0E16530003C00475820012100815811581D0A5
:0C16610002E51324F9F80808860374025F
:0E166D002AFCC002C003C004758200121008DF
:0C167B0015811581D002E51324F9F80850
:0E168700860374032AFCC002C003C0047582EF
:0C1695000012100815811581D002E51329
:0E16A10024F9F88603EA2404FAC003C0027597
:0E16AF00820012100815811581121004D2AAB3
:0316BD00D0132225
:0D16C000AA827BFF7CFFEA75F003A4FD9079
:0E16CD001D12E493FEC39A404DED2EFA240246
:0E16DB00901D0093FF74042A901D0093FABA2C
:0216E9000800F7
:0C16EB00500C8F8275831CE493FA8A0374
:0216F7007C0075
:0E16F900ED2E2404901D0093FABA081E8F8275
:0C17070075831CE493FA8A057A00EF0455
:0E171300901C0093FE7F002AFAEF3DFD8A0332
:021721008D0435
:051723008B828C832283
:08172800C013858113AA82C2DF
:0C17300008EA75F003A4FB901D12E4937E
:08173C00FCC39A50030217D010
:0E174400EB2CFA2402901D0093FD74042A90F1
:071752001D0093FABA080024
:0E175900502DC003C004C005121000D005E5DD
:0C1767001324FCF88602C005C002C00577
:0E17730075820012100815811581121004D025
:0717810005D004D003D208DB
:0E178800EB2C2404901D0093FABA083CC00517
:0C179600121000D005E51324FCF80886B2
:0E17A20002C005C002C00575820012100815B5
:0C17B000811581D005E51324FCF88602A9
:0E17BC000DC002C005758200121008158115BF
:0617CA0081121004D20898
:0517D000A208D0132265
:0817D500901D17E493F53C9010
:0717DD001D18E493F53BC267
:0517E40002754001C286
:0517E900037539002228
:06005200E478FFF6D8FD82
:080030007900E94400601B7A2D
:05003800009017F278B2
:03003D000075A0AB
:0A00400000E493F2A308B8000205E3
:08004A00A0D9F4DAF275A0FF61
:0400580075A0007817
:07005C0000E8440060077991
:0600630000E4F309D8FCE3
:080069007800E84400600C7906
:0B00710000900000E4F0A3D8FCD9FAD6
:03002300758140A4
:0A0026001217EEE582600302001ECF
:0417EE0075820022DE
:00000001FF
