:0A007F00C013E581F5132406F58196
:06008900852582C026124D
:0C008F0014CFAA821581A81308A602A8AD
:08009B001308B6FF0302045430
:0D00A30012124F901D11E493FBF58275833E
:0A00B0001DE493FCA8130808A60441
:0700BA0074022BFD0B7E0018
:0C00C100A8130808C3EE96400302045484
:0C00CD00C005EE2EFF2B901D0093FDA837
:0A00D9001308E6B505047401800168
:0100E300E438
:0700E400D005700302045077
:0E00EB00C003EF2D901D0093FFF582C003C0EF
:0E00F90005C006C007121465D007D006D0055A
:0C010700D003743F5529FB7C00C003C0EE
:0E01130005C006C007C003C0048F821217414A
:0E01210015811581D007D006D005D003BF0888
:01012F0000CF
:0C013000E433D003604D7480B529148FB7
:07013C00F005F074018002E0
:0201430025E0B5
:0A014500D5F0FBFC74FFC39C5209C7
:0C014F007481B529108FF005F074018058
:01015B0002A1
:02015C0025E09C
:06015E00D5F0FBFC420994
:07016400AC29BC80028003FE
:03016B00BC81153F
:0E016E008F82C003C005C006C00712045AD01D
:07017C0007D006D005D003F7
:08018300EF24F84003020450D0
:03018B00BF0C00A6
:05018E004003020450D3
:0C0193007480B52917EF24F8F5F005F092
:04019F007401800265
:0201A30025E055
:0A01A500D5F0FBFC740FC39C520A56
:0C01AF007481B52913EF24F8F5F005F079
:0401BB007401800249
:0201BF0025E039
:0601C100D5F0FBFC420A30
:0A01C7007C00A8130808087600E584
:0A01D100132404F87600E51324055A
:0C01DB00F8A607087600E5132405F8E6F6
:0E01E70024F8FA08E634FFFFBA0005BF000254
:0201F500801C6C
:0801F700BA0105BF00028043BC
:0801FF00BA0205BF0002806D89
:09020700BA0306BF00030202A2C3
:030210000202D215
:0E021300901DD8E493FF740F5FFC901DEFE484
:0C02210093FFA81308080874035FF69010
:0C022D001DEFE4930303543FFFE513248E
:0902390004F874035FF60202D21E
:0E024200901DD8E49354F0C4540FFC901DEFAF
:0C025000E493C4540FFFA81308080874BE
:0E025C00035FF6901DEFE49323235403FFE5A8
:0A026A00132404F874035FF6805EAD
:0E027400901DD9E493FF740F5FFC901DF0E421
:0C02820093FFA81308080874035FF690AF
:0C028E001DF0E4930303543FFFE513242C
:08029A0004F874035FF68030E4
:0E02A200901DD9E49354F0C4540FFC901DF04D
:0C02B000E493C4540FFFA813080808745E
:0E02BC00035FF6901DF0E49323235403FFE547
:0802CA00132404F874035FF62D
:0C02D200C005901DEDE493FFE51324052A
:0E02DE00F8E624F8FD08E634FFCD25E0CD3328
:0802EC00FA8DF005F0EF80022D
:0202F400C31332
:0D02F600D5F0FBFF74035FFAE4BA000104C9
:09030300D0057008BA0102804F18
:03030C0002045098
:07030F00AA29BA8002800553
:05031600BA812C8018E3
:0A031B00EC14F5F005F07401800207
:0203250025E0D1
:0C032700D5F0FBFA74FFC39A520D80124F
:0A033300EC14F5F005F074018002EF
:02033D0025E0B9
:06033F00D5F0FBFA420DAF
:0E034500EC14F582C003C005C00612045AD0A5
:0803530006D005D0030204509E
:07035B00AA29BA8002800804
:05036200BA8102805980
:0303670002043E4F
:0A036A00EC14F5F005F074018002B8
:0203740025E082
:0B037600D5F0FBFA74FFC39A520CE5AF
:0C038100132404F8B60116EC14F5F00586
:05038D00F07401800284
:0203920025E064
:0A039400D5F0FBFA74FFC39A52087B
:0A039E00E5132404F8B60202800300
:0303A80002043E0E
:0A03AB00EC14F5F005F07401800277
:0203B50025E041
:0903B700D5F0FBFA420802043EF5
:0A03C000EC14F5F005F07401800262
:0203CA0025E02C
:0A03CC00D5F0FBFA420CA813080854
:0E03D60008B60116EC14F5F005F07401800273
:0203E40025E012
:0A03E600D5F0FBFA74FFC39A520829
:0C03F000A813080808B60212EC14F5F07F
:0603FC0005F0740180020F
:0204020025E0F3
:06040400D5F0FBFA4208EE
:0E040A00C003C004C005C006120DD2D006D03B
:0E04180005D004EC1475F005A4FAC005C0066A
:0E042600E4C0E0C002758200120DDA158115E7
:0A04340081120DD6D006D005D003CA
:0C043E00850882C003C005C006120B6FC9
:06044A00D006D005D0032E
:040450000E0200C1D7
:06045400851381D0132284
:0A045A00C013E581F513240AF581B3
:0C046400AA82C002121465AB82D002A86C
:0A047000130808A6038AF005F0A89F
:06047A001308740180026A
:0204800025E075
:0C048200D5F0FBF6E5132404F876007EAC
:0C048E0000901DD8E493FF53070FE51306
:0C049A002409F8A602087600E5132409E6
:0E04A600F8740126FDE40836FB7C00EFB50576
:0C04B4000BECB50307E5132404F87601F7
:0C04C000901DD8E49354F0C4540FFBE5E9
:0C04CC00132409F8740126FCE40836FD36
:0C04D8007F00EBB5040BEFB50507E51342
:0504E4002404F876027B
:0C04E900901DD9E493FB53030FE513248E
:0E04F50009F8740126FCE40836FD7F00EBB523
:0C050300040BEFB50507E5132404F8769F
:01050F0003E8
:0C051000901DD9E49354F0C4540FFBE597
:0C051C00132409F8740126FCE40836FDE5
:0C0528007F00EBB5040BEFB50507E513F1
:050534002404F8760428
:0B053900E5132404F8E66053C00690B0
:0C0544001DEDE493FBE5132404F886058C
:0E0550007C00ED24FFFFEC34FFCF25E0CF331D
:08055E00FE8FF005F0EB8002B6
:02056600C313BD
:0E056800D5F0FB5403D0067023901DEEE493F3
:06057600FB1DBDFF011C8E
:0E057C00ECCD25E0CD33FC8DF005F0EB8002D8
:02058A00C31399
:08058C00D5F0FBFB74035BFEDC
:09059400A81308E50C56600302EF
:02059D00083A1A
:0C059F00A8130808740456FBBB0402807B
:0105AB00034C
:0305AC0002083A08
:0C05AF00A8130808741056FBBB10028053
:0105BB00033C
:0305BC0002083AF8
:0C05BF00E5132409F8740126FBE408365B
:0E05CB00A2E713CB13CB74F92B901D0093FB0A
:0D05D900FF74015AFCBC010553070F800898
:0805E60074F05FFCC4540FFF28
:0C05EE00E5132405F8E4F608F608F6080A
:0C05FA00F6A8130808087600901DEAE43B
:0906060093FB8AF005F0EB800281
:02060F00C31313
:0D061100D5F0FBFC74015CFB8AF005F0E500
:03061E000980024E
:02062100C31301
:0E062300D5F0FBFC20E01BEE603BBE01108A10
:07063100F005F0E50D800269
:02063800C313EA
:06063A00D5F0FB30E028C2
:03064000BE0200F7
:02064300502342
:08064500530401BC0102800313
:03064D000206DDC5
:03065000BE0200E7
:0506530050030206DD6A
:080658008AF005F0E50D8002B7
:02066000C313C2
:06066200D5F0FB20E0755D
:0C06680074E22A901D0093FCE5132405A9
:0D067400F8A604087600087600087600E578
:0C068100132405F8E60846084608466009
:04068D0003BB014565
:0D069100901DF2E493FC8AF005F0EC80026D
:02069E00C31384
:0C06A000D5F0FB20E00AA81308E6F4FCEB
:0406AC00520880066A
:0606B000A81308E6420851
:0E06B600740C2AF582C002C003C006C007748F
:0E06C40080C0E0120BA31581D007D006D00332
:0406D200D0028007CB
:0706D600A813080808768054
:0806DD008AF005F0E509800236
:0206E500C3133D
:0E06E700D5F0FBFC74015CFDBD0122EE604607
:0506F500BE010280417E
:0306FA00BE02003D
:0A06FD0040158AF005F0E50D8002BB
:02070700C3131A
:0B070900D5F0FB5401FDBD010280276C
:07071400EC30E0030207C70F
:05071B00BE0102800395
:030720000207C706
:080723008AF005F0E50D8002EB
:02072B00C313F6
:0B072D00D5F0FB5401FCBC010280036E
:030738000207C7EE
:0C073B0074DA2A901D0093FCE5132405DD
:0D074700F8A604087600087600087600E5A4
:0C075400132405F8E60846084608467025
:0C0760005FBB011FA81308080876807416
:0C076C00E22A901D0093FBE5132405F821
:0B077800A60308760008760008760053
:0D078300901DF2E493FB8AF005F0EB80027C
:02079000C31391
:0B079200D5F0FB20E008A81308E642A9
:03079D00088008C9
:0807A000A81308E6F4FB52085F
:0E07A800740C2AF582C002C0077481C0E012F2
:0A07B6000BA31581D007D0028007C5
:0707C000A813080808768168
:0C07C700A813080808E660528FF005F047
:0C07D300E5132405F88603088604088658
:0607DF0005088606800CEF
:0C07E500EB2BFBEC33FCED33FDEE33FEA0
:0A07F100D5F0F1E50E2BFBE50F3CFF
:0A07FB00FCE5103DFDE5113EFEC0D7
:0C08050003C004C005C006A813080808C2
:0E081100E6C0E08A82121585E58124FBF581A0
:02081F00800552
:050821008A821216306E
:08082600A81308E51256FAA818
:0A082E001308E6B5020685088212E1
:020838000B6F44
:06083A00851381D013229A
:0A084000C013E581F5132409F581CA
:0C084A0075D16075D21D75D340050EE419
:06085600B50E0C050FB504
:05085C000F070510B5B7
:04086100100205116B
:05086500A81308760055
:0B086A00A81308E624F85003020B66F8
:0C087500A81308E675F005A4FBF58275D9
:0A088100831CE493FC7003020B5F7C
:0C088B00C004EB04901C0093FDA81308AF
:0D08970008A605087600087600087600A87F
:0A08A400130808E5132406F90808FC
:0E08AE00E6090909F718E619F718E619F7190F
:0E08BC00770074022B901C0093FAE4FC339535
:0C08CA00E0FDFEE5132406F8EA26FAEC37
:0C08D6000836FCED0836FDEE0836FEA8E2
:0C08E200130808A60208A60408A60508D2
:0A08EE00A606A8130808E513240667
:0E08F800F90808E6090909F718E619F718E6E5
:0E09060019F719770074032B901C0093FFE47F
:0C091400FA3395E0FCFDE5132406F8EF33
:0E09200026FFEA0836FAEC0836FCED0836FD34
:0C092E00A8130808A60708A60208A604E3
:0A093A0008A605A8130808E5132419
:0E09440006F90808E6090909F718E619F71878
:0E095200E619F719770074042B901C0093FB34
:0C096000E4FF3395E0FAFCE5132406F8F0
:0E096C00EB26FBEF0836FFEA0836FAEC0836F9
:0C097A00FCA8130808A60308A60708A69E
:0A0986000208A604A8130808E6B54D
:0A0990000E1308E6B50F0E08E6B5D9
:0A099A00100908E6B511047401808D
:0109A4000151
:0109A500E46D
:0709A600D0047003020B5F97
:0B09AD00A8130886F005F0740180021A
:0209B80025E038
:0909BA00D5F0FBFABC81028003B8
:0309C300020AD055
:0C09C600901DF2E493FBA8130886F005D6
:0409D200F0EB8002C4
:0209D600C31349
:0B09D800D5F0FB20E005EA4208800596
:0509E300EAF4FB5208DC
:0C09E800A81308740C26F582C00474816A
:0B09F400C0E0120BA31581120DD2A869
:0C09FF001308E675F005A4FBE4C0E0C09E
:0E0A0B0003758200120DDA15811581120DD6C9
:0C0A1900D004901DEAE493FBA8130886AB
:060A2500F005F0EB800279
:020A2B00C313F3
:0D0A2D00D5F0FBFD74015DFBBB01028003F1
:030A3A00020B2587
:0C0A3D00A8130886057E000DBD00010E08
:0E0A4900EEA2E713CD13CD74F92D901D00938E
:0C0A5700FDA81308740156FEBE010553F3
:040A6300050F8008F3
:080A670074F05DFEC4540FFDA4
:0C0A6F00A8130874E226901D0093FE708E
:040A7B0003020B2542
:060A7F00EB7003020B25E1
:0C0A85007B008DF005F0AD06AF0380068D
:060A9100ED2DFDEF33FF27
:0C0A9700D5F0F7EF3395E0FBFEE50E2DE7
:0A0AA300FDE50F3FFFE5103BFBE50A
:0C0AAD00113EFEC004C005C007C003C01D
:0B0AB900067480C0E0A81308868212BB
:0C0AC4001585E58124FBF581D0048055E8
:0C0AD000901DF2E493FBA8130886F005CB
:040ADC00F0EB8002B9
:020AE000C3133E
:0C0AE200D5F0FB20E007EAF4FB5208808E
:010AEE000304
:030AEF00EA4208D0
:0C0AF200A81308740C26F582C004748060
:0B0AFE00C0E0120BA31581120DD2A85E
:0C0B09001308E675F005A4FAE4C0E0C093
:0E0B150002758200120DDA15811581120DD6BF
:020B2300D004FC
:0C0B2500850882C004120B6FD00453043A
:0C0B31003F7A00C002C004C004C002A84B
:0C0B3D001308868212174115811581D023
:0C0B490004D002A81308740C26F582C02A
:0A0B550004C002121741158115813A
:070B5F00A813080602086A52
:090B660075D161851381D01322C1
:0E0B6F00AA82758C00D2928A80C002120DD22A
:0E0B7D007429C0E0758200120DDA1581158111
:0E0B8B00120DD6C28EC28F758DA0758B00D252
:010B99008ECD
:090B9A00308FFDC28E758CC02263
:0A0BA300C013858113AA82C002125C
:0D0BAD001480AB82AC83D002EB4C6053751A
:040BBA0022BC853C98
:030BBE0023853B51
:060BC100248C058D258B3C
:050BC700267527D17521
:0C0BCC002800EA24F4FA901DF3E493FBE7
:070BD8008AF005F0EB80023A
:020BDF00C3133E
:0C0BE100D5F0FBFA74015AFB7007A81352
:050BED0018181886290C
:0C0BF200BB0110A813181818B680057578
:040BFE0029818003C6
:030C0200752980D1
:070C0500C2AA12119BD2AA42
:030C0C00D01322E0
:0C0C0F00C2AAC2AB90017C120E19C208F0
:020C1B00C20015
:0C0C1D00308FFD900168C021120E19D02C
:070C290021A29492097A0553
:090C3000A29482099209DAF8A2EB
:080C390009E433FA300902D28C
:010C410008AA
:020C42007B0134
:030C4400BB0800EA
:020C4700503F1C
:0C0C4900308FFD90015EC002C003C0218E
:0C0C5500120E19D021D003D002A29492FC
:030C6100097C0506
:090C6400A29482099209DCF8A2B5
:0B0C6D0009E433FC8BF005F0EC800282
:020C780025E075
:0A0C7A00D5F0FBFC4202300902B283
:010C84000867
:030C85000B80BC25
:0B0C8800308FFDC28EA29492097B0504
:090C9300A29482099209DBF8A287
:050C9C0009200801B36E
:040CA1005002D2002B
:030CA5008A82221E
:0C0CA800C021C0E0C0F0C082C083C002C8
:0E0CB400C003C004C005C006C007C000C001D8
:0E0CC200C0D075D000C28EC2AAC2AB120C0FF9
:0E0CD000AA829000C8C002120DFC90054612C8
:080CDE000E19D002300021E5DF
:0C0CE60039700974F05AFBBBC002800793
:070CF200E5392422F8A602F7
:060CF900E5397002F53A36
:070CFF00EA623A0539800AA0
:0A0D0600753900C28EC28F753A00E5
:0C0D1000D2ABC28BD2AAD201D0D0D0014D
:0E0D1C00D000D007D006D005D004D003D002FE
:0B0D2A00D083D082D0F0D0E0D0213286
:090D3500AA82D208C209D29690EC
:0A0D3E00005FC002C021120DFCD0BE
:070D480021D002C2967B00DE
:030D4F00BB0800DE
:0C0D5200505C9000D7C002C003C021120A
:0C0D5E000E19D021D003D0028BF005F05C
:030D6A00EA80021A
:020D6D00C313AE
:0C0D6F00D5F0FB5401FCBC0104C20A805A
:010D7B000275
:020D7C00D20A99
:0C0D7E00308FFDA20A9296900064C00223
:080D8A00C003C021120E19D0B4
:090D920021D003D002200A0BB2AB
:030D9B00087C05CC
:050D9E00209402D209BF
:020DA300DCF979
:030DA5002009081A
:080DA800308FFDC2960B809F05
:090DB00020091A9000D4C02112A0
:050DB9000DFCD021A299
:090DBE0008929690005FC021121A
:060DC7000DFCD021C296D4
:050DCD00C28EA2092204
:040DD20075E40022A2
:040DD60075E4682236
:0A0DDA00C013858113E582FA24FEA0
:0C0DE4004013741C2AF5E7A81318181817
:090DF00086E6E51324FCF886E513
:030DF900D01322F2
:0E0DFC00AA82AB83C28E74FFC39AFA74FF9B67
:090E0A00FB8B8D8A8BC28FD28E06
:060E1300308FFDC28E22AB
:0E0E1900AA82AB83C28E74FFC39AFA74FF9B49
:0A0E2700FB8B8D8A8BC28FD28E22C6
:0E0E310075950075911475924CC296758912D4
:0E0E3F00758F01758CC043A210C2A9D28CC25F
:0C0E4D008E75D21D75D34075D161C201B5
:0E0E590075A80075E800D2AFC2A8D2AA75B87D
:0D0E67000C75B70C75F80075F700D28A22E3
:0400000002002332A5
:01000B0032C2
:03001300020CA834
:03001B00021007C9
:03007C0002001E61
:05001E00120FDC80FE62
:0C0E74007584007585FF901C29E493F53F
:090E800008901DF6E493FA7B00D2
:0E0E8900EB24FC4045EB75F002A4FCADF08CB0
:060E9700F005F0EA800204
:020E9D00C3137D
:0E0E9F00D5F0FBFC530403BC01148BF005F0EE
:040EAD00740180024A
:020EB10025E03A
:0A0EB300D5F0FBFD74FFC39D52084B
:0B0EBD00BC02108BF005F074018002F5
:020EC80025E023
:060ECA00D5F0FBFD42081B
:030ED0000B80B6DE
:080ED300901DF7E493FA7B0087
:0E0EDB00EB24FC404CEB75F002A4FDAEF08D54
:060EE900F005F0EA8002B2
:020EEF00C3132B
:0E0EF100D5F0FBFD74035DFCBC011774042BEF
:080EFF00F5F005F0740180021A
:020F070025E0E3
:0A0F0900D5F0FBFD74FFC39D5208F4
:0E0F1300BC021374042BF5F005F0740180028B
:020F210025E0C9
:060F2300D5F0FBFC4208C2
:030F29000B80AF8B
:070F2C00850882120B6F75AE
:070F330012FF750A00E4F54E
:040F3A000CF50EF5AF
:040F3E000FF510F5A6
:040F420011F50D7523
:0C0F46000900120DD2E4C0E07403C0E00A
:0E0F5200758201120DDA158115817404C0E05C
:0E0F60007404C0E0758201120DDA158115814E
:0E0F6E007420C0E07405C0E0758201120DDA37
:0E0F7C00158115817460C0E07406C0E07582B6
:0E0F8A0001120DDA158115817401C0E07407A3
:0E0F9800C0E0758201120DDA15811581E4C0EA
:0E0FA600E0740CC0E0758201120DDA158115A1
:0D0FB4008174FFC0E0740DC0E07582011271
:0E0FC1000DDA15811581749AC0E07412C0E03B
:0D0FCF00758201120DDA15811581020DD613
:070FDC00120E311217F3128F
:020FE3000E748A
:090FE500748025D150031208406C
:070FEE00D2972097097A64F5
:020FF500DAFE22
:050FF7003097FDB2027D
:070FFC00A202B392977A6490
:04100300DAFE80DEB3
:0C100700C021C0E0C0F0C082C083C00265
:0E101300C003C004C005C006C007C000C00175
:0D102100C0D075D000C2AAC2AB9012DE1282
:09102E000E1974FFB53A028003AB
:031037000211386B
:05103A003004068539B9
:04103F004102113821
:0A104300740F5527FA74805527FB3F
:0A104D00E525FC7030E526702C202C
:05105700020302113844
:0A105C00BA030CE528700874C0B553
:051066002903121390A4
:07106B007401B528028003A7
:0310720002113830
:07107500E5296003021138B8
:06107C001213BC02113842
:06108200EB600302111FE8
:06108800ECB53C02800300
:03108E0002113814
:07109100E53BB526028003D8
:031098000211380A
:0B109B0074C35528FBBB420F74C05506
:0C10A60029FBBB8007C002121316D00209
:0C10B200EA702774C05528FBBBC007C0C3
:0610BE000212124FD002E5
:0C10C4007480B52807C002121258D00238
:0C10D0007481B52807C00212126AD00219
:0C10DC00BA012A74035528FBBB031274F0
:0A10E80080B5290DC002120E31126E
:0710F20017F3120E74D00287
:0A10F9007443B5280BE5297007C009
:061103000212129FD0024F
:0C110900BA032C74C35528FBBB4224E53C
:0A1115002954C0701E1212BA80198E
:0A111F00BA0116E528701274C055DD
:0811290029FABA800312007FCD
:07113100E52970031213DA37
:0A113800753900C28BD2AA2004050D
:05114200C28E753A00A9
:0E114700D0D0D001D000D007D006D005D00403
:0D115500D003D002D083D082D0F0D0E0D003
:02116200213238
:06116400C2087A007B00C6
:0A116A003094070ABA001C0B80192C
:0C117400C002C003C021120C0FAC82D0DE
:0A11800021D003D002BCCC053000E2
:03118A0002D20886
:0C118D00C3EA94B8EB6480948B40D2A2BB
:0211990008222A
:09119B00C01385811305817A005F
:0A11A4007B00A81308740F5527F60E
:0E11AE0090495CC002C003120E19D003D0029B
:0E11BC00208F132094FA90495CC002C00312E9
:0811CA000E19D003D00280EAE7
:0411D200C28E7D004C
:0C11D600C002A8130886067F0074062ED5
:0E11E200FEE43FFF8D027C00C3EE9AEF6480B6
:0D11F0008CF063F08095F0D002402DED24CE
:0B11FD0022F88682C002C003C0051269
:0C1208000D35D005D003ED2422F8E6627D
:0E121400039004CEC003C005120DFCD005D01F
:0612220003D0020D80AEB6
:0E122800EBF4F582C002120D35121164D002F3
:0412360050027A03E5
:0A123A000A74DF5522F522EA24FCB5
:0512440040030211A4AB
:06124900851381D0132281
:09124F00308FFD7582CC020D35D3
:0612580020030ED2038505
:03125E00233E85A7
:03126100243F1215
:05126400124F7540016E
:011269002262
:06126A00E523B53E0CE592
:0512700024B53F07104A
:0312750003012250
:03127800754001BD
:01127B002250
:06127C007522B0AA238ACE
:0412820025AA248AEB
:0312860026853C7E
:0312890023853B7F
:07128C002475276074C045C2
:0812930028FA8A2874FE5AF5BE
:04129B002802119B79
:07129F0012124F12127C75C0
:0612A60022B075276375FC
:0612AC002843752940757E
:0612B2002A00752B120258
:0212B800119B88
:0812BA0012124FAA29C0021212
:0612C200127CD0027B004B
:0C12C800C3EB9A5027E52A7011740A2B22
:0712D4002422F8EB252B900A
:0712DB001C0093FCF6800FDC
:0A12E200740A2B2422F8EB252B9050
:0512EC001D0093FCF65B
:0312F1000B80D49B
:0912F4007522B074632AF527E5A8
:0A12FD0040254025E0FB74424BF54C
:071307002874404AF5291289
:05130E00119B05405396
:03131300400F2266
:0B13160012124F740F5529FAC002128A
:09132100127C120DD2D0027B00F7
:0C132A00C3EB9A505E740A2B2422F88654
:0C13360004EB252BFDC002C003C004C066
:0C13420005852A82120DDA15811581D074
:0C134E0003D002AC2B7D008B067F00EE6C
:0E135A002CFCEF3D53043F7D00BC3F24BD0042
:0A136800218A047D001CBCFF011D5A
:0A137200EEB50406EFB50502800E8B
:0E137C00C002C003120DD6120DD2D003D00253
:03138A000B809D38
:03138D00020DD678
:04139000852A3C85E9
:031394002B3B12DE
:0C1397000DD2C03C7417C0E0758201123A
:0C13A3000DDA15811581C03B7418C0E004
:0D13AF00758201120DDA15811581020DD62F
:0713BC0012124F7522B085EB
:0313C3003C238543
:0313C6003B247550
:0613C900250075260075E9
:0613CF0027E175280175FD
:0513D500294002119BFC
:0613DA00852582C02612E9
:0A13E0001510AA821581BAFF012240
:0E13EA00C00212124FD0028A82C0021216B147
:0E13F800AB82AC83D0028A82C002C003C00464
:0E140600121465AD82D004D003D00274085DCC
:0C141400FEBE084C530504BD04467522C2
:05142000BC853C2385A2
:0A1425003B248A82C002C003C00409
:0E142F0012171BAD82D004D003D002ED24F9B9
:0E143D0040228A82C003C004121480AA82AD2D
:0A144B0083D004D0038D068E258A9D
:05145500267527E1757A
:07145A00280074402BF52966
:0314610002119BDA
:011464002265
:0E146500AA82901D12E493FB0B0B0BEA75F0AC
:0C14730003A42BF58275831DE493F58221
:01147F00224A
:0E148000AA827B00901D11E493FC2402FDEA79
:0E148E002AFE2D901D0093FDB50209EC042EE0
:06149C00901D0093FAFB15
:0514A200BBFE02801FEB
:0E14A700EB2BFB2417901D0093FA74182B906A
:0E14B5001D0093FB7C008A05E42BFBED3CFC44
:0314C300FA8004A8
:0414C6007B007A002D
:0514CA008B828A8322E1
:0814CF00C013858113AA82906D
:0B14D7001D16E493FB7CFF602B7D01E1
:0E14E200C3EB9D4024ED2DFE2417901D0093BA
:0E14F000FFEAB5071374182E901D0093FEA896
:0A14FE0013181818E6B506028D0455
:031508000D80D77C
:05150B008C82D01322C8
:0A151000C0138581130581AA827BB8
:0C151A00FFC003A813181818E6C0E08AF0
:0E152600821214CFAA821581D003901D11E409
:0B15340093FCF58275831DE493FDA875
:09153F001308A605BAFF0280356D
:0715480074022CFE0C7F0071
:0C154F00BBFF2BA81308C3EF965023C06D
:0E155B0006EF2FFD2C901D0093FEEAB506044E
:041569007401800188
:01156D00E499
:0C156E00D0066008ED2E901D0093FDFBE0
:03157A000F80D20D
:08157D008B82851381D013223B
:0A158500C013858113AA82C2AAC018
:0E158F0002120DD2D002EA75F005A4FAC002D5
:0C159D00A813181818E6C0E0C002758200
:0C15A90000120DDA15811581D002E51347
:0E15B50024F9F80808088603EA04FCC002C006
:0E15C30003C004758200120DDA15811581D067
:0C15D10002E51324F9F8080886037402F0
:0E15DD002AFCC002C003C004758200120DDAA1
:0C15EB0015811581D002E51324F9F808E1
:0E15F700860374032AFCC002C003C004758280
:0C16050000120DDA15811581D002E513EA
:0E16110024F9F88603EA2404FAC003C0027527
:0E161F008200120DDA15811581120DD6D2AAA5
:03162D00D01322B5
:0E163000AA82C2AAC002120DD2D002EA75F040
:0E163E0005A4FAC002E4C0E0C00275820012EA
:0E164C000DDA15811581D002EA04FBC002E41C
:0E165A00C0E0C003758200120DDA1581158103
:0E166800D00274022AFBC002E4C0E0C0037589
:0E1676008200120DDA15811581D00274032A4C
:0E168400FBC002E4C0E0C003758200120DDA64
:0E16920015811581D002EA2404FAE4C0E0C0FC
:0E16A00002758200120DDA15811581120DD629
:0316AE00D2AA229B
:0D16B100AA827BFF7CFFEA75F003A4FD9088
:0E16BE001D12E493FEC39A404FED2EFA240253
:0E16CC00901D0093FF74042A901D0093FABA3B
:0216DA00080006
:0C16DC00500B8F8275831CE493FAFB7C9A
:0116E8000001
:0A16E900ED2E2404F582E4341DF513
:0C16F30083E493FABA081C8F8275831CF4
:0E16FF00E493FD7A00EF04901C0093FE7F0040
:09170D002AFAEF3DFD8A038D0468
:051716008B828C832290
:0E171B00AA827BFFEA75F003A4FC901D12E485
:0C17290093FDC39A400FEC2D2404F582C0
:09173500E4341DF583E493FAFB92
:03173E008B822279
:08174100C013858113AA82C2C6
:0C17490008EA75F003A4FB901D12E49365
:08175500FCC39A50030217EED9
:0E175D00EB2CFA2402901D0093FD74042A90D8
:07176B001D0093FABA08000B
:0E177200502DC003C004C005120DD2D005E5F5
:0C1780001324FCF88602C005C002C0055E
:0E178C00758200120DDA15811581120DD6D06E
:07179A0005D004D003D208C2
:0A17A100EB2C2404F582E4341DF55E
:0E17AB0083E493FABA083CC005120DD2D005B3
:0C17B900E51324FCF8088602C005C002FD
:0E17C500C005758200120DDA15811581D00560
:0C17D300E51324FCF886020DC002C005DE
:0E17DF00758200120DDA15811581120DD6D219
:0117ED0008F3
:0517EE00A208D0132247
:0817F300901D17E493F53C90F2
:0717FB001D18E493F53BC249
:0518020002754001C267
:051807000375390075B6
:05180C004100C20422AE
:06005200E478FFF6D8FD82
:080030007900E94400601B7A2D
:0500380000901815788E
:03003D000075A0AB
:0A00400000E493F2A308B8000205E3
:08004A00A0D9F4DAF275A0FF61
:080058007800E84400600A7919
:030060000075A088
:0600630000E4F309D8FCE3
:080069007800E84400600C7906
:0B00710000900000E4F0A3D8FCD9FAD6
:03002300758141A3
:0A002600121811E582600302001EAB
:0418110075820022BA
:00000001FF
