:0E007F00AA82C2AA8A82C002120214E582D0AE
:06008D00027003020144B1
:0E0093008A82C002120210AB82D002BB0002B1
:0200A1008008D5
:0500A300BB01028071A9
:0300A8000201440E
:0800AB008AF005F0E50880026F
:0200B300C31375
:0C00B500D5F0FB20E0358AF005F0E509ED
:0200C1008002BB
:0200C300C31365
:0E00C500D5F0FB5401FBBB0122C002C0027546
:0E00D30082011201521581D00274082AFBC06E
:0E00E10002C0037582011201521581D0028007
:0100EF0020F0
:0E00F000C002C0027582001201521581D002BA
:0E00FE0074082AFBC002C00375820012015272
:04010C001581D00287
:090110008A82C002120149D002EA
:0E0119008A82C00212014AAB82D002EB24FBA4
:09012700401BEB2B2B90013073FF
:0701300002013F020144023D
:0601370001440201440234
:02013D0001447B
:05013F008A8212014E4E
:05014400C28BD2AA22CB
:010149002293
:04014A007582012297
:04014E007582012293
:08015200C010858110AA82A8EB
:0C015A001018181874075625E025E02442
:0E016600D7901D0093FBBA010CEB0303543F2E
:07017400FA74035AFB80033B
:03017B0053030328
:06017E00EB700302020D0C
:0C018400A8101818188682C003120B780F
:0C019000AA82AC83D003EA4C6073752295
:0A019C00BC901D17E493FD8D239025
:0A01A6001D18E493FD8D248C058DD7
:0401B000258A267501
:0901B40027D1752800BB01037579
:0201BD00298196
:0601BF00BB02037529805C
:0C01C500BB0340A81018181886F005F0C5
:0601D1007A017B008006AC
:0601D700EA2AFAEB33FBFB
:0A01DD00D5F0F7EA550AFCEB550BCC
:0C01E700FD4C601475298074FFC39AFC65
:0A01F30074FF9BFDEC520AED520B65
:0201FD00800977
:0801FF00752981EA420AEB4276
:010207000BEB
:05020800C2AA12087FEC
:03020D00D01022EC
:0402100075820022D1
:0C021400AA82901DD2E493FB601C7C00C9
:0E022000C3EC9B501590006EC002C003C004DA
:0C022E00120357D004D003D0020C80E66D
:08023A008AF005F0E580800266
:02024200C313E4
:0C024400D5F0FB5401FB8AF005F0E50941
:0202500080022A
:02025200C313D4
:0E025400D5F0FB5401FAEBB502047A018002EA
:020262007A0020
:030264008A822269
:0A026700C010858110058105818516
:050271002582C02612E9
:0C0276000BC7AA821581BAFF03020351D6
:0E028200C002120933D002901D11E493FBF567
:0A0290008275831DE493FCA810089A
:09029A00A60474022BFD0B7E008A
:0B02A300A81008C3EE964003020351B0
:0E02AE00C005EE2EFF2B901D0093FDEAB50556
:0502BC00047401800143
:0102C100E458
:0702C200D005700302034D9B
:0E02C900C003EF2D901D0093FFF582C002C010
:0E02D70005C006C007120B5DAB82D007D00633
:0C02E500D005D002530314E4BB14010444
:0702F100D0036058BF1000AC
:0902F8005053A8100808A629A81B
:0C030100100808B68026C0058FF005F03B
:06030D007D017C0080066A
:06031300ED2DFDEC33FCB2
:0E031900D5F0F774FFC39DFD74FF9CFCED5200
:060327000AEC520BD005A8
:0C032D00A8100808B681198FF005F07FB9
:05033900017C008006BC
:06033E00EF2FFFEC33FC81
:09034400D5F0F7EF420AEC420B80
:04034D000E0202A3F7
:06035100851081D010228E
:04035700AA82AB8348
:0E035B00C3E49A74808BF063F08095F0500735
:070369001ABAFFEE1B80EB46
:01037000226A
:0C0371007584FF7585007580FFC204E4F0
:05037D00F50CF50DF583
:040382000EF50F1253
:0D03860005DCE4C0E07403C0E075820112E4
:0E03930005E4158115817404C0E07404C0E017
:0E03A1007582011205E4158115817470C0E0AB
:0E03AF007405C0E07582011205E41581158108
:0E03BD007454C0E07406C0E07582011205E4BD
:0E03CB00158115817402C0E07407C0E07582D0
:0E03D900011205E415811581E4C0E0740CC02A
:0E03E700E07582011205E41581158174FFC0D6
:0E03F500E0740DC0E07582011205E41581155B
:0D040300817484C0E07412C0E075820112A3
:0904100005E4158115810205E0E7
:0C041900C2AAC2AB90017C120623C208EC
:02042500C20013
:0C042700308FFD900168C021120623D028
:0704330021A29492097A0551
:09043A00A29482099209DAF8A2E9
:0804430009E433FA300902D28A
:01044B0008A8
:02044C007B0132
:03044E00BB0800E8
:02045100503F1A
:0C045300308FFD90015EC002C003C0218C
:0C045F00120623D021D003D002A29492F8
:03046B00097C0504
:09046E00A29482099209DCF8A2B3
:0B04770009E433FC8BF005F0EC800280
:0204820025E073
:0A048400D5F0FBFC4202300902B281
:01048E000865
:03048F000B80BC23
:0B049200308FFDC28EA29492097B0502
:09049D00A29482099209DBF8A285
:0504A60009200801B36C
:0404AB005002D20029
:0304AF008A82221C
:0C04B200C021C0E0C0F0C082C083C002C6
:0E04BE00C003C004C005C006C007C000C001D6
:0E04CC00C0D075D000C28EC2AAC2AB120419F5
:0E04DA00AA829000C8C00212060690054612C3
:0804E8000623D002300023E5D9
:0C04F00039700974F05AFBBBC002800791
:0704FC00E5392422F8A602F5
:06050300E5397002F53A33
:09050900EA623A0539D2AB800A1E
:0A051200753900C2ABC28F753A00C4
:0C051C00C28BD2AAD201D0D0D001D000F6
:0E052800D007D006D005D004D003D002D08377
:09053600D082D0F0D0E0D02132D7
:09053F00AA82D208C209D29690EA
:0A054800005FC002C021120606D0B9
:0705520021D002C2967B00DC
:03055900BB0800DC
:0C055C00505C9000D7C002C003C0211208
:0C0568000623D021D003D0028BF005F058
:03057400EA800218
:02057700C313AC
:0C057900D5F0FB5401FCBC0104C20A8058
:010585000273
:02058600D20A97
:0C058800308FFDA20A9296900064C00221
:08059400C003C021120623D0B0
:09059C0021D003D002200A0BB2A9
:0305A500087C05CA
:0505A800209402D209BD
:0205AD00DCF977
:0305AF0020090818
:0805B200308FFDC2960B809F03
:0905BA0020091A9000D4C021129E
:0505C3000606D021A294
:0905C80008929690005FC0211218
:0605D1000606D021C296CF
:0505D700C28EA2092202
:0405DC0075E40022A0
:0405E00075E4682234
:0A05E400C010858110E582FA24FEA4
:0C05EE004013741C2AF5E7A81018181818
:0905FA0086E6E51024FCF886E514
:03060300D01022F2
:0E060600AA82AB83C28E74FFC39AFA74FF9B64
:09061400FB8B8D8A8BC28FD28E04
:06061D00308FFDC28E22A9
:0E062300AA82AB83C28E74FFC39AFA74FF9B47
:0A063100FB8B8D8A8BC28FD28E22C4
:0E063B0075950075911475924CC296758911D3
:0E064900758F00C28CC28E75D20E75D3A0754F
:0C065700D161C20175A80075E800D2AFA7
:0E066300C2A8D2AA75B80C75B70C75F8007550
:05067100F700D28A220F
:0400000002002332A5
:01000B0032C2
:030013000204B232
:03001B000206E1F9
:03007C0002001E61
:05001E0012067680FED1
:0706760012063B120E751283
:05067D0003717508FF88
:06068200858009E508B5C2
:040688000902803CA7
:02068C007A00F2
:03068E00BA0800A7
:0A06910050328AF005F0E5098002FE
:02069B00C31387
:0C069D00D5F0FB5401FB8AF005F0E508E5
:0206A9008002CD
:0206AB00C31377
:0C06AD00D5F0FB5401FCEBB50402800901
:0906B9008A82C00212007FD00207
:0306C2000A80C9E2
:0306C5008509089C
:0706C800D2972097097A6424
:0206CF00DAFE51
:0506D1003097FDB202AC
:0706D600A202B392977A64BF
:0406DD00DAFE80A120
:0C06E100C021C0E0C0F0C082C083C00295
:0E06ED00C003C004C005C006C007C000C001A5
:0D06FB00C0D075D000C2AAC2AB9012DE12B2
:09070800062374FFB53A028003D8
:0307110002081CBF
:050714003004068539E8
:040719003E02081C78
:0A071D00740F5527FA74805527FB6E
:0A072700E525FC7030E526702C205B
:05073100020302081C98
:0A073600BA030CE528700874C0B582
:050740002903120A81EB
:070745007401B528028003D6
:03074C0002081C84
:07074F00E529600302081C0C
:06075600120AA702081CB4
:06075C00EB60030208033C
:0C076200901D17E493FBECB5030280032C
:03076E0002081C62
:0B077100901D18E493FBB526028003E6
:03077C0002081C54
:0B077F0074C35528FBBB420F74C0552B
:0C078A0029FBBB8007C002120A07D00246
:0C079600EA702774C05528FBBBC007C0E8
:0607A20002120933D0022F
:0C07A8007480B52807C00212093FD0027F
:0C07B4007481B52807C002120951D00260
:0C07C000BA012A74035528FBBB03127415
:0A07CC0080B5290DC00212063B1291
:0707D6000E75120371D00241
:0A07DD007443B5280BE5297007C02E
:0607E70002120990D0028D
:0C07ED00BA032C74C35528FBBB4224E562
:0A07F9002954C0701E1209AB8019CC
:0A080300BA0116E528701274C05502
:08080D0029FABA800312026708
:07081500E5297003120ACF70
:0A081C00753900C28BD2AA20040532
:05082600C28E753A00CE
:0E082B00D0D0D001D000D007D006D005D00428
:0D083900D003D002D083D082D0F0D0E0D028
:0208460021325D
:06084800C2087A007B00EB
:0A084E003094070ABA001C0B801951
:0C085800C002C003C021120419AC82D001
:0A08640021D003D002BCCC05300007
:03086E0002D208AB
:0C087100C3EA94B8EB6480948B40D2A2E0
:02087D0008224F
:09087F00C01085811005817A008A
:0A0888007B00A81008740F5527F636
:0E08920090495CC002C003120623D003D002BE
:0E08A000208F132094FA90495CC002C003120E
:0808AE000623D003D00280EA0A
:0408B600C28E7D0071
:0C08BA00C002A8100886067F0074062EFD
:0E08C600FEE43FFF8D027C00C3EE9AEF6480DB
:0D08D4008CF063F08095F0D002402DED24F3
:0B08E10022F88682C002C003C005128E
:0C08EC00053FD005D003ED2422F8E662A1
:0E08F800039004CEC003C005120606D005D042
:0609060003D0020D80AEDB
:0E090C00EBF4F582C00212053F120848D0023B
:04091A0050027A030A
:0A091E000A74DF5522F522EA24FCDA
:050928004003020888F5
:06092D00851081D01022AC
:06093300208F03208EFA64
:060939007582CC02053FAF
:06093F0020030ED2038527
:03094500233B85CC
:03094800243C123A
:05094B000933753D01B8
:010950002284
:06095100E523B53B0CE5B7
:0509570024B53C07106F
:03095C0003012272
:03095F00753D01E2
:010962002272
:060963007522B0AA238AF0
:0409690025AA248A0D
:08096D0026901D17E493FA8A9D
:0809750023901D18E493FA8A97
:07097D002475276074C045DA
:0809840028FA8A2874FE5AF5D6
:04098C002802087FB6
:07099000120933120963751F
:0609970022B07527637514
:06099D0028437529407596
:0609A3002A00752B120270
:0209A900087FC5
:0809AB00120933AA29C002124F
:0609B3000963D0027B0085
:0C09B900C3EB9A5027E52A7011740A2B3A
:0709C5002422F8EB252B9022
:0709CC001C0093FCF6800FF4
:0A09D300740A2B2422F8EB252B9068
:0509DD001D0093FCF673
:0309E2000B80D4B3
:0909E5007522B074632AF527E5C0
:0A09EE003D253D25E0FB74424BF56A
:0709F8002874404AF52912A2
:0509FF00087F053D53D7
:030A04003D0F2281
:0B0A0700120933740F5529FAC00212C7
:090A120009631205DCD0027B002F
:0C0A1B00C3EB9A505E740A2B2422F8866C
:0C0A270004EB252BFDC002C003C004C07E
:0C0A330005852A821205E415811581D08A
:0C0A3F0003D002AC2B7D008B067F00EE84
:0E0A4B002CFCEF3D53043F7D00BC3F24BD005A
:0A0A5900218A047D001CBCFF011D72
:0A0A6300EEB50406EFB50502800EA3
:0E0A6D00C002C0031205E01205DCD003D00267
:030A7B000B809D50
:030A7E000205E08E
:0C0A81001205DCC02A7417C0E075820169
:0C0A8D001205E415811581C02B7418C0FF
:0E0A9900E07582011205E4158115810205E069
:070AA7001209337522B09023
:080AAE001D17E493FA8A23905E
:080AB6001D18E493FA8A24756F
:060ABE00250075260075FD
:060AC40027E17528017511
:050ACA00294002087F35
:060ACF00852582C02612FD
:0A0AD5000C08AA821581BAFF012265
:0E0ADF00C002120933D0028A82C002120CE952
:0E0AED00AB82AC83D0028A82C002C003C00478
:0E0AFB00120B5DAD82D004D003D00253050C67
:0C0B0900BD0C507522BC901D17E493FD3C
:090B15008D23901D18E493FD8D61
:0C0B1E00248A82C002C003C004120D53E0
:0E0B2A00AD82D004D003D002ED24F940228A1F
:0E0B380082C003C004120B78AA82AD83D004E1
:090B4600D0038D068E258A267568
:090B4F0027E175280074402BF524
:010B58002973
:030B590002087F10
:010B5C002276
:0E0B5D00AA82901D12E493FB0B0B0BEA75F0BD
:0C0B6B0003A42BF58275831DE493F58232
:010B7700225B
:0E0B7800AA827BFE901D11E493FC2402FDEA8C
:0E0B86002AFE2D901D0093FDB50209EC042EF1
:060B9400901D0093FAFB26
:050B9A00BBFE02801FFC
:0E0B9F00EB2BFB2417901D0093FA74182B907B
:0E0BAD001D0093FB7C008A05E42BFBED3CFC55
:030BBB00FA8004B9
:040BBE007B007A003E
:050BC2008B828A8322F2
:080BC700C010858110AA829084
:0B0BCF001D16E493FB7CFF602B7D01F2
:0E0BDA00C3EB9D4024ED2DFE2417901D0093CB
:0E0BE800FFEAB5071374182E901D0093FEA8A7
:0A0BF60010181818E6B506028D0469
:030C00000D80D78D
:050C03008C82D01022DC
:0A0C0800C0108581100581AA827BCF
:0C0C1200FFC003A810181818E6C0E08A04
:0E0C1E0082120BC7AA821581D003901D11E42B
:0B0C2C0093FCF58275831DE493FDA886
:090C37001008A605BAFF02803581
:070C400074022CFE0C7F0082
:0C0C4700BBFF2BA81008C3EF965023C081
:0E0C530006EF2FFD2C901D0093FEEAB506045F
:040C61007401800199
:010C6500E4AA
:0C0C6600D0066008ED2E901D0093FDFBF1
:030C72000F80D21E
:080C75008B82851081D0102252
:0A0C7D00C010858110E58225E025F6
:0A0C8700E0FA243FF8A9101919192A
:0A0C9100E7F6EA04243FF8E510241A
:0C0C9B00F9F909098703A60374022A2452
:0A0CA7003FF8E51024F9F90987036E
:0A0CB100A60374032A243FF8E5109F
:0A0CBB0024F9F98702A602D01022E6
:0C0CC500E58225E025E0FA243FF87600E7
:0B0CD100EA04243FF8760074022A2495
:0A0CDC003FF8760074032A243FF865
:030CE60076002273
:0D0CE900AA827BFF7CFFEA75F003A4FD905A
:0E0CF6001D12E493FEC39A404FED2EFA240225
:0E0D0400901D0093FF74042A901D0093FABA0C
:020D12000800D7
:0C0D1400500B8F8275831CE493FAFB7C6B
:010D200000D2
:0A0D2100ED2E2404F582E4341DF5E4
:0C0D2B0083E493FABA081C8F8275831CC5
:0E0D3700E493FD7A00EF04901C0093FE7F0011
:090D45002AFAEF3DFD8A038D043A
:050D4E008B828C832262
:0E0D5300AA827BFFEA75F003A4FC901D12E457
:0C0D610093FDC39A400FEC2D2404F58292
:090D6D00E4341DF583E493FAFB64
:030D76008B82224B
:080D7900C010858110AA82C29E
:0C0D810008EA75F003A4FB901D12E49337
:080D8D00FCC39A5003020E7032
:0E0D9500EB2CFA2402901D0093FD74042A90AA
:070DA3001D0093FABA0800DD
:020DAA005043B4
:0A0DAC00200840C003C004C005C0C9
:050DB600211205DCD054
:0A0DBB0021D005E51024FCF88602A3
:0C0DC500C005C021C002C00575820012EC
:090DD10005E415811581D021C053
:050DDA00211205E0D02C
:0C0DDF0021D005D004D003E5E420E0C1E1
:040DEB00D20880BDED
:0A0DEF00EB2C2404F582E4341DF51A
:0C0DF90083E493FABA0870E51024FCF8BB
:060E0500088602ED04FB6B
:0A0E0B00200862C002C003C005C049
:050E1500211205DCD0F4
:0C0E1A0021D005D003D002C002C003C0EC
:0B0E260005C021C002C005758200124B
:0C0E310005E415811581D021D005D00307
:0C0E3D00E51024FCF88604C003C005C0CA
:0C0E490021C004C0037582001205E415EE
:080E5500811581D021C021129A
:0C0E5D0005E0D021D005D003D002E5E470
:070E690020E09FD208809BEE
:050E7000A208D01022D1
:060E7500C202753D01C23E
:050E7B0003753900754C
:050E80003E00C2042247
:06005200E478FFF6D8FD82
:080030007900E94400601B7A2D
:0500380000900E897824
:03003D000075A0AB
:0A00400000E493F2A308B8000205E3
:08004A00A0D9F4DAF275A0FF61
:080058007800E84400600A7919
:030060000075A088
:0600630000E4F309D8FCE3
:080069007800E84400600C7906
:0B00710000900000E4F0A3D8FCD9FAD6
:030023007581667E
:0A002600120E85E582600302001E41
:040E85007582002250
:00000001FF
