:0E007F00AA82C2AA8A82C002120254E582D06E
:06008D00027003020144B1
:0E0093008A82C002120250AB82D002BB000271
:0200A1008008D5
:0500A300BB01028071A9
:0300A8000201440E
:0800AB008AF005F0E50880026F
:0200B300C31375
:0C00B500D5F0FB20E0358AF005F0E509ED
:0200C1008002BB
:0200C300C31365
:0E00C500D5F0FB5401FBBB0122C002C0027546
:0E00D30082011201521581D00274082AFBC06E
:0E00E10002C0037582011201521581D0028007
:0100EF0020F0
:0E00F000C002C0027582001201521581D002BA
:0E00FE0074082AFBC002C00375820012015272
:04010C001581D00287
:090110008A82C002120149D002EA
:0E0119008A82C00212014AAB82D002EB24FBA4
:09012700401BEB2B2B90013073FF
:0701300002013F020144023D
:0601370001440201440234
:02013D0001447B
:05013F008A8212014E4E
:05014400C28BD2AA22CB
:010149002293
:04014A007582012297
:04014E007582012293
:08015200C014858114AA82A8E3
:0C015A001418181874075625E025E0243E
:0C016600D7901D0093FBA814181818E691
:0E01720024F84014BA010CEB0303543FFC7454
:05018000035CFB801D83
:05018500530303801884
:0E018A00BA010CEB23235403FA74035AFB80D2
:01019800095D
:09019900EBC4540FFA74035AFB85
:0601A200EB700302024DA8
:0C01A800A8141818188682C003120C015D
:0D01B400AA82AC83D003EA4C700302024D16
:0A01C1007522BC901D17E493FD8D1C
:0801CB0023901D18E493FD8D43
:0601D300248C058D258A35
:0501D900267527D17519
:0801DE002800BB010375298113
:0601E600BB020375298035
:0C01EC00BB0340A81418181886F005F09A
:0601F8007A017B00800685
:0601FE00EA2AFAEB33FBD4
:0A020400D5F0F7EA550AFCEB550BA4
:0C020E00FD4C601475298074FFC39AFC3D
:0A021A0074FF9BFDEC520AED520B3D
:0202240080094F
:08022600752981EA420AEB424E
:01022E000BC4
:0C022F00C2AA1209C574015529FA7B000F
:0C023B00C002C003A81418181886821214
:060247000D9015811581E8
:03024D00D01422A8
:040250007582002291
:0C025400AA82901DD2E493FB601C7C0089
:0E026000C3EC9B501590006EC002C003C0049A
:0C026E00120489D004D003D0020C80E6FA
:08027A008AF005F0E580800226
:02028200C313A4
:0C028400D5F0FB5401FB8AF005F0E50901
:020290008002EA
:02029200C31394
:0E029400D5F0FB5401FAEBB502047A018002AA
:0202A2007A00E0
:0302A4008A822229
:0A02A700C0148581140581058185CE
:0502B1002582C02612A9
:0C02B6000C50AA821581BAFF03020391CC
:0E02C200C002120A79D002901D11E493FBF5E0
:0A02D0008275831DE493FCA8140856
:0902DA00A60474022BFD0B7E004A
:0B02E300A81408C3EE9640030203912C
:0E02EE00C005EE2EFF2B901D0093FDEAB50516
:0502FC00047401800103
:01030100E417
:07030200D005700302038D1A
:0E030900C003EF2D901D0093FFF582C002C0CF
:0E03170005C006C007120BE6AB82D007D00669
:0C032500D005D002530314E4BB14010403
:07033100D0036058BF10006B
:090338005053A8140808A629A8D6
:0C034100140808B68026C0058FF005F0F7
:06034D007D017C0080062A
:06035300ED2DFDEC33FC72
:0E035900D5F0F774FFC39DFD74FF9CFCED52C0
:060367000AEC520BD00568
:0C036D00A8140808B681198FF005F07F75
:05037900017C0080067C
:06037E00EF2FFFEC33FC41
:09038400D5F0F7EF420AEC420B40
:04038D000E0202E377
:06039100851481D0142246
:06039700852582C026123C
:0A039D000C91AA821581BAFF01221B
:0E03A700C002120A79D0028A82C002120D062C
:0E03B500AB82AC83D0028A82C002C003C004B7
:0E03C300120BE6AD82D004D003D00253050C1D
:0D03D100BD0C12C003C004C00275820012F2
:0803DE0003E71581158115816B
:0103E60022F4
:0803E700C014858114AA82A84C
:0C03EF00141818188682C002120C01AB12
:0C03FB0082AC83D002EB4C70030204863D
:0A0407007522BC901D17E493FD8DD3
:0804110023901D18E493FD8DFA
:06041900248C058D258BEB
:08041F0026752800EA7005753E
:0404270029408003E5
:03042B00752980B0
:0C042E00A8141818188682120D6CAA82FF
:03043A00BA0600FF
:0A043D00E433FB600E7527E1E514BF
:0904470024FBF8E6FC2529F52947
:0C045000EB7011EA24F8400C7527E2E57F
:08045C001424FBF886038B2A2F
:0A046400BA08167527E3E51424FB1F
:0A046E00F80886028A2AE51424FB30
:05047800F886028A2B4A
:09047D00C2AA1209C5C28BD2AA61
:03048600D014226D
:04048900AA82AB8315
:0E048D00C3E49A74808BF063F08095F0500702
:07049B001ABAFFEE1B80EB13
:0104A2002237
:0C04A3007584FF7585007580FFC204E4BD
:0504AF00F50CF50DF550
:0A04B4000EF50FF5E475E71D75E67F
:0E04BE000375E50075E71D75E60475E5047528
:0E04CC00E71D75E60575E57075E71D75E6061A
:0E04DA0075E55475E71D75E60775E50275E7D3
:0E04E8001D75E60C75E50075E71D75E60D75D2
:0E04F600E5FF75E71D75E61275E58475E4688F
:0105040022D4
:0C050500AA827B007C007D007E007F004D
:0E051100C3EF9A501174CD2BFB741C3CFCE41C
:08051F003DFDE43EFE0F80EA01
:0E052700ECA2E7CB33CB33CB5401FCED2D4CD3
:0E053500FCEEA2E7CD33CD33CD540130E00211
:0205430044FE74
:080545008CD28BD375D1612229
:04054D0075D16022E2
:0C055100C2AAC2AB90017C12073FC20896
:02055D00C200DA
:0C055F00308FFD900168C02112073FD0D2
:07056B0021A29492097A0518
:09057200A29482099209DAF8A2B0
:08057B0009E433FA300902D251
:01058300086F
:020584007B02F8
:05058600BB0002803300
:0C058B00308FFD90015EC002C003C02153
:0C05970012073FD021D003D002A29492A2
:0305A300097C05CB
:0905A600A29482099209DCF830EC
:0505AF000903EB2AFA2C
:0505B400300902B2084D
:0505B900EB2BFB80C8E4
:0B05BE00308FFDC28EA29492097B05D5
:0905C900A29482099209DBF8A258
:0505D20009200801B33F
:0405D7005002D200FC
:0305DB008A8222EF
:0C05DE00C021C0E0C0F0C082C083C00299
:0E05EA00C003C004C005C006C007C000C001A9
:0E05F800C0D075D000C28EC2AAC2AB1205518F
:0E060600AA829000C8C00212070A9005461290
:08061400073FD002300023E58E
:0C061C0039700974F05AFBBBC002800763
:07062800E5392422F8A602C7
:06062F00E5397002F53A06
:09063500EA623A0539D2AB800CEF
:0A063E00753900C2ABC28EC28F7581
:020648003A0076
:0C064A00C28BD2AAD201D0D0D001D000C7
:0E065600D007D006D005D004D003D002D08348
:09066400D082D0F0D0E0D02132A8
:09066D00AA82D208C209D29690BB
:0A067600005FC002C02112070AD085
:0706800021D002C2967B00AD
:03068700BB0800AD
:0C068A00505C9000D7C002C003C02112D9
:0C069600073FD021D003D0028BF005F00C
:0306A200EA8002E9
:0206A500C3137D
:0C06A700D5F0FB5401FCBC0104C20A8029
:0106B3000244
:0206B400D20A68
:0C06B600308FFDA20A9296900064C002F2
:0806C200C003C02112073FD064
:0906CA0021D003D002200A0BB27A
:0306D300087C059B
:0506D600209402D2098E
:0206DB00DCF948
:0306DD00200908E9
:0806E000308FFDC2960B809FD4
:0906E80020091A9000D4C021126F
:0506F100070AD021A260
:0906F60008929690005FC02112E9
:0606FF00070AD021C2969B
:05070500C28EA20922D2
:0E070A00AA82AB83C28E74FFC39AFA74FF9B5F
:09071800FB8B8D8A8BC28FD28EFF
:06072100308FFDC28E22A4
:0E072700AA82AB83C28C74FFC39AFA74FF9B44
:0A073500FB8B8C8A8AC28DD28C22C5
:0E073F00AA82AB83C28E74FFC39AFA74FF9B2A
:0A074D00FB8B8D8A8BC28FD28E22A7
:0E07570075950075911475924CC296758911B6
:0E076500758F00C28CC28E75D20E75D3A07532
:0C077300D161C20175A80075E800D2AF8A
:0E077F00C2A8D2AA75B80C75B70C75F8007533
:05078D00F700D28A22F2
:0400000002002332A5
:01000B0032C2
:030013000205DE05
:03001B000207FDDC
:03007C0002001E61
:05001E0012079280FEB4
:07079200120757120E3E1280
:0507990004A3858008A7
:06079E00858009E508B5A5
:0407A4000902803C8A
:0207A8007A00D5
:0307AA00BA08008A
:0A07AD0050328AF005F0E5098002E1
:0207B700C3136A
:0C07B900D5F0FB5401FB8AF005F0E508C8
:0207C5008002B0
:0207C700C3135A
:0C07C900D5F0FB5401FCEBB504028009E4
:0907D5008A82C00212007FD002EA
:0307DE000A80C9C5
:0307E1008509087F
:0707E400D2972097097A6407
:0207EB00DAFE34
:0507ED003097FDB2028F
:0707F200A202B392977A64A2
:0407F900DAFE80A103
:0C07FD00C021C0E0C0F0C082C083C00278
:0E080900C003C004C005C006C007C000C00187
:0D081700C0D075D000C2AAC2AB9012DE1294
:09082400073F74FFB53A0280039E
:03082D0002095E5F
:050830003004068539CB
:040835001302095E43
:0A083900740F5527FA74805527FB51
:0A084300E525FC7030E526702C203E
:05084D00020302095E38
:0A085200BA030CE528700874C0B565
:05085C002903120BABA3
:070861007401B528028003B9
:0308680002095E24
:07086B00E529600302095EAC
:06087200120BBE02095E3C
:06087800EB6003020938E9
:0C087E00901D17E493FBECB5030280030F
:03088A0002095E02
:0B088D00901D18E493FBB526028003C9
:0308980002095EF4
:0B089B0074C35528FBBB420F74C0550E
:0C08A60029FBBB8007C002120B29D00206
:0C08B200EA704074C05528FBBBC007C0B2
:0608BE0002120A79D002CB
:0908C4007480B52815200312D23E
:0308CD000385237D
:0308D0001085246C
:0908D30011C002120A79D002756D
:0208DC00120107
:0808DE007481B52812E523B571
:0508E600100DE524B532
:0708EB001108100302800355
:0308F2007512017B
:0C08F500BA012A74035528FBBB031274DF
:0A09010080B5290DC002120757123D
:07090B000E3E1204A3D0020E
:0A0912007443B5280BE5297007C0F7
:06091C0002120AB2D00233
:0C092200BA033974C35528FBBB4231E511
:0A092E002954C0702B120ACD802658
:03093800BA010001
:0A093B004013E528700F74C0552921
:0B094500FBBB8007C0021202A7D0021B
:0A095000BA010BE5287007E52970D5
:04095A0003120397EA
:0A095E00753900C28BD2AA200405EF
:05096800C28E753A008B
:0E096D00D0D0D001D000D007D006D005D004E5
:0D097B00D003D002D083D082D0F0D0E0D0E5
:0209880021321A
:06098A007A007B00C208A8
:0A0990003094070ABA00200B801D06
:0C099A00C002C003C021120551AC82D085
:0A09A60021D003D002BCCC093000C0
:0709B00006D2087AB87B0BA8
:0C09B700C3EA94B8EB6480948B40CEA29D
:0209C300082208
:0909C500C01485811405817A003B
:0A09CE007B00A81408740F5527F6EB
:0E09D80090495CC002C00312073FD003D0025A
:0E09E600208F132094FA90495CC002C00312C7
:0809F400073FD003D00280EAA6
:0409FC00C28E7D002A
:0C0A0000C002A8140886067F0074062EB1
:0E0A0C00FEE43FFF8D027C00C3EE9AEF648093
:0D0A1A008CF063F08095F0D002402DED24AB
:0B0A270022F88682C002C003C0051246
:0C0A3200066DD005D003ED2422F8E6622A
:0E0A3E00039004CEC003C00512070AD005D0F5
:060A4C0003D0020D80AE94
:0E0A5200EBF4F582C00212066D12098AD00282
:040A600050027A03C3
:0A0A64000A74DF5522F522EA24FC93
:050A6E0040030209CE67
:060A7300851481D014225D
:060A7900208F03208EFA1D
:060A7F007582CC02066D39
:060A85007522B0AA238ACD
:040A8B0025AA248AEA
:080A8F0026901D17E493FA8A7A
:080A970023901D18E493FA8A74
:070A9F002475276074C045B7
:080AA60028FA8A2874FE5AF5B3
:040AAE00280209C54C
:070AB200120A79120A857592
:060AB90022B075276375F1
:060ABF0028437529407573
:060AC5002A00752B12024D
:020ACB0009C55B
:080ACD00120A79AA29C00212E5
:060AD5000A85D0027B003F
:0C0ADB00C3EB9A5027E52A7011740A2B17
:070AE7002422F8EB252B90FF
:070AEE001C0093FCF6800FD1
:0A0AF500740A2B2422F8EB252B9045
:050AFF001D0093FCF650
:030B04000B80D48F
:090B07007522B074632AF527E59C
:0A0B100012251225E0FB74424BF59C
:070B1A002874404AF529127E
:050B210009C505125397
:030B2600120F2289
:0A0B2900C0148581140581058112B6
:0A0B33000A79740F5529FAC0021266
:0C0B3D000A85D00275E4007401552A24DA
:060B49001CFBAC2B7D003B
:0E0B4F00C3ED9A504E8BE7ED2CF5E6740A2D9F
:0A0B5D002422F886E58C067F00A82C
:0A0B67001408A605087600A814087B
:0E0B7100E62EFE08E63F53063F7F00BE3F2003
:0C0B7F00BF001D8A067F001EBEFF011F84
:0C0B8B00A81408E6B5060708E6B5070246
:020B97008006D6
:060B990075E46875E4003C
:030B9F000D80AD19
:090BA20075E468851481D0142269
:0C0BAB0075E40075E71D75E617852AE566
:070BB700852BE575E46822BF
:070BBE00120A797522B090C4
:080BC5001D17E493FA8A239046
:080BCD001D18E493FA8A247557
:060BD500250075260075E5
:060BDB0027E175280175F9
:050BE10029400209C5D6
:0E0BE600AA82901D12E493FB0B0B0BEA75F034
:0C0BF40003A42BF58275831DE493F582A9
:010C000022D1
:0E0C0100AA827BFE901D11E493FC2402FDEA02
:0E0C0F002AFE2D901D0093FDB50209EC042E67
:060C1D00901D0093FAFB9C
:050C2300BBFE02801F72
:0E0C2800EB2BFB2417901D0093FA74182B90F1
:0E0C36001D0093FB7C008A05E42BFBED3CFCCB
:030C4400FA80042F
:040C47007B007A00B4
:050C4B008B828A832268
:080C5000C014858114AA8290F2
:0B0C58001D16E493FB7CFF602B7D0168
:0E0C6300C3EB9D4024ED2DFE2417901D009341
:0E0C7100FFEAB5071374182E901D0093FEA81D
:0A0C7F0014181818E6B506028D04DB
:030C89000D80D704
:050C8C008C82D014224F
:0A0C9100C0148581140581AA827B3E
:0C0C9B00FFC003A814181818E6C0E08A77
:0E0CA70082120C50AA821581D003901D11E418
:0B0CB50093FCF58275831DE493FDA8FD
:090CC0001408A605BAFF028035F4
:070CC90074022CFE0C7F00F9
:0C0CD000BBFF2BA81408C3EF965023C0F4
:0E0CDC0006EF2FFD2C901D0093FEEAB50604D6
:040CEA007401800110
:010CEE00E421
:0C0CEF00D0066008ED2E901D0093FDFB68
:030CFB000F80D295
:080CFE008B82851481D01422C1
:0D0D0600AA827BFF7CFFEA75F003A4FD903C
:0C0D13001D12E493FE2D2404F582E4344C
:0C0D1F001DF583E493FFC3EE9A403DED08
:0A0D2B002E2402F582E4341DF58346
:060D3500E493FABF080080
:0C0D3B00500B8A8275831CE493FDFB7C46
:010D470000AB
:0C0D4800BF081C8A8275831CE493FE7DAA
:0E0D540000EA04901C0093FA7F002DFDEF3E94
:050D6200FE8D038E046C
:050D67008B828C832249
:0E0D6C00AA827BFF901D12E493FCC39A4013F1
:0C0D7A00EA75F003A42C2404F582E43494
:070D86001DF583E493FAFB65
:030D8D008B822234
:080D9000C014858114AA82C27F
:0C0D980008EA75F003A4FB901D12E49320
:0A0DA400FC2B2404F582E4341DF555
:0C0DAE0083E493FDC3EC9A5003020E395D
:0A0DBA00EB2C2402F582E4341DF551
:070DC40083E493FABD08006F
:020DCB00504195
:0C0DCD0020083E75E40075E71C8AE68DE6
:0E0DD900037C007407C39BFBE49CFC8BF005BD
:050DE700F074FF800222
:020DEC00C3132F
:0C0DEE00D5F0FBFB7C00E51424FCF8E6CB
:0E0DFA00520308E652048BE575E468E5E42038
:060E0800E0C3D20880BF28
:0B0E0E00BD0828E51424FCF80886034A
:0C0E190020081D75E40075E71C8AE68BBC
:0C0E2500E5E51424FCF886E575E468E5BA
:080E3100E420E0E4D20880E0B7
:050E3900A208D0142204
:060E3E00C202751201C2A0
:050E4400037539007583
:050E49001300C20422A9
:06005200E478FFF6D8FD82
:080030007900E94400601B7A2D
:0500380000900E52785B
:03003D000075A0AB
:0A00400000E493F2A308B8000205E3
:08004A00A0D9F4DAF275A0FF61
:080058007800E84400600A7919
:030060000075A088
:0600630000E4F309D8FCE3
:080069007800E84400600C7906
:0B00710000900000E4F0A3D8FCD9FAD6
:0300230075813AAA
:0A002600120E4EE582600302001E78
:040E4E007582002287
:00000001FF
