:0E007F00AA82C2AA8A82C002120238E582D08A
:06008D00027003020144B1
:0E0093008A82C002120234AB82D002BB00028D
:0200A1008008D5
:0500A300BB01028071A9
:0300A8000201440E
:0800AB008AF005F0E50880026F
:0200B300C31375
:0C00B500D5F0FB20E0358AF005F0E509ED
:0200C1008002BB
:0200C300C31365
:0E00C500D5F0FB5401FBBB0122C002C0027546
:0E00D30082011201521581D00274082AFBC06E
:0E00E10002C0037582011201521581D0028007
:0100EF0020F0
:0E00F000C002C0027582001201521581D002BA
:0E00FE0074082AFBC002C00375820012015272
:04010C001581D00287
:090110008A82C002120149D002EA
:0E0119008A82C00212014AAB82D002EB24FBA4
:09012700401BEB2B2B90013073FF
:0701300002013F020144023D
:0601370001440201440234
:02013D0001447B
:05013F008A8212014E4E
:05014400C28BD2AA22CB
:010149002293
:04014A007582012297
:04014E007582012293
:08015200C010858110AA82A8EB
:0C015A001018181874075625E025E02442
:0C016600D7901D0093FBA810181818E695
:0E01720024F84014BA010CEB0303543FFC7454
:05018000035CFB801D83
:05018500530303801884
:0E018A00BA010CEB23235403FA74035AFB80D2
:01019800095D
:09019900EBC4540FFA74035AFB85
:0601A200EB7003020231C4
:0C01A800A8101818188682C003120BE57E
:0C01B400AA82AC83D003EA4C6073752271
:0A01C000BC901D17E493FD8D239001
:0A01CA001D18E493FD8D248C058DB3
:0401D400258A2675DD
:0901D80027D1752800BB01037555
:0201E100298172
:0601E300BB020375298038
:0C01E900BB0340A81018181886F005F0A1
:0601F5007A017B00800688
:0601FB00EA2AFAEB33FBD7
:0A020100D5F0F7EA550AFCEB550BA7
:0C020B00FD4C601475298074FFC39AFC40
:0A02170074FF9BFDEC520AED520B40
:02022100800952
:08022300752981EA420AEB4251
:01022B000BC7
:05022C00C2AA1209A99D
:03023100D01022C8
:0402340075820022AD
:0C023800AA82901DD2E493FB601C7C00A5
:0E024400C3EC9B501590006EC002C003C004B6
:0C02520012046DD004D003D0020C80E632
:08025E008AF005F0E580800242
:02026600C313C0
:0C026800D5F0FB5401FB8AF005F0E5091D
:02027400800206
:02027600C313B0
:0E027800D5F0FB5401FAEBB502047A018002C6
:020286007A00FC
:030288008A822245
:0A028B00C0108581100581058185F2
:050295002582C02612C5
:0C029A000C34AA821581BAFF0302037520
:0E02A600C002120A5DD002901D11E493FBF518
:0A02B4008275831DE493FCA8100876
:0902BE00A60474022BFD0B7E0066
:0B02C700A81008C3EE96400302037568
:0E02D200C005EE2EFF2B901D0093FDEAB50532
:0502E00004740180011F
:0102E500E434
:0702E600D005700302037153
:0E02ED00C003EF2D901D0093FFF582C002C0EC
:0E02FB0005C006C007120BCAAB82D007D006A2
:0C030900D005D002530314E4BB1401041F
:07031500D0036058BF100087
:09031C005053A8100808A629A8F6
:0C032500100808B68026C0058FF005F017
:060331007D017C00800646
:06033700ED2DFDEC33FC8E
:0E033D00D5F0F774FFC39DFD74FF9CFCED52DC
:06034B000AEC520BD00584
:0C035100A8100808B681198FF005F07F95
:05035D00017C00800698
:06036200EF2FFFEC33FC5D
:09036800D5F0F7EF420AEC420B5C
:040371000E0202C7AF
:06037500851081D010226A
:06037B00852582C0261258
:0A0381000C75AA821581BAFF012253
:0E038B00C002120A5DD0028A82C002120CEA81
:0E039900AB82AC83D0028A82C002C003C004D3
:0E03A700120BCAAD82D004D003D00253050C55
:0D03B500BD0C12C003C004C002758200120E
:0803C20003CB158115811581A3
:0103CA002210
:0803CB00C010858110AA82A870
:0C03D300101818188682C002120BE5AB4F
:0C03DF0082AC83D002EB4C700302046A75
:0A03EB007522BC901D17E493FD8DF0
:0803F50023901D18E493FD8D17
:0603FD00248C058D258B08
:0804030026752800EA7005755A
:04040B002940800301
:03040F00752980CC
:0C041200A8101818188682120D50AA823B
:03041E00BA06001B
:0A042100E433FB600E7527E1E510DF
:09042B0024FBF8E6FC2529F52963
:0C043400EB7011EA24F8400C7527E2E59B
:080440001024FBF886038B2A4F
:0A044800BA08167527E3E51024FB3F
:0A045200F80886028A2AE51024FB50
:05045C00F886028A2B66
:09046100C2AA1209A9C28BD2AA99
:03046A00D010228D
:04046D00AA82AB8331
:0E047100C3E49A74808BF063F08095F050071E
:07047F001ABAFFEE1B80EB2F
:010486002253
:0C0487007584FF7585007580FFC204E4D9
:05049300F50CF50DF56C
:0A0498000EF50FF5E475E71D75E69B
:0E04A2000375E50075E71D75E60475E5047544
:0E04B000E71D75E60575E57075E71D75E60636
:0E04BE0075E55475E71D75E60775E50275E7EF
:0E04CC001D75E60C75E50075E71D75E60D75EE
:0E04DA00E5FF75E71D75E61275E58475E468AB
:0104E80022F1
:0C04E900AA827B007C007D007E007F006A
:0E04F500C3EF9A501174CD2BFB741C3CFCE439
:080503003DFDE43EFE0F80EA1D
:0E050B00ECA2E7CB33CB33CB5401FCED2D4CEF
:0E051900FCEEA2E7CD33CD33CD540130E0022D
:0205270044FE90
:080529008CD28BD375D1612245
:0405310075D16022FE
:0C053500C2AAC2AB90017C120723C208CE
:02054100C200F6
:0C054300308FFD900168C021120723D00A
:07054F0021A29492097A0534
:09055600A29482099209DAF8A2CC
:08055F0009E433FA300902D26D
:01056700088B
:020568007B0214
:05056A00BB000280331C
:0C056F00308FFD90015EC002C003C0216F
:0C057B00120723D021D003D002A29492DA
:03058700097C05E7
:09058A00A29482099209DCF83008
:050593000903EB2AFA48
:05059800300902B20869
:05059D00EB2BFB80C800
:0B05A200308FFDC28EA29492097B05F1
:0905AD00A29482099209DBF8A274
:0505B60009200801B35B
:0405BB005002D20018
:0305BF008A82220B
:0C05C200C021C0E0C0F0C082C083C002B5
:0E05CE00C003C004C005C006C007C000C001C5
:0E05DC00C0D075D000C28EC2AAC2AB120535C7
:0E05EA00AA829000C8C0021206EE90054612CA
:0805F8000723D002300023E5C7
:0C06000039700974F05AFBBBC00280077F
:07060C00E5392422F8A602E3
:06061300E5397002F53A22
:09061900EA623A0539D2AB800C0B
:0A062200753900C2ABC28EC28F759D
:02062C003A0092
:0C062E00C28BD2AAD201D0D0D001D000E3
:0E063A00D007D006D005D004D003D002D08364
:09064800D082D0F0D0E0D02132C4
:09065100AA82D208C209D29690D7
:0A065A00005FC002C0211206EED0BE
:0706640021D002C2967B00C9
:03066B00BB0800C9
:0C066E00505C9000D7C002C003C02112F5
:0C067A000723D021D003D0028BF005F044
:03068600EA800205
:02068900C31399
:0C068B00D5F0FB5401FCBC0104C20A8045
:010697000260
:02069800D20A84
:0C069A00308FFDA20A9296900064C0020E
:0806A600C003C021120723D09C
:0906AE0021D003D002200A0BB296
:0306B700087C05B7
:0506BA00209402D209AA
:0206BF00DCF964
:0306C10020090805
:0806C400308FFDC2960B809FF0
:0906CC0020091A9000D4C021128B
:0506D50006EED021A299
:0906DA0008929690005FC0211205
:0606E30006EED021C296D4
:0506E900C28EA20922EF
:0E06EE00AA82AB83C28E74FFC39AFA74FF9B7C
:0906FC00FB8B8D8A8BC28FD28E1C
:06070500308FFDC28E22C0
:0E070B00AA82AB83C28C74FFC39AFA74FF9B60
:0A071900FB8B8C8A8AC28DD28C22E1
:0E072300AA82AB83C28E74FFC39AFA74FF9B46
:0A073100FB8B8D8A8BC28FD28E22C3
:0E073B0075950075911475924CC296758911D2
:0E074900758F00C28CC28E75D20E75D3A0754E
:0C075700D161C20175A80075E800D2AFA6
:0E076300C2A8D2AA75B80C75B70C75F800754F
:05077100F700D28A220E
:0400000002002332A5
:01000B0032C2
:030013000205C221
:03001B000207E1F8
:03007C0002001E61
:05001E0012077680FED0
:0707760012073B120E2212D4
:05077D000487858008DF
:06078200858009E508B5C1
:040788000902803CA6
:02078C007A00F1
:03078E00BA0800A6
:0A07910050328AF005F0E5098002FD
:02079B00C31386
:0C079D00D5F0FB5401FB8AF005F0E508E4
:0207A9008002CC
:0207AB00C31376
:0C07AD00D5F0FB5401FCEBB50402800900
:0907B9008A82C00212007FD00206
:0307C2000A80C9E1
:0307C5008509089B
:0707C800D2972097097A6423
:0207CF00DAFE50
:0507D1003097FDB202AB
:0707D600A202B392977A64BE
:0407DD00DAFE80A11F
:0C07E100C021C0E0C0F0C082C083C00294
:0E07ED00C003C004C005C006C007C000C001A4
:0D07FB00C0D075D000C2AAC2AB9012DE12B1
:09080800072374FFB53A028003D6
:0308110002094297
:050814003004068539E7
:040819003E02094250
:0A081D00740F5527FA74805527FB6D
:0A082700E525FC7030E526702C205A
:05083100020302094270
:0A083600BA030CE528700874C0B581
:050840002903120B8FDB
:070845007401B528028003D5
:03084C000209425C
:07084F00E5296003020942E4
:06085600120BA202094290
:06085C00EB600302091C21
:0C086200901D17E493FBECB5030280032B
:03086E000209423A
:0B087100901D18E493FBB526028003E5
:03087C000209422C
:0B087F0074C35528FBBB420F74C0552A
:0C088A0029FBBB8007C002120B0DD0023E
:0C089600EA704074C05528FBBBC007C0CE
:0608A20002120A5DD00203
:0908A8007480B52815200312D25A
:0308B10003852399
:0308B4003B85245D
:0908B7003CC002120A5DD002757A
:0208C0003D01F8
:0808C2007481B52812E523B58D
:0508CA003B0DE524B523
:0708CF003C08100302800346
:0308D600753D016C
:0C08D900BA012A74035528FBBB031274FB
:0A08E50080B5290DC00212073B1276
:0708EF000E22120487D00263
:0A08F6007443B5280BE5297007C014
:0609000002120A96D0026B
:0C090600BA033974C35528FBBB4231E52D
:0A0912002954C0702B120AB1802690
:03091C00BA01001D
:0A091F004013E528700F74C055293D
:0B092900FBBB8007C00212028BD00253
:0A093400BA010BE5287007E52970F1
:04093E000312037B22
:0A094200753900C28BD2AA2004050B
:05094C00C28E753A00A7
:0E095100D0D0D001D000D007D006D005D00401
:0D095F00D003D002D083D082D0F0D0E0D001
:02096C00213236
:06096E007A007B00C208C4
:0A0974003094070ABA00200B801D22
:0C097E00C002C003C021120535AC82D0BD
:0A098A0021D003D002BCCC093000DC
:0709940006D2087AB87B0BC4
:0C099B00C3EA94B8EB6480948B40CEA2B9
:0209A700082224
:0909A900C01085811005817A005F
:0A09B2007B00A81008740F5527F60B
:0E09BC0090495CC002C003120723D003D00292
:0E09CA00208F132094FA90495CC002C00312E3
:0809D8000723D003D00280EADE
:0409E000C28E7D0046
:0C09E400C002A8100886067F0074062ED2
:0E09F000FEE43FFF8D027C00C3EE9AEF6480B0
:0D09FE008CF063F08095F0D002402DED24C8
:0B0A0B0022F88682C002C003C0051262
:0C0A16000651D005D003ED2422F8E66262
:0E0A2200039004CEC003C0051206EED005D02E
:060A300003D0020D80AEB0
:0E0A3600EBF4F582C00212065112096ED002D6
:040A440050027A03DF
:0A0A48000A74DF5522F522EA24FCAF
:050A520040030209B29F
:060A5700851081D0102281
:060A5D00208F03208EFA39
:060A63007582CC02065171
:060A69007522B0AA238AE9
:040A6F0025AA248A06
:080A730026901D17E493FA8A96
:080A7B0023901D18E493FA8A90
:070A83002475276074C045D3
:080A8A0028FA8A2874FE5AF5CF
:040A9200280209A984
:070A9600120A5D120A6975E6
:060A9D0022B0752763750D
:060AA3002843752940758F
:060AA9002A00752B120269
:020AAF0009A993
:080AB100120A5DAA29C002121D
:060AB9000A69D0027B0077
:0C0ABF00C3EB9A5027E52A7011740A2B33
:070ACB002422F8EB252B901B
:070AD2001C0093FCF6800FED
:0A0AD900740A2B2422F8EB252B9061
:050AE3001D0093FCF66C
:030AE8000B80D4AC
:090AEB007522B074632AF527E5B9
:0A0AF4003D253D25E0FB74424BF563
:070AFE002874404AF529129B
:050B050009A9053D53A4
:030B0A003D0F227A
:0A0B0D00C0108581100581058112DA
:0A0B17000A5D740F5529FAC002129E
:0C0B21000A69D00275E4007401552A2412
:060B2D001CFBAC2B7D0057
:0E0B3300C3ED9A504E8BE7ED2CF5E6740A2DBB
:0A0B41002422F886E58C067F00A848
:0A0B4B001008A605087600A810089F
:0E0B5500E62EFE08E63F53063F7F00BE3F201F
:0C0B6300BF001D8A067F001EBEFF011FA0
:0C0B6F00A81008E6B5060708E6B5070266
:020B7B008006F2
:060B7D0075E46875E40058
:030B83000D80AD35
:090B860075E468851081D010228D
:0C0B8F0075E40075E71D75E617852AE582
:070B9B00852BE575E46822DB
:070BA200120A5D7522B090FC
:080BA9001D17E493FA8A239062
:080BB1001D18E493FA8A247573
:060BB90025007526007501
:060BBF0027E17528017515
:050BC50029400209A90E
:0E0BCA00AA82901D12E493FB0B0B0BEA75F050
:0C0BD80003A42BF58275831DE493F582C5
:010BE40022EE
:0E0BE500AA827BFE901D11E493FC2402FDEA1F
:0E0BF3002AFE2D901D0093FDB50209EC042E84
:060C0100901D0093FAFBB8
:050C0700BBFE02801F8E
:0E0C0C00EB2BFB2417901D0093FA74182B900D
:0E0C1A001D0093FB7C008A05E42BFBED3CFCE7
:030C2800FA80044B
:040C2B007B007A00D0
:050C2F008B828A832284
:080C3400C010858110AA829016
:0B0C3C001D16E493FB7CFF602B7D0184
:0E0C4700C3EB9D4024ED2DFE2417901D00935D
:0E0C5500FFEAB5071374182E901D0093FEA839
:0A0C630010181818E6B506028D04FB
:030C6D000D80D720
:050C70008C82D010226F
:0A0C7500C0108581100581AA827B62
:0C0C7F00FFC003A810181818E6C0E08A97
:0E0C8B0082120C34AA821581D003901D11E450
:0B0C990093FCF58275831DE493FDA819
:090CA4001008A605BAFF02803514
:070CAD0074022CFE0C7F0015
:0C0CB400BBFF2BA81008C3EF965023C014
:0E0CC00006EF2FFD2C901D0093FEEAB50604F2
:040CCE00740180012C
:010CD200E43D
:0C0CD300D0066008ED2E901D0093FDFB84
:030CDF000F80D2B1
:080CE2008B82851081D01022E5
:0D0CEA00AA827BFF7CFFEA75F003A4FD9059
:0C0CF7001D12E493FE2D2404F582E43469
:0C0D03001DF583E493FFC3EE9A403DED24
:0A0D0F002E2402F582E4341DF58362
:060D1900E493FABF08009C
:0C0D1F00500B8A8275831CE493FDFB7C62
:010D2B0000C7
:0C0D2C00BF081C8A8275831CE493FE7DC6
:0E0D380000EA04901C0093FA7F002DFDEF3EB0
:050D4600FE8D038E0488
:050D4B008B828C832265
:0E0D5000AA827BFF901D12E493FCC39A40130D
:0C0D5E00EA75F003A42C2404F582E434B0
:070D6A001DF583E493FAFB81
:030D71008B822250
:080D7400C010858110AA82C2A3
:0C0D7C0008EA75F003A4FB901D12E4933C
:0A0D8800FC2B2404F582E4341DF571
:0C0D920083E493FDC3EC9A5003020E1D95
:0A0D9E00EB2C2402F582E4341DF56D
:070DA80083E493FABD08008B
:020DAF005041B1
:0C0DB10020083E75E40075E71C8AE68D02
:0E0DBD00037C007407C39BFBE49CFC8BF005D9
:050DCB00F074FF80023E
:020DD000C3134B
:0C0DD200D5F0FBFB7C00E51024FCF8E6EB
:0E0DDE00520308E652048BE575E468E5E42054
:060DEC00E0C3D20880BF45
:0B0DF200BD0828E51024FCF80886036B
:0C0DFD0020081D75E40075E71C8AE68BD9
:0C0E0900E5E51024FCF886E575E468E5DA
:080E1500E420E0E4D20880E0D3
:050E1D00A208D0102224
:060E2200C202753D01C291
:050E280003753900759F
:050E2D003E00C204229A
:06005200E478FFF6D8FD82
:080030007900E94400601B7A2D
:0500380000900E367877
:03003D000075A0AB
:0A00400000E493F2A308B8000205E3
:08004A00A0D9F4DAF275A0FF61
:080058007800E84400600A7919
:030060000075A088
:0600630000E4F309D8FCE3
:080069007800E84400600C7906
:0B00710000900000E4F0A3D8FCD9FAD6
:0300230075813EA6
:0A002600120E32E582600302001E94
:040E320075820022A3
:00000001FF
