:0E007F00AA82C2AA8A82C00212021FE582D0A3
:06008D0002700302013ABB
:0E0093008A82C00212021BAB82D002BB0002A6
:0200A1008008D5
:0500A300BB01028067B3
:0300A80002013A18
:0800AB008AF005F0E523800254
:0200B300C31375
:0C00B500D5F0FB20E0308AF005F0E524D7
:0200C1008002BB
:0200C300C31365
:0C00C500D5F0FB5401FBBB011D8A2B751C
:0D00D1008201C002120147D00274082AF516
:0C00DE002B758201C002120147D0028085
:0100EA001BFA
:0C00EB008A2B758200C002120147D0026F
:0B00F70074082AF52B758200C002126D
:040102000147D002DF
:090106008A82C00212013ED002FF
:0E010F008A82C00212013FAB82D002EB24FBB9
:09011D00401BEB2B2B9001267313
:0701260002013502013A025B
:06012D00013A02013A0252
:02013300013A8F
:050135008A8212014363
:03013A00D2AA2224
:01013D00229F
:01013E00229E
:04013F0075820122A2
:04014300758201229E
:0C014700AA827407552B75F005A424D77C
:0E015300901D0093FBBA010CEB0303543FFA1E
:0601610074035AFB800349
:030167005303033C
:04016A00BB000122B3
:0C016E00852B82C003120FF2AA82AC8322
:09017A00D003BA0004BC0001220C
:050183007540BC855A27
:0301880041855955
:06018B00428C058D438A41
:05019100447545D17525
:080196004600BB01037547811F
:06019E00BB02037547805F
:0A01A400BB032D852BF005F0AA2502
:0801AE00E526FB3392D2800824
:0801B600A2D2EB13FBEA13FADD
:0E01BE00D5F0F55302017B00BA0108BB000525
:0501CC0075478080036F
:0301D100754781EE
:0A01D4007480B54725852BF005F077
:0601DE007A017B0080069F
:0601E400EA2AFAEB33FBEE
:0E01EA00D5F0F774FFC39AFA74FF9BFBEA523C
:0601F80025EB5226801ADF
:0B01FE00852BF005F07A017B008006E5
:06020900EA2AFAEB33FBC8
:09020F00D5F0F7EA4225EB422686
:03021800020DC113
:04021B0075820022C6
:0A021F00901DD2E493FA60187B00F2
:0D022900C3EB9A50119001F4C002C0031203
:090236000B42D003D0020B80EA58
:04023F0075820122A1
:050243008543828544A3
:060248000A12105285822B
:07024E002D74FFB52D012204
:0D025500120E58901D11E493FBF582758385
:0A0262001DE493F52E74022BFD0B32
:03026C00752F00EB
:08026F00C3E52F952E4001228A
:07027700E52F252FFF2B905E
:09027E001D0093FCB52D02800364
:0302870002055518
:0E028A00EF2D901D0093FCF582C003C004C050
:0E02980005120FD7AF82D005D004D003740436
:0702A6005FFABA04028003B5
:0302AD00020555F2
:0802B0008CF005F074018002DE
:0202B80025E03F
:0C02BA00D5F0FBF52C74105FFEBE1002A6
:0202C6008003B3
:0302C80002052309
:0902CB008C067A000EBE00010A47
:0E02D400EAA2E713CE13CEFA74F92E901D00A5
:0E02E20093FF74015CFEBE010553070F8008F8
:0802F00074F05FFEC4540FFF1F
:0702F8007530007531009024
:0C02FF001DEAE493FE8CF005F0EE800296
:02030B00C3131A
:0C030D00D5F0FB5401FEAA47BA80028024
:0103190005DE
:05031A00BA8178803675
:0C031F0074E22C901D0093F5306003BECA
:02032B000123AC
:0D032D00901DF2E493FA8CF005F0EA8002D6
:02033A00C313EB
:0B033C00D5F0FB20E008E52CF4FA529D
:0303470023804BC5
:06034A00E52C4223804572
:050350007531808040C2
:0C03550074DA2C901D0093F5307032BE5D
:0C036100010C75318074E22C901D00939B
:02036D00F53069
:0D036F00901DF2E493FA8CF005F0EA800294
:02037C00C313A9
:0A037E00D5F0FB20E006E52C422339
:02038800800BE8
:08038A00E52CF4FA5223800374
:0303920075319032
:07039500E4B5310302048A04
:06039C00C005853032753A
:0603A20033007534007504
:0803A80035008FF005F080150F
:0503B000E5322532F5E5
:0503B50032E53333F5D1
:0503BA0033E53433F5CA
:0503BF0034E53533F5C3
:0103C4003503
:0803C500D5F0E8E5272532F52B
:0403CD0032E52835B8
:0403D10033F533E5E8
:0403D500293534F59D
:0403D90034E52A35A8
:0A03DD0035F535C003C004C0051259
:0E03E7000B27D005D004D003EC75F005A4FA66
:0603F500E5312CF50B8A36
:0C03FB000A758200C002C003C004C005E7
:0E040700120B2FD005D004D003D002EA04F56A
:030415000A853520
:0C0418000B758200C002C003C004C005C8
:0E042400120B2FD005D004D003D00274022A90
:04043200F50A85340E
:0C0436000B758200C002C003C004C005AA
:0E044200120B2FD005D004D003D00274032A71
:04045000F50A8533F1
:0C0454000B758200C002C003C004C0058C
:0E046000120B2FD005D004D003D00274042A52
:04046E00F50A8532D4
:0B0472000B758200C003C004C005121F
:0D047D000B2F120B2BD005D004D003D0059F
:0C048A00758B00D292852380C003C00453
:09049600C005120B27750A298527
:06049F00230B7582001220
:0E04A5000B2F120B2BD005D004D003C28EC239
:0904B3008F758DA0758B00D28EAF
:0E04BC00308FFDC28E758BC0740C2CFCF58247
:0E04CA00C003C004C005120FD7AF82D005D00A
:0E04D80004D00374045FFABA04418C82C0039E
:0E04E600C005C007120FF2AA82AC83D007D067
:0B04F40005D003BA0005BC0002802404
:0504FF007540BC855AA8
:03050400418559D5
:06050700428C068E438ABF
:05050D00447545E17595
:0C0512004600C003C005C007120DC1D098
:05051E0007D005D00329
:0B052300E547702E530708BF0828753D
:04052E0040BC855AEE
:03053200418559A7
:05053500427545E1756F
:05053A004600E5235519
:08053F002C60057547418003A3
:03054700754740B5
:0B054A00C003C005120DC1D005D00396
:05055500052F02026FFA
:0C055A0075D16075D21D75D3400527E4F3
:06056600B5270C0528B5C5
:05056C0028070529B578
:040571002902052A2C
:03057500753600D8
:09057800E53624F8500302084B9B
:0B058100E53675F005A4FBF5827583DC
:07058C001CE493F537E4B510
:050593003703020846D9
:0A059800EB04901C0093FD8D3875F4
:0605A2003900753A0075F6
:0405A8003B00853A55
:0305AC003F85394F
:0305AF003E85384E
:0805B2003D753C0074022B9022
:0D05BA001C0093F8E4FC3395E0FAFDE82501
:0505C7003CF538EC35A5
:0505CC003DF539EA35A0
:0505D1003EF53AED3596
:0405D6003FF53B852D
:0305DA003A3F8520
:0305DD00393E851F
:0305E000383D752E
:0C05E3003C0074032B901C0093FFE4F814
:0A05EF003395E0F9FAEF253CF538EA
:0705F900E8353DF539E93555
:050600003EF53AEA3569
:040605003FF53BAED4
:040609003AAD39AC21
:0C060D00387A0074042B901C0093FBE46E
:0C061900FF3395E0F8F9EB2AF538EF3CD0
:09062500F539E83DF53AE93EF52E
:04062E003BE527B5CC
:050632003811E528B5B8
:05063700390CE529B5B6
:05063C003A07E52AB5B4
:040641003B028003F5
:0306450002084662
:0C064800740F5537F5F005F074018002C6
:0206540025E09F
:0C065600D5F0FBFA74F05537FBBB9002A6
:02066200800313
:030664000207DEAC
:0C066700901DF2E493FB740F5537F5F082
:0506730005F0EB800220
:02067800C313AA
:0B067A00D5F0FB20E005EA42238005DC
:05068500EAF4FB522322
:0B068A00120B27E53675F005A4FB8B72
:0A0695000A750B00758200C0031205
:08069F000B2F120B2BD003906E
:0C06A7001DEAE493FC8536F005F0EC80C1
:0106B3000244
:0206B400C3136E
:0B06B600D5F0FB5401FCBC01028003E6
:0306C10002081814
:0906C400AD367E000DBD00010EF3
:0E06CD00EEA2E713CD13CD74F92D901D00930E
:0C06DB00FD74015536FEBE010553050FED
:0206E700800889
:0806E90074F05DFEC4540FFD26
:0C06F10074E22536901D0093FEBE00034D
:0306FD00020818D8
:06070000BC000302081812
:0C0706007C007F0078008DF005F0800C76
:0C071200EE2EFEEC33FCEF33FFE833F872
:0A071E00D5F0F1E5272EFEE5283C9A
:0A072800FCE5293FFFE52A38F8C080
:0E07320003C004C006C007C000120B27D00091
:0C074000D007D006D004D003748025360A
:0A074C00F50B8B0A758200C003C094
:0E07560004C006C007C000120B2FD000D00751
:0B076400D006D004D003EB04F50A8897
:0C076F000B758200C003C004C006C00768
:0E077B00C000120B2FD000D007D006D004D043
:0A0789000374022BF50A8F0B758232
:0E07930000C003C004C006C007C000120B2F38
:0E07A100D000D007D006D004D00374032BF58F
:0A07AF000A8C0B758200C003C00421
:0E07B900C006C007C000120B2FD000D007D022
:0B07C70006D004D00374042BF50A8E4A
:0807D2000B758200120B2F12BF
:0407DA000B2B803A2B
:0C07DE00901DF2E493FB740F5537F5F00A
:0507EA0005F0EB8002A8
:0207EF00C31332
:0C07F100D5F0FB20E007EAF4FB52238067
:0107FD0003F8
:0307FE00EA4223A9
:0A080100120B27E53675F005A4F58B
:08080B000A750B007582001252
:050813000B2F120B2B5E
:0C081800758B00D292852380120B27758F
:040824000A298523F5
:080828000B758200120B2F1268
:0E0830000B2BC28EC28F758DA0758B00D28EE1
:08083E00308FFDC28E758BC0E6
:050846000536020578F3
:04084B0075D16122E0
:08084F00901C29E493F52390AD
:070857001DF6E493FA7B009B
:0E085E00EB24FC4041EB75F002A4F5F005F030
:03086C00EA80021D
:02086F00C313B1
:0E087100D5F0FB5403FCBC01148BF005F074B1
:03087F00018002F3
:0208820025E06F
:0A088400D5F0FBFD74FFC39D522365
:0B088E00BC02108BF005F0740180022A
:0208990025E058
:06089B00D5F0FBFD422335
:0308A1000B80BA0F
:0808A400901DF7E493FA7B00BC
:0808AC00EB24FC500302091AC1
:0C08B400EB75F002A4F5F005F0EA8002FC
:0208C000C31360
:0E08C200D5F0FB5403FCBC01288B057E0074AE
:0E08D000042DFDE43E8DF005F07D017E0080DC
:0108DE000613
:0608DF00ED2DFDEE33FEDD
:0D08E500D5F0F774FFC39DFDE49EFEED52BB
:0108F20023E2
:0E08F300BC02208B047D0074042CFCE43D8CC0
:09090100F005F07C017D00800688
:06090A00EC2CFCED33FDB6
:06091000D5F0F7EC4223D4
:040916000B0208AC1C
:08091A00852380AA237B008ADB
:0609220026752500EA2500
:0509280025F525EB356B
:04092D0026F5261273
:060931000B27750A298561
:06093700230B7582001283
:07093D000B2F120B2BE4F558
:0409440027F528F576
:0409480029F52A1251
:06094C000B27750A04757B
:090952000B04758201120B2F75D4
:09095B000A05750B70758201128A
:060964000B2F750A067559
:09096A000B54758201120B2F756C
:090973000A07750B0275820112DE
:06097C000B2F750A0D753A
:090982000BFF758201120B2F75A9
:09098B000A12750B847582011239
:050994000B2F020B2BEC
:0C099900C2AAC2AB90017C120B5FC2042A
:0209A500C2008E
:0C09A700308FFD900168120B5FA294924B
:0309B300027A05C0
:0909B600A29482029202DAF8A276
:0809BF0002E433FA300202B237
:0109C700042B
:0209C8007B01B1
:0309CA00BB080067
:0209CD00503B9D
:0E09CF00308FFD90015EC002C003120B5FD09E
:0909DD0003D002A29492027C05F1
:0909E600A29482029202DCF8A244
:0B09EF0002E433FC8BF005F0EC80020A
:0209FA0025E0F6
:0A09FC00D5F0FBFC4202300202B20B
:010A060004EB
:030A07000B80C0A1
:0B0A0A00308FFDC28EA29492037B058A
:090A1500A29482039203DBF8A213
:050A1E0003200401B3F8
:040A23005002D200AB
:030A27008A82229E
:0C0A2A00C022C0E0C0F0C082C083C00247
:0E0A3600C003C004C005C006C007C000C00158
:0E0A4400C0D075D000C28EC2AAC2AB120999F2
:0D0A5200AA829000C8C002120B42D00230F0
:050A5F000012E5572420
:090A640040F8A602E5577002F506
:010A6D005830
:050A6E00EA6258055783
:0D0A7300900546120B5FD2ABC28BD2AAD207
:0C0A800001D0D0D001D000D007D006D0AB
:0E0A8C0005D004D003D002D083D082D0F0D0A9
:040A9A00E0D0223254
:090A9E00AA82D206C207D296908A
:0D0AA700005FC002120B42D002C2967B001D
:030AB400BB08007C
:0E0AB70050549000D7C002C003120B5FD00352
:090AC500D0028BF005F0EA80027A
:020ACE00C31350
:0C0AD000D5F0FB5401FCBC0104C2058001
:010ADC000217
:020ADD00D20540
:0C0ADF00308FFDA2059296900064C002CA
:0C0AEB00C003120B5FD003D00220050BEB
:040AF700B2067C05C2
:050AFB00209402D20767
:020B0000DCF91E
:030B0200200708C1
:080B0500308FFDC2960B80A7A2
:0A0B0D002007129000D4120B42A240
:0B0B170006929690005F120B42C296FF
:050B2200C28EA20722B3
:040B270075E400224F
:040B2B0075E46822E3
:0D0B2F00E582FA24FE400B741C2AF5E785D0
:050B3C000AE6850BE54F
:010B41002291
:0E0B4200AA82AB83C28E74FFC39AFA74FF9B23
:090B5000FB8B8D8A8BC28FD28EC3
:060B5900308FFDC28E2268
:0E0B5F00AA82AB83C28E74FFC39AFA74FF9B06
:0A0B6D00FB8B8D8A8BC28FD28E2283
:0E0B7700759500759114759244C29675891299
:0E0B8500758F01758BC043A210C2A9D28CC21D
:0C0B93008E75D21D75D34075D161C20172
:0E0B9F0075A80075E800D2AFC2A8D2AA75B83A
:0E0BAD000C75B70C75F80075F700D28A7598B4
:0E0BBB005043BA4043BD0275BF0075BE3043C3
:030BC900BD012249
:0400000002002332A5
:01000B0032C2
:03001300020A2AB4
:03001B00020C4094
:03007C0002001E61
:05001E00120BCC80FE76
:070BCC00120B7712121F1239
:050BD300084F7508FF4A
:090BD800748025D1500312055A66
:060BE100858009E508B55E
:040BE7000902803C43
:020BEB007A008E
:030BED00BA080043
:0A0BF00050328AF005F0E50980029A
:020BFA00C31323
:0C0BFC00D5F0FB5401FB8AF005F0E50881
:020C0800800268
:020C0A00C31312
:0C0C0C00D5F0FB5401FCEBB5040280099C
:090C18008A82C00212007FD002A2
:030C21000A80C97D
:030C240085090837
:070C2700D2972097097A64BF
:020C2E00DAFEEC
:050C30003097FDB20841
:070C3500A208B392977A6454
:040C3C00DAFE8098C4
:0C0C4000C022C0E0C0F0C082C083C0022F
:0E0C4C00C003C004C005C006C007C000C00140
:0D0C5A00C0D075D000C2AAC2AB90127012BB
:090C67000B5F74FFB55802800315
:030C7000020D680A
:0A0C7300740F5545FA74805545FBD7
:0A0C7D00E543FC7030E544702C20C4
:050C87000803020D68E6
:0A0C8C00BA030CE546700874C0B509
:050C96004703120F9559
:070C9B007401B5460280035D
:030CA200020D68D8
:070CA500E5476003020D6842
:060CAC00120FB9020D68F1
:060CB200EB6003020D4F90
:060CB800ECB55A028003B6
:030CBE00020D68BC
:070CC100E559B54402800370
:030CC800020D68B2
:0B0CCB0074C35546FBBB420F74C055BC
:0C0CD60047FBBB8007C002120F22D002B7
:0C0CE200EA702774C05546FBBBC007C079
:060CEE0002120E58D002B4
:0C0CF4007480B54607C002120E64D002E6
:0C0D00007481B54607C002120E76D002C6
:0C0D0C00BA012A74035546FBBB031274A5
:0A0D180080B5470DC002120B7712E0
:070D2200121F12084FD0025E
:0A0D29007443B5460BE5477007C0A0
:060D330002120EABD0021B
:0C0D3900BA032C74C35546FBBB4224E5F2
:0A0D45004754C0701E120EC680193C
:0A0D4F00BA0116E546701274FE5555
:080D590047FABA8003120243BD
:070D6100E547700312013D9C
:0C0D6800755700C28BD2AAC28ED0D0D02A
:0E0D740001D000D007D006D005D004D003D0A7
:0C0D820002D083D082D0F0D0E0D022322A
:060D8E00C20A7A007B009E
:0A0D94003094070ABA00180B80150E
:0E0D9E00C002C003120999AC82D003D002BC7F
:070DAC00CC05300002D20A61
:0C0DB300C3EA94B8EB6480948B40D6A295
:020DBF000A2206
:030DC1007560005A
:090DC4007B00740F5545F55F90AA
:090DCD00495CC003120B5FD00366
:0E0DD600208F0F2094FA90495CC003120B5F2F
:040DE400D00380EECA
:040DE800C28E7D003A
:0C0DEC00AE5F7F0074062EFEE43FFF8D1A
:0E0DF800027C00C3EE9AEF64808CF063F08002
:0C0E060095F0402BED2440F88682C003DC
:0D0E1200C005120A9ED005D003E433ED2484
:0C0E1F0040F8E662039004CEC003C0055A
:0A0E2B00120B42D005D0030D80B772
:0E0E3500EBF4F582120A9EE433120D8E500388
:030E4300756003D4
:070E4600056074DF5540F563
:080E4D0040E56024FC400302B3
:020E55000DC4CA
:010E57002278
:0C0E5800308FFD7582CC120A9EE433221C
:060E640020090ED20985F1
:030E6A00415C8563
:030E6D00425D12D1
:050E70000E58755E0143
:010E7500225A
:060E7600E541B55C0CE54E
:050E7C0042B55D071006
:030E810009012242
:030E8400755E0197
:010E87002248
:060E88007540B0AA418A8A
:040E8E0043AA428AA7
:030E920044855A3A
:030E95004185593B
:070E98004275456074C0457E
:080E9F0046FA8A4674FE5AF57A
:040EA70046020DC131
:070EAB00120E58120E8875AB
:060EB20040B075456375B8
:060EB8004643754740753A
:060EBE0048007549120214
:020EC4000DC15E
:080EC600120E58AA47C00212E7
:060ECE000E88D0027B003B
:0C0ED400C3EB9A5027E5487011740A2BFC
:070EE0002440F8EB254990C6
:070EE7001C0093FCF6800FD4
:0A0EEE00740A2B2440F8EB2549900C
:050EF8001D0093FCF653
:030EFD000B80D493
:090F00007540B074632AF545E563
:0A0F09005E255E25E0FB74424BF507
:070F13004674404AF5471245
:050F1A000DC1055E534E
:030F1F005E0F2240
:0B0F2200120E58740F5547FAC002125F
:090F2D000E88120B27D0027B0094
:0A0F3600C3EB9A5057854882EB2563
:070F400049F50A740A2B2495
:090F470040F8860BC002C0031241
:0C0F50000B2FD003D002AC497D008B06B3
:0E0F5C007F00EE2CFCEF3D53043F7D00BC3FB8
:0D0F6A0024BD00218A047D001CBCFF011D78
:0A0F7700EEB50406EFB50502800E8A
:0E0F8100C002C003120B2B120B27D003D002AC
:030F8F000B80A430
:030F9200020B2B24
:040F950085485A85AC
:030F9900495912A1
:060F9C000B27750A178502
:060FA2005A0B75820112DA
:060FA8000B2F750A1885ED
:060FAE00590B75820112CF
:050FB4000B2F020B2BC6
:070FB900120E587540B085CF
:030FC0005A41850E
:030FC3005942751B
:060FC600430075440075B4
:060FCC0045E175460175C8
:050FD2004740020DC1C3
:0E0FD700AA82901D12E493FB0B0B0BEA75F03F
:0C0FE50003A42BF58275831DE493F582B4
:010FF10022DD
:0E0FF200AA827B00901D11E493FCF5827583AA
:0B1000001DE493FDEC04FE0C0C7F00CF
:0E100B00C3EF9D5016EF2FF82C901D0093F9A7
:0A101900B50207E82E901D0093FBBE
:031023000F80E556
:05102600BBFE02801E6C
:0E102B00EB2BFB2417901D0093FA74182B90EA
:0E1039001D0093FB7C008A05E42BFAED3CFBC6
:02104700800423
:041049007A007B00AE
:05104D008A828B832262
:0E105200AA82901D16E493FB7CFF60257D01B1
:0E106000C3EB9D401EED2DFE2417901D009346
:0E106E00FFEAB5070D74182E901D0093FEB515
:04107C000A028D04D3
:031080000D80DD03
:031083008C82223A
:081086007AFF85610AC0021225
:0E108E001052AB82D002901D11E493FCF5824B
:0B109C0075831DE493FDBBFF02802361
:0710A70074022CFE0C7F0017
:0E10AE00C3EF9D5017EF2FF82C901D0093F903
:0B10BC00EBB50107E82E901D0093FA31
:0310C7000F80E4B3
:0310CA008A8222F5
:0E10CD00AA82C2AAC002120B27D002EA75F056
:0710DB0005A4FA8A0A8562F0
:0C10E2000B758200C002120B2FD002EA36
:0510EE0004F50A85660F
:0C10F3000B758200C002120B2FD002749B
:0610FF00022AF50A8565D6
:0C1105000B758200C002120B2FD0027488
:06111100032AF50A8564C3
:0C1117000B758200C002120B2FD0027476
:06112300042AF50A8563B1
:081129000B758200120B2F125E
:051131000B2BD2AA22E5
:0D113600AA827BFF7CFFEA75F003A4FD9008
:0E1143001D12E493FEC39A4049ED2EFA2402D9
:0E115100901D0093FF74042A901D0093FABABB
:02115F00080086
:0C116100500C8F8275831CE493FA8A0303
:02116D007C0004
:0E116F00ED2E2404901D0093FABA081A8F8208
:0C117D0075831CE493FA8A057A00EF04E5
:0C118900901C0093FE7F002AFBEF3DFC51
:051195008B828C832217
:0B119A00AA82C20BEA75F003A4FB90D0
:0E11A5001D12E493FCC39A406EEB2CFA240258
:0E11B300901D0093FD74042A901D0093FABA5B
:0211C100080024
:0E11C3005023C003C004C005120B27D00585C1
:0311D100670B8D1C
:0A11D4000A758200C005120B2F12ED
:0A11DE000B2BD005D004D003D20B78
:0E11E800EB2C2404901D0093FABA0828C005D1
:0711F600120B27D0058568EC
:0911FD000B8D0A758200C0051279
:091206000B2FD005ED04F50A855B
:06120F00670B758200125E
:061215000B2F120B2BD27F
:01121B000BC7
:03121C00A20B2200
:08121F00901D17E493F55A90AD
:071227001D18E493F559C204
:05122E0008755E01C21D
:051233000975570022BF
:06005200E478FFF6D8FD82
:080030007900E94400601B7A2D
:050038000090123C786D
:03003D000075A0AB
:0A00400000E493F2A308B8000205E3
:08004A00A0D9F4DAF275A0FF61
:0400580075A0007817
:07005C0000E8440060077991
:0600630000E4F309D8FCE3
:080069007800E84400600C7906
:0B00710000900000E4F0A3D8FCD9FAD6
:030023007581687C
:0A002600121238E582600302001E8A
:041238007582002299
:00000001FF
